:020000040800F2
:10400000C8AB002099F4000871E6000873E60008C8
:1040100075E6000877E6000879E600080000000071
:10402000000000000000000000000000A3C1000824
:104030007BE60008000000005DC100087F960008D4
:1040400005F6000809F600080DF6000811F600084C
:1040500015F6000819F600081DF6000821F60008FC
:1040600025F6000829F600082DF6000831F60008AC
:10407000D7E80008BDE80008F5E70008DBE700081E
:1040800035F6000839F600083DF6000841F600084C
:1040900039E7000845F6000849F600084DF6000823
:1040A00051F6000855F6000859F600085DF60008BC
:1040B0007DE6000861F6000827EA000865F60008BA
:1040C00069F600086DF6000871F6000875F600083C
:1040D00079F6000829E8000899E9000809E90008CC
:1040E0007DF6000881F6000885F6000889F60008CC
:1040F0008DF6000891F6000895F6000899F600087C
:104100009DF60008A1F60008A5F60008A9F600082B
:1041100003E70008ADF60008B1F60008B5F60008A0
:10412000B9F60008BDF60008B1E60008C9E60008C7
:1041300062F30F2262F31F42401810F0030308D00D
:10414000C91A1FD3DB0748BF00F8012D28BF20F88C
:10415000022D130030B414461546103928BF20E94B
:104160003C00FAD8490728BF20E90C0048BF40F8B6
:10417000042D890028BF20F8022D48BF00F8012D2A
:1041800030BC7047C91818BF00F8012DCB0728BFF5
:1041900000F8012D704710031F0000001C042108C7
:1041A000D21E08F1031412AA01120001200201021A
:1041B0000304042006060708090204060820F0028A
:1041C0000796AF00080452FF01E3369D1410050066
:1041D000009AA400080140F003164C0000200001E2
:1041E0002002419800082C432F983C21011007021F
:1041F00004010154890020A404525404211B6108C5
:09420000F0031210010020FC641F
:105000005250333432335F4D4220323431323235F4
:1050100030302047323331323030000000000000A1
:105020000000000000000000000000000000000080
:0250300000007E
:1050340080B501F0E0FD002800D000BFDFF8540C7B
:10504400016851F0C041016001BD2DE9F047B4246D
:105054000025DFF8E06B37002A0021003800FFF755
:1050640065F8012030700520307100207071002037
:10507400B0710020F07100203072002070720020A6
:10508400B0720020F0720020307301207073002091
:10509400B0730020F073002030740020707401207D
:1050A400B0740020F074002030750020707500206A
:1050B400B075012086F82800002086F829004FF4F6
:1050C400FA707085002086F82C00DFF8CC0B306372
:1050D4004FF40260B086012086F83C000020A6F858
:1050E4009000C02086F89400A82086F8950001203E
:1050F40086F89600452086F897004FF4FB70A6F8D2
:105104009200FF2086F89C0086F89D0086F89E0099
:10511400002086F89F00C02086F89800A82086F812
:105124009900012086F89A00012086F89B00C0208F
:1051340086F8A200A82086F8A300012086F8A4001F
:10514400C42086F8A50042F21170A6F8A000D6F893
:105154008C0050F00100C6F88C000020A6F8400036
:105164000820A6F842000827DFF8308B16F144091E
:105174003A004146484601F08FFD0820A6F8660033
:105184005FF00809DFF818AB68364A46514630002C
:1051940001F082FDBDE8F0872DE9F04100270026EB
:1051A400DFF8904A2200B4214FF4807001F0C7FD6B
:1051B40005002800C0B200280CD000275FF00008CA
:1051C400B021200001F0D6FED4F8B010884201D0FE
:1051D400002215002200B4214FF4A06001F0AFFDBD
:1051E40007003800C0B200280CD000265FF0000889
:1051F400B021200001F0BEFED4F8B010884201D0E6
:105204000022170057EA0500C0B2002804D1FFF7B6
:105214001CFF00F046F828E02800C0B2012810D195
:105224003800C0B200280CD12200B4214FF48070A1
:1052340001F085FD2200B4214FF4A06001F046FE88
:1052440013E02800C0B200280FD13800C0B20128F2
:105254000BD12200B4214FF4A06001F070FD2200B4
:10526400B4214FF4807001F031FE01F0A7FE45F245
:105274005550DFF8301A0A88824209D14A88637887
:1052840093EA020F04D18A88237893EA020F06D0A6
:105294000880607848802078888001F00DFFBDE8A0
:1052A400F08170B50024DFF88C690020C6F8B000E6
:1052B400B021300001F05EFEC6F8B0003200B42127
:1052C4004FF4807001F002FE05003200B4214FF467
:1052D400A06001F0FBFDC0B270BD2DE9F84F0500E0
:1052E4000E00170000245FF000087E20210089B220
:1052F40039440871641C5520210089B2394408716D
:10530400641C0020210089B239440871641CDFF850
:1053140024090078210089B239440871641C0020F2
:10532400210089B239440871641CB7F806012100D0
:1053340089B239440871641CB7F8060180B2000AC6
:10534400210089B239440871641C1F20210089B2EC
:1053540039440871641C97F80801210089B2394462
:105364000871641C0020210089B239440871641C4E
:10537400300080B2FD281CDB200080B23844067166
:10538400641C300080B2000A210089B239440871DB
:10539400641CB1461FFA89F9AA46200080B2384439
:1053A40010F1040B4A465146584601F075FC341975
:1053B4001FE0B1461FFA89F9AA46200080B238449A
:1053C40010F1040B4A465146584601F065FC341965
:1053D40097F80401210089B239440871641C97F8D4
:1053E4000501210089B239440871641C2000401E63
:1053F400B871210089B2891EB81D01F0BBFD0100FE
:10540400200080B238440171641C20000A0092B26A
:10541400120A03009BB23B441A71401C788080B28C
:10542400BDE8F28F2DE9F84F86B004000D0000238B
:10543400002000210022B4F805603700BFB24FF607
:10544400FF7C674509D03000DFF8E8773F7880B209
:10545400BFB2B84201D0002030E1B4F80300A5F88F
:10546400060100206880E77985F80871002085F836
:105474000401002085F80501A078002804D1B4F8BF
:10548400098014F10B0904E0A078B0F1080814F1C4
:1054940009093800C0B204281CD0202800F08B80F1
:1054A400212800F09680222800F0A180232800F013
:1054B400AC80242800F0B780252800F0C280F028B2
:1054C40000F0CD80F12800F0D880F7280FD0FE2816
:1054D4001BD0E3E0404680B2002807D101202870A9
:1054E4002A0000210020FFF7F8FE6880D6E040463D
:1054F40080B2002808D1012028702A003221DFF868
:10550400700BFFF7EAFE6880C8E0404680B20A28C4
:1055140050DA404680B203284CDB142100220DF1FE
:10552400040A5046FEF702FE99F80000FF280ED147
:1055340040F2FF70039000208DF8050001202870D0
:105544002A0000210020FFF7C8FE68800BE099F8CC
:10555400000010F58070039001208DF805000120F3
:105564006880002028704046401E8DF807009DF892
:105574000700009019F1010A0DF1100B009A514631
:10558400584601F089FB01208DF8040000235FF0E8
:10559400FF3201A9DFF8DC0A006801F080FE002870
:1055A40008D0DFF8D40AFE2180F80811B5F80611F6
:1055B400A0F8061172E0404680B2002808D101200C
:1055C40028702A000521DFF8B40AFFF786FE6880F8
:1055D40064E0404680B2002808D1012028702A00E7
:1055E4000421DFF89C0AFFF778FE688056E0404605
:1055F40080B2002808D1012028702A000521DFF894
:10560400840AFFF76AFE688048E0404680B20028BA
:1056140008D1012028702A000421DFF86C0AFFF762
:105624005CFE68803AE0404680B2002808D1012040
:1056340028702A000121DFF8540AFFF74EFE688023
:105644002CE0404680B2002808D1012028702A00AE
:105654000521DFF8BC0BFFF740FE68801EE04046E2
:1056640080B2002808D10120287002F04AFC2A00E8
:105674000421FFF732FE688010E0404680B204281F
:105684000BD1D9F8000002F0C9FC012028702A00CF
:1056940000210020FFF721FE6880FFE768880028CA
:1056A4000BD1012085F80401042085F805012A00A6
:1056B40000210020FFF711FE6880688807B0BDE86C
:1056C400F08F2DE9F04F85B004000D0016001F0087
:1056D400082100220DF108084046FEF727FD5FF07F
:1056E400000B5FF000080021DFF8480502789442BF
:1056F40005D040F2FF72944201D000206AE040F2EB
:10570400FF7292EA040F02D014F5907903E090F846
:10571400009019F5E0692800C0B2022802D00728D9
:1057240010D055E03000C0B202280AD101208046D2
:1057340000200090002300222900C9B2484600F04E
:10574400E8F945E03000C0B2032840D10020B97820
:105754008DF804109DF804100A292DDA9DF8040030
:1057640002A95A46D2B288541BF1010B8DF800B03D
:105774005FF0050ADFF8F8189DF80420052042437D
:1057840001EB0200049002A89DF8001000EB010B4D
:1057940052460499584601F07FFA9DF800B01BF177
:1057A400050B02A800905B46DBB200222900C9B2B7
:1057B400484600F0AEF908E00020009000230222E1
:1057C4002900C9B2484600F0A4F901208046FFE749
:1057D4004046C0B205B0BDE8F08F2DE9F24F82B06B
:1057E400050016001F00DDF830805FF000099DF809
:1057F400080000280AD002281DD0072822D030280B
:1058040062D0322853D041286BD09CE03000C0B223
:1058140003280FD10024B87840280BD12800C0B247
:1058240000F0ABF9002805D040218170DFF8B81BE7
:105834000968816087E03000C0B2022801D10420E9
:10584400814680E03000C0B208282FD100205FF0EC
:10585400000AB9788DF8001098F8081011F00F01BB
:105864008D4223D19DF8000098F80E1088421DD176
:105874002800C0B200F081F90400002C11D05FF0C0
:10588400050AF81C01909DF800100520414304EB23
:10589400010010F1100B52460199584601F0FCF931
:1058A40002E000208DF80000042081464BE0300027
:1058B400C0B2022807D198F8080010F00F00854202
:1058C40001D1042081463EE03000C0B2022807D155
:1058D40098F8080010F00F00854201D10420814699
:1058E40031E03000C0B208282CD198F8080010F03C
:1058F4000F00854226D10020DFF8384CE17DBA78CC
:1059040091421DD15FF0050AF81C0090E17D05204D
:10591400414304EB010010F11C0B52460099584618
:1059240001F0BAF9E07D401CE075E07DA17D88427C
:1059340006D32088B0F5807F02D14FF40070208018
:1059440004208146FFE74846C0B2BDE8FE8F2DE93A
:10595400FE4F05000E00170098465FF00009300066
:10596400C0B2002804D0012824D040285ED0B5E07D
:105974003800C0B203281CD15FF0000A2800C0B26E
:1059840000F0FBF80400002C07D02570DFF8580A5B
:105994000068A06098F80200E070002000900023E6
:1059A40000223100C9B215F5B07000F0B2F8012040
:1059B400814693E03800C0B2042836D15FF0000A73
:1059C4002800C0B200F0D9F80400002C09D02570DA
:1059D40098F80200607098F80300A070A078E07056
:1059E40017E0DFF80C1C08780E2812DA0A78442035
:1059F400424301EB0200001D0400257098F80200E8
:105A0400607098F80300A070A078E0700878401CDB
:105A1400087000200090002300223100C9B215F55F
:105A2400B07000F076F80120814657E03800C0B22B
:105A3400082852D1002000215FF0000B5A46D2B250
:105A4400424494781BF1010B5A46D2B242449278F4
:105A54008DF804201BF1010BDFF8D8AA22009AF874
:105A64001430D2B29A4238D1002000900023002290
:105A74003100C9B215F5B07000F04BF80120BAF846
:105A84000010082903D0BAF80010022925D18AF899
:105A940018005946C9B2414489788AF819101BF193
:105AA400010B5946C9B2414489788AF81A101BF18E
:105AB400010B5946C9B2414489788AF81B101BF17D
:105AC400010B9AF8181091F0800F03D00421AAF862
:105AD400001002E01021AAF80010FFE74846C0B207
:105AE400BDE8FE8FF0B40400002000255E780F00AE
:105AF400FFB2012F0AD11500EDB2042D05D13500F6
:105B0400EDB2002D01D102252800FFE7C0B2F0BCA0
:105B140070472DE9FC4704000D0016001F0000200B
:105B24000021DFF82C8CC8F8084088F804503A00AB
:105B3400D2B2072A1FDA0800C0B240440573491CD8
:105B44000800C0B240440673491C8DF80010B946E1
:105B54005FFA89F90A9801909DF80000404410F119
:105B64000C0A4A460199504601F096F89DF8001037
:105B7400791888F80310BDE8F387F0B40400002214
:105B840000230020DFF8685A29780E2925DA2978BD
:105B9400002922D000210A0011002E78C9B2B14296
:105BA4000FD226001700FFB244214F4305EB070133
:105BB4000979F6B28E4202D101210B0001E0521C98
:105BC400EAE71900C9B2002907D01600F6B2442149
:105BD4004E4305EB0601091D0800F0BC7047F8B5FB
:105BE40004000D00160000272000C0B210F58070DC
:105BF400B0600120707030203900C9B2314408739C
:105C04007F1C00203900C9B2314408737F1C38005E
:105C1400C0B2304405737F1CF0783818F07000234C
:105C24005FF0FF323100DFF8FC0C006801F037FB55
:105C3400F1BD0000A0880020F8B506000C0000208B
:105C44000021DFF8F0580022EA75EA7DAA753200D7
:105C5400D2B212F58072A26001226270E278D21C84
:105C6400E27000273800C0B2052812DA4120207300
:105C740000206073A77300235FF0FF322100DFF878
:105C8400A40C006801F00BFBA87D401CA8757F1CC8
:105C9400E8E7F1BD0C8B0020A0860100A8F4000801
:105CA400B4F40008F08A00202DE9F04385B0002602
:105CB400142100226C462000FEF738FA4FF4FA64EF
:105CC400DFF870582888002840F0828000270026DA
:105CD4005FF0000800205FF00009DFF8140949466E
:105CE4000278C9B2914243D244214A46D2B24A43CD
:105CF40002449279802A38D14A46D2B24A430244B5
:105D04005279022A0BD14A46D2B201FB02F108446D
:105D140000793100C9B22944C871761C25E04A468D
:105D2400D2B24A4302445279042A0BD14A46D2B22F
:105D340001FB02F1084400793900C9B22944C87151
:105D44007F1C12E04A46D2B24A4302445279012AE5
:105D54000BD14A46D2B201FB02F108440079414614
:105D6400C9B22944087318F1010819F10109B4E70B
:105D74003800C0B201281ED1B819032110FB01F06C
:105D8400E8700020287101202880DFF8C809016824
:105D9400002940F10081DFF8901B8A8809684A6174
:105DA400DFF8881B0A7812F0FE020A70016821F0FD
:105DB40000410160EFE0DFF89C090168002903D489
:105DC400016851F000410160200002F0ADFBE2E007
:105DD4002888012862D1022028802879002808D048
:105DE400022822D013D304283BD023D305284FD034
:105DF40051E00020287500206875002601216A46BC
:105E0400C9B2A8792844C079FFF7E9FEC3E00120AC
:105E1400287500206875002602216A46C9B2A8794F
:105E24002844C079FFF7DBFEB5E04020288000203D
:105E34006875B0E0022028750020687500260121ED
:105E44006A46C9B2E87A2844007BFFF7C8FE0027F7
:105E540004216A46C9B2A8792844C079FFF7BFFE75
:105E640099E00220287501206875002602216A46FF
:105E7400C9B2E87A2844007BFFF7B1FE0027042169
:105E84006A46C9B2A8792844C079FFF7A8FE82E01F
:105E9400402028807FE0002028807CE02888022899
:105EA40006D1DFF844050068E8630820288072E022
:105EB400288808280AD1DFF830050068E96B11F555
:105EC4009671884267D32020288064E028881028AF
:105ED40002D02888202802D1402028805BE028882E
:105EE400402821D128790028042802D9401F04D051
:105EF4000AE02879401C287108E02879401C2871A0
:105F0400E87A401CE87201E0002028802879E978CA
:105F1400884202D2012028803DE0DFF8CC040068EA
:105F2400E8638020288036E02888802809D1DFF8BB
:105F3400B8040068E96B643188422CD300202880BF
:105F440029E0288804280DD16946A8792844C07915
:105F5400FFF772FEDFF890040068E8634FF4807086
:105F6400288018E02888B0F5807F0AD1DFF878040B
:105F74000068E96B643188420DD34FF48060288057
:105F840009E02888B0F5007F05D103F038FB03F061
:105F940057FB1020288005B0BDE8F0832DE9F041BF
:105FA40004000D000026DFF88C750020F875F87DDC
:105FB400B8752000C0B210F58070A8600320E870A6
:105FC4000120687007202873002068730020A873DC
:105FD400DFF8508900235FF0FF322900D8F8000071
:105FE40001F05DF9B87D401CB8750120A873002349
:105FF4005FF0FF322900D8F8000001F050F9B87DB5
:10600400401CB8750220A87300235FF0FF322900FA
:10601400D8F8000001F043F9B87D401CB87503209E
:10602400A87300235FF0FF322900D8F8000001F0C4
:1060340036F9B87D401CB8750420A87300235FF0BE
:10604400FF322900D8F8000001F029F9B87D401C7E
:10605400B8750520A87300235FF0FF322900D8F833
:10606400000001F01CF9B87D401CB875BDE8F08152
:1060740000500008048B0020AC850020A488002078
:10608400A9880020AD880020B2880020B6880020AE
:106094002DE9F14F8CB01421002207AC2000FEF74B
:1060A40045F81421002202AC2000FEF73FF800243A
:1060B400002001900025002600275FF000084FF41F
:1060C4007A7207A9DFF86808006801F0B1FA0128BC
:1060D400F5D10DF11C0999F80C00804619F10C005A
:1060E400060099F80300070040F2FF70D9F8081081
:1060F40090EA010F0AD0D9F80800000900010190C4
:1061040099F8080010F00F00050002E001900198D2
:106114000500002202A9DFF80C08006801F02EFC3B
:106124000198B0F5807F0FD0B0F5907F16D0B0F510
:10613400A07F1FD0B0F5B07F26D0B0F5E06F2DD092
:1061440040F2FF7188422CD133003A00D2B241466A
:10615400C9B22800FFF7B5FA040022E002A80090B3
:1061640033003A00D2B24146C9B22800FFF735FBEA
:10617400040016E033003A00D2B24146C9B2280006
:10618400FFF7E5FB04000CE033003A00D2B24146CD
:10619400C9B22800FFF7A6FC040002E000200400B6
:1061A400FFE72000C0B2012814D1DFF8A4A55046AF
:1061B40000F097FC002882D09AF8040002287FF4AB
:1061C4007EAF142002F0B0F9DFF86807DFF8681733
:1061D400086074E72000C0B204287FF470AF9DF813
:1061E400080001280AD15FF0140ACDF80090DFF806
:1061F4004CB752460099584600F04EFD0023002249
:106204000021DFF83C07006801F049F857E7000077
:10621400B78800202DE9F84785B004001421002236
:106224006D462800FDF782FF0025002615275FF044
:106234006408DFF8F0965FF0FF326946D9F8000091
:1062440001F09CFB0128F4D1EA46504600F049FCD9
:10625400002862D0002005009AF80100012850D1DE
:10626400380002F061F94146DFF8D406006801F015
:10627400A9FA012818D101200500002006009DF884
:10628400000001282DD1DFF8BC06002180F804119C
:10629400002180F80511002300220021DFF8A80660
:1062A400006800F0FCFF1CE0761C3000C0B2072838
:1062B40017DB01200500002006009DF800000128DE
:1062C4000FD1DFF88006012180F80411032180F842
:1062D4000511002300220021DFF86C06006800F09D
:1062E400DEFF2800C0B20028A3D05FF0FF32694669
:1062F400D9F8000001F09CF900289AD1012005008A
:1063040097E75FF0FF326946D9F8000001F090F991
:1063140000288ED1002005008BE70020050088E7C7
:106324002DE9F14F86B01421002201AC2000FDF7C5
:10633400FDFE5FF000086846DFF810160A68026088
:106344000024002542F2107641F28837DFF8A0924B
:1063540099F80000002843D001A8040000208046DA
:10636400404699F80010C0B288421FD24146C9B2D3
:106374004420414309EB0100001D0500A878402892
:1063840008D119480068A968711888420BD3FF2006
:10639400A87008E0A878802805D121002878FFF7A4
:1063A400FDFD4020A87018F10108D9E700206070B5
:1063B40040F2FF70A0605FF00309EA4614F10C0B91
:1063C4004A465146584600F067FC0320E07000231B
:1063D4005FF0FF3201A9DFF84C05006800F05FFFB1
:1063E400380002F0A1F8B1E75C8B002010B504007E
:1063F400FFF75AFCFCE72DE9F843ADF5087D0400EE
:106404004FF48871002244AD2800FDF78FFE4FF44D
:106414008571002201AD2800FDF788FE6425002067
:10642400ADF800000126DFF828755FF0FF3244A9BB
:10643400386801F0A3FA0128F5D1BDF814010B283E
:1064440070DB6A46BDF814110DF58B7003F086F904
:10645400002860D03000C0B2002832D001A944A87E
:10646400BDF800201044801DFEF7DCFFADF80600E7
:106474009DF80400012813D19DF81C028DF80D012C
:1064840000235FF0FF3201A9DFF8C804006800F0C0
:1064940006FF5FF0FF3244A9386801F0C9F8C2E78B
:1064A4009DF804000028BED10020060014275FF0E8
:1064B4000008DFF88894424639004846FDF736FE66
:1064C400B1E72900DFF88004006801F07BF90128B6
:1064D400A9D101200600DFF86C849DF81C0288F81D
:1064E4000901DFF858044246C17889B20C30FEF73E
:1064F400F4FEA8F802005FF0FF3244A9386801F006
:1065040097F800235FF0FF324146DFF84804006843
:1065140000F0C5FE87E75FF0FF3244A9386801F058
:1065240087F880E75FF0FF3244A9386801F080F80B
:1065340079E70000A489002030B5C3B004004FF40B
:10654400857100226D462800FDF7F0FD5FF0FF32F3
:106554006946DFF80004006801F06AF80128F5D103
:106564009DF80901012814D14FF40050DFF8E81315
:10657400086001A8DFF8E4130860BDF80200DFF842
:10658400E0130860DFF8DC03016851F001010160E9
:1065940020E09DF80901052813D12020DFF8B81365
:1065A400086001A8DFF8C0130860BDF80200DFF836
:1065B400BC130860DFF8B803016851F00101016001
:1065C40008E09DF80901042804D1BDF8021001A8CF
:1065D40003F01EFA9DF808010428B7D10A2001F03F
:1065E400A3FFDFF85003DFF850130860AEE70000A4
:1065F400147900202DE9F04104004FF4FA75DFF816
:1066040074630721300003F036FB002826D00022F3
:1066140040F22551300003F0EAFA0721300003F07C
:1066240038FB5FF40030CC490860DFF84C030168A4
:106634004908490001600A2001F076FFC248006859
:1066440001F06AFAC348006801F066FAC0480068BD
:1066540001F062FA5FF4E13003F06CFBC74E0721EE
:10666400300003F051FE00281BD00421300003F059
:106674004BFE002815D00721300003F04FFE0A20FE
:1066840001F052FFAA48006801F046FAA5480068E4
:1066940001F042FAAA48006801F03EFA182000F01E
:1066A40085F9B74E0721300003F0E5FA002819D028
:1066B400002240F22551300003F099FA07213000FE
:1066C40003F0E7FA4FF40070A3490860AD4801688D
:1066D4004908490001600A2001F026FF5FF4E13017
:1066E40003F0DAFEA84E0721300003F0C4FA0028B4
:1066F4002AD0002240F22551300003F078FA072115
:10670400300003F0C6FAA1484021017000218180C5
:106714000021C0F808114FF48076002710F1060814
:106724003A0031004046FDF701FD0A2001F0FCFE6D
:106734005FF4E13003F0DAFE9548006801F0C7FF2A
:106744009449954804F0BAF8280001F0EDFE56E7A4
:106754003C8A00200C8B002078B58DB000240020EA
:106764000490C8251E21002205AE3000FDF7DEFC92
:106774008A4E3078C00740F1C98030684008400034
:106784003060641CE00709D56748818C006A0161A8
:106794006648017851F01001017008E06248818C6C
:1067A400006A41616148017811F0EF0101703068BD
:1067B400002814D5A00709D55B48818800680161C9
:1067C4005A48017851F00101017008E05648818867
:1067D400006841615548017811F0FE01017030688C
:1067E400400014D5600709D54F488189806801614C
:1067F4004E48017851F00201017008E04A4881894D
:10680400806841614948017811F0FD0101703068E8
:10681400800014D5600709D54348818A0069016165
:106824004248017851F00401017008E03E48818A31
:10683400006941613D48017811F0FB01017058483D
:10684400016807291DD1E00709D53748818D806A81
:1068540001613648017851F02001017008E03248A6
:10686400818D806A41613148017811F0DF01017046
:106874003068C0007FF57CAF306830F08050306005
:1068840076E70168042933D13068C0000CD430683D
:1068940050F0805030602448818D806A0161234823
:1068A400017851F0200101701420B4FBF0F100FBD9
:1068B400114000287FF45CAF01F023FB394E310016
:1068C40001F0B9FB7069039030690290F06801909F
:1068D400B068009073683268334905A804F01EFB61
:1068E40005A804F03BFB010005A803F091F83FE77D
:1068F400006806287FF43CAF0B48818D806A4161B3
:106904000A48017811F0DF01017031E702F090F8D4
:106914000490290004A801F096FD306850F00100AD
:10692400306025E7048B00204CF10008C68B002062
:10693400008B00200400FA050CED00E0508A0020D2
:10694400088B0020AC850020348B0020F8F500086B
:106954002C8B0020308B00200400024050000240A9
:106964004800024044000240280002402000024047
:106974001C000240003801405800024000640040FE
:106984000048004030000240004400408082002063
:106994003C8B0020DC880020B88700200C8B002072
:1069A400388B0020248A00202CF3000878B589B0A5
:1069B40004000025042100226E463000FDF7B6FBDA
:1069C4000C21002202AE3000FDF7B0FB0E210022A4
:1069D40005AE3000FDF7AAFB0421002201AE300011
:1069E400FDF7A4FB48208DF8030003208DF8020076
:1069F40094488188ADF800106946006804F0CAFA2A
:106A040018208DF8030003208DF802008E48818839
:106A1400ADF800106946006804F0BCFA01208DF856
:106A24000C0001208DF80D0001208DF80B002000D2
:106A3400C0B2ADF8080000208DF80A0001208DF8DE
:106A44000F0000208DF8100000208DF811000020A8
:106A54008DF8120000208DF80E0000208DF8130030
:106A64007A4E02A9300003F0BFF9012833D1002087
:106A74008DF81E000020ADF814000020ADF81600BB
:106A84000020ADF818000020ADF81A0000208DF8A1
:106A94001F0001208DF820000020ADF81C0001200B
:106AA4008DF8210005A803F028FA012248F202011A
:106AB400300003F091FA14208DF8040006208DF8BC
:106AC400050006208DF8060001208DF8070001A8B6
:106AD40004F021FB01E0012005002800C0B20AB047
:106AE40070BD2DE9F84F86B004000025002600276C
:106AF4005FF00008142100220DF104094846FDF757
:106B040015FBA0680190E0788DF80E009DF80E004A
:106B1400009014F10C0A0DF10F09009A51464846F1
:106B240000F0BAF8DFF824B101A9584603F060FA7E
:106B340081464946C9B2584603F0F9FA012804D0FF
:106B4400B7F5005F01D27F1CF3E741F6FF7087427F
:106B54000ED3022001F0E8FC200000F010F805003C
:106B6400761C042E06D22800C0B2002802D1F0E719
:106B7400012005002800C0B207B0BDE8F08F2DE960
:106B8400F04F85B0040000250026002714210022C0
:106B9400E8464046FDF7CAFAA0680090E0788DF810
:106BA4000A009DF80A8014F10C090DF10B0A424603
:106BB4004946504600F070F8DFF890A06946504608
:106BC40003F016FA83465946C9B2504603F0AFFAA9
:106BD400012805D041F6FF70864201D2761CF2E707
:106BE40041F6FF70864201D2012005002800C0B2A0
:106BF40005B0BDE8F08FF8B50024154F002214212C
:106C04003C2000F0F0FA3860124D002214213C20A0
:106C140000F0E9FA2860104E03220021012000F060
:106C2400E2FA30603868002807D02868002804D0C9
:106C34003068002801D0012004002000C0B2F2BD59
:106C44000000000020F5000828F50008006400405A
:106C5400008B0020048B0020088B002030B400251A
:106C640013E050F8042BD30744BFA9F101039A1889
:106C7400091F042942F8045BFAD213468C0744BF67
:106C840015809B1CC90748BF1D7050F8041B0029C0
:106C9400E7D130BC7047000062B38B0708D0521EA6
:106CA40011F8013B00F8013B00F024808B07F6D17A
:106CB400830740F0208000BF103A07D330B4B1E816
:106CC4003810103AA0E83810F9D230BC530724BF6A
:106CD400B1E80810A0E8081044BF51F8043B40F89C
:106CE400043BD20724BF31F8022B20F8022B44BF07
:106CF4000B7803707047121F17D35B0009D151F84A
:106D0400043B20F8023B1B0C121F20F8023BF6D276
:106D14000BE051F8043B00F8013B1B0A20F8023B4E
:106D24001B0C121F00F8013BF3D238BF121D521E78
:106D340024BF11F8013B00F8013BF8D870472DE956
:106D4400F04104000D0016005FF001080027280040
:106D540080B2002860D004F053FA002801D100204A
:106D640080464046C0B2002808D0A02004F0DDFAD6
:106D740004F0BAFA002801D1002080464046C0B28F
:106D8400002808D0200080B2000AC0B204F0CDFA76
:106D940004F0AAFA80464046C0B2002806D020007B
:106DA400C0B204F0C2FA04F09FFA80464046C0B272
:106DB400002805D004F024FA002801D100208046E0
:106DC4004046C0B2002808D0A12004F0AEFA04F076
:106DD4008BFA002801D1002080466D1E4046C0B2C7
:106DE400002817D0002007003800290080B289B29B
:106DF400884208D204F0BEFA390089B2705404F013
:106E040043FA7F1CF0E704F0B5FA390089B27054F4
:106E140004F052FA04F020FA4046C0B2BDE8F08112
:106E24002DE9F04104000D00160000275FF0010871
:106E3400280080B2002842D004F0E2F9002801D1F1
:106E4400002080464046C0B2002808D0A02004F0AC
:106E54006CFA04F049FA002801D10020804640462B
:106E6400C0B2002808D0200080B2000AC0B204F0EA
:106E74005CFA04F039FA80464046C0B2002806D0D5
:106E84002000C0B204F051FA04F02EFA804600202B
:106E940007003800290080B289B288420DD24046EA
:106EA400C0B2002807D0380080B2305C04F03DFA4C
:106EB40004F01AFA80467F1CEBE704F0CDF90520B4
:106EC40004F095F94046C0B2BDE8F0812DE9F047E1
:106ED40004000D00160000275FF000085FF0000AB0
:106EE400200010F01F0F1BD014F01F00D0F1200061
:106EF40007002800390080B289B2884200D22F00EE
:106F0400404680B206EB0002390089B218EB040057
:106F140080B2FFF785FF8146ED1B17EB080801E0FF
:106F24005FF001094846C0B200281FD0280080B293
:106F340000281BD0202007002800390080B289B225
:106F4400884200D22F00404680B206EB000239008E
:106F540089B218EB040080B2FFF762FF8146ED1B93
:106F640017EB08084846C0B20028DFD14846C0B233
:106F7400BDE8F08770B403000022002400264FF619
:106F8400FF7000258D4214D25A5D50400022160035
:106F9400082E0CD2C20706D580B2020048F208407F
:106FA40090EA520001E080B24008761CF0E76D1CC4
:106FB400E8E780B2C04380B270BC70472DE9F84363
:106FC4005FF00008002447F6F8754B4E32000821A4
:106FD4002800FFF7B4FE07003800C0B2002810D024
:106FE4005FF000085FF0000906213000FFF7C2FFE0
:106FF400F18802000B0092B29BB29A4201D00022A7
:107004001700320008214FF4FC40FFF798FE804639
:107014004046C0B200280FD000245FF000090621CA
:107024003000FFF7A7FFF18802000B0092B29BB279
:107034009A4201D00022904658EA0700C0B20028C4
:1070440011D108240025B1462A0021004846FDF745
:107054006DF80120B080022070804AF6AA203080AA
:1070640000F02AF826E03800C0B201280FD14046CB
:10707400C0B200280BD1320008212800FFF75FFEC0
:10708400320008214FF4FC40FFF720FF12E03800E3
:10709400C0B200280ED14046C0B201280AD1320045
:1070A40008214FF4FC40FFF74AFE32000821280073
:1070B400FFF70CFFBDE8F18338B500240E4D002026
:1070C400E88006212800FFF755FFE8802A00082100
:1070D40047F6F870FFF7FAFE012809D12A000821C3
:1070E4004FF4FC40FFF7F2FE012801D10120040017
:1070F4002000C0B232BD0000F08A0020F8B50700BD
:107104000D0001263C00002C0FD1502080F3118883
:10711400BFF34F8FBFF36F8F4FF49772DFF8581898
:10712400DFF8E80904F052F9FEE7002C45D0E06BE3
:10713400002842D05FF0FF30E16BB0FBF1F0216C2E
:1071440088423AD302F05BFA2168E26B206C424336
:1071540001EB0200A0600020A06320686060216849
:10716400E26B521E206C424301EB0200E0605FF0D0
:10717400FF3084F8440084F84500002D12D12069C2
:10718400002817D014F1100001F0F6FD002811D0EA
:107194005FF08050DFF878190860BFF34F8FBFF3BA
:1071A4006F8F07E014F1100004F024F914F12400A7
:1071B40004F020F902F044FA01E000200600002E59
:1071C4000FD1502080F31188BFF34F8FBFF36F8F1F
:1071D40040F26312DFF8A017DFF8300904F0F6F884
:1071E400FEE73000F2BD2DE9F843050088469146DC
:1071F4000024002D20D05FF0FF30B0FBF5F04045B7
:107204001AD308FB05F010F1540F15D208FB05F052
:10721400060016F1540004F03BF90400002C1DD0C4
:1072240020005430070000944B46DBB23A0041463C
:10723400280000F016F811E0002C0FD1502080F344
:107244001188BFF34F8FBFF36F8F4FF4F272DFF8E3
:107254002817DFF8B80804F0B9F8FEE72000BDE805
:10726400F2832DE9F04105000C0016001F00DDF843
:107274001880002C02D1C8F8008001E0C8F8006032
:10728400C8F83C50C8F8404001214046FFF736FF9B
:1072940088F850700020C8F84800BDE8F0812DE956
:1072A400F64782B081460D009A4600244E46002ED1
:1072B4000FD1502080F31188BFF34F8FBFF36F8F2E
:1072C4004FF45372DFF8B016DFF8400804F07EF88C
:1072D400FEE7002D02D1306C002801D1012000E02E
:1072E4000020C0B200280FD1502080F31188BFF3D2
:1072F4004F8FBFF36F8F40F24D32DFF87C16DFF80B
:107304000C0804F063F8FEE7BAF1020F02D1F06B47
:10731400012801D1012000E00020C0B200280FD1D3
:10732400502080F31188BFF34F8FBFF36F8F40F26B
:107334004E32DFF84416DFF8D40704F047F8FEE7CE
:1073440001F099FE002802D10398002801D1012000
:1073540000E00020C0B200280FD1502080F3118833
:10736400BFF34F8FBFF36F8F40F25132DFF808162F
:10737400DFF8980704F02AF8FEE702F040F9B06B52
:10738400F16B884202D3BAF1020F40D1B76B524677
:107394002900300000F0E7FB8046B06C002813D0D1
:1073A400BAF1020F01D1002F2DD1300000F025FDDC
:1073B400002828D05FF08050DFF854170860BFF32E
:1073C4004F8FBFF36F8F1EE0706A00280FD016F145
:1073D400240001F0D1FC002815D05FF08050DFF8C4
:1073E40030170860BFF34F8FBFF36F8F0BE0B8F116
:1073F400000F08D05FF08050DFF814170860BFF367
:107404004F8FBFF36F8F02F01BF9012053E00398F5
:10741400002803D102F014F900204CE0002C04D120
:10742400684601F035FD0120040002F009F901F07D
:1074340054FA02F0E4F896F9440010F1010F02D175
:10744400002086F8440096F9450010F1010F02D19E
:10745400002086F8450002F0F3F803A9684601F01D
:1074640023FD002821D1300000F038FC002816D07C
:10747400039916F1100001F027FC300000F0DCFB4A
:1074840001F031FA00287FF478AF5FF08050DFF824
:1074940080160860BFF34F8FBFF36F8F6DE7300026
:1074A40000F0CAFB01F01FFA67E7300000F0C4FBEC
:1074B40001F019FA002004B0BDE8F0872DE9FE4F71
:1074C40007000D00140098463E00002E0FD15020F6
:1074D40080F31188BFF34F8FBFF36F8F4FF4846233
:1074E400DFF89414DFF82C0603F070FFFEE7002D9C
:1074F40002D1306C002801D1012000E00020C0B28C
:1075040000280FD1502080F31188BFF34F8FBFF3B1
:107514006F8F40F22142DFF86014DFF8F80503F0C2
:1075240055FFFEE7B8F1020F02D1F06B012801D13B
:10753400012000E00020C0B200280FD1502080F3C9
:107544001188BFF34F8FBFF36F8F40F22242DFF8F1
:107554002814DFF8C00503F039FFFEE702F0A2F8B3
:10756400EFF311895FF0500A8AF31188BFF34F8F4C
:10757400BFF36F8FB06BF16B884202D3B8F1020F87
:1075840051D196F945008DF80000B06B0190424648
:107594002900300000F0E7FA9DF9000010F1010F16
:1075A40020D1B06C00280FD0B8F1020F02D101989D
:1075B400002836D1300000F020FC002831D0002C07
:1075C4002FD0012020602CE0706A002829D016F109
:1075D400240001F0D1FB002823D0002C21D001206D
:1075E40020601EE001F028FA83469DF9000058450A
:1075F40017D29DF900007F280ED18AF31188BFF3BA
:107604004F8FBFF36F8F40F2AB42DFF86C13DFF89C
:10761400040503F0DBFEFEE79DF80000401C86F83D
:107624004500012000E0002089F31188BDE8FE8FA9
:107634002DE9F64182B080460E0000244746002F13
:107644000ED1502080F31188BFF34F8FBFF36F8F9B
:1076540040F26B52C849DFF8B40403F0B7FEFEE70A
:10766400002E02D1386C002801D1012000E0002056
:10767400C0B200280ED1502080F31188BFF34F8F81
:10768400BFF36F8F40F26F52BB49DFF8800403F001
:107694009DFEFEE701F0EFFC002802D103980028CC
:1076A40001D1012000E00020C0B200280ED15020FA
:1076B40080F31188BFF34F8FBFF36F8F40F2745282
:1076C400AD49DFF8480403F081FEFEE701F097FFBF
:1076D400BD6B002D1BD03100380000F092FA681EFB
:1076E400B863386900280ED017F1100001F044FB8C
:1076F400002808D05FF08050DFF814140860BFF34E
:107704004F8FBFF36F8F01F09BFF012057E0039869
:10771400002803D101F094FF002050E0002C04D194
:10772400684601F0B5FB0120040001F089FF01F077
:10773400D4F801F064FF97F9440010F1010F02D16D
:10774400002087F8440097F9450010F1010F02D199
:10775400002087F8450001F073FF03A9684601F093
:10776400A3FB002820D1380000F0AAFA002815D085
:10777400039917F1240001F0A7FA380000F05CFA2D
:1077840001F0B1F80028A1D15FF08050DFF8801338
:107794000860BFF34F8FBFF36F8F97E7380000F097
:1077A4004BFA01F0A0F891E7380000F045FA01F037
:1077B4009AF8380000F084FA002887D0002004B03A
:1077C400BDE8F0812DE9F34182B0804600244646AD
:1077D4000027002E0DD1502080F31188BFF34F8F66
:1077E400BFF36F8F40F2FD526349C84803F0EEFDCA
:1077F400FEE7306C00280DD0502080F31188BFF3D1
:107804004F8FBFF36F8F40F201625B49BF4803F0B3
:10781400DDFDFEE701F02FFC002802D103980028CB
:1078240001D1012000E00020C0B200280DD1502079
:1078340080F31188BFF34F8FBFF36F8F40F206625E
:107844004D49B24803F0C2FDFEE701F0D8FEB56B26
:10785400002D1CD0681EB0633068002802D101F0EE
:10786400ADFDB060306900280DD016F1100001F0B4
:1078740083FA002807D05FF08050A5490860BFF361
:107884004F8FBFF36F8F01F0DBFE012070E0039890
:10789400002803D101F0D4FE002069E0002C04D1BB
:1078A400684601F0F5FA0120040001F0C9FE01F078
:1078B40014F801F0A4FE96F9440010F1010F02D16E
:1078C400002086F8440096F9450010F1010F02D11A
:1078D400002086F8450001F0B3FE03A9684601F0D4
:1078E400E3FA00282AD1300000F0EAF900281FD07A
:1078F4003068002807D101F082FEB06801F0D2FBA5
:10790400070001F09DFE039916F1240001F0DCF953
:10791400300000F091F900F0E6FF002895D15FF007
:1079240080507B490860BFF34F8FBFF36F8F8CE7A4
:10793400300000F081F900F0D6FF86E7300000F057
:107944007BF900F0D0FF300000F0BAF900283FF4D2
:107954007CAF002F0BD001F052FE300000F0F8F89D
:1079640005002900B06801F08DFC01F069FE0020DB
:1079740004B0BDE8F0810000E4F000082DE9F7430D
:1079840080460E0000244746002F0ED1502080F37D
:107994001188BFF34F8FBFF36F8F40F2CD62DFF8D2
:1079A40020155A4803F012FDFEE7002E02D1386C70
:1079B400002801D1012000E00020C0B200280ED12F
:1079C400502080F31188BFF34F8FBFF36F8F40F2C5
:1079D400D162DFF8EC144D4803F0F8FCFEE701F047
:1079E4004AFB002802D10298002801D1012000E0BE
:1079F4000020C0B200280ED1502080F31188BFF3BC
:107A04004F8FBFF36F8F40F2D662DFF8B4143F4854
:107A140003F0DCFCFEE701F0F2FDBD6B002D1CD091
:107A2400D7F80C903100380000F0EBF8C7F80C9050
:107A3400786A00280DD017F1240001F09DF9002880
:107A440007D05FF0805032490860BFF34F8FBFF317
:107A54006F8F01F0F5FD012056E00298002803D154
:107A640001F0EEFD00204FE0002C04D1684601F047
:107A74000FFA0120040001F0E3FD00F02EFF01F0F5
:107A8400BEFD97F9440010F1010F02D1002087F8E0
:107A9400440097F9450010F1010F02D1002087F846
:107AA400450001F0CDFD02A9684601F0FDF900286A
:107AB4001FD1380000F004F9002814D0029917F1FE
:107AC400240001F001F9380000F0B6F800F00BFFD3
:107AD4000028A0D15FF080500D490860BFF34F8F9C
:107AE400BFF36F8F97E7380000F0A6F800F0FBFEB5
:107AF40091E7380000F0A0F800F0F5FE380000F03F
:107B0400DFF8002887D00020BDE8FE834CF200088F
:107B140004ED00E04CF2000838B505002C00002C00
:107B24000FD1502080F31188BFF34F8FBFF36F8FB5
:107B340040F61F02DFF88813DFF8880303F046FCE1
:107B4400FEE7200000F00DF9200003F037FD31BD01
:107B54000100486A002804D0086B0068D0F11F00B7
:107B640000E0002070472DE9F84F06000F001400D4
:107B74005FF00008B56B306C002809D1306800282C
:107B84003AD1B06801F000FB80460020B06033E0D9
:107B9400002C14D1D6F84090BA46D6F804B04A4620
:107BA40051465846FFF778F87068316C08447060A5
:107BB4007068B16888421FD3306870601CE0D6F8E2
:107BC4004090BA46D6F80CB04A4651465846FFF79C
:107BD40063F8F068316C49420844F060F068316839
:107BE400884204D2B068316C49420844F060022CE7
:107BF40002D1002D00D06D1E681CB0634046BDE864
:107C0400F28F2DE9F04104000D00206C002811D002
:107C1400E068216C0844E060E068A168884201D310
:107C24002068E060266CE768A846320039004046C8
:107C3400FFF732F8BDE8F081F8B5040001F0DFFC8D
:107C440094F94550280040B2012819DBA06C0028A3
:107C540007D0200000F0D1F800280FD001F089F9F6
:107C64000CE0606A002808D014F1240001F084F8C4
:107C7400002803D001F07DF900E001E06D1EE1E78A
:107C84005FF0FF3684F8456001F0DAFC01F0B7FCE0
:107C940094F94470380040B201280CDB20690028B4
:107CA40009D014F1100001F067F8002801D001F0A8
:107CB40060F97F1EEEE784F8446001F0C1FCF1BD79
:107CC40038B5040001F09BFCA06B002801D101250C
:107CD40000E0002501F0B4FC280032BD38B50400F2
:107CE40001F08DFCA06BE16B884201D1012500E01D
:107CF400002501F0A5FC280032BDF8B505000E00F2
:107D04000024002D0DD1502080F31188BFF34F8F34
:107D1400BFF36F8F40F6D82269496A4803F056FBD7
:107D2400FEE7002E18D000200700082F14D2664961
:107D340001EBC7004068854203D101EBC700040092
:107D44000AE0002C06D151F83700002802D101EBDB
:107D5400C70004007F1CE8E7002C01D026606560A2
:107D6400F1BD10B50400002C0DD1502080F3118812
:107D7400BFF34F8FBFF36F8F40F624325049514801
:107D840003F024FBFEE7002008280FD24E4901EB44
:107D9400C0025268A24207D1002241F830200022DA
:107DA40001EBC0014A6001E0401CEDE710BDF8B5ED
:107DB40004000D001600270001F021FC97F944008F
:107DC40010F1010F02D1002087F8440097F9450013
:107DD40010F1010F02D1002087F8450001F030FCBA
:107DE400B86B002805D13200290017F1240000F0F7
:107DF4008DFF3800FFF720FFF1BDF1B50098846CCA
:107E04000025002C0DD1502080F31188BFF34F8F33
:107E1400BFF36F8F40F6E33229492A4803F0D6FABC
:107E2400FEE7A06BE16B88420DD3502080F31188EC
:107E3400BFF34F8FBFF36F8F40F6E43220492148E0
:107E440003F0C4FAFEE7A06BE16B884235D294F9E3
:107E54004560002269462000FFF785FE05003000DA
:107E64005FF0FF3140B288420BD1606A002824D011
:107E740014F1240000F080FF00281ED0012005002A
:107E84001BE000F0D9FD0700300040B2B84214D224
:107E9400300040B27F280DD1502080F31188BFF309
:107EA4004F8FBFF36F8F40F604420549054803F036
:107EB4008DFAFEE7761C84F845602800F2BD0000C8
:107EC400E4F000084CF20008E48900200A00D2B271
:107ED400002A04D0254A13880343138003E0234A6D
:107EE40013888343138070472148018851F010019F
:107EF400018070471E490A884FF6EF7002400A80DD
:107F0400704700211B4800881B4A128892B280B235
:107F140050EA0240704710B50400FFF7E5FF200067
:107F2400000C1549088013480480FFF7E3FF10BDD7
:107F340010B50400FFF7D8FF2000000C10F00F006C
:107F44000E4908800E480480FFF7D4FF10BD08488E
:107F540000888006FBD5704705490A884FF6F770FC
:107F640002400A8008880007FCD5704700280040BA
:107F7400042800401C28004018280040082800401D
:107F84000C28004080B5012003F0D0FB03F0D6FBA1
:107F9400012003F099FC412003F06AFD0028FAD087
:107FA4004FF4807003F0A3FC012003F0A5FCFFF75D
:107FB400D3FFFFF7CCFF00210120FFF787FFFFF776
:107FC400C6FF47F6FF70FFF7B3FFFFF7C0FF01BD21
:107FD40010B54AF2A554042003F0C7FBA04209D00F
:107FE400FFF7D0FF2100042003F0B0FB002000F0D5
:107FF40015F812E003F05FFD012003F065FC412059
:1080040003F036FD0028FAD04FF4807003F06FFCC3
:10801400012003F071FCFFF79FFF10BD10B50400B1
:10802400012003F083FBFFF792FF2000FFF773FFAB
:10803400FFF78DFF10BDF0B4002200233C24B0FBF9
:10804400F4F504FB15044C613C24B0FBF4F03C242F
:10805400B0FBF4F504FB15040C6110F5F0703C243E
:10806400B0FBF4F41820B4FBF0F500FB1540C86035
:108074001820B4FBF0F505F26D1040F2B556B0FBD4
:10808400F6F605F26D1040F2B557B0FBF7FC07FBAE
:108094001C0000280BD14FF4B770B5FBF0F000F2D0
:1080A400B27008600C2048601F20886035E0AD1B6A
:1080B40040F26D10B5FBF0F000F2B270086040F2CF
:1080C4006D10B5FBF0F200FB12556D1C086804221C
:1080D40090FBF2F302FB130000280AD13D2D01D3DB
:1080E4006D1E06E03C2D04D1022048601D208860EE
:1080F40013E0002048600A484A6850F82220AA4247
:1081040007D24A6850F822002D1A4868401C48607B
:10811400F1E74868401C48608D60F0BC704700007F
:10812400000000202DE9F14F84B00E00170098469E
:10813400380080B2800003F0ABF90500002D15D0A3
:10814400642003F0A5F90400002C0BD05FF064094F
:108154005FF0000AA346524649465846FBF7E6FF3D
:10816400256304E0280003F029FA00E00024002C31
:1081740012D00020039002940F9801900E98009062
:1081840043463A0092B23100049800F00AF8200005
:1081940000F087F8012001E05FF0FF3005B0BDE892
:1081A400F08F2DE9F94F81B00C0016000C9F0D9D46
:1081B400DDF83880B00000905FF0A50BD8F830A04F
:1081C4005A4600995046FBF7B1FFD8F8300000EB4F
:1081D4008600B0F1040A5FEADA0A5FEACA0A1AF012
:1081E400070000280FD0502080F31188BFF34F8F71
:1081F400BFF36F8F40F25D32DFF84418DFF85C089C
:1082040003F0E4F8FEE7002C14D000208146B9F115
:10821400140F0CD214F8090008EB090181F834009A
:1082240014F80900002802D019F10109EFE7002031
:1082340088F847001F2F0FD3502080F31188BFF315
:108244004F8FBFF36F8F40F29232DFF8F417DFF8ED
:108254000C0803F0BBF8FEE71F2F01D31E20070014
:10826400C8F82C70C8F8507018F1040003F0D1F865
:1082740018F1180003F0CDF8C8F81080D7F11F00EA
:10828400C8F81800C8F82480029A0199504601F0F1
:108294002BF9C8F80000002D01D0C5F80080BDE816
:1082A400F78F70B5040001F0AAF9DFF89817086891
:1082B400401C0860DFF890572868002806D12C601D
:1082C400086801280DD100F06DFE0AE0DFF87C0794
:1082D4000068002805D1E06A2968C96A884200D389
:1082E4002C60DFF86C070168491C01600068A06419
:1082F400DFF860170A680123E06A83401A430A60C2
:108304001420DFF85417E26A42430A445668A66010
:10831400B268E260221DB3685A60221DB260E26A4C
:1083240042430A446261E26A4243E36A00FB03F0A7
:108334000858401C885001F083F9DFF810070068E2
:1083440000280DD02868C06AE16A884208D25FF02C
:108354008050DFF818170860BFF34F8FBFF36F8F9B
:1083640070BD70B5040001F04AF9002C03D1DFF8A8
:10837400D806056800E02500281D03F074F80028DD
:108384000FD1DFF8D416EA6A142042438858002833
:1083940007D1DFF8C0160A680123E86A83409A43CC
:1083A4000A60A86A002803D015F1180003F05BF8EE
:1083B400DFF89C060168491C0160DFF88C663068B0
:1083C40085420AD1291DDFF8980603F025F8DFF865
:1083D40094060168491C016006E0DFF8680601683C
:1083E400491E016000F035FE01F02AF9306885422B
:1083F40002D0280000F024FEDFF8500600680028B0
:1084040020D0306885421DD1DFF85C060068002862
:108414000FD0502080F31188BFF34F8FBFF36F8FBD
:1084240040F2AF42DFF81816DFF8300602F0CEFF54
:10843400FEE75FF08050DFF834160860BFF34F8F1B
:10844400BFF36F8F70BD2DE9F04104000D000026CD
:10845400002C0FD1502080F31188BFF34F8FBFF34E
:108464006F8F40F2C442DFF8D815DFF8F00502F050
:10847400ADFFFEE7002D0FD1502080F31188BFF32C
:108484004F8FBFF36F8F40F2C542DFF8B415DFF8AA
:10849400CC0502F09BFFFEE7DFF8CC05006800285E
:1084A4000FD0502080F31188BFF34F8FBFF36F8F2D
:1084B40040F2C642DFF88815DFF8A00502F086FF17
:1084C400FEE700F00AFADFF8A805D0F80080276874
:1084D400EF192068804507D2206887420BD2B8453F
:1084E40009D20120060006E02068874201D3B8457E
:1084F40001D2012006002760002E04D00021B7EB32
:10850400080000F07BFF00F0EEF90100002908D11B
:108514005FF08050DFF854251060BFF34F8FBFF336
:108524006F8F3000BDE8F08138B505000024002DC0
:108534001DD0DFF83405006800280FD0502080F3E8
:108544001188BFF34F8FBFF36F8F40F21C52DFF8D7
:10855400F014DFF8080502F039FFFEE700F0BDF97A
:108564000021280000F04AFF00F0BDF90400002CAF
:1085740008D15FF08050DFF8F4140860BFF34F8F28
:10858400BFF36F8F31BDF8B5040001F038F8002C4B
:1085940003D1DFF8B404056800E02500281D02F0CB
:1085A40062FF00280FD1DFF8B014EA6A14204243B6
:1085B4008858002807D1DFF89C140A680123E86A68
:1085C40083409A430A60A86A002803D015F1180072
:1085D40002F049FFDFF89C64291D300002F01CFF03
:1085E400002001280CDA05EB000191F86010012944
:1085F40004D1002105EB000282F86010401CF0E772
:1086040001F01EF8DFF844743868002805D000F043
:10861400F6FF00F01EFD01F013F8DFF82C140868D3
:1086240085422CD1386800281ED0DFF83C0400684D
:1086340000280FD0502080F31188BFF34F8FBFF371
:108644006F8F40F2D262DFF8F813DFF8100402F003
:10865400BDFEFEE75FF08050DFF810140860BFF342
:108664004F8FBFF36F8F0AE03068DFF8D8231268AA
:10867400904202D10020086001E000F0CDFAF1BD83
:1086840070B5040000252600002C0FD1502080F383
:108694001188BFF34F8FBFF36F8F40F2FC62DFF896
:1086A400A013DFF8B80302F091FEFEE77069DFF86B
:1086B400C413884209D1B06ADFF8C417884204D0D1
:1086C400B06A002801D101200500280070BDF8B56A
:1086D40004002500002C0FD1502080F31188BFF333
:1086E4004F8FBFF36F8F40F22672DFF85413DFF819
:1086F4006C0302F06BFEFEE7DFF84C6330688542E2
:108704003ED0002D3CD000F07AFF2800FFF7B8FFE0
:10871400002833D0281D02F0A6FEDFF838130A68BB
:108724000123E86A83401A430A601420DFF82813FF
:10873400EA6A42430A445268AA609368EB602B1DBC
:1087440097687B602B1D9360EB6A43430B446B611A
:10875400EB6A4343EF6A00FB07F00858401CC8501B
:10876400E86A3168C96A884208D35FF08050DFF84C
:1087740004160860BFF34F8FBFF36F8F00F060FFE4
:10878400F1BDF8B5040000252600002C0ED15020C0
:1087940080F31188BFF34F8FBFF36F8F40F25D7288
:1087A400A749DFF8B80202F011FEFEE700F07AFFF5
:1087B400EFF31187502080F31188BFF34F8FBFF37D
:1087C4006F8F3000FFF75CFF00283ED0DFF898027F
:1087D4000068002833D1F06A9B490968C96A884255
:1087E40005D3012005000120DFF890160860301D34
:1087F40002F039FE97490A680123F06A83401A435C
:108804000A6014209449F26A42430A445268B260EE
:108814009368F360331DD2F808C0CCF80430331DDC
:108824009360F36A43430B447361F36A4343D6F89A
:108834002CC000FB0CF00858401CC85005E016F191
:108844001801DFF8380702F0E7FD87F311882800E4
:10885400F2BD1CB5DFF82C06019000200090002327
:108864004FF49672DFF82016DFF82006FFF75AFC63
:108874000400012C02D103F051F90400012C17D19A
:10888400502080F31188BFF34F8FBFF36F8F5FF0D9
:10889400FF30DFF81016086001206C4908600020E2
:1088A400DFF8CC11086003F051FC00F048FE10E042
:1088B40014F1010F0DD1502080F31188BFF34F8FB5
:1088C400BFF36F8F40F612025D49644802F07EFDEB
:1088D400FEE7DFF86007006813BDDFF88C0101686C
:1088E400491C01607047F8B500250026DFF878417F
:1088F400206800280DD1502080F31188BFF34F8FDA
:10890400BFF36F8F40F685024D49544802F05EFD77
:10891400FEE700F074FE2068401E206020680028F6
:1089240040F082804748006800287DD0DFF8501569
:108934000868002853D0C868C0680500A86A296A76
:10894400EA699160E9692A6A5160416815F118027F
:10895400914201D1296A41600021A9620168491E3E
:1089640001606869E968AA689160A968EA68516069
:1089740041682A1D914201D1E96841600021696181
:108984000168491E016033490A680123E86A83408B
:108994001A430A6030481421EA6A4A43024452687E
:1089A400AA609368EB602B1D946863602B1D936031
:1089B400EB6A4B4303446B61EB6A4B43EC6A01FB88
:1089C40004F14158491CC150E86A1F490968C96A41
:1089D4008842ABD30120DFF8A4140860A6E7002D79
:1089E40001D000F036FBDFF854763C68002C0CD044
:1089F40000F042F8002803D00120DFF8801408605A
:108A0400641E002CF4D100203860DFF87004006884
:108A1400002809D0012006005FF080501349086047
:108A2400BFF34F8FBFF36F8F00F00AFE3000F2BD2B
:108A3400DFF83C0000687047DFF85C0600687047A8
:108A440018F10008708B0020608B00207C8B0020C4
:108A54008C8B0020788B0020D47C002070F20008DE
:108A6400A08A00206C8B0020988B002004ED00E08D
:108A7400748B0020B48A00202DE9F0410027DFF830
:108A8400FC060068002840F0BF80DFF8E8070468AF
:108A9400641C0460002C24D1DFF8DC17086800682B
:108AA40000280FD0502080F31188BFF34F8FBFF3FD
:108AB4006F8F40F6B722DFF88015DFF8C40602F0A6
:108AC40085FCFEE7D1F80080DFF8B00702680A6091
:108AD400C0F80080DFF8A8070168491C016000F0B5
:108AE400B8FADFF8C0130868844279D3DFF888271E
:108AF40010680068002803D15FF0FF3008606FE061
:108B04001068C068C068050068680600B44201D2F5
:108B14000E6065E06869EA68AB689A60AA68EB6809
:108B24005A6042682B1D9A4201D1EA6842600022D1
:108B34006A610268521E0260A86A002812D0A86AFC
:108B44002A6AEB699A60EA692B6A5A60426815F1ED
:108B540018039A4201D12A6A42600022AA6202687A
:108B6400521E0260DFF81C2613685FF0010CE86AED
:108B74001CFA00FC5CEA03031360DFF820051422EE
:108B8400EB6A534303445B68AB60D3F808C0C5F891
:108B94000CC015F1040CD3F808E0CEF804C015F1AC
:108BA400040CC3F808C0D5F82CC002FB0CFC8444A8
:108BB400C5F814C0D5F82CC002FB0CFCD5F82CE089
:108BC40002FB0EF28258521C40F80C20DFF8A0067B
:108BD4000068C06AEA6A904288D20120070085E7EB
:108BE400DFF88C060068DFF8B414C26A142042432C
:108BF4008858022801D301200700A04800680028F3
:108C040007D00120070004E0DFF830040168491CA4
:108C140001603800BDE8F08110B5DFF86005006838
:108C2400002803D00120954908604CE000209349B6
:108C34000860DFF8A017DFF8340600680860DFF882
:108C4400982710680B68984208D2DFF82406036856
:108C54009C6D086804191068241A9C6508681060E3
:108C6400DFF820050068B0FA80F4D4F11F04142161
:108C7400DFF8282401FB04F0105800280FD15020FD
:108C840080F31188BFF34F8FBFF36F8F40F6F63236
:108C9400DFF8A413DFF8E80402F098FBFEE701FB19
:108CA40004F102EB0100416849684160416810F138
:108CB4000802914202D14168496841604068C06835
:108CC400DFF8AC15086010BD38B504000D00002CA9
:108CD4000FD1502080F31188BFF34F8FBFF36F8FF4
:108CE40040F60E42DFF85013DFF8940402F06EFBF6
:108CF400FEE7DFF87C05006810F11801200002F09F
:108D040097FB0121280000F079FB31BD70B5040008
:108D14000E001500002C0FD1502080F31188BFF3F2
:108D24004F8FBFF36F8F40F64442DFF80C13DFF828
:108D3400500402F04BFBFEE76068DFF834150A6864
:108D4400D06182680B681A620A68183283685A60B4
:108D54000A681832826009688C622168491C2160A3
:108D6400002D02D05FF0FF3006002900300000F033
:108D740045FB70BD04ED00E070B50500E868C4680B
:108D8400002C0FD1502080F31188BFF34F8FBFF315
:108D94006F8F40F67442DFF8A012DFF8E40302F0AC
:108DA40015FBFEE7A06A216AE2699160E169226A23
:108DB4005160416814F11802914201D1216A416065
:108DC4000021A1620168491E0160DFF8B003006858
:108DD400002835D16069E168A2689160A168E26801
:108DE40051604168221D914201D1E1684160002136
:108DF40061610168491E0160DFF888130A68012374
:108E0400E06A83401A430A60DFF890021421E26AA0
:108E14004A4302445268A2609368E360231D966843
:108E24007360231D9360E36A4B4303446361E36A05
:108E34004B43E66A01FB06F14158491CC1500FE05F
:108E44000F494868E0618268226214F1180283685D
:108E54005A6014F118028260A1620A68521C0A6006
:108E6400DFF80C040068C06AE16A884204D2012079
:108E74000121024A116000E0002070BD848B0020B3
:108E84008C8A0020948B0020E0F50008858F000870
:108E9400DFF8EC1309680160DFF8D8130968416052
:108EA40070470000908B00202DE9F04104000D0074
:108EB400002C0ED1502080F31188BFF34F8FBFF3E5
:108EC4006F8F40F6EF425C49DFF8B40202F07EFA9D
:108ED400FEE7002D0ED1502080F31188BFF34F8F91
:108EE400BFF36F8F4FF44F625349DFF8940202F0DF
:108EF4006DFAFEE700F083FBDFF878030668676825
:108F0400F71BDFF86C13086890F86100002806D09E
:108F14000020096881F861005FF0010824E02868F6
:108F240010F1010F02D15FF000081DE0DFF85003DB
:108F340000682168884207D06068864204D35FF0E5
:108F44000108002028600FE02868874208D22868BA
:108F5400C01B28602000FFF79BFF5FF0000803E0C0
:108F6400002028605FF0010800F06AFB4046BDE87D
:108F7400F0810120DFF86414086070478C8A0020B7
:108F840010B5040000F037F8444800680228F9D30B
:108F94005FF08050DFF85C140860BFF34F8FBFF3BD
:108FA4006F8FEFE770B500241F2C08D23B481421C3
:108FB40001FB04F1084402F01DFA641CF4E7DFF835
:108FC4002054280002F016FADFF81864300002F08A
:108FD40011FADFF8140402F00DFA314802F00AFA2B
:108FE400DFF8080402F006FADFF88C020560DFF807
:108FF4008C02066070BD38B5DFF8F4532868002889
:1090040015D000F0FCFA2648C068C0680400201D92
:1090140002F029FA20480168491E01602868401EB0
:10902400286000F00DFB200000F00AF8E4E731BDF1
:10903400000000004800002018F10008808B002088
:1090440010B50400206B02F0B9FA200002F0B6FA61
:1090540010BD894908680068002805D15FF0FF3019
:10906400DFF85814086005E00868C0680068DFF895
:109074004C1408607047DFF880030068002801D1B1
:10908400012007E0DFF838040068002801D102203D
:1090940000E0002070470000708B0020D47C00208A
:1090A400A08A00202DE9F843040025000026002CA6
:1090B40060D0DFF8BC91E86AD9F80010C96A884228
:1090C40050D2A869002805D4D9F80000C06AD0F1AC
:1090D4001F00A861DFF8EC735FF014086869E96A9F
:1090E40008FB01F13944884235D1281D02F0BBF94F
:1090F400002807D1DFF8D0130A680123E86A834007
:109104009A430A60D9F80000C06AE862DFF8B8132D
:109114000A680123E86A83401A430A60E86A08FB84
:1091240000F038444068A8608168E960291D8268BD
:109134005160291D8160E96A08FB01F139446961C4
:10914400E96A08FB01F1EA6A08FB02F857F808200B
:10915400521C7A5003E0D9F80000C06AE86201208A
:10916400060007E0286DD9F80010C96A884201D2C8
:10917400012006003000BDE8F2830000988B002037
:1091840070F20008788B0020F8B504002500002652
:10919400002C68D03648006885420FD0502080F3F8
:1091A4001188BFF34F8FBFF36F8F41F24802DFF88E
:1091B4001C13DFF81C0302F009F9FEE7686D0028B0
:1091C4000FD1502080F31188BFF34F8FBFF36F8FFF
:1091D40041F24902DFF8F412DFF8F40202F0F6F883
:1091E400FEE7686D401E6865E86A296D88423AD0DA
:1091F400686D002837D1281D02F035F9002807D101
:10920400DFF8C4120A680123E86A83409A430A60BB
:10921400286DE862E86AD0F11F00A861DFF8A8129F
:109224000A680123E86A83401A430A601420DFF8BD
:109234009412EA6A42430A445268AA609368EB6053
:109244002B1D97687B602B1D9360EB6A43430B4493
:109254006B61EB6A4343EF6A00FB07F00858401C5C
:10926400C850012006003000F2BD0000588B0020D9
:10927400608B0020748B0020648B0020688B00209E
:10928400888B00202DE9F84F04000F00A0465FF002
:109294000109002C00F09080D8F8540000280FD168
:1092A400502080F31188BFF34F8FBFF36F8F41F2CB
:1092B4009802DFF81812DFF8180202F087F8FEE7C8
:1092C400D8F85000B84201D23E0002E0D8F850006D
:1092D4000600D8F82C00B0426ED0D8F854004845A7
:1092E4006AD1DFF8D401006880450FD1502080F3A3
:1092F4001188BFF34F8FBFF36F8F41F2B302DFF8D2
:10930400CC11DFF8CC0102F061F8FEE7D8F82C00AC
:109314000500C8F82C60D8F81800002803D4D6F14A
:109324001F00C8F81800DFF89CA15FF0140BD8F8F0
:1093340014000BFB05F1514488423DD118F104009F
:1093440002F091F8002808D1DFF87C110A680123A3
:10935400D8F82C0083409A430A60DFF86C110A683D
:109364000123D8F82C0083401A430A60D8F82C0053
:109374000BFB00F050444068C8F808008168C8F846
:109384000C1018F104018268516018F10401816025
:10939400D8F82C100BFB01F15144C8F81410D8F87C
:1093A4002C100BFB01F1D8F82C200BFB02FB5AF814
:1093B4000B20521C4AF80120BDE8F18FDFF8F810A9
:1093C4000868002803D00868426D521C426508688A
:1093D40070470000A08B00209C8B0020848B002011
:1093E400648A0020788A00208C8A0020B48A0020B5
:1093F4006C8B002004ED00E07C8B00202DE9F04113
:1094040005000C0033480768DFF8AC800020D8F86A
:10941400001081F86100D8F80000001D02F023F864
:10942400002808D1D8F8000027490A680123C06A37
:1094340083409A430A6015F1010F1AD1002C18D009
:1094440025484168D8F8002091608A68D8F800302F
:10945400DA60D8F80020121D8B685A60D8F8002012
:10946400121D8A60D8F8002050610268521C026004
:109474001FE0E8190600D8F800004660BE4207D293
:10948400D8F80000011D1548006801F0D1FF10E074
:10949400D8F80000011D1248006801F0C9FF074810
:1094A40001688E4205D2066001680E4A914200D3DB
:1094B4000660BDE8F0810000608B0020908B0020E6
:1094C400988B0020D47C0020788B002018F10008B1
:1094D40070F20008748B0020B48A0020688B00208E
:1094E400648B002001000008001F5FF0807303609C
:1094F400001F4B085B000360001F0FF20D030360A5
:10950400143802602038704780B58048006810F134
:10951400010F0CD0502080F31188BFF34F8FBFF39D
:109524006F8FCB227A497B4801F050FFFEE7502031
:1095340080F31188BFF34F8FBFF36F8FFEE71CB525
:10954400754C20780190FF20207020788DF8000061
:109554009DF8000010F05000704908707048072111
:1095640001609DF80010090608D50168491E0160D4
:109574009DF8001049008DF80010F2E70168D1F160
:10958400070104290DD0502080F31188BFF34F8FB9
:10959400BFF36F8F4FF482725D495E4801F016FF8E
:1095A400FEE70168D1F1070104290DD0502080F3B2
:1095B4001188BFF34F8FBFF36F8F40F20D125449E0
:1095C400544801F003FFFEE70168090201600168E5
:1095D40011F4E0610160019820705248016851F46F
:1095E40070010160016851F07041016000F0A2F85F
:1095F40000204649086002F0E2FD002016BD80B557
:10960400502080F31188BFF34F8FBFF36F8F3F4912
:109614000A68521C0A600968012910D14249096884
:1096240009060CD080F31188BFF34F8FBFF36F8FFF
:1096340040F243123649374801F0C8FEFEE701BD47
:1096440080B53249086800280DD1502080F3118874
:10965400BFF34F8FBFF36F8F4FF4A5722C492D4882
:1096640001F0B4FEFEE70868401E086008680028A0
:1096740002D1002080F3118801BD80B5502080F311
:109684001188BFF34F8FBFF36F8FFFF7F5F90028F1
:1096940003D05FF0805024490860002080F31188D3
:1096A40001BD000038B5EFF30585102D17D31F4811
:1096B4000068405D0400200018490978C0B288425F
:1096C4000DD2502080F31188BFF34F8FBFF36F8FFB
:1096D40040F28A220E490F4801F078FEFEE7104856
:1096E40000681349096811F4E06188420DD25020E2
:1096F40080F31188BFF34F8FBFF36F8F40F29B222B
:109704000349044801F062FEFEE731BD3000002049
:1097140070F0000828F2000800E400E0C78B002085
:10972400548B002020ED00E004ED00E000F600087A
:109734000CED00E00548002101600021044A11609D
:109744000449054A116007210160704710E000E0F8
:1097540018E000E0BFD4010014E000E02DE9F04778
:1097640004000D00160000275FF0000A280080B2F4
:109774000B2856DB280080B2390089B20B318842AD
:109784004FDB380080B2205C7E2848D1380080B29C
:1097940020444078552842D15FF000085FF000096A
:1097A4000021380080B220448078002807D0380097
:1097B40080B2204490F802A01AF1030A0EE03800A7
:1097C40080B2204490F80AA05FEA0A2A380080B2E6
:1097D4002044407A50EA0A0A1AF10D0A514689B225
:1097E400091F380080B22044801CFDF7C3FB51469A
:1097F40089B211FA87F1214411F8012C1202514661
:1098040089B211FA87F1214411F8021C0A430100BC
:10981400130089B29BB2994203D000218A467F1C6F
:10982400A8E7504680B2BDE8F087B1F5807F02D347
:109834004FF0FF3070470170012070470078401EE0
:109844008041C043C00F704730B585B00400042187
:1098540000226D462800FAF769FC1021002201ADB0
:109864002800FAF763FC10208DF8030003208DF81C
:109874000200614DA888ADF800006946286801F02F
:1098840089FBA888296848615C4D280000F0E2F84B
:109894005B488188ADF8001018218DF803106946E3
:1098A400006801F077FB57488188ADF80010042167
:1098B4008DF803106946006801F06CFB01940020E8
:1098C400ADF808000020ADF80A000020ADF80C0047
:1098D4000020ADF810000C20ADF80E0001A92800FE
:1098E40000F000F90121280000F072F905B030BD44
:1098F4004FF4C0414843401C0100481E0029FBD1DD
:10990400704738B584B004000A21002201AD280054
:10991400FAF70CFC042100226D462800FAF706FC35
:10992400B4F5165F04D140F6AA70ADF8080003E060
:1099340040F2D660ADF808007720ADF804000020AE
:10994400ADF80A000020ADF806002F4D01A928004B
:1099540002F046FC01220121280002F0A2FC0021B1
:10996400280002F08FFC1E208DF8000007208DF8DF
:10997400010007208DF8020001208DF803006846DD
:1099840001F0C9FB05B030BD1CB5042100226C46B2
:109994002000FAF7CBFB26208DF8000007208DF875
:1099A400010007208DF8020001208DF803006846AD
:1099B40001F0B1FB13BD70B504000D000F4E40F271
:1099C4002771300000F0A2F92200D2B240F22551F2
:1099D400300000F00CF92A00D2B240F226613000C7
:1099E40000F005F970BD054909880906FBD5010099
:1099F400C9B2064A11807047C0F50008004400400F
:109A0400B0F50008B8F50008000800400444004020
:109A140070B504000D0000200026AE4204D2A05D03
:109A2400FFF7E1FF761CF8E770BD10B504002000D5
:109A340001F094FA01002000FFF7EAFF0D20FFF780
:109A4400D2FF0A20FFF7CFFF10BD0268531C03604A
:109A54001170704710B50400584884420AD101219E
:109A64004FF4804001F0E3FF00214FF4804001F007
:109A7400DEFF36E0524884420AD101215FF400300F
:109A840001F0E3FF00215FF4003001F0DEFF28E085
:109A94004C4884420AD101215FF4802001F0D5FFB3
:109AA40000215FF4802001F0D0FF1AE04648844290
:109AB4000AD101215FF4002001F0C7FF00215FF407
:109AC400002001F0C2FF0CE04048844209D101218A
:109AD4005FF4801001F0B9FF00215FF4801001F001
:109AE400B4FF10BD2DE9F84F86B004000D00002628
:109AF40000275FF000085FF000095FF0000AA88902
:109B04000028A346218A4CF6FF700140E8880143EF
:109B1400009100982082A1894EF6F3100140AA8892
:109B24002889024368890243114300910098A08167
:109B3400A18A4FF6FF400140A88901430091009893
:109B4400A08201A801F0DDFE1C48834501D10499DF
:109B540000E00399A089000407D5192000FB01F057
:109B64002A685200B0FBF2F206E0192000FB01F073
:109B74002A689200B0FBF2F26420B2FBF0F63601E0
:109B840033001B09642000FB1323A089000408D5BB
:109B9400D80032306427B0FBF7F010F0070006431A
:109BA40007E0180132306427B0FBF7F010F00F0023
:109BB4000643268107B0BDE8F08F0000003801405D
:109BC4000044004000480040004C00400050004069
:109BD4000A00D2B2002A04D0828952F4005282814F
:109BE40004E083894DF6FF721340838170472DE9A9
:109BF400F0410023002500275FF0000E0C0040F622
:109C04006A16A4B2B44280460C00E4B26409E4B219
:109C14000E00B6B216F01F065FF0010C1CFA06FC2B
:109C2400012C02D118F10C0806E0022C02D118F123
:109C3400100801E018F114081300DBB2002B06D061
:109C4400D8F800305CEA0303C8F8003005E0D8F81F
:109C5400003033EA0C03C8F80030BDE8F08113008B
:109C6400DBB2002B03D0838A0B43838202E0838A16
:109C74008B438382704702000023080080B2B0F552
:109C8400007F1088084201D0012000E00020C0B20B
:109C940070470A0092B292050A0092B2D24302803F
:109CA4007047F0B4040000270020002200260B00B7
:109CB40040F66A159BB2AB420D00EDB26D09EDB2F0
:109CC4000B009BB213F01F035FF0010C1CFA03F3AB
:109CD400012D02D1A089034006E0022D02D1208A81
:109CE400034001E0A08A03400A0092B2120A92B231
:109CF4001CFA02F220880240002B03D0002A01D073
:109D0400012000E00020C0B2F0BC704770B4002213
:109D140000240B0040F66A159BB2AB420B009BB2C9
:109D24001B0A01259D402E00B6B2F643068070BC86
:109D340070472E002DE9F04104000025200002F0B8
:109D4400D9FA02F033FB4FF480711F4802F03FFB55
:109D54004FF480711D4802F089FB5FF400301C4908
:109D640008604FF480701B4908601B48016851F07B
:109D740001010160DFF8648000224FF4887105203E
:109D8400FDF731FAC8F80000154E00224FF4857132
:109D94000520FDF728FA3060124F0322002101202C
:109DA400FDF721FA3860D8F80000002807D03068A1
:109DB400002804D03868002801D0012005002800BC
:109DC400C0B2BDE8F08100BFB085002076810020DC
:109DD400040002405C000240580002402C8B00202A
:109DE400308B0020348B002030B402000024002388
:109DF400106830F002001060106850F0010010602C
:109E04005068C00705D44FF6FF70834201D05B1C35
:109E1400F6E75068C00701D400206BE08879012878
:109E240004D1106850F08000106003E0106830F036
:109E340080001060C879012804D1106850F04000F7
:109E4400106003E0106830F040001060087A0128C8
:109E540004D1106850F02000106003E0106830F066
:109E640020001060487A012804D1106850F01000D6
:109E7400106003E0106830F010001060887A012848
:109E840004D1106850F00800106003E0106830F04E
:109E940008001060C87A012804D1106850F004004A
:109EA400106003E0106830F0040010608878CD780A
:109EB4002D0655EA8075087955EA0045487955EA32
:109EC40000550888401E0543D561106840084000CD
:109ED4001060002003005068C00705D54FF6FF70DE
:109EE400834201D05B1CF6E75068C00701D500200F
:109EF40000E00120C0B230BC704770B400250121DD
:109F0400827A11FA02F22E4B196851F0010119609C
:109F14002C4C216891432160017B002913D12A49EB
:109F24000D6895430D602949C588468856EA05465B
:109F3400857A41F83560857A01EBC5018588068804
:109F440056EA05464E60017B012913D11E490D686E
:109F540015430D601D490588468856EA0546857AED
:109F640041F83560857A01EBC5018588C68856EAD3
:109F740005464E60C17A002904D115490D68954300
:109F84000D6003E012490D6815430D600189002935
:109F940003D110490D6895430D600189012903D14E
:109FA4000C490D6815430D60417B012902D12168DC
:109FB40011432160196849084900196070BC704751
:109FC400006600401C6600400C660040406600408D
:109FD40004660040146600401300DBB2002B03D07B
:109FE40043690B43436102E043698B434361704718
:109FF40030B4030000229868400101D500200AE033
:10A004009868000101D5012005E09868C00001D5D9
:10A01400022000E004200200D2B2042A00F084806E
:10A024000200D2B212011A44D2F8802112F00102C5
:10A034000400E4B224011C44C4F880210A7A002AF2
:10A0440011D10200D2B212011A44D2F880210C6854
:10A054004D7A55EA44552A430400E4B224011C44D1
:10A06400C4F8802112E00200D2B212011A44D2F8DC
:10A0740080414A680D7A55EAC2054A7A15432C4351
:10A084000200D2B212011A44C2F880418A7A12F054
:10A094000F028A720200D2B212011A44D2F8842149
:10A0A400120912010400E4B224011C44C4F88421FE
:10A0B4000200D2B212011A44D2F884418A7A1443BB
:10A0C4000200D2B212011A44C2F884418A7B4C7B4A
:10A0D400240454EA02640A7B54EA0224CA7A14432C
:10A0E4000200D2B212011A44C2F888418A7C4C7C24
:10A0F400240454EA02640A7C54EA0224CA7B14430A
:10A104000200D2B212011A44C2F88C410200D2B247
:10A1140012011A44D2F8802152F001020400E4B280
:10A1240024011C44C4F88021C0B230BC7047020032
:10A1340000200B00DBB2002B03D0022B22D010D363
:10A1440031E093689B0013F004031843936813F001
:10A154000203184393689B0E13F001031843030092
:10A1640022E093689B0913F00403184393681B0AC5
:10A1740013F0020318439368DB0E13F00103184332
:10A18400030011E093689B0B13F0040318439368D6
:10A194001B0C13F00203184393681B0F13F0010305
:10A1A4001843030000E000231800C0B2002804D0C4
:10A1B400052804D0072804D005E0022004E000208C
:10A1C40002E0012000E00020C0B270470A00D2B2D1
:10A1D400002A02D12022C26001E0202202617047DD
:10A1E400020000230800C0B2002803D1D06810F098
:10A1F400030008E00800C0B2012803D1106910F080
:10A20400030000E00020C0B2704770B504000E00E7
:10A2140015003000C0B200012044D0F8B00110F0A5
:10A2240004002872287A002808D13000C0B2000146
:10A234002044D0F8B001400D286007E03000C0B2DF
:10A2440000012044D0F8B001C00868603000C0B2FA
:10A2540000012044D0F8B00110F002006872300010
:10A26400C0B200012044D0F8B40110F00F00A8726D
:10A274003000C0B200012044D0F8B401000AE874F0
:10A284003000C0B200012044D0F8B801E8723000B8
:10A29400C0B200012044D0F8B801000A287330008D
:10A2A400C0B200012044D0F8B801000C687330003B
:10A2B400C0B200012044D0F8B801000EA8733000E9
:10A2C400C0B200012044D0F8BC01E8733000C0B231
:10A2D40000012044D0F8BC01000A28743000C0B248
:10A2E40000012044D0F8BC01000C68743000C0B2F6
:10A2F40000012044D0F8BC01000EA8743100C9B29A
:10A304002000FFF763FF70BD02000023906908423C
:10A3140001D0012000E00020C0B2704782698A4366
:10A324008261704770B504000D00002628000428DF
:10A334002CD0052819D006281CD0072820D008289E
:10A3440029D020282CD040282FD0B0F5807F31D0C0
:10A35400B0F5007F33D0B0F5806F35D0B0F5803FD5
:10A364003CD0B0F5003F34D03DE00121A06800F0BE
:10A3740089F839E04FF48071A06800F083F833E085
:10A384005FF48031A06800F07DF82DE00821E068DA
:10A3940000F078F828E01021E06800F073F823E07A
:10A3A4000821206900F06EF81EE01021206900F0F9
:10A3B40069F819E00121A06900F064F814E00221B1
:10A3C400A06900F05FF80FE00421A06900F05AF8DA
:10A3D4000AE01021606800F055F805E00821606883
:10A3E40000F050F800E00020C0B270BD0A00042A5A
:10A3F40026D0052A19D0062A1AD0072A1CD0082AE2
:10A4040021D0202A22D0402A23D0B2F5807F23D025
:10A41400B2F5007F25D0B2F5806F27D0B2F5803F2A
:10A4240029D0B2F5003F29D02BE00122826028E038
:10A434004FF48072826024E05FF48032826020E016
:10A444000822C2601DE01022C2601AE008220261E4
:10A4540017E01022026114E08269520852008261FE
:10A464000FE0826932F0020282610AE0826932F00E
:10A474000402826105E00822426002E01022426088
:10A48400FFE77047020000230A4201D0012000E0E8
:10A494000020C0B27047430010B50400200002F051
:10A4A4003FF802F0B2F84FF480710B4802F0BEF8A6
:10A4B4004FF48071094802F007F94FF4007008491D
:10A4C40008604FF48070074908600748016851F03C
:10A4D40001010160012010BDA484002066800020D9
:10A4E40004000240340002403000024010B5040071
:10A4F4002000FFF7A9F9FFF747FA00210120FFF731
:10A504005AFA2000FFF7FDF9DFF898190A884FF688
:10A51400FE7002400A8010BD2DE9FE4F040042F295
:10A524001070029000200090009400980078012898
:10A5340040F04381DFF8605907212800FFF79BFBB7
:10A54400002828D0002240F225512800FFF74FFBB5
:10A554000220FFF7CDF9DFF8440940210170002102
:10A5640081800021C0F808114FF48076002710F193
:10A5740006083A0031004046F9F7D8FD07212800C3
:10A58400FFF787FB5FF4E130FFF7B0FF2100DFF84E
:10A59400180900F093F9DFF804693078022802D032
:10A5A4003078032844D14FF488770196DFF8FC888B
:10A5B400C1463A0001994846FCF76EFB40203070D2
:10A5C4000020B0800020C6F808014FF480795FF0C5
:10A5D400000A16F1060B524649465846F9F7A6FDFD
:10A5E400DFF8C4B89BF80000002809D0B8F80410BC
:10A5F40018F1060001F0EDFC0221AFA001F0E9FC26
:10A60400B8F8042018F10601584600F0E3FA0028CF
:10A614000ED09BF80B0080070AD520208BF80B0086
:10A62400DFF88C080068CBF870000020CBF80C0031
:10A63400DFF87478B87A002840F09A80F87AC00776
:10A6440036D5F87A10F0FE00F872387A797A8842B2
:10A65400BFF46AAF402030700020B0800020C6F8FC
:10A6640008014FF480755FF00008B61D42462900CA
:10A674003000F9F75BFDDFF838080168380000F0B6
:10A68400ACF9F87A50F00600F872387800283FF4F4
:10A694004BAFDFF82058280000F060FC010089B2BD
:10A6A400280001F096FC022183A001F092FC3BE714
:10A6B400F87A800727D5386F397A07EB4101098E7C
:10A6C40010FA81F0DFF8E81709688842BFF42CAF6C
:10A6D400F868401CF860F868042802D20120F87277
:10A6E40022E7B87A00280BD10298FDF71DFF5FF42A
:10A6F400E130FFF7FBFE2100380000F0DFF813E73C
:10A704000820F87210E7F87A80060AD5386FC01C62
:10A71400DFF89C1709688842BFF406AF0820F87276
:10A7240002E7F87A00077FF5FFAEF87A10F0F70039
:10A73400F8720020F860380000F026FB00283FF48F
:10A74400F3AE387A797A88420FD3B87A00287FF446
:10A75400EBAE0120B8720020F8720420DFF858171D
:10A7640008600020FDF70FFFDEE60120F872DBE64B
:10A77400B87A02287FF4D8AE0220FFF7B9F8402057
:10A7840030700020B0800020C6F808014FF48078B3
:10A794005FF00009B61D4A4641463000F9F7C6FC91
:10A7A40007212800FFF775FA5FF4E130FFF79EFEFA
:10A7B4002100380000F082F8B6E60120DFF8F81630
:10A7C40008600020FDF7DFFEAEE62DE9F84F040037
:10A7D4000125DFF8C8B69BF80000022803D09BF8D7
:10A7E4000000032864D1DFF8C066B07A01285FD185
:10A7F4004FF48877CDF800B0DFF8B086C1463A0050
:10A8040000994846FCF748FA40208BF800000020E5
:10A81400ABF804000020CBF808014FF480795FF016
:10A82400000A1BF1060B524649465846F9F77EFCCE
:10A834003078002809D0B8F8041018F1060001F0A7
:10A84400C8FB02211CA001F0C4FB310018F1060072
:10A8540000F063FA7078022811D10420DFF858164A
:10A864000860042088F80C010023002241462000DF
:10A87400FCF724FE00281BD10020050018E07078A6
:10A88400012804D10720DFF83016086010E0707842
:10A89400002802D07078FF280AD10220B072DFF8B5
:10A8A4001C060068FDF76DFF0620DFF80C16086033
:10A8B4002800C0B2BDE8F28F0D0A00002DE9F04770
:10A8C40004000D00DFF8F865B088316848610A209B
