:020000040800F2
:1040000040AA00203DCF0008B5C80008B7C8000886
:10401000B9C80008BBC80008BDC8000800000000FF
:10402000000000000000000000000000EF8A00080F
:10403000BFC8000800000000A98A00088B830008A0
:10404000FDCF000801D0000805D0000809D0000805
:104050000DD0000811D0000815D0000819D00008B4
:104060001DD0000821D0000825D0000829D0000864
:104070002DD0000831D00008E5C90008CBC90008E0
:1040800035D0000839D000083DD0000841D00008E4
:104090005DC9000845D0000849D000084DD000088F
:1040A00051D0000855D0000859D000085DD0000854
:1040B000C1C8000861D0000865D0000869D00008B8
:1040C0006DD0000871D0000875D0000879D00008C4
:1040D0007DD0000819CA000881D0000885D00008EA
:1040E00089D000088DD0000891D0000895D0000834
:1040F00099D000089DD00008A1D00008A5D00008E4
:10410000A9D00008ADD00008B1D00008B5D0000893
:1041100035C90008B9D00008BDD00008C1D00008DA
:10412000C5D00008C9D00008F3C8000805C90008B8
:1041300030B4002513E050F8042BD30744BFA9F195
:1041400001039A18091F042942F8045BFAD21346A6
:104150008C0744BF15809B1CC90748BF1D7050F8D1
:10416000041B0029E7D130BC70470000C9B20278B7
:104170008A421AB11CBF10F8012FF9E718BF0020BE
:104180007047B1F5807F02D34FF0FF307047017068
:10419000012070470078401E8041C043C00F704727
:1041A00012AA0112000120020102030404400806C1
:1041B000070809020406081E0001120108F00207A0
:1041C0008E6300080452FF01E3EE61142004000036
:1041D000EE62000840F003162400002000012002D7
:1041E000954100082C4383413C2101200A0204012F
:1041F00001EC8700203C880020082104211B610875
:0742000012E860F212D46421
:105000005250333432335F4D4220323430383133F2
:10501000303220473233313230300000000000009F
:105020000000000000000000000000000000000080
:0250300000007E
:105034002DE9F14FB2B09946924600230691CDE98D
:1050440000333C9A0F930DF14A0114914A7011E018
:10505400329E57462C4617F8011B0698B047002885
:10506400069000F026810F98401C641E0F90F2D128
:105074003296AA449AF80000252808D1002100227B
:1050840009910A920B910C920D910E920FE06A46CF
:105094004FF0FF31504601F063F8050002D10F983C
:1050A40000F066BED4D50125E3E741F001011AF80A
:1050B400010F2028F9D023280CD02B2804D02D2828
:1050C40005D0302809D00BE041F00201EFE741F0B0
:1050D4000401ECE741F00801E9E741F01001E6E7DB
:1050E4002A280FD1D9F8002052F8040BC9F800205F
:1050F4000028119003D54042119041F004010AF1B7
:10510400010A14E01192DFF8EC3B0AE0119898428E
:1051140005DA00EB800402EB4402303A11920AF102
:10512400010A9AF80020A2F130000A28EED39AF876
:1051340000002E2803D04FF0FF32109229E01AF815
:10514400010F2A2809D1D9F8000050F8042BC9F816
:10515400000010920AF1010A1BE02D280CBF0AF18D
:10516400010A002000221092DFF8882B0BE040B9DE
:10517400109B934205DA03EB830504EB4504303CB2
:1051840010940AF1010A9AF80040A4F130030A2BA2
:10519400EDD3ADF848100FF660309AF80010FEF722
:1051A400E3FF08B11AF8010B8DF84A009DF84A0094
:1051B400682805D19AF8000068280CD1622106E01D
:1051C4006C2804BF9AF800006C2804D171218DF872
:1051D4004A100AF1010A1FA808901AF801BBBBF192
:1051E40025012DD01C3900F06181091F022940F2EC
:1051F4005D810E392AD0491F00F0B384093900F0CB
:105204005581891E00F04985491E00F0F584491E28
:10521400022940F24B81091F00F0EE84491F00F07F
:10522400BA80491E00F09D84491E65D0C91E21D054
:10523400891E00F09684C91E00F0938400F04CBDD2
:1052440025238DF87C30012109912AE06C208DF80A
:105254004A00D9F8000050F8042BC9F80000002ACD
:1052640043D11499487800283DD04FF0FF340FF60D
:10527400902012E09DF84A006C28EAD0D9F800008A
:1052840050F8044BC9F800000794D4B9149948782D
:1052940098B14FF0FF340FF6842000F06BFF201A12
:1052A40007D132981FAA04A900F065FD00287FF5F4
:1052B400E1AE4FF0FF3000F05BBD0FF67C200790AD
:1052C400EFE7109D002D04D5204600F073FF04463F
:1052D40007E02A46204600F089FF002814BF041B7B
:1052E4002C460A94DDE70FF65422329804A900F004
:1052F400C8FD0028D5D5DCE7D9F8001051F8040B17
:10530400C9F8001020F00004002121F0FF351FAB84
:10531400CDE904450793DDE9042308993C2413B936
:105324000AB9109898B102F00F053035641EEEB238
:105334003A2EA8BF2735120942EA03721B090D55FC
:1053440008BF002A03D007980D19A842EBD3081907
:105354000790C4F13C0210980A92824209DABDF81F
:105364004810821A4FF6EF7001400C92ADF84810C5
:1053740097E7002895D59DF8480000F01400102800
:105384008FD1119B09990C985B1A1B1A9A1A002A3F
:1053940087DD0C9285E71499487820B14FF0FF34EB
:1053A4000FF69C1079E79DF84A00622862D06828BD
:1053B40019D06A2840D06C2806D071284DD07428A2
:1053C4002DD07A281ED064E0D9F8001051F8040BCF
:1053D400C9F8001020B94FF0FF340FF67C105CE7D9
:1053E4000F9901605DE7D9F8001051F8040BC9F872
:1053F400001020B94FF0FF340FF65C104DE70F9901
:1054040001804EE7D9F8001051F8040BC9F80010D8
:105414000028E5D14FF0FF340FF63C103DE7D9F8F2
:10542400001051F8040BC9F800100028D8D14FF02F
:10543400FF340FF6241030E7D9F8001051F8040BAC
:10544400C9F8001020B94FF0FF340FF60C1024E710
:105454000F9AD317C0E9002323E7D9F8001051F8B5
:10546400040BC9F800100028F2D14FF0FF340FF6F6
:10547400E80012E7D9F8001051F8040BC9F800103D
:1054840020B94FF0FF340FF6D00006E70F990170F2
:1054940007E7D9F8001051F8040BC9F800100028E8
:1054A4009ED14FF0FF340FF6B000F6E6D9F8002095
:1054B400D21D22F00702C9F80020D2E90001083207
:1054C400C9F80020CDE90401C80F02D009982D21A4
:1054D4000AE0BDF84800810702D509982B2103E0B2
:1054E400C00705D5099820211FAA1154401C099012
:1054F400DDE9042309991FA8CDE92E2308444BF0C4
:1055040020016129079015AC0BD01099002902D510
:105514000621109105E001BF4BF02001672901220B
:105524001092DDE9042359004915491C10D11A03CE
:105534000ED0ABF1610503211A2D0A9102D20FF6A8
:10554400A43101E00FF6A031032200F07BFEA8E6AF
:1055540059004915491C0AD11A0308D1ABF1610558
:1055640003211A2D0A9116D30FF68431ECE7DDE9F5
:105574000401CDE93001DDE9302323F00047B7F51C
:10558400801F22F000060DD20022002F08BF002E3B
:10559400029203D116E00FF65431D5E702AA00F0C7
:1055A400A5FE0FE0DFF8EC0ADFF8EC1A00EB175069
:1055B4000290DDE930234FF0FF301940DFF8DC7A48
:1055C40010403943CDE904014BF0200061280DD18E
:1055D400079830210170821CBBF1610F07920CBF48
:1055E4007821582141700998801C0990DDE9040153
:1055F40020F0000231F0004308BF002A02D1002647
:10560400002571E14BF02008B8F1610F40F0BE8035
:105614001098002847BF21210391401C0390039F49
:10562400DDE92E017F1C00220023DDE9044500F0A2
:1056340095FE02998DF8542038BF85F00045091F66
:10564400002F02910DF155065DDDDFF8541ACDE906
:10565400302140F2FF732E93204629460022002376
:1056640000F094FE4FD24800400D00F11C0215D00A
:10567400002A13DD2E9B9A420ADBDDE9300121F07A
:10568400004205F000400243DDE93001114611E01B
:105694006FF31E5141EA025120460BE024F0000052
:1056A40035F0004108BF00280FBF29461C222946B7
:1056B40000F084FE04460D4600F01EFFFF1F002F7D
:1056C400804609DD00F036FF02460B462046294697
:1056D40000F042FF04460D46F01D0721B8F1000F0B
:1056E4000CDD491E5EBF08F00F0200F8012D4FEAE1
:1056F4002818F3D502E0002200F8012D491EFAD53E
:10570400C61D002FA8DC0DF15500361A03988642F9
:10571400D8BF304600280DF1550430D4B04206DA23
:105724000DF155010A5C082AA8BF0F2100DA0021F7
:10573400024615AB134400E0401E13F80159521EF3
:105744008D42F9D00F2904D10DF155018B5C5B1CFE
:105754008B54002A04D50299091D15AC401C0291F2
:10576400411E0CD46218ABF13A0613783033DDB223
:105774003A2DA8BFF318491E02F80139F5D510993E
:10578400002940F1AF80421E1092ABE00299DFF88D
:10579400142947F29750414391FBF2F2DDE92E457B
:1057A400029225F00045D2F1070204DD2046294685
:1057B40000F04CFC0BE052420020DFF8EC1800F043
:1057C40045FC02460B462046294600F037FF0446B6
:1057D400B8F1660F109806BF029F0A3706273F18D4
:1057E400142FC8BF142730208DF854000D46002014
:1057F400DFF8B818CDE92E010DF15506002F33DD81
:105804002046294601F03EF801460A4606F10803FF
:1058140004200A26B2FBF6F606EB860EA2EB4E0235
:10582400303203F8012C0A22B6FBF2F202EB820EAC
:10583400A6EB4E063036401E03F8026DE9D1083F50
:10584400002F03F10806D9DD084601F02FF80246BF
:105854000B462046294600F07FFEDDE92E2301F0A9
:1058640033F804460D46CBE70DF15500361A0DF119
:10587400550404E00298401E761E0290641C2078B1
:105884003028F7D0B8F1660F02D10299491C04E020
:10589400B8F1650F0CBF0121002110980818864249
:1058A400B8BF701E00281DD4B04204DA215C34292C
:1058B400C8BF392100DC30210246631E9D1800E078
:1058C400401E15F80169521E8E42F9D0392902D1C1
:1058D400A15C491CA154002A04D50299491C1C4608
:1058E400401C02910646029D00F03EFC406A077887
:1058F400DDF8408030B2002802DC01260FF2F47497
:105904004BF02000662808BF6D1C16D0672846D1CE
:1059140028B210F1040F48DB404546DA9DF84800F0
:105924006D1C010703D430B24045B8BF804628B28D
:10593400B8EB000848BF4FF000080FFA85FB079842
:105944000A99BBF1000F00F3B2804A1C0A9230237B
:105954004354B8F1000F03DC9DF84800010704D557
:105964000A98411C0A9107990F5418EB0B0FB8BF02
:10597400C8F100052DB268420D90A84432B290459A
:10598400B8BF4646079B0A9836B20B963246214664
:10599400184400F057FCA8EB06000E90CBE0BBF1D6
:1059A400610F17D14FF0700B19E030B2404504DAA3
:1059B4009DF848100A0758BF8046B8F1010848BF4F
:1059C4004FF00008BBF1670F14BF4FF0450B4FF0C9
:1059D400650B04E0BBF1410F08BF4FF0500B0A9870
:1059E400411C0A91B8F1000F079914F8012B0A54CD
:1059F40003DC9DF8480001071AD50A98411C0A9156
:105A0400B8F1000F07990F5412DD761E30B28045AD
:105A140007980A9BB8BF464632B22146184400F0A4
:105A240011FC0A9936B271180A91A8EB06000D9080
:105A340007980A9908442AB2002A80F800B003D4CF
:105A44002B224270811C04E02D2141701546811CDB
:105A54006D4200202EAA0A2409E02B4693FBF4F59C
:105A640005EB8506A3EB460302F8013B401C2DB26F
:105A7400002DF2DC012806DC4BF02002652A04BF6D
:105A8400302201F8012B00282EAA08D1302001F879
:105A9400010B06E0401E135C303301F8013B002883
:105AA400F8DC079A0A981044091A0B9143E0084459
:105AB40031B22AB2914219DA32B2214600F0C2FB65
:105AC4000A9936B27118ABEB0606B8F1000F0A91C9
:105AD4000D9603DC9DF84800020704D50798475447
:105AE4000B99491C0B91CDF8388024E0214600F035
:105AF400A9FB0A98761B5844B8F1000F0A9003DCFE
:105B04009DF848100A0703D5411C0A9107990F54C0
:105B140030B2804507980A9BB8BF464632B204EBC0
:105B24000B01184400F08EFB0A9836B230180A9024
:105B3400A8EB06000D909DF8480000F01400102812
:105B44007FF4AFAB099A0A990D988A180B998218B9
:105B54000E988A18821811988242BFF6A2AB821A54
:105B640017E49DF84A00622808D068280ED06A28F5
:105B740014D06C281FD0712810D01CE0D9F8001064
:105B840051F8040BC9F80010C0B21AE0D9F800109B
:105B940051F8040BC9F8001080B212E0D9F80020C3
:105BA400D21D22F00702C9F80020D2E90001083210
:105BB400C9F8002006E0D9F8001051F8040BC9F820
:105BC40000100021CDE904019DF8480001075AD5D1
:105BD400DDE90423002B08BF002A54D04BF0200039
:105BE400782850D109981FA930220A54401C431C1C
:105BF400099301F800B046E09DF84A00622808D0F5
:105C040068280ED06A2814D06C281FD0712810D0B0
:105C14001CE0D9F8001051F8040BC9F8001040B288
:105C24001AE0D9F8001051F8040BC9F8001000B2BA
:105C340012E0D9F80020D21D22F00702C9F8002092
:105C4400D2E900010832C9F8002006E0D9F80010B2
:105C540051F8040BC9F80010C117CDE9040100295B
:105C640002D509982D210AE0BDF84800810702D524
:105C740009982B2103E0C00705D5099820211FAA04
:105C84001154401C09901FA809990144079104A8C4
:105C9400594600F056F9FFF704BB9DF84A006C28FA
:105CA4000BD001210991D9F8000050F8041BC9F860
:105CB40000008DF87C10FFF7F4BAD9F8000050F812
:105CC400041BC9F8000015914FF0FF321092002117
:105CD400169115AAFFF709BB25210122BBF1000F7C
:105CE4008DF87C1009923FF4DCAA8DF87DB0022176
:105CF400FFF7AABACBCCCC0C686A6C747A4C00005F
:105D04007072696E74665F733A2062616420256CF8
:105D14007320617267756D656E7400007072696ED0
:105D240074665F733A206261642025732061726730
:105D3400756D656E74000000000000000000000036
:105D44007072696E74665F733A20256E206469739D
:105D5400616C6C6F776564007072696E74663A206A
:105D640062616420256E20617267756D656E7400D2
:105D740033B0BDE8F08F2DE9FC410F46064690464E
:105D84007A6B7869396ABC6A121AB869521A796AE4
:105D9400121AF869521A121A97F83800141B41079C
:105DA4000FD42020002C8DF800000ADD25460123A5
:105DB4006A463946304600F07DF900285DD16D1EF3
:105DC400F5D17B6942463946304600F073F9002824
:105DD40053D130208DF800003D6A002D09DD0123E8
:105DE4006A463946304600F065F9002845D16D1EF3
:105DF400F5D1BB69FA683946304600F05BF90028F2
:105E04003BD130208DF800007D6A002D08DD012390
:105E14006A463946304600F04DF970BB6D1EF6D126
:105E2400F868B969FB6942183946304600F042F90E
:105E340018BB30208DF80000BD6A002D08DD012359
:105E44006A463946304600F035F9B0B96D1EF6D1D0
:105E540097F8380041070DD52020002C8DF800005C
:105E640008DD01236A463946304600F023F920B99B
:105E7400641EF6D10020BDE8F6814FF0FF30BDE886
:105E8400F6812DE9F8470D46A3B02F6B002F82460B
:105E9400904648BF6FF0004700F0E7FD696B40187B
:105EA40001AA0021C2E90011812828BF4FF0FF3068
:105EB40044D289461EE0A74230DB68692018812855
:105EC4000BD30021696303AA29465046FFF753FF09
:105ED4005FEA000922D40020686103AB6E692246A0
:105EE4006946981900F0AEF9A6196E6158F8040BCA
:105EF400A0B13F1B002F11DDD8F8001001AA68469D
:105F040000F030F90446002C05D4D8F8000000282D
:105F1400D1D1641ECFD54FF0FF390EE0B9F1000F97
:105F2400504604D103AA2946FFF725FF8146B9F15B
:105F3400000F02D1002068616863484624B0BDE8C0
:105F4400F0872DE9FC4307466F293E6908BF082402
:105F540005D041F02000782814BF0A2410243C25E1
:105F6400D7E90023642918BF69299046994605D1C9
:105F7400002B03D5D8F1000869EB4909B9F1000FEA
:105F840008BFB8F1000F0CD1386B50B9082C39D1C7
:105F940097F83800010735D530203B2586F83B00BB
:105FA40030E08DF80010404649462246E31700F0E1
:105FB40061FD3032D0B26D1E3A28019504DB9DF8A4
:105FC4000000A0F151018A18725540464946224604
:105FD400E31700F04FFD80465FEA010908BFB8F1FE
:105FE400000F03D0F86871198842DCD3082C09D15A
:105FF40097F83800010705D5705D302802D06D1E72
:1060040030207055C5F13C02BA617119F960386BE2
:10601400824208DA821A3A624FF6EF70398F0140F1
:106024003987BDE8F38300280ED597F8380000F0CF
:106034001400102808D17B6B7969386A5B1A1B1A23
:106044009A1A002AC8BF3A62BDE8F3832DE9D04307
:1060540006460F4614464FF00008DFF8549012E04D
:10606400E00707D542464B463046394600F02CFC43
:1060740006460F464046494642464B4600F024FC3D
:10608400641080468946002CEAD130463946BDE882
:10609400D083000002FCFFFFFFFF0F800000E03F01
:1060A4000000F07FA08601000000F03F84D79741F4
:1060B40000002440F8B505460E4617461C4600204D
:1060C4005CB117F8011BB068A847B06030B1F06A42
:1060D400401CF0620020641EF3D1F2BD4FF0FF308B
:1060E400F2BD00006E616E004E414E00696E6600A6
:1060F400494E4600300000001C48704770B4536895
:10610400D41801E05B1C491E042B08DA00291FBFC8
:10611400057804F8015B10F8016B002EF2D153608E
:1061240070BC704738B514461D4661B1FFF7E6FFF1
:1061340061686A6B204690476FF00102811A02D0B1
:10614400491E01D001E003E005E00021616032BD99
:106154006FF0010032BD4FF0FF3032BDDA6B1047F3
:10616400024BDFE7014BF9E7014870475C00002070
:106174002400002080B500B906A005490B681BB1B6
:1061840022220021984701E000F08CFD222002BD6C
:10619400308A0020636F6E73747261696E74206854
:1061A400616E646C65723A20626164206D6573731C
:1061B4006167650000F10103810704D010F8011B39
:1061C400820781B1FAD10268A2F10131914311F041
:1061D400803104BF50F8042FF6E709BAB1FA81F10F
:1061E40000EBD100401CC01A70472E00C9B28307CF
:1061F40006D0521E22D310F8013B9942F7D11FE07A
:10620400083A13D302F1040241EA012141EA0141AF
:1062140050F8043B121F21BF4B40A3F1013C2CEA70
:10622400030C1CF0803FF3D0C9B2001F083210F8F1
:10623400013B521E28BF91EA030FF8D818BF012072
:10624400401E704762B38B0708D0521E11F8013B01
:1062540000F8013B00F024808B07F6D1830740F05F
:10626400208000BF103A07D330B4B1E83810103A98
:10627400A0E83810F9D230BC530724BFB1E80810A5
:10628400A0E8081044BF51F8043B40F8043BD2078F
:1062940024BF31F8022B20F8022B44BF0B78037083
:1062A4007047121F17D35B0009D151F8043B20F843
:1062B400023B1B0C121F20F8023BF6D20BE051F8F4
:1062C400043B00F8013B1B0A20F8023B1B0C121F85
:1062D40000F8013BF3D238BF121D521E24BF11F83F
:1062E400013B00F8013BF8D87047430010B5144651
:1062F40000F002F8226010BDC1F30A5343B14A0012
:1063040012F5001F28D2A3F2FE32A1EB025170470E
:1063140050EA410C20D001F0004C31EA0C01B1FAF2
:1063240081F204BFB0FA80F3D2180B3AB2F1200321
:106334002CBF00FA03F1914041EA0C013EBFC2F1C7
:10634400200C20FA0CF319439040524240F2FD33E2
:10635400D21A01EB03517047002270474FF4001C1E
:106364001CEB410F94BF1CEB430F09E041EA030C03
:1063740050EA4C0C52EA0C0C03D2994208BF9042EA
:10638400704714BF8B428242704700004FF4001CD8
:106394001CEB410F94BF1CEB430F09E041EA030CD3
:1063A40050EA4C0C52EA0C0C03D28B4208BF8242D6
:1063B400704714BF9942904270470000124254D46F
:1063C40040F2FF7C1CEA11530FD0634531D09B1877
:1063D40063453CBF01EB0251704701F0004141EAC3
:1063E4000C510020AFF30080704750EA410320D0E5
:1063F40001F0004C91EA0C011CD0B1FA81F30B3B83
:106404009A420DD9D21A994051EA0C01C3F1200CD9
:1064140020FA0CFC61449840531C40F2FF7CD7E7FF
:10642400914041EA0C01C2F1200C20FA0CF319430B
:1064340090407047B0FA80F31533202BE0D3202A24
:10644400EED3203A203B9A4209D9D21A00FA03F13A
:1064540041EA0C010020531C40F2FF7CB8E700FA2B
:1064640002F141EA0C0100207047524240F2FF7CE5
:106474001CEA11530DD06345DBD0B2EB030C3CBFD7
:10648400A1EB025170470CF1010221EA035141F4DE
:10649400801150EA410CCCD001F0004C352A27DCA5
:1064A40030B481EA0C01B2F1200309DAC2F120030D
:1064B400044601FA03F5D0402843D1409C400CE047
:1064C400C3F12002450020FA03F418BF44F001048C
:1064D40021FA03F091400C43002174F1004550F17E
:1064E400000051EB0C01244230BC7FF47BAF7047B9
:1064F4006146002076E70000C1F30A5340F2FE3201
:106504009B1A14DDD3F120034FEAE17208DDC902BE
:1065140041EA505141F00040D84080185040704743
:1065240003F2E13010B1D24382F000407047002002
:1065340070470000C11768B14840401AB0FA80F2B1
:106544009040D21CC907C2F5846241EA025202EBB0
:10655400D02140057047000070B44FF0004591EA27
:10656400030F40F1A3836B40841A71EB030603D23B
:10657400001BB141121973414FF4001C1CEB410F75
:1065840034BF7CEB430442E00C0DA4EB1356352ED0
:106594004FDC45EAC323DB0A45EAC121C912B6F13F
:1065A40020050DDD63FA05F6EB4086EA0305124289
:1065B40018BF45F00105C01851F100010CD213E0D9
:1065C40062FA06F5F2405540F3415A40B340F340B5
:1065D4005A408018594107D349085FEA30005FEAFE
:1065E400350528BF45F0010501F58011420875F114
:1065F400004250F1000041EB04514E0016F5001F1B
:1066040070BC38BF70470020090D090570471CEBAA
:10661400410F10D252EA43060BD0BCEB410F05D810
:106624000C0DAB43661E342EB6DD02E0AB4380187E
:10663400594170BC704770BC70470000F0B540F21F
:10664400FF7581EA030C0CF0004C15EA11541DBFD0
:1066540015EA1357AC42AF42E5E0BC41C1F3130164
:10666400C3F31303801A994143F4801304D2641EC4
:106674004000494180185941C90241EA5051B1FBD7
:10668400F3F603FB1611A2FB0675D7EBC020A94154
:1066940002D2761E80185941C90241EA5051B1FB19
:1066A400F3FE03FB1E11A2FB0E75D7EBC020A9411C
:1066B40003D2AEF1010E80185941890241EA90518A
:1066C400760546EA8E2EB1FBF3F603FB1611A2FB08
:1066D4000675D7EB8020A94102D2761E8018594155
:1066E400C90241EA50514EEA060EB1FBF3F603FB30
:1066F4001611A2FB0675D7EBC020A94102D2761E63
:1067040080185941C90241EA5051B1FBF3F703FB28
:106714001711A2FB0735D3EBC020A94167F100078D
:106724000CBF004247F0010766F3D5274FEA1E313C
:10673400B80814F5806412DDBD0775F1004250EB12
:106744000E5051EB045111F5801F5CBF41EA0C015E
:10675400F0BD4CF07F6141F0E0410020F0BDBD0789
:106764006D0840EA0E5041F48011D4F10104B4F1F3
:1067740020060ADAC4F120060200E04001FA06F31A
:10678400E1401843B24015430EE0342C13DCC6F14B
:10679400200445EA40056D0820FA06F2154321FA63
:1067A40006F0A1400D43002175F1004250F10000B4
:1067B40051EB0C01F0BD00205FEA0C01F0BDCFB934
:1067C40092185B41B3FA83F704BFB2FA82F6BF1999
:1067D4000B3FB7F120062FBF02FA06F3BB40C7F107
:1067E400200622FA06F638BF3343BA401CB1E41936
:1067F400641E33E77F4231F00041B1FA81F404BFF3
:10680400B0FA80F6A4190B3CB4F120062FBF00FAAD
:1068140006F1A140C4F1200620FA06F638BF314340
:10682400A0403C1B1AE7AC421ABF05EA1357AF421B
:1068340012E050EA41061CBF52EA4306BFE750EAA1
:106844004107304661461CBF41EA0551F0BD52EA9A
:10685400430C08BFC143F0BD00204FF4001616EBF3
:10686400410F98BF16EB430F08BF16EB410F24BF2F
:10687400C14305E016EB430F0CBF61464CEA0551DA
:10688400F0BD0000400D491840EA81200CD2490DAA
:10689400A1F58061491C40F0004005DBD1F11F01E6
:1068A40054BFC840C017704700207047014648B124
:1068B400B0FA80F18840C91CC1F58461090501EB77
:1068C400D021400570470000B0B581EA030C0CF0FC
:1068D400004C40F2FF7515EA11541DBF15EA135719
:1068E400AC42AF4239E0E41923EA455343F4801340
:1068F400C90241F0004141EA505EC7021100A7FB02
:10690400020200284FF00000EEFB01204FF00001CE
:10691400E3FB072118BF42F001024018002149415E
:10692400E3FB0E01A4F580640F0302D25200404140
:10693400494154F101046CDD470872F1004250F101
:10694400000051EB0451A1F580115CBF41EA0C0138
:10695400B0BD4CEA05510020B0BD05EA1357AC4266
:1069640014BFAF4241E050EA410E1CBF52EA430E4D
:1069740002E061460020B0BD24423C441BD15FEAE2
:10698400070EF6D0090302BF01460020AEF1140E33
:10699400B1FA81F7AEEB070401FA07FE0C37C7F131
:1069A400200100FA07F7C8404EEA000E23EA4553D7
:1069B40043F48013A2E733F00043B3FA83F704BF30
:1069C400B2FA82FE77440B3FE41BB7F1200E2FBFCF
:1069D40002FA0EF3BB40C7F1200E22FA0EFE38BFB6
:1069E40043EA0E03BA40641C82E750EA410E14BF26
:1069F40052EA430E6FF000014FF4001717EB430FF8
:106A04008ABF194617EB410FB5E74CEA0551002040
:106A1400B0BDD4F10104B4F120070FDAC4F12007AA
:106A2400520828BF42F0010210FA07F501FA07F7ED
:106A3400E1BF2A43E0403843E1400FE0352C98DCC5
:106A4400C7F1200452EA400220FA07F218BF42F0CC
:106A5400010231FA07F0A1400A43002172F1004219
:106A640050F1000051EB0C01B0BD80B5FFF744FBC1
:106A7400006C02BDBBBBE1B1B2F5803F80F07E800B
:106A8400022A1ED98C46B1FBF2F102FB11C31B048E
:106A940043EA1043B3FBF2FC02FB1C3380B240EA2E
:106AA4000343B3FBF2F002FB103240EA0C40002334
:106AB4007047022A05D98446B0FBF2F002FB10C2EB
:106AC40070474AB105D100F0010249085FEA30007D
:106AD400704700220023704700F09EB90B000200AB
:106AE400002100207047904271EB030CF6D3B3F5FC
:106AF400803F2FD2F0B5B3FA83F7B1FA81F4A7F14E
:106B04000F0E3D1B5340CEF1200602FA0EF2F34164
:106B14005340B5F10F0746D80F3C2C444140C4F113
:106B24002006A040F1414140B1FBF3F603FB1611EE
:106B3400A2FB0645001BA94102D2761E80185941CA
:106B440080EA010221FA0EF362FA0EF200215A40A1
:106B54003046F0BD30B4B1FBF3FC03FB1C11A2FBC7
:106B64000C45001BA94103D2ACF1010C801859411A
:106B740030BC02460B46604600217047B2F1807F6C
:106B840065D3F0B5B2FA82F7B1FA81F4C7F10F0612
:106B94003D1B22FA06F307F1110EF24120355A404B
:106BA400B5F10F07B8D94140C4F12006A040F14126
:106BB4004140B1FBF3FC03FB1C11A2FB0C45001B81
:106BC400A94103D2BCF1010C801859410F2F12D3F3
:106BD4000F3FC90341EA5041B1FBF3F603FB161121
:106BE400A2FB0645D4EBC030A94102D2761E801820
:106BF400594146EACC3C07B34140C7F12006B840AE
:106C0400F1414140B1FBF3F603FB1611A2FB06452B
:106C1400001BA94102D2761E8018594180EA010264
:106C240021FA0EF3C7F1200462FA0EF20CFA07F00F
:106C34005A402CFA04F13043F0BD80EA010221FAF3
:106C44000EF3002162FA0EF260465A40F0BD8C4603
:106C5400B1FBF2F102FB11C31B0243EA1063B3FB65
:106C6400F2FC02FB1C331B024CEA002043EA1063D3
:106C7400B3FBF2FC02FB1C331B024CEA002043EA88
:106C84001063B3FBF2FC02FB1C331B024CEA002032
:106C940043EA1063B3FBF2FC02FB1C324CEA002013
:106CA40000237047012000F0B9B80000841A71EB8A
:106CB400030604D26E40001BB141121973414FF414
:106CC400001C1CEB410F34BF7CEB430683E00C0D2E
:106CD400A4EB1356362E00F37C80012E45EAC32321
:106CE40041DC43EA525312BFD20292025B082405EC
:106CF40045EAC12141EA5051D2EBC020994125D443
:106D040007D1B0FA80F610FA06F162D000202036DE
:106D140008E0B1FA81F6B140C6F1200220FA02F28D
:106D24001143B0404FEAF474B4EB465434F0010616
:106D34004FEA74040AD8D6F50016760D04F0004420
:106D4400F04061FA06F25040F1404840C00A40EA7F
:106D5400415021F0004128BF5FEA500550F1000086
:106D640044EBD12135E0DB0A45EAC121C90AB6F179
:106D740020050EDD42EA0242120CC5F1200603FA98
:106D840006F6EB4042EA06056D42984161F10001C6
:106D94000DE062FA06F5F240554063FA06FC82EA19
:106DA4000C02F3405A406D42904161EB030111F42F
:106DB400801F05D1641E620502D06D004041494127
:106DC40021F48011430875F1004350F1000041EBB8
:106DD400045170BC70471CEB410F15D223F00043E3
:106DE40052EA43060BD04FEA4C0CBCEB410F04D8DB
:106DF4000C0D661E342EB7DDEBE7801A994150EA7C
:106E0400410608BF0021E4E708BF1CEB430F28BF7D
:106E14006FF00001DDE700007047000080B5AFF3BC
:106E24000080024A11001820ABBEFBE726000200D6
:106E34002DE9F14F84B00E0017009846380080B257
:106E4400800000F0F3FF0500002D15D0642000F051
:106E5400EDFF0400002C0BD05FF064095FF0000A22
:106E6400A34652464946584601F02EF9256304E0EC
:106E7400280001F071F800E00024002C12D000205A
:106E8400039002940F9801900E98009043463A00A4
:106E940092B23100049800F00AF8200000F087F85C
:106EA400012001E05FF0FF3005B0BDE8F08F2DE96F
:106EB400F94F81B00C0016000C9F0D9DDDF8388051
:106EC400B00000905FF0A50BD8F830A05A460099A6
:106ED400504601F0F9F8D8F8300000EB8600B0F124
:106EE400040A5FEADA0A5FEACA0A1AF0070000280D
:106EF4000FD0502080F31188BFF34F8FBFF36F8FF3
:106F040040F25D32DFF89814DFF8B00401F010F9B4
:106F1400FEE7002C14D000208146B9F1140F0CD2E6
:106F240014F8090008EB090181F8340014F8090089
:106F3400002802D019F10109EFE7002088F8470082
:106F44001F2F0FD3502080F31188BFF34F8FBFF34F
:106F54006F8F40F29232DFF84814DFF8600401F0DA
:106F6400E7F8FEE71F2F01D31E200700C8F82C7096
:106F7400C8F8507018F1040001F0FDF818F1180079
:106F840001F0F9F8C8F81080D7F11F00C8F818000C
:106F9400C8F82480029A0199504601F02BF9C8F8E8
:106FA4000000002D01D0C5F80080BDE8F78F70B552
:106FB400040001F0AAF9DFF8EC130868401C08602B
:106FC400DFF8E4532868002806D12C6008680128FB
:106FD4000DD100F091FC0AE0DFF8D003006800282E
:106FE40005D1E06A2968C96A884200D32C60DFF8B9
:106FF400C0030168491C01600068A064DFF8B41391
:107004000A680123E06A83401A430A601420DFF807
:10701400A813E26A42430A445668A660B268E26072
:10702400221DB3685A60221DB260E26A42430A44D8
:107034006261E26A4243E36A00FB03F00858401CC1
:10704400885001F083F9DFF86403006800280DD04C
:107054002868C06AE16A884208D25FF08050DFF88D
:107064006C130860BFF34F8FBFF36F8F70BD70B5A3
:10707400040001F04AF9002C03D1DFF82C03056861
:1070840000E02500281D01F0A0F800280FD1DFF84A
:107094002813EA6A142042438858002807D1DFF8ED
:1070A40014130A680123E86A83409A430A60A86AB1
:1070B400002803D015F1180001F087F8DFF8F0027A
:1070C4000168491C0160DFF8E062306885420AD13A
:1070D400291DDFF8EC0201F051F8DFF8E80201683D
:1070E400491C016006E0DFF8BC020168491E01602A
:1070F40000F059FC01F02AF93068854202D02800DA
:1071040000F048FCDFF8A4020068002820D03068B2
:1071140085421DD1DFF8B002006800280FD050204E
:1071240080F31188BFF34F8FBFF36F8F40F2AF42EC
:10713400DFF86C12DFF8840200F0FAFFFEE75FF07C
:107144008050DFF888120860BFF34F8FBFF36F8F52
:1071540070BD38B505000024002D1DD0DFF868028D
:10716400006800280FD0502080F31188BFF34F8FA0
:10717400BFF36F8F40F21C52DFF82412DFF83C0299
:1071840000F0D6FFFEE700F057F80021280000F0D9
:10719400DDFD00F057F80400002C08D15FF08050AA
:1071A400DFF828120860BFF34F8FBFF36F8F31BD34
:1071B4001CB5DFF8280601900020009000234FF44E
:1071C4009672DFF81C16DFF81C06FFF731FE040088
:1071D400012C02D101F048F90400012C17D15020F0
:1071E40080F31188BFF34F8FBFF36F8F5FF0FF30D1
:1071F400DFF80816086001206C4908600020DFF8F9
:10720400D011086001F048FC01F01FF810E014F1FF
:10721400010F0DD1502080F31188BFF34F8FBFF3BE
:107224006F8F40F612025E49644800F081FFFEE76A
:10723400DFF85407006813BDDFF88C010168491CAE
:1072440001607047F8B500250026DFF87C4120680E
:1072540000280DD1502080F31188BFF34F8FBFF366
:107264006F8F40F685024E49544800F061FFFEE7F7
:1072740001F04BF82068401E20602068002840F090
:1072840082804848006800287DD0DFF84C150868E3
:10729400002853D0C868C0680500A86A296AEA694A
:1072A4009160E9692A6A5160416815F118029142B6
:1072B40001D1296A41600021A9620168491E016067
:1072C4006869E968AA689160A968EA6851604168D8
:1072D4002A1D914201D1E968416000216961016878
:1072E400491E016033490A680123E86A83401A434E
:1072F4000A6031481421EA6A4A4302445268AA6087
:107304009368EB602B1D946863602B1D9360EB6A9C
:107314004B4303446B61EB6A4B43EC6A01FB04F19E
:107324004158491CC150E86A1F490968C96A884222
:10733400ABD30120DFF89C140860A6E7002D01D030
:1073440000F031FBDFF848763C68002C0CD000F0EC
:1073540041F8002803D00120DFF878140860641E87
:10736400002CF4D100203860DFF86804006800289D
:1073740009D0012006005FF0805014490860BFF373
:107384004F8FBFF36F8F00F0E1FF3000F2BDDFF8E5
:10739400400000687047DFF854060068704700003A
:1073A400B8CC0008E8890020D8890020F48900209E
:1073B400048A0020F0890020B0800020E0CD00087D
:1073C40040890020E4890020108A002004ED00E0B8
:1073D400EC8900202DE9F0410027DFF8F40600686D
:1073E400002840F0BF80DFF8E0070468641C0460F4
:1073F400002C24D1DFF8D4170868006800280FD0C7
:10740400502080F31188BFF34F8FBFF36F8F40F686
:10741400B722DFF87815DFF8BC0600F089FEFEE736
:10742400D1F80080DFF8A80702680A60C0F800807D
:10743400DFF8A0070168491C016000F0B4FADFF826
:10744400BC130868844279D3DFF880271068006889
:10745400002803D15FF0FF3008606FE01068C06857
:10746400C068050068680600B44201D20E6065E099
:107474006869EA68AB689A60AA68EB685A6042680F
:107484002B1D9A4201D1EA68426000226A610268B7
:10749400521E0260A86A002812D0A86A2A6AEB6900
:1074A4009A60EA692B6A5A60426815F118039A4295
:1074B40001D12A6A42600022AA620268521E026056
:1074C400DFF8142613685FF0010CE86A1CFA00FC6C
:1074D4005CEA03031360DFF818051422EB6A5343D4
:1074E40003445B68AB60D3F808C0C5F80CC015F161
:1074F400040CD3F808E0CEF804C015F1040CC3F86A
:1075040008C0D5F82CC002FB0CFC8444C5F814C098
:10751400D5F82CC002FB0CFCD5F82CE002FB0EF2D3
:107524008258521C40F80C20DFF898060068C06AA4
:10753400EA6A904288D20120070085E7DFF88406D2
:107544000068DFF8AC14C26A142042438858022849
:1075540001D3012007009F480068002807D00120BC
:10756400070004E0DFF828040168491C01603800C2
:10757400BDE8F08110B5DFF858050068002803D095
:107584000120944908604CE0002092490860DFF82B
:107594009817DFF82C0600680860DFF89027106859
:1075A4000B68984208D2DFF81C0603689C6D0868D3
:1075B40004191068241A9C6508681060DFF818051F
:1075C4000068B0FA80F4D4F11F041421DFF82024F9
:1075D40001FB04F0105800280FD1502080F31188CB
:1075E400BFF34F8FBFF36F8F40F6F632DFF89C1373
:1075F400DFF8E00400F09CFDFEE701FB04F102EB80
:107604000100416849684160416810F108029142F3
:1076140002D14168496841604068C068DFF8A41538
:10762400086010BD38B504000D00002C0FD15020A7
:1076340080F31188BFF34F8FBFF36F8F40F60E4274
:10764400DFF84813DFF88C0400F072FDFEE7DFF882
:107654007405006810F11801200000F09BFD012161
:10766400280000F073FB31BD70B504000E00150056
:10767400002C0FD1502080F31188BFF34F8FBFF33C
:107684006F8F40F64442DFF80413DFF8480400F03B
:107694004FFDFEE76068DFF82C150A68D061826848
:1076A4000B681A620A68183283685A600A681832CA
:1076B400826009688C622168491C2160002D02D017
:1076C4005FF0FF3006002900300000F03FFB70BD82
:1076D40070B50500E868C468002C0FD1502080F311
:1076E4001188BFF34F8FBFF36F8F40F67442DFF8FA
:1076F4009C12DFF8E00300F01BFDFEE7A06A216A9C
:10770400E2699160E169226A5160416814F11802EA
:10771400914201D1216A41600021A1620168491EA0
:107724000160DFF8AC030068002835D16069E168C6
:10773400A2689160A168E26851604168221D91428B
:1077440001D1E1684160002161610168491E016065
:10775400DFF884130A680123E06A83401A430A604D
:10776400DFF88C021421E26A4A4302445268A260A0
:107774009368E360231D96687360231D9360E36A36
:107784004B4303446361E36A4B43E66A01FB06F13E
:107794004158491CC1500FE00F494868E0618268B4
:1077A400226214F1180283685A6014F1180282608C
:1077B400A1620A68521C0A60DFF808040068C06A03
:1077C400E16A884204D201200121024A116000E0EA
:1077D400002070BDFC8900202C8900200C8A002028
:1077E400D8CF0008D9780008DFF8E81309680160E9
:1077F400DFF8D4130968416070470000088A00204C
:107804002DE9F04104000D00002C0ED1502080F32E
:107814001188BFF34F8FBFF36F8F40F6EF425B4980
:10782400DFF8B00200F084FCFEE7002D0ED15020FA
:1078340080F31188BFF34F8FBFF36F8F4FF44F6204
:107844005249DFF8900200F073FCFEE700F05DFDA2
:10785400DFF8740306686768F71BDFF868130868C5
:1078640090F86100002806D00020096881F86100C2
:107874005FF0010824E0286810F1010F02D15FF0E5
:1078840000081DE0DFF84C0300682168884207D037
:107894006068864204D35FF00108002028600FE08E
:1078A4002868874208D22868C01B28602000FFF798
:1078B4009BFF5FF0000803E0002028605FF00108F0
:1078C40000F044FD4046BDE8F0810120DFF860147B
:1078D4000860704710B5040000F037F844480068A9
:1078E4000228F9D35FF08050DFF85C140860BFF31E
:1078F4004F8FBFF36F8FEFE770B500241F2C08D2B2
:107904003B48142101FB04F1084400F025FC641CED
:10791400F4E7DFF82054280000F01EFCDFF81864B8
:10792400300000F019FCDFF8140400F015FC3148B5
:1079340000F012FCDFF8080400F00EFCDFF88C0203
:107944000560DFF88C02066070BD38B5DFF8F453CB
:107954002868002815D000F0D8FC2648C068C06804
:107964000400201D00F031FC20480168491E01601C
:107974002868401E286000F0E9FC200000F00AF8A6
:10798400E4E731BD0000000018000020B8CC000876
:10799400F889002010B50400206B00F0DDFA200007
:1079A40000F0DAFA10BD894908680068002805D19A
:1079B4005FF0FF30DFF84814086005E00868C0682D
:1079C4000068DFF83C1408607047DFF8380400688A
:1079D400002801D1012007E0DFF82C04006800280A
:1079E40001D1022000E0002070470000E889002057
:1079F400B0800020408900202DE9F84304002500D0
:107A04000026002C60D0DFF8BC91E86AD9F8001099
:107A1400C96A884250D2A869002805D4D9F8000060
:107A2400C06AD0F11F00A861DFF8E0735FF01408AA
:107A34006869E96A08FB01F13944884235D1281D97
:107A440000F0C3FB002807D1DFF8C4130A68012340
:107A5400E86A83409A430A60D9F80000C06AE86281
:107A6400DFF8AC130A680123E86A83401A430A600A
:107A7400E86A08FB00F038444068A8608168E9605F
:107A8400291D82685160291D8160E96A08FB01F1A2
:107A940039446961E96A08FB01F1EA6A08FB02F802
:107AA40057F80820521C7A5003E0D9F80000C06A45
:107AB400E8620120060007E0286DD9F80010C96AC1
:107AC400884201D2012006003000BDE8F2830000A4
:107AD400108A0020E0CD0008F0890020F8B50400E9
:107AE40025000026002C68D03648006885420FD057
:107AF400502080F31188BFF34F8FBFF36F8F41F293
:107B04004802DFF81013DFF8100300F011FBFEE762
:107B1400686D00280FD1502080F31188BFF34F8F78
:107B2400BFF36F8F41F24902DFF8E812DFF8E80291
:107B340000F0FEFAFEE7686D401E6865E86A296D8C
:107B440088423AD0686D002837D1281D00F03DFBEB
:107B5400002807D1DFF8B8120A680123E86A8340D5
:107B64009A430A60286DE862E86AD0F11F00A861B0
:107B7400DFF89C120A680123E86A83401A430A600A
:107B84001420DFF88812EA6A42430A445268AA6061
:107B94009368EB602B1D97687B602B1D9360EB6AE9
:107BA40043430B446B61EB6A4343EF6A00FB07F00A
:107BB4000858401CC850012006003000F2BD0000E7
:107BC400D0890020D8890020EC890020DC8900209D
:107BD400E0890020008A00202DE9F84F04000F00FE
:107BE400A0465FF00109002C00F09080D8F8540002
:107BF40000280FD1502080F31188BFF34F8FBFF3BB
:107C04006F8F41F29802DFF80C12DFF80C0200F0DB
:107C14008FFAFEE7D8F85000B84201D23E0002E0E5
:107C2400D8F850000600D8F82C00B0426ED0D8F82E
:107C3400540048456AD1DFF8C401006880450FD17B
:107C4400502080F31188BFF34F8FBFF36F8F41F241
:107C5400B302DFF8C011DFF8C00100F069FAFEE7F3
:107C6400D8F82C000500C8F82C60D8F818000028B3
:107C740003D4D6F11F00C8F81800DFF890A15FF014
:107C8400140BD8F814000BFB05F1514488423DD184
:107C940018F1040000F099FA002808D1DFF87011F7
:107CA4000A680123D8F82C0083409A430A60DFF85D
:107CB40060110A680123D8F82C0083401A430A6033
:107CC400D8F82C000BFB00F050444068C8F80800BA
:107CD4008168C8F80C1018F104018268516018F129
:107CE40004018160D8F82C100BFB01F15144C8F851
:107CF4001410D8F82C100BFB01F1D8F82C200BFB36
:107D040002FB5AF80B20521C4AF80120BDE8F18FFF
:107D1400DFF8E8100868002803D00868426D521C98
:107D24004265086870470000188A0020148A002001
:107D3400FC89002004890020188900202C89002057
:107D440054890020E489002004ED00E02DE9F0418D
:107D540005000C0031480768DFF8A0800020D8F83F
:107D6400001081F86100D8F80000001D00F02DFA21
:107D7400002808D1D8F8000025490A680123C06A00
:107D840083409A430A6015F1010F1AD1002C18D0D0
:107D940023484168D8F8002091608A68D8F80030F8
:107DA400DA60D8F80020121D8B685A60D8F80020D9
:107DB400121D8A60D8F8002050610268521C0260CB
:107DC4001AE0E8190600D8F800004660BE4207D25F
:107DD400D8F80000011D1348006800F0DBF90BE03F
:107DE400D8F80000011D1048006800F0D3F90448D9
:107DF40001688E4200D20660BDE8F081D889002077
:107E0400088A0020F4890020108A0020B080002015
:107E1400F0890020B8CC0008E0CD0008EC890020EF
:107E240054890020E0890020DC8900202DE9F84FE6
:107E340004005FF00009FFF7FFF9DFF864A2DAF845
:107E44000000002801D100F0CEF8002C10D0DFF89B
:107E540054020168083114F00700091A0D005FF09C
:107E6400FF30401BA04201D32C1901E00020040084
:107E7400002C5AD4002C58D0DFF82CB2DBF80000C8
:107E8400A04252D389480700006806007068A042E7
:107E940005D23068002802D037003668F6E7DAF8F1
:107EA4000000864241D07F483968026811448946FF
:107EB40031683960006840007168091B88421BD230
:107EC40006EB0400804618F0070000280CD0502070
:107ED40080F31188BFF34F8FBFF36F8FDC22744997
:107EE400744800F025F9FEE77068001BC8F8040028
:107EF4007460404600F0A4F8DBF800107068091ABA
:107F0400CBF800106C48DBF800100268914202D2F2
:107F1400DBF800100160706850F0004070600020D1
:107F2400306066480168491C0160FFF78BF919F05D
:107F3400070000280DD0502080F31188BFF34F8F25
:107F4400BFF36F8F4FF48E7259495A4800F0F0F81E
:107F5400FEE74846BDE8F28F70B504002600002C09
:107F640040D0504800684042064435006868002804
:107F74000DD4502080F31188BFF34F8FBFF36F8F60
:107F840040F22F124A494B4800F0D2F8FEE7286825
:107F940000280DD0502080F31188BFF34F8FBFF31A
:107FA4006F8F4FF498724249424800F0C1F8FEE7DF
:107FB4006868002816D52868002813D1686820F05E
:107FC40000406860FFF738F937490A686868821822
:107FD4000A60280000F034F839480168491C01603F
:107FE400FFF730F970BD70B44FF4F042354801002A
:107FF40011F0070F04D0C91DC908C900521A82180C
:108004000B002A48036000244460D4182548006803
:10801400241AE408E400224D2C6000202E687060CD
:1080240000202E6830601800261A46602D6805600E
:108034004568214E356045681B4E356070BC7047FD
:1080440030B41A4A1168814201D21268FAE7140066
:1080540051682144814204D153684168CB1853606C
:1080640010000300416819441568A94210D10C4955
:1080740014680D68AC4208D04468116849680C194A
:10808400446011680968016004E00968016001E066
:1080940011680160824200D0106030BC704700005B
:1080A400B8890020F4CF0008BC89002098890020FA
:1080B400CCCB000874CD0008C0890020C4890020FE
:1080C400C8890020EC00002062F30F2262F31F42F3
:1080D400401810F0030308D0C91A1FD3DB0748BFA8
:1080E40000F8012D28BF20F8022D130030B41446E7
:1080F4001546103928BF20E93C00FAD8490728BFA3
:1081040020E90C0048BF40F8042D890028BF20F85E
:10811400022D48BF00F8012D30BC7047C91818BFA4
:1081240000F8012DCB0728BF00F8012D704700008F
:108134000EB4C0B5024603A800210190009101AB22
:108144000121044878440C30FCF772FF06BC5DF84A
:1081540010FB00BF9D4D000010F1080141605FF06D
:10816400FF31816010F10801C16010F10801016163
:1081740000210160704700210161704742684A6034
:1081840093688B60936859609160086103685B1C15
:108194000360704710B40B6813F1010F01D1026939
:1081A40007E010F1080254682468A34201D352681E
:1081B400F9E754684C604C68A1608A6051600861BA
:1081C4000468641C046010BC7047010008698A6874
:1081D4004B689A604A688B685A6042688A4201D147
:1081E4008A68426000220A610268521E02600068C6
:1081F40070470000001F5FF080730360001F4B088E
:108204005B000360001F0FF20D030360143802606B
:108214002038704780B58048006810F1010F0CD0F9
:10822400502080F31188BFF34F8FBFF36F8FCB22A1
:108234007A497B48FFF77CFFFEE7502080F31188E2
:10824400BFF34F8FBFF36F8FFEE71CB5754C2078DB
:108254000190FF20207020788DF800009DF8000028
:1082640010F05000704908707048072101609DF8B3
:108274000010090608D50168491E01609DF8001028
:1082840049008DF80010F2E70168D1F107010429D3
:108294000DD0502080F31188BFF34F8FBFF36F8F41
:1082A4004FF482725D495E48FFF742FFFEE70168C2
:1082B400D1F1070104290DD0502080F31188BFF3B8
:1082C4004F8FBFF36F8F40F20D1254495448FFF79C
:1082D4002FFFFEE7016809020160016811F4E06103
:1082E4000160019820705248016851F470010160E6
:1082F400016851F07041016000F0A2F80020464985
:10830400086000F002FC002016BD80B5502080F308
:108314001188BFF34F8FBFF36F8F3F490A68521C18
:108324000A600968012910D14249096809060CD07C
:1083340080F31188BFF34F8FBFF36F8F40F2431266
:1083440036493748FFF7F4FEFEE701BD80B53249F0
:10835400086800280DD1502080F31188BFF34F8F97
:10836400BFF36F8F4FF4A5722C492D48FFF7E0FE41
:10837400FEE70868401E08600868002802D1002053
:1083840080F3118801BD80B5502080F31188BFF3BC
:108394004F8FBFF36F8FFFF71DF8002803D05FF0F6
:1083A400805024490860002080F3118801BD00003A
:1083B40038B5EFF30585102D17D31F480068405DCD
:1083C4000400200018490978C0B288420DD2502018
:1083D40080F31188BFF34F8FBFF36F8F40F28A226F
:1083E4000E490F48FFF7A4FEFEE710480068134942
:1083F400096811F4E06188420DD2502080F311889D
:10840400BFF34F8FBFF36F8F40F29B2203490448A1
:10841400FFF78EFEFEE731BD0000002010CC0008FF
:1084240098CD000800E400E03B8A0020CC890020BD
:1084340020ED00E004ED00E0F8CF00080CED00E0D2
:108444000548002101600021044A11600449054ADD
:10845400116007210160704710E000E018E000E0BF
:10846400BFD4010014E000E01CB5002400F08FF933
:10847400DFF86003006800280ED0DFF85C03019089
:108484000220009000234FF41672DFF850130FF20D
:108494009900FEF7CDFC0400002C0FD1502080F38E
:1084A4001188BFF34F8FBFF36F8F40F21912DFF8BB
:1084B4003013DFF83003FFF73BFEFEE7200016BD64
:1084C40070B504000D0016002B003200A169491993
:1084D400200000F094F8002805D0A0694519200078
:1084E400216A8847F0E770BD70B504000D00DFF81D
:1084F400F8020068C068C668301DFFF766FE96F88B
:108504002800400705D52A0021003000FFF7D8FFD6
:1085140005E096F8280010F0FE0086F828003000E8
:10852400316A884770BD000038B50400684600F021
:1085340040F805000099280000F003F800F087F8DF
:10854400F4E77CB505000C00FEF776FE684600F003
:1085540043F806000098002828D1002C08D1AE4228
:1085640006D3FEF76FFE31002800FFF7BDFF1FE0C2
:10857400002C08D0DFF8740200680068002801D1DC
:10858400012400E000242200A91B9248006801F0A5
:10859400E4F8FEF757FE00280AD15FF080509449B2
:1085A4000860BFF34F8FBFF36F8F01E0FEF74AFE01
:1085B40073BD01008C4A10680068002801D10120B5
:1085C40000E0002008600868002803D11068C06833
:1085D400006800E00020704770B50400FEF7D7FE85
:1085E4000500844E3068854204D200F0BAF80120B8
:1085F400206001E0002020603560280070BD2DE976
:10860400F04104000D0016001F005FF000086560D3
:108614002461AE420CD3F01BA169884202D301202D
:10862400804611E0211D71480068FFF7B3FD0BE09F
:10863400BE4204D2BD4202D30120804604E0211D83
:1086440069480068FFF7A6FD4046BDE8F08138B5EB
:1086540084B0002269465F48006800F001FD0028EC
:108664007DD000980028F4D40298040060690028A2
:1086740002D0201DFFF7A9FD03A8FFF7ADFF0500F9
:10868400009801280DD069D3032830D009D30528D8
:1086940055D033D3072804D003D309282ED026D3AA
:1086A4005CE094F8280050F0010084F82800019B55
:1086B4002A000199A06941182000FFF7A0FF0028B3
:1086C40014D094F82800400707D52A000199A0691E
:1086D40041182000FFF7F4FE05E094F8280010F09C
:1086E400FE0084F828002000216A8847B1E794F846
:1086F400280010F0FE0084F82800AAE794F8280067
:1087040050F0010084F828000198A061A0690028B5
:108714000DD1502080F31188BFF34F8FBFF36F8FBB
:1087240040F25E322E492F48FFF702FDFEE72B0090
:108734002A00A16949192000FFF761FF89E794F82D
:108744002800800703D42000FFF706FC05E094F816
:10875400280010F0FE0084F828007AE779E705B0D5
:1087640030BD10B5204908680068002809D00868A1
:10877400C068006804005FF0FF312000FFF7B4FE1A
:10878400F0E70868194A13680B60106010BD70B5F3
:10879400FFF7BBFD0F4C2068002818D1164D2800A8
:1087A400FFF7DAFC154E3000FFF7D6FC0E480560E3
:1087B4000E48066000220C21052000F02CFA2060EF
:1087C4002068002803D00E49206800F092FFFFF7CC
:1087D400BDFD70BD248A0020288A0020E0CF000857
:1087E4004CCC000804CE00081C8A0020208A0020FB
:1087F40004ED00E02C8A0020688900207C89002098
:10880400E8CF000838B586B0042100226C46200069
:10881400FFF75AFC1021002202AC2000FFF754FCA1
:108824000421002201AC2000FFF74EFC734C200011
:1088340001F022F872488188ADF8001003218DF808
:10884400021018218DF803106946006801F038F908
:108854006C488188ADF8001004218DF80310694636
:10886400006801F02DF9684DA888ADF800001020CB
:108874008DF803006946286801F022F9A888296860
:1088840048616248624908604FF490706149086029
:108894006148016851F001010160A88829680861F4
:1088A4004FF4165002900020ADF80C000020ADF8F3
:1088B4000E000020ADF810000020ADF814000C20CC
:1088C400ADF8120002A9200001F01EF801212000D9
:1088D40001F090F8012240F22441200001F099F8BF
:1088E40001224021200001F0CCF834208DF804004E
:1088F4000A208DF8050002208DF8060001208DF86D
:10890400070001A801F09DF907B030BD3B49098873
:108914000906FBD50100C9B2404A1180704770B501
:1089240004000D00002038498A8809680A6100267D
:108934003000290080B289B2884206D2300080B269
:10894400205CFFF7E3FF761CF2E72C480088400622
:10895400FBD570BD70B58CB004000D00042100225D
:108964006E463000FFF7B0FB2C21002201AE300030
:10897400FFF7AAFB284E300001F0AAF9274801901E
:108984000294002003900495002005908020069016
:108994000020079000200890002009904FF44050D8
:1089A4000A9000200B9001A9300001F009FA01227D
:1089B4000221300001F022FA144815490860306899
:1089C4004008400030603A208DF800000A208DF8FD
:1089D400010002208DF8020001208DF80300684692
:1089E40001F02FF90CB070BD80B5FFF70BFF4FF409
:1089F40090710B48FFF7AEFF01BD0000004C004032
:108A0400C0CF0008C8CF0008D0CF00080002001073
:108A1400040402403404024030040240044C004088
:108A24001C83002011B581B00C00012101A8FFF7BF
:108A340076FF019816BD38B584B004000D002000FF
:108A4400ADF808002800ADF804000020ADF80A00D5
:108A54000020ADF8060001A95FF0804001F0F6F9AE
:108A6400012201215FF0804001F051FA1C208DF8B1
:108A7400000004208DF8010000208DF80200012080
:108A84008DF80300684601F0DCF801215FF08040B6
:108A940001F02EFA05B030BD80B577210920FFF72B
:108AA400CAFF01BDEFF30980BFF36F8F1D4B1A6836
:108AB40020E9F00F106008B54FF0500080F31188E2
:108AC400BFF34F8FBFF36F8FFEF754FD4FF00000DD
:108AD40080F31188BDE8084019680868B0E8F00F11
:108AE40080F30988BFF36F8F70470E4B19680868CD
:108AF400B0E8F00F80F30988BFF36F8F4FF00000E8
:108B040080F311884EF00D0E704707480068006826
:108B140080F3088862B661B6BFF34F8FBFF36F8FDF
:108B240000DF0000D889002008ED00E0F8B5070058
:108B34000D0001263C00002C0FD1502080F3118839
:108B4400BFF34F8FBFF36F8F4FF49772DFF858184E
:108B5400DFF8E809FFF7ECFAFEE7002C45D0E06BFC
:108B6400002842D05FF0FF30E16BB0FBF1F0216CE4
:108B740088423AD3FFF7C9FB2168E26B206C424379
:108B840001EB0200A0600020A063206860602168FF
:108B9400E26B521E206C424301EB0200E0605FF086
:108BA400FF3084F8440084F84500002D12D1206978
:108BB400002817D014F11000FEF78AFD002811D008
:108BC4005FF08050DFF878190860BFF34F8FBFF370
:108BD4006F8F07E014F11000FFF7BEFA14F12400C0
:108BE400FFF7BAFAFFF7B2FB01E000200600002EFF
:108BF4000FD1502080F31188BFF34F8FBFF36F8FD5
:108C040040F26312DFF8A017DFF83009FFF790FA9B
:108C1400FEE73000F2BD2DE9F84305008846914691
:108C24000024002D20D05FF0FF30B0FBF5F040456C
:108C34001AD308FB05F010F1540F15D208FB05F008
:108C4400060016F15400FFF7F1F80400002C1DD0C3
:108C540020005430070000944B46DBB23A004146F2
:108C6400280000F016F811E0002C0FD1502080F3FA
:108C74001188BFF34F8FBFF36F8F4FF4F272DFF899
:108C84002817DFF8B808FFF753FAFEE72000BDE81D
:108C9400F2832DE9F04105000C0016001F00DDF8F9
:108CA4001880002C02D1C8F8008001E0C8F80060E8
:108CB400C8F83C50C8F8404001214046FFF736FF51
:108CC40088F850700020C8F84800BDE8F0812DE90C
:108CD400F64782B081460D009A4600244E46002E87
:108CE4000FD1502080F31188BFF34F8FBFF36F8FE4
:108CF4004FF45372DFF8B016DFF84008FFF718FAA4
:108D0400FEE7002D02D1306C002801D1012000E0E3
:108D14000020C0B200280FD1502080F31188BFF387
:108D24004F8FBFF36F8F40F24D32DFF87C16DFF8C0
:108D34000C08FFF7FDF9FEE7BAF1020F02D1F06B60
:108D4400012801D1012000E00020C0B200280FD189
:108D5400502080F31188BFF34F8FBFF36F8F40F221
:108D64004E32DFF84416DFF8D407FFF7E1F9FEE7E7
:108D7400FEF72BFE002802D10398002801D1012020
:108D840000E00020C0B200280FD1502080F31188E9
:108D9400BFF34F8FBFF36F8F40F25132DFF80816E5
:108DA400DFF89807FFF7C4F9FEE7FFF7AEFAB06BF8
:108DB400F16B884202D3BAF1020F40D1B76B52462D
:108DC4002900300000F0CBFB8046B06C002813D0A3
:108DD400BAF1020F01D1002F2DD1300000F0E3FCD5
:108DE400002828D05FF08050DFF854170860BFF3E4
:108DF4004F8FBFF36F8F1EE0706A00280FD016F1FB
:108E04002400FEF765FC002815D05FF08050DFF8E1
:108E140030170860BFF34F8FBFF36F8F0BE0B8F1CB
:108E2400000F08D05FF08050DFF814170860BFF31C
:108E34004F8FBFF36F8FFFF789FA012053E0039838
:108E4400002803D1FFF782FA00204CE0002C04D163
:108E54006846FEF7C9FC01200400FFF777FAFEF725
:108E6400EBF9FFF752FA96F9440010F1010F02D121
:108E7400002086F8440096F9450010F1010F02D154
:108E8400002086F84500FFF761FA03A96846FEF75B
:108E9400B7FC002821D1300000F01CFC002816D0BB
:108EA400039916F11000FEF7BDFB300000F0C0FB83
:108EB400FEF7C8F900287FF478AF5FF08050DFF840
:108EC40080160860BFF34F8FBFF36F8F6DE73000DC
:108ED40000F0AEFBFEF7B6F967E7300000F0A8FB40
:108EE400FEF7B0F9002004B0BDE8F0872DE9FE4F8D
:108EF40007000D00140098463E00002E0FD15020AC
:108F040080F31188BFF34F8FBFF36F8F4FF48462E8
:108F1400DFF89414DFF82C06FFF70AF9FEE7002DBA
:108F240002D1306C002801D1012000E00020C0B241
:108F340000280FD1502080F31188BFF34F8FBFF367
:108F44006F8F40F22142DFF86014DFF8F805FFF775
:108F5400EFF8FEE7B8F1020F02D1F06B012801D15E
:108F6400012000E00020C0B200280FD1502080F37F
:108F74001188BFF34F8FBFF36F8F40F22242DFF8A7
:108F84002814DFF8C005FFF7D3F8FEE7FFF710FA5F
:108F9400EFF311895FF0500A8AF31188BFF34F8F02
:108FA400BFF36F8FB06BF16B884202D3B8F1020F3D
:108FB40051D196F945008DF80000B06B01904246FE
:108FC4002900300000F0CBFA9DF9000010F1010FE8
:108FD40020D1B06C00280FD0B8F1020F02D1019853
:108FE400002836D1300000F0DEFB002831D0002C00
:108FF4002FD0012020602CE0706A002829D016F1BF
:109004002400FEF765FB002823D0002C21D001208A
:1090140020601EE0FEF7BFF983469DF90000584525
:1090240017D29DF900007F280ED18AF31188BFF36F
:109034004F8FBFF36F8F40F2AB42DFF86C13DFF852
:109044000405FFF775F8FEE79DF80000401C86F85C
:109054004500012000E0002089F31188BDE8FE8F5F
:109064002DE9F64182B080460E0000244746002FC9
:109074000ED1502080F31188BFF34F8FBFF36F8F51
:1090840040F26B52C849DFF8B404FFF751F8FEE729
:10909400002E02D1386C002801D1012000E000200C
:1090A400C0B200280ED1502080F31188BFF34F8F37
:1090B400BFF36F8F40F26F52BB49DFF88004FFF7B4
:1090C40037F8FEE7FEF781FC002802D10398002858
:1090D40001D1012000E00020C0B200280ED15020B0
:1090E40080F31188BFF34F8FBFF36F8F40F2745238
:1090F400AD49DFF84804FFF71BF8FEE7FFF705F971
:10910400BD6B002D1BD03100380000F076FA681ECC
:10911400B863386900280ED017F11000FEF7D8FAAA
:10912400002808D05FF08050DFF814140860BFF303
:109134004F8FBFF36F8FFFF709F9012057E00398B2
:10914400002803D1FFF702F9002050E0002C04D1DD
:109154006846FEF749FB01200400FFF7F7F8FEF725
:109164006BF8FFF7D2F897F9440010F1010F02D120
:10917400002087F8440097F9450010F1010F02D14F
:10918400002087F84500FFF7E1F803A96846FEF7D9
:1091940037FB002820D1380000F08EFA002815D0C3
:1091A400039917F12400FEF73DFA380000F040FA65
:1091B400FEF748F80028A1D15FF08050DFF8801353
:1091C4000860BFF34F8FBFF36F8F97E7380000F04D
:1091D4002FFAFEF737F891E7380000F029FAFEF786
:1091E40031F8380000F068FA002887D0002004B075
:1091F400BDE8F0812DE9F34182B080460024464663
:109204000027002E0DD1502080F31188BFF34F8F1B
:10921400BFF36F8F40F2FD526349C848FEF788FFE1
:10922400FEE7306C00280DD0502080F31188BFF386
:109234004F8FBFF36F8F40F201625B49BF48FEF767
:1092440077FFFEE7FEF7C1FB002802D10398002850
:1092540001D1012000E00020C0B200280DD150202F
:1092640080F31188BFF34F8FBFF36F8F40F2066214
:109274004D49B248FEF75CFFFEE7FFF746F8B56BD1
:10928400002D1CD0681EB0633068002802D1FEF7A0
:109294003FFDB060306900280DD016F11000FEF7D4
:1092A40017FA002807D05FF08050A5490860BFF383
:1092B4004F8FBFF36F8FFFF749F8012070E00398D9
:1092C400002803D1FFF742F8002069E0002C04D104
:1092D4006846FEF789FA01200400FFF737F8FDF726
:1092E400ABFFFFF712F896F9440010F1010F02D119
:1092F400002086F8440096F9450010F1010F02D1D0
:10930400002086F84500FFF721F803A96846FEF718
:1093140077FA00282AD1300000F0CEF900281FD0B7
:109324003068002807D1FEF7F0FFB068FEF764FB51
:109334000700FFF70BF8039916F12400FEF772F902
:10934400300000F075F9FDF77DFF002895D15FF03E
:1093540080507B490860BFF34F8FBFF36F8F8CE75A
:10936400300000F065F9FDF76DFF86E7300000F08E
:109374005FF9FDF767FF300000F09EF900283FF425
:109384007CAF002F0BD0FEF7C0FF300000F0DCF8FC
:1093940005002900B068FEF71FFCFEF7D7FF002088
:1093A40004B0BDE8F081000084CC00082DE9F74347
:1093B40080460E0000244746002F0ED1502080F333
:1093C4001188BFF34F8FBFF36F8F40F2CD62DFF888
:1093D4009C145A48FEF7ACFEFEE7002E02D1386C0E
:1093E400002801D1012000E00020C0B200280ED1E5
:1093F400502080F31188BFF34F8FBFF36F8F40F27B
:10940400D162DFF868144D48FEF792FEFEE7FEF7DE
:10941400DCFA002802D10298002801D1012000E0E2
:109424000020C0B200280ED1502080F31188BFF371
:109434004F8FBFF36F8F40F2D662DFF830143F488E
:10944400FEF776FEFEE7FEF760FFBD6B002D1CD035
:10945400D7F80C903100380000F0CFF8C7F80C9022
:10946400786A00280DD017F12400FEF731F900289E
:1094740007D05FF0805032490860BFF34F8FBFF3CD
:109484006F8FFEF763FF012056E00298002803D196
:10949400FEF75CFF00204FE0002C04D16846FEF785
:1094A400A3F901200400FEF751FFFDF7C5FEFEF706
:1094B4002CFF97F9440010F1010F02D1002087F826
:1094C400440097F9450010F1010F02D1002087F8FC
:1094D4004500FEF73BFF02A96846FEF791F9002814
:1094E4001FD1380000F0E8F8002814D0029917F1D1
:1094F4002400FEF797F8380000F09AF8FDF7A2FE72
:109504000028A0D15FF080500D490860BFF34F8F51
:10951400BFF36F8F97E7380000F08AF8FDF792FEEB
:1095240091E7380000F084F8FDF78CFE380000F075
:10953400C3F8002887D00020BDE8FE83BCCD000816
:1095440004ED00E0BCCD00080100486A002804D006
:10955400086B0068D0F11F0000E0002070472DE97F
:10956400F84F06000F0014005FF00008B56B306C74
:10957400002809D1306800283AD1B068FEF7AEFA65
:1095840080460020B06033E0002C14D1D6F840901F
:10959400BA46D6F804B04A4651465846FCF752FE3D
:1095A4007068316C084470607068B16888421FD379
:1095B400306870601CE0D6F84090BA46D6F80CB01B
:1095C4004A4651465846FCF73DFEF068316C494224
:1095D4000844F060F0683168884204D2B068316CA5
:1095E40049420844F060022C02D1002D00D06D1EC7
:1095F400681CB0634046BDE8F28F2DE9F0410400D9
:109604000D00206C002811D0E068216C0844E06053
:10961400E068A168884201D32068E060266CE768AE
:10962400A846320039004046FCF70CFEBDE8F08144
:10963400F8B50400FEF769FE94F94550280040B2DD
:10964400012819DBA06C002807D0200000F0ABF83B
:1096540000280FD0FEF739F90CE0606A002808D022
:1096640014F12400FEF734F8002803D0FEF72DF996
:1096740000E001E06D1EE1E75FF0FF3684F845602D
:10968400FEF764FEFEF741FE94F94470380040B2E0
:1096940001280CDB2069002809D014F11000FEF722
:1096A40017F8002801D0FEF710F97F1EEEE784F8C2
:1096B4004460FEF74BFEF1BD38B50400FEF725FE0D
:1096C400A06B002801D1012500E00025FEF73EFE35
:1096D400280032BD38B50400FEF717FEA06BE16B1D
:1096E400884201D1012500E00025FEF72FFE280065
:1096F40032BDF8B505000E000024002D0DD1502018
:1097040080F31188BFF34F8FBFF36F8F40F6D822D9
:1097140056495748FEF70CFDFEE7002E18D00020EE
:109724000700082F14D2534901EBC7004068854253
:1097340003D101EBC70004000AE0002C06D151F864
:109744003700002802D101EBC70004007F1CE8E7C2
:10975400002C01D026606560F1BDF8B504000D0051
:1097640016002700FEF7D1FD97F9440010F1010F10
:1097740002D1002087F8440097F9450010F1010F49
:1097840002D1002087F84500FEF7E0FDB86B002801
:1097940005D13200290017F12400FDF765FF3800D8
:1097A400FFF746FFF1BDF1B50098846C0025002C4D
:1097B4000DD1502080F31188BFF34F8FBFF36F8F0B
:1097C40040F6E33229492A48FEF7B2FCFEE7A06BD3
:1097D400E16B88420DD3502080F31188BFF34F8F83
:1097E400BFF36F8F40F6E43220492148FEF7A0FC16
:1097F400FEE7A06BE16B884235D294F94560002204
:1098040069462000FFF7ABFE050030005FF0FF3132
:1098140040B288420BD1606A002824D014F124009D
:10982400FDF756FF00281ED0012005001BE0FDF7C0
:10983400B2FD0700300040B2B84214D2300040B24A
:109844007F280DD1502080F31188BFF34F8FBFF3D1
:109854006F8F40F6044205490548FEF769FCFEE7B0
:10986400761C84F845602800F2BD000084CC000812
:10987400BCCD00083C88002010B504005848844240
:109884000AD101214FF4804000F09EFC00214FF4E6
:10989400804000F099FC36E0524884420AD101210C
:1098A4005FF4003000F09EFC00215FF4003000F013
:1098B40099FC28E04C4884420AD101215FF48020BD
:1098C40000F090FC00215FF4802000F08BFC1AE093
:1098D400464884420AD101215FF4002000F082FC52
:1098E40000215FF4002000F07DFC0CE0404884423D
:1098F40009D101215FF4801000F074FC00215FF4B1
:10990400801000F06FFC10BD2DE9F84F86B0040004
:109914000D00002600275FF000085FF000095FF0EB
:10992400000AA8890028A346218A4CF6FF7001404A
:10993400E8880143009100982082A1894EF6F31033
:109944000140AA882889024368890243114300918F
:109954000098A081A18A4FF6FF400140A8890143E5
:1099640000910098A08201A800F098FB1C48834550
:1099740001D1049900E00399A089000407D51920B6
:1099840000FB01F02A685200B0FBF2F206E0192055
:1099940000FB01F02A689200B0FBF2F26420B2FBF3
:1099A400F0F6360133001B09642000FB1323A08961
:1099B400000408D5D80032306427B0FBF7F010F06B
:1099C4000700064307E0180132306427B0FBF7F0C4
:1099D40010F00F000643268107B0BDE8F08F0000A9
:1099E400003801400044004000480040004C004062
:1099F400005000400A00D2B2002A04D0828952F4F6
:109A04000052828104E083894DF6FF721340838102
:109A140070472DE9F0410023002500275FF0000E78
:109A24000C0040F66A16A4B2B44280460C00E4B2BC
:109A34006409E4B20E00B6B216F01F065FF0010C22
:109A44001CFA06FC012C02D118F10C0806E0022CC9
:109A540002D118F1100801E018F114081300DBB268
:109A6400002B06D0D8F800305CEA0303C8F80030B5
:109A740005E0D8F8003033EA0C03C8F80030BDE83C
:109A8400F0811300DBB2002B03D0838A0B43838263
:109A940002E0838A8B438382704770B400220024DF
:109AA4000B0040F66A159BB2AB420B009BB21B0A3B
:109AB40001259D402E00B6B2F643068070BC704767
:109AC400F0B500220023002400250026002791F889
:109AD40003C01CF00F0C91F803E05FEACE6E02D5D0
:109AE4008A7852EA0C0C0A7812062AD00268160008
:109AF40000221400082C23D25FF0010E1EFA04F297
:109B040015000A882A401300AB4217D1A2001500A1
:109B14000F22AA401700BE431CFA05F21643CA7866
:109B2400282A04D11EFA04FEC0F814E006E0CA781C
:109B3400482A03D11EFA04FEC0F810E0641CD9E7D9
:109B440006600A88B2F5807F2EDB42681600002288
:109B54001400082C27D25FF0010E14F108021EFA3B
:109B640002F215000A882A401300AB4219D1A20060
:109B740015000F22AA401700BE431CFA05F2164333
:109B8400CA78282A04D114F108021EFA02F24261AA
:109B9400CA78482A05D114F108021EFA02FEC0F858
:109BA40010E0641CD5E74660F0BDF0B40022002349
:109BB40000250027002802D51D4C246801E01D4C17
:109BC4002468C0F3034586B210F4401CBCF5401F62
:109BD40007D134F07064174A176837F0706717605C
:109BE40011E0C20206D50322AA4013009C4354F09C
:109BF400706408E00200520DD2B2120116FA02F2A9
:109C0400944354F070640A00D2B2002A06D00200D1
:109C1400520DD2B2120116FA02F21443002802D5F0
:109C2400034A146001E0034A1460F0BC704700006A
:109C34001C000140040001401E4901431E4A1160FA
:109C44007047F0B4002200230F24C17800291FD0EC
:109C54001949096811F4E061D1F5E061090AD1F10B
:109C640004052B00CC4045789D408678264035433A
:109C74002D012A00114D0678AA550125067816F003
:109C84001F06B5400E4E07787F1146F8275009E0AD
:109C94000121057815F01F05A9400A4D06787611B3
:109CA40045F82610F0BC7047074A0A400243074BA8
:109CB4001A6070470000FA050CED00E000E400E0D3
:109CC40000E100E080E100E080FFFF1F08ED00E01C
:109CD40001684908490001600021016000214160D8
:109CE400002181600021C1604A49884205D14A4966
:109CF4000A6852F00F020A6061E04849884205D1BF
:109D040045490A6852F0F0020A6058E04449884222
:109D140005D141490A6852F470620A604FE0414932
:109D2400884205D13C490A6852F470420A6046E010
:109D34003D49884205D138490A6852F470220A60C4
:109D44003DE03A49884205D133490A6852F4700229
:109D54000A6034E03649884205D12F490A6852F036
:109D640070620A602BE03349884205D132490A689F
:109D740052F00F020A6022E03049884205D12E4990
:109D84000A6852F0F0020A6019E02D49884205D1B0
:109D940029490A6852F470620A6010E0294988422D
:109DA40005D125490A6852F470420A6007E0264941
:109DB400884204D120490A6852F470220A6070472C
:109DC40030B4002304686FF30E148D680A6A1543D7
:109DD4000A6915434A6915438A691543CA691543D3
:109DE4004A6A15438A6A15432C430460CA68426070
:109DF4000A6882604A68C26030BC70471300DBB2F4
:109E0400002B03D003680B43036002E003688B4319
:109E14000360704708000240040002401C00024036
:109E24003000024044000240580002406C000240EE
:109E34008000024008040240040402401C04024062
:109E440030040240440402405804024010B400228A
:109E540004881D4B98420ED0214A90420BD0B0F199
:109E6400804F08D0194A904205D0194A904202D036
:109E7400184A904204D14FF68F7214404A88144312
:109E8400154A904207D0154A904204D04FF6FF423B
:109E94001440CA88144304808A8882850A8802850B
:109EA40098420BD00E4A904208D00E4A904205D0F8
:109EB4000D4A904202D00D4A904201D10A7A02869C
:109EC4000122828210BC7047002C01400004004033
:109ED40000080040000C0040001000400014004046
:109EE400003401400040014000440140004801406A
:109EF4000A00D2B2002A04D0028852F00102028081
:109F040004E003884FF6FE72134003807047130089
:109F1400DBB2002B03D083890B43838102E0838966
:109F24008B4383817047F0B4020000230026002491
:109F3400178A0F4095890D40380080B2002805D05B
:109F4400280080B2002801D0012000E00020C0B227
:109F5400F0BC70470A0092B2D243028270470000FC
:109F6400DFF8E412086850F001000860DFF8DC2232
:109F74001368DFF8DC02034013600B68DFF8D402D7
:109F840003400B60086830F480200860106830F4E7
:109F9400FE0010605FF41F00DFF8BC120860704719
:109FA400DFF8A4120A6832F480320A600A6832F4D4
:109FB40080220A600200B2F5803F03D0B2F5802F00
:109FC40005D009E00A6852F480320A6004E00A68A5
:109FD40052F4A0220A60FFE7704738B500200090D1
:109FE40000240025312000F00BF905000098401CE6
:109FF400009000984FF6FF71884203D02800C0B249
:10A004000028EFD0312000F0FBF8002801D0012017
:10A0140000E00020C0B232BD30B400238B4D2C6868
:10A0240034F47C1451EA000214432C6030BC7047B1
:10A034000100C9B2894A116070470021834B1A6834
:10A044009208920002431A6070478048006810F03A
:10A054000C00704700217D4B1A6832F0F002024375
:10A064001A6070470021794B1A6832F4E0620243A7
:10A074001A6070470021754B1A6832F4605252EA34
:10A08400C0021A60704776490860704700216F4B20
:10A094001A6832F4404202431A6070472DE9F04FC7
:10A0A40001000022002500200026684FD7F800C0D8
:10A0B4001CF00C0C6346002B04D0042B05D0082B99
:10A0C40006D023E0684A0A6022E0684A0A601FE07A
:10A0D4003A6812F470123B6813F480331800920C3F
:10A0E400921C1500002804D1614A02FB05F20A60A3
:10A0F4000BE03A68920304D55E4A02FB05F20A605B
:10A1040003E05A4A02FB05F20A6001E0564A0A607B
:10A114003C6814F0F0042409DFF85C9119F804E0B9
:10A124000A6832FA0EF24A603B6813F4E0631B0AD1
:10A1340019F803804A6832FA08F28A603A6812F41D
:10A144006052D20A19F80290D1F804A03AFA09FA36
:10A15400C1F80CA03F6817F44047BF0BDFF81CA1FF
:10A164001AF807A0D1F80CB0BBFBFAFBC1F810B089
:10A17400BDE8F08F0A00D2B2002A04D0404A136826
:10A184000343136003E03E4A13688343136070473C
:10A194000A00D2B2002A04D03A4A13680343136077
:10A1A40003E0384A13688343136070470A00D2B24D
:10A1B400002A04D0344A13680343136003E0324A8C
:10A1C40013688343136070470A00D2B2002A04D094
:10A1D4002E4A13680343136003E02C4A1368834335
:10A1E400136070470A00D2B2002A04D0284A1368C8
:10A1F4000343136003E0264A1368834313607047E4
:10A2040030B401000020002300250A00D2B2520914
:10A21400D2B2012A02D10C48046806E0022A02D113
:10A224001048046801E01B4804680B00DBB213F01B
:10A234001F032000D840C00701D5012000E0002002
:10A24400C0B230BC7047000000100240041002404D
:10A254000000FFF8FFFFF6FE0810024060004242D3
:10A26400D80042422010024000127A00001BB700BE
:10A2740000093D00808D5B000400002014000020D4
:10A2840014100240181002401C1002400C1002402E
:10A29400101002402410024080B501F004F8002898
:10A2A40000D000BF01BDF8B518240025DFF87C6993
:10A2B40037002A0021003800FDF706FF0120307026
:10A2C400F1BD2DE9F04100270026DFF860492200A6
:10A2D40018214FF4807001F01FF805002800C0B267
:10A2E40000280BD000275FF000081421200001F0A3
:10A2F4002FF96169884201D000221500220018213B
:10A304004FF4A06001F008F807003800C0B200283C
:10A314000BD000265FF000081421200001F018F98A
:10A324006169884201D00022170057EA0500C0B2D3
:10A33400002804D1FFF7B7FF00F046F828E0280012
:10A34400C0B2012810D13800C0B200280CD12200BC
:10A3540018214FF4807000F0DFFF220018214FF421
:10A36400A06001F0A0F813E02800C0B200280FD1CB
:10A374003800C0B201280BD1220018214FF4A0608C
:10A3840000F0CAFF220018214FF4807001F08BF80E
:10A3940001F002F945F25550DFF8041A0A888242A6
:10A3A40009D14A88637893EA020F04D18A88237812
:10A3B40093EA020F06D0088060784880207888806D
:10A3C40001F068F9BDE8F08170B50024DFF85C683D
:10A3D400002070611421300001F0BAF8706132007D
:10A3E40018214FF4807001F05EF805003200182146
:10A3F4004FF4A06001F057F8C0B270BD2DE9F84FDA
:10A4040005000E00170000245FF000087E202100E4
:10A4140089B239440871641C5520210089B2394439
:10A424000871641C0020210089B239440871641C3D
:10A43400DFF8F8070078210089B239440871641CF8
:10A444000020210089B239440871641CB7F8060160
:10A45400210089B239440871641CB7F8060180B23E
:10A46400000A210089B239440871641C1F202100AC
:10A4740089B239440871641C97F80801210089B233
:10A4840039440871641C0020210089B239440871E0
:10A49400641C300080B2FD281CDB200080B23844EC
:10A4A4000671641C300080B2000A210089B239446C
:10A4B4000871641CB1461FFA89F9AA46200080B2CB
:10A4C400384410F1040B4A4651465846FBF7BAFE8D
:10A4D40034191FE0B1461FFA89F9AA46200080B258
:10A4E400384410F1040B4A4651465846FBF7AAFE7D
:10A4F400341997F80401210089B239440871641CA5
:10A5040097F80501210089B239440871641C2000C0
:10A51400401EB871210089B2891EB81D01F018F8D7
:10A524000100200080B238440171641C20000A003C
:10A5340092B2120A03009BB23B441A71401C788009
:10A5440080B2BDE8F28F2DE9F84304000D0000232A
:10A55400002000210022B4F805603700BFB24FF696
:10A56400FF7C674509D03000DFF8C0763F7880B2C1
:10A57400BFB2B84201D000203DE0B4F80300A5F812
:10A58400060100206880E77985F80871002085F8C5
:10A594000401002085F80501A078002804D1B4F84E
:10A5A400098014F10B0904E0A078B0F1080814F153
:10A5B40009093800C0B2F7280DD1404680B20028FE
:10A5C40008D1012028702A003221DFF8F409FFF7AE
:10A5D40015FF6880FFE7688800280BD1012085F803
:10A5E4000401042085F805012A0000210020FFF75A
:10A5F40005FF68806888BDE8F2832DE9F04F85B0D7
:10A6040004000D0016001F00082100220DF10808A7
:10A614004046FDF759FD5FF0000B5FF00008002194
:10A62400DFF808060278944205D040F2FF729442A3
:10A6340001D000206AE040F2FF7292EA040F02D0D7
:10A6440014F5907903E090F8009019F5E06928007A
:10A65400C0B2022802D0072810D055E03000C0B2A2
:10A6640002280AD101208046002000900023002205
:10A674002900C9B2484600F0ABF945E03000C0B249
:10A68400032840D10020B9788DF804109DF80410F7
:10A694000A292DDA9DF8040002A95A46D2B2885438
:10A6A4001BF1010B8DF800B05FF0050ADFF81019FB
:10A6B4009DF804200520424301EB0200049002A807
:10A6C4009DF8001000EB010B524604995846FBF725
:10A6D400B9FD9DF800B01BF1050B02A800905B4684
:10A6E400DBB200222900C9B2484600F071F908E043
:10A6F40000200090002302222900C9B2484600F03D
:10A7040067F901208046FFE74046C0B205B0BDE8C6
:10A71400F08F2DE9F24F82B0050016001F00DDF81E
:10A7240030805FF000099DF80800002806D0072853
:10A7340019D0302858D0322849D062E03000C0B255
:10A7440004280FD10024B87840280BD12800C0B2C7
:10A7540000F0F0F9002805D0F9788170DFF8B4181A
:10A76400096881604DE03000C0B208282FD1002074
:10A774005FF0000AB9788DF8001098F8081011F00D
:10A784000F018D4223D19DF8000098F80E108842E5
:10A794001DD12800C0B200F0CDF90400002C11D066
:10A7A4005FF0050AF81C01909DF800100520414354
:10A7B40004EB010010F1100B524601995846FBF7C7
:10A7C40041FD02E000208DF80000042081463000A5
:10A7D400C0B2022807D198F8080010F00F00854293
:10A7E40001D1042081460CE03000C0B2022807D118
:10A7F40098F8080010F00F00854201D1042081462A
:10A80400FFE74846C0B2BDE8FE8F2DE9FE4F0500C4
:10A814000E00170098465FF000093000C0B200280F
:10A8240004D0012821D0402857D0ADE03800C0B270
:10A83400032819D15FF0000A2800C0B200F07AF9A9
:10A844000400002C04D02570DFF8C8070068A0605D
:10A8540000200090002300223100C9B215F5B07029
:10A8640000F0B6F8012081468EE03800C0B204281A
:10A8740032D15FF0000A2800C0B200F05BF9040096
:10A88400002C07D0257098F80200607098F8030037
:10A89400A07015E0DFF8801708780E2810DA0A781F
:10A8A4004420424301EB0200001D0400257098F887
:10A8B4000200607098F80300A0700878401C0870CB
:10A8C40000200090002300223100C9B215F5B070B9
