:020000040800F2
:1040000058AD002079F80008BDE50008BFE50008BC
:10401000C1E50008C3E50008C5E500080000000090
:10402000000000000000000000000000B7BD000814
:10403000C7E500080000000071BD00087B9600087D
:10404000E5F90008E9F90008EDF90008F1F90008C0
:10405000F5F90008F9F90008FDF9000801FA00086F
:1040600005FA000809FA00080DFA000811FA00081C
:1040700023E8000809E8000841E7000827E70008EE
:1040800015FA000819FA00081DFA000821FA0008BC
:1040900085E6000825FA000829FA00082DFA00082C
:1040A00031FA000835FA000839FA00083DFA00082C
:1040B000C9E5000841FA000873E9000845FA00085C
:1040C00049FA00084DFA000851FA000855FA0008AC
:1040D00059FA000875E70008E5E8000855E8000807
:1040E0005DFA000861FA000865FA000869FA00083C
:1040F0006DFA000871FA000875FA000879FA0008EC
:104100007DFA000881FA000885FA000889FA00089B
:104110004FE600088DFA000891FA000895FA0008A9
:1041200099FA00089DFA0008FDE5000815E6000868
:1041300062F30F2262F31F42401810F0030308D00D
:10414000C91A1FD3DB0748BF00F8012D28BF20F88C
:10415000022D130030B414461546103928BF20E94B
:104160003C00FAD8490728BF20E90C0048BF40F8B6
:10417000042D890028BF20F8022D48BF00F8012D2A
:1041800030BC7047C91818BF00F8012DCB0728BFF5
:1041900000F8012D704710031F0000001C042108C7
:1041A000D21E08F1031412AA01120001200201021A
:1041B000030404400806070809020406081E00015B
:1041C000120108F002078AAF00080452FF01E3322F
:1041D0009D142004000096A4000840F0031654002B
:1041E0000020000120023D9800082C432B983C2120
:1041F00001200A02040101E08A0020308B0020081F
:104200002104211B6108F00411180100200401643D
:105000005250333432335F4D4220323431323235F4
:1050100030302047323331323030000000000000A1
:105020000000000000000000000000000000000080
:0250300000007E
:1050340080B501F004FE002800D000BFDFF8240D85
:10504400016851F0C041016001BD2DE9F047B4246D
:105054000025DFF8B06C37002A0021003800FFF784
:1050640065F8012030700520307100207071002037
:10507400B0710020F07100203072002070720020A6
:10508400B0720020F0720020307301207073002091
:10509400B0730020F073002030740020707401207D
:1050A400B0740020F074002030750020707500206A
:1050B400B075012086F82800002086F829004FF4F6
:1050C400FA707085002086F82C00DFF89C0C3063A1
:1050D4004FF40260B086012086F83C000020A6F858
:1050E4009000C02086F89400A82086F8950001203E
:1050F40086F89600452086F897004FF4FB70A6F8D2
:105104009200FF2086F89C0086F89D0086F89E0099
:10511400002086F89F00C02086F89800A82086F812
:105124009900012086F89A00012086F89B00C0208F
:1051340086F8A200A82086F8A300012086F8A4001F
:10514400C42086F8A50042F21170A6F8A000D6F893
:105154008C0050F00100C6F88C000020A6F8400036
:105164000820A6F842000827DFF8008C16F144094D
:105174003A004146484601F0B3FD0820A6F866000F
:105184005FF00809DFF8E8AB68364A46514630005C
:1051940001F0A6FDBDE8F0872DE9F04100270026C7
:1051A400DFF8604B2200B4214FF4807001F0EBFD76
:1051B40005002800C0B200280CD000275FF00008CA
:1051C400B021200001F0FAFED4F8B010884201D0DA
:1051D400002215002200B4214FF4A06001F0D3FD99
:1051E40007003800C0B200280CD000265FF0000889
:1051F400B021200001F0E2FED4F8B010884201D0C2
:105204000022170057EA0500C0B2002804D1FFF7B6
:105214001CFF00F046F828E02800C0B2012810D195
:105224003800C0B200280CD12200B4214FF48070A1
:1052340001F0A9FD2200B4214FF4A06001F06AFE40
:1052440013E02800C0B200280FD13800C0B20128F2
:105254000BD12200B4214FF4A06001F094FD220090
:10526400B4214FF4807001F055FE01F0CBFE45F2FD
:105274005550DFF8001B0A88824209D14A886378B6
:1052840093EA020F04D18A88237893EA020F06D0A6
:105294000880607848802078888001F031FFBDE87C
:1052A400F08170B50024DFF85C6A0020C6F8B00015
:1052B400B021300001F082FEC6F8B0003200B42103
:1052C4004FF4807001F026FE05003200B4214FF443
:1052D400A06001F01FFEC0B270BD2DE9F84F0500BB
:1052E4000E00170000245FF000087E20210089B220
:1052F40039440871641C5520210089B2394408716D
:10530400641C0020210089B239440871641CDFF850
:10531400F4090078210089B239440871641C002022
:10532400210089B239440871641CB7F806012100D0
:1053340089B239440871641CB7F8060180B2000AC6
:10534400210089B239440871641C1F20210089B2EC
:1053540039440871641C97F80801210089B2394462
:105364000871641C0020210089B239440871641C4E
:10537400300080B2FD281CDB200080B23844067166
:10538400641C300080B2000A210089B239440871DB
:10539400641CB1461FFA89F9AA46200080B2384439
:1053A40010F1040B4A465146584601F099FC341951
:1053B4001FE0B1461FFA89F9AA46200080B238449A
:1053C40010F1040B4A465146584601F089FC341941
:1053D40097F80401210089B239440871641C97F8D4
:1053E4000501210089B239440871641C2000401E63
:1053F400B871210089B2891EB81D01F0DFFD0100DA
:10540400200080B238440171641C20000A0092B26A
:10541400120A03009BB23B441A71401C788080B28C
:10542400BDE8F28F2DE9F84F86B004000D0000238B
:10543400002000210022B4F805603700BFB24FF607
:10544400FF7C674509D03000DFF8B8783F7880B238
:10545400BFB2B84201D0002020E1B4F80300A5F89F
:10546400060100206880E77985F80871002085F836
:105474000401002085F80501A078002804D1B4F8BF
:10548400098014F10B0904E0A078B0F1080814F1C4
:1054940009093800C0B220287DD0212800F0898075
:1054A400222800F09480232800F09F80242800F014
:1054B400AA80252800F0B580F02800F0C080F128EB
:1054C40000F0CB80F72802D0FE280ED0D6E040466C
:1054D40080B2002808D1012028702A003221DFF888
:1054E400080CFFF7FAFE6880C8E0404680B20A283C
:1054F40050DA404680B203284CDB142100220DF11F
:10550400040A5046FEF712FE99F80000FF280ED157
:1055140040F2FF70039000208DF8050001202870F0
:105524002A0000210020FFF7D8FE68800BE099F8DC
:10553400000010F58070039001208DF80500012013
:105544006880002028704046401E8DF807009DF8B2
:105554000700009019F1010A0DF1100B009A514651
:10556400584601F0BDFB01208DF8040000235FF0D4
:10557400FF3201A9DFF8740B006801F0B4FE0028C3
:1055840008D0DFF86C0BFE2180F80811B5F806117D
:10559400A0F8061172E0404680B2002808D101202C
:1055A40028702A000521DFF84C0BFFF796FE68806F
:1055B40064E0404680B2002808D1012028702A0007
:1055C4000421DFF8340BFFF788FE688056E040467C
:1055D40080B2002808D1012028702A000521DFF8B4
:1055E4009C0CFFF77AFE688048E0404680B20028B1
:1055F40008D1012028702A000421DFF8840CFFF769
:105604006CFE68803AE0404680B2002808D1012050
:1056140028702A000121DFF86C0CFFF75EFE688019
:105624002CE0404680B2002808D1012028702A00CE
:105634000521DFF8540CFFF750FE68801EE0404659
:1056440080B2002808D10120287002F070FC2A00E2
:105654000421FFF742FE688010E0404680B204282F
:105664000BD1D9F8000002F085FC012028702A0033
:1056740000210020FFF731FE6880FFE768880028DA
:105684000BD1012085F80401042085F805012A00C6
:1056940000210020FFF721FE6880688807B0BDE87C
:1056A400F08F2DE9F04F85B004000D0016001F00A7
:1056B400082100220DF108084046FEF737FD5FF08F
:1056C400000B5FF000080021DFF8380602789442EE
:1056D40005D040F2FF72944201D000206AE040F20B
:1056E400FF7292EA040F02D014F5907903E090F867
:1056F400009019F5E0692800C0B2022802D00728FA
:1057040010D055E03000C0B202280AD101208046F2
:1057140000200090002300222900C9B2484600F06E
:10572400E7F945E03000C0B2032840D10020B97841
:105734008DF804109DF804100A292DDA9DF8040050
:1057440002A95A46D2B288541BF1010B8DF800B05D
:105754005FF0050ADFF890199DF804200520424304
:1057640001EB0200049002A89DF8001000EB010B6D
:1057740052460499584601F0B3FA9DF800B01BF163
:10578400050B02A800905B46DBB200222900C9B2D7
:10579400484600F0ADF908E0002000900023022202
:1057A4002900C9B2484600F0A3F901208046FFE76A
:1057B4004046C0B205B0BDE8F08F2DE9F24F82B08B
:1057C400050016001F00DDF830805FF000099DF829
:1057D400080000280AD002281DD0072822D030282B
:1057E40062D0322853D041286BD09CE03000C0B244
:1057F40004280FD10024B87840280BD12800C0B267
:1058040000F024FA002805D0F9788170DFF8501CE4
:105814000968816087E03000C0B2022801D1042009
:10582400814680E03000C0B208282FD100205FF00C
:10583400000AB9788DF8001098F8081011F00F01DB
:105844008D4223D19DF8000098F80E1088421DD196
:105854002800C0B200F0FAF90400002C11D05FF067
:10586400050AF81C01909DF800100520414304EB43
:10587400010010F1100B52460199584601F030FA1C
:1058840002E000208DF80000042081464BE0300047
:10589400C0B2022807D198F8080010F00F00854222
:1058A40001D1042081463EE03000C0B2022807D175
:1058B40098F8080010F00F00854201D104208146B9
:1058C40031E03000C0B208282CD198F8080010F05C
:1058D4000F00854226D10020DFF8D44CA17DBA7890
:1058E40091421DD15FF0050AF81C0090A17D0520AE
:1058F400414304EB010010F11B0B5246009958463A
:1059040001F0EEF9A07D401CA075A07D617D884268
:1059140006D32088B0F5807F02D14FF40070208038
:1059240004208146FFE74846C0B2BDE8FE8F2DE95A
:10593400FE4F05000E00170098465FF00009300086
:10594400C0B2002804D0012824D040285ED0B4E09E
:105954003800C0B203281CD15FF0000A2800C0B28E
:1059640000F074F90400002C07D02570DFF8F00A69
:105974000068A06098F80200E07000200090002306
:1059840000223100C9B215F5B07000F0B1F8012061
:10599400814692E03800C0B2042836D15FF0000A94
:1059A4002800C0B200F052F90400002C09D0257080
:1059B40098F80200607098F80300A070A078E07076
:1059C40017E0DFF8901C08780E2812DA0A784420D1
:1059D400424301EB0200001D0400257098F8020008
:1059E400607098F80300A070A078E0700878401CFC
:1059F400087000200090002300223100C9B215F580
:105A0400B07000F075F80120814656E03800C0B24D
:105A1400062851D1002000215FF0000A5246D2B27C
:105A2400424494781AF1010A5246D2B2424492781E
:105A34008DF804201AF1010ADFF874BB22009BF8E8
:105A44001430D2B29A4237D10020009000230022B1
:105A54003100C9B215F5B07000F04AF80121BBF865
:105A64000000082803D0BBF80000022824D1080055
:105A7400C0B200281DD00420ABF800008BF817102A
:105A84005046C0B2404480788BF818001AF1010ADD
:105A94005046C0B2404480788BF819001AF1010ACC
:105AA4005046C0B2404480788BF81A001AF1010ABB
:105AB40002E01020ABF80000FFE74846C0B2BDE8A2
:105AC400FE8FF0B40400002000255E780F00FFB2C2
:105AD400012F0AD11500EDB2042D05D13500EDB228
:105AE400002D01D102252800FFE7C0B2F0BC7047A9
:105AF4002DE9FC4704000D0016001F0000200021C2
:105B0400DFF8B08CC8F8084088F804503A00D2B2E4
:105B1400072A1FDA0800C0B240440573491C080074
:105B2400C0B240440673491C8DF80010B9465FFAB0
:105B340089F90A9801909DF80000404410F10C0A7C
:105B44004A460199504601F0CBF89DF800107918A7
:105B540088F80310BDE8F3872DE9F84187B00821E0
:105B640000226C462000FEF7E1FA002400251421EF
:105B7400002202AE3000FEF7D9FA6E463220210030
:105B8400C9B27054641C00202100C9B27054641C52
:105B940002F074FAFF2190FBF1F201FB12002100E4
:105BA400C9B27054641C02F069FA202190FBF1F22E
:105BB40001FB12002100C9B27054641C02F05EFAA9
:105BC400302190FBF1F201FB12002100C9B27054A4
:105BD400641C02F053FA302190FBF1F201FB120035
:105BE4002100C9B27054641C02F048FA042190FBED
:105BF400F1F601FB16063000C0B2032806D040F2CD
:105C0400FF70049000208DF8090007E03000C0B256
:105C140010F58070049001208DF809002500EDB284
:105C24006F460DF114082A003900404601F058F877
:105C34008DF80B4000235FF0FF3202A9DFF8AC04BB
:105C4400006801F050FB08B0BDE8F081F0B4040036
:105C5400002200230020DFF8FC5929780E2925DAD8
:105C64002978002922D000210A0011002E78C9B217
:105C7400B1420FD226001700FFB244214F4305EB77
:105C840007010979F6B28E4202D101210B0001E02D
:105C9400521CEAE71900C9B2002907D01600F6B26F
:105CA40044214E4305EB0601091D0800F0BC704772
:105CB400F8B504000D00160000272000C0B210F54E
:105CC4008070B0600120707030203900C9B2314456
:105CD40008737F1C00203900C9B2314408737F1C4B
:105CE4003800C0B2304405737F1CF0783818F07067
:105CF40000235FF0FF323100DFF8700C006801F020
:105D0400F2FAF1BDA8890020F8B506000C000020C5
:105D14000021DFF89C580022AA75AA7D6A7532001A
:105D2400D2B212F58072A26001226270E278D21CB3
:105D3400E27000273800C0B2052812DA412020732F
:105D440000206073A77300235FF0FF322100DFF8A7
:105D54001C0C006801F0C7FA687D401C68757F1C44
:105D6400E8E7F1BD988C0020A086010088F80008BF
:105D740094F800087C8C00202DE9F04385B00026BF
:105D8400142100226C462000FEF7D0F94FF4FA6487
:105D9400DFF81C582888002840F08280002700265D
:105DA4005FF0000800205FF00009DFF8A80849460A
:105DB4000278C9B2914243D244214A46D2B24A43FC
:105DC40002449279802A38D14A46D2B24A430244E4
:105DD4005279022A0BD14A46D2B201FB02F108449D
:105DE40000793100C9B22944C871761C25E04A46BD
:105DF400D2B24A4302445279042A0BD14A46D2B25F
:105E040001FB02F1084400793900C9B22944C87180
:105E14007F1C12E04A46D2B24A4302445279012A14
:105E24000BD14A46D2B201FB02F108440079414643
:105E3400C9B22944087318F1010819F10109B4E73A
:105E44003800C0B201281ED1B819032110FB01F09B
:105E5400E8700020287101202880DFF8140B016805
:105E6400002940F1F580DFF80C1B8A8809684A6133
:105E7400DFF8041B0A7812F0FE020A70016821F0B0
:105E840000410160E4E0DFF8E80A0168002903D476
:105E9400016851F000410160200002F043FBD7E0AB
:105EA4002888012858D1022028802879002808D081
:105EB40002281ED011D3042833D01DD3052845D081
:105EC40047E000202875002601216A46C9B2A87956
:105ED4002844C079FFF7ECFEBAE0012028750026BB
:105EE40002216A46C9B2A8792844C079FFF7E0FEC6
:105EF400AEE040202880ABE0022028750026012176
:105F04006A46C9B2E87A2844007BFFF7D1FE00272D
:105F140004216A46C9B2A8792844C079FFF7C8FEAB
:105F240096E002202875002602216A46C9B2E87A62
:105F34002844007BFFF7BCFE002704216A46C9B24F
:105F4400A8792844C079FFF7B3FE81E04020288077
:105F54007EE0002028807BE02888022806D1DFF834
:105F640000050068E8630820288071E02888082874
:105F740009D1DFF8EC040068E96B6431884267D327
:105F84002020288064E02888102802D0288820282F
:105F940002D1402028805BE02888402821D128793C
:105FA4000028042802D9401F04D00AE02879401CA4
:105FB400287108E02879401C2871E87A401CE872AE
:105FC40001E0002028802879E978884202D2012063
:105FD40028803DE0DFF888040068E863802028809A
:105FE40036E02888802809D1DFF874040068E96B5A
:105FF400643188422CD30020288029E02888042892
:106004000DD16946A8792844C079FFF77DFEDFF8F1
:1060140050040068E8634FF48070288018E02888F2
:10602400B0F5807F0AD1DFF838040068E96B643189
:1060340088420DD34FF48060288009E02888B0F5A9
:10604400007F05D103F0D9FA03F0F8FA1020288074
:1060540005B0BDE8F08370B504000D002000C0B2A7
:1060640010F58070A8600320E87001206870072094
:106074002873002068730020A873DFF8F0680023F9
:106084005FF0FF322900306801F02DF90120A87378
:1060940000235FF0FF322900306801F024F9022068
:1060A400A87300235FF0FF322900306801F01BF968
:1060B4000320A87300235FF0FF322900306801F049
:1060C40012F90420A87300235FF0FF32290030681E
:1060D40001F009F90520A87300235FF0FF322900BD
:1060E400306801F000F970BD00500008908C002069
:1060F400B4850020AC890020B18900202DE9F14F3E
:106104008CB01421002207AC2000FEF70FF81421F4
:10611400002202AC2000FEF709F8002400200190C0
:106124000025002600275FF000084FF47A7207A9C3
:10613400DFF84808006801F09FFA0128F5D10DF155
:106144001C0999F80C00804619F10C00060099F816
:106154000300070040F2FF70D9F8081090EA010F1D
:106164000AD0D9F8080000090001019099F8080044
:1061740010F00F00050002E00190019805000022D4
:1061840002A9DFF8E807006801F01CFC0198B0F5EB
:10619400807F0FD0B0F5907F16D0B0F5A07F1FD0D0
:1061A400B0F5B07F26D0B0F5E06F2DD040F2FF718E
:1061B40088422CD133003A00D2B24146C9B22800F9
:1061C400FFF76FFA040022E002A8009033003A00BF
:1061D400D2B24146C9B22800FFF7EFFA040016E034
:1061E40033003A00D2B24146C9B22800FFF79FFB00
:1061F40004000CE033003A00D2B24146C9B2280090
:10620400FFF75FFC040002E000200400FFE7200029
:10621400C0B2012814D1DFF89CA5504600F085FCDB
:10622400002882D09AF8040002287FF47EAF14205C
:1062340002F078F9DFF84807DFF84817086074E7D8
:106244002000C0B204287FF470AF9DF80800012834
:106254000AD15FF0140ACDF80090DFF82CB752464B
:106264000099584600F03CFD002300220021DFF88D
:106274001C07006801F037F857E70000B5890020D3
:10628400BA890020BE890020BF8900202DE9F84783
:1062940085B00400142100226D462800FDF746FF56
:1062A4000025002615275FF06408DFF8C0965FF02C
:1062B400FF326946D9F8000001F084FB0128F4D1CB
:1062C400EA46504600F031FC002862D00020050068
:1062D4009AF80100012850D1380002F023F9414610
:1062E400DFF8A806006801F091FA012818D101200E
:1062F4000500002006009DF8000001282DD1DFF8DC
:106304009006002180F80411002180F80511002373
:1063140000220021DFF87C06006800F0E4FF1CE0A6
:10632400761C3000C0B2072817DB012005000020CE
:1063340006009DF8000001280FD1DFF85406012162
:1063440080F80411032180F80511002300220021A4
:10635400DFF84006006800F0C6FF2800C0B200283D
:10636400A3D05FF0FF326946D9F8000001F084F948
:1063740000289AD10120050097E75FF0FF326946B3
:10638400D9F8000001F078F900288ED1002005002A
:106394008BE70020050088E72DE9F14F86B0142132
:1063A400002201AC2000FDF7C1FE5FF00008684642
:1063B400DFF8E4150A6802600024002542F2107632
:1063C40041F28837DFF88C9299F80000002843D016
:1063D40001A8040000208046404699F80010C0B28D
:1063E40088421FD24146C9B24420414309EB01000F
:1063F400001D0500A878402808D119480068A9683C
:10640400711888420BD3FF20A87008E0A878802870
:1064140005D121002878FFF71EFE4020A87018F14E
:106424000108D9E70020607040F2FF70A0605FF0BF
:106434000309EA4614F10C0B4A465146584600F04B
:106444004FFC0320E07000235FF0FF3201A9DFF866
:106454001C05006800F047FF380002F063F8B1E75C
:10646400E88C002010B50400FFF776FBFFF784FCEE
:10647400FAE72DE9F843ADF5087D04004FF488717F
:10648400002244AD2800FDF751FE4FF4857100222F
:1064940001AD2800FDF74AFE64250020ADF8000098
:1064A4000126DFF8F8745FF0FF3244A9386801F080
:1064B40089FA0128F5D1BDF814010B2870DB6A466E
:1064C400BDF814110DF58B7003F046F9002860D067
:1064D4003000C0B2002832D001A944A8BDF8002081
:1064E4001044801DFEF79EFFADF806009DF80400E1
:1064F400012813D19DF81C028DF80D0100235FF0D3
:10650400FF3201A9DFF89804006800F0ECFE5FF0A8
:10651400FF3244A9386801F0AFF8C2E79DF80400DF
:106524000028BED10020060014275FF00008DFF821
:106534005894424639004846FDF7F8FDB1E7290072
:10654400DFF85004006801F061F90128A9D10120A5
:106554000600DFF83C849DF81C0288F80901DFF886
:1065640028044246C17889B20C30FEF7B6FEA8F87A
:1065740002005FF0FF3244A9386801F07DF800237F
:106584005FF0FF324146DFF81804006800F0ABFE0C
:1065940087E75FF0FF3244A9386801F06DF880E7BF
:1065A4005FF0FF3244A9386801F066F879E700002B
:1065B400308B002030B5C3B004004FF48571002245
:1065C4006D462800FDF7B2FD5FF0FF326946DFF843
:1065D400D003006801F050F80128F5D19DF80901B5
:1065E400012814D14FF40050DFF8B813086001A853
:1065F400DFF8B4130860BDF80200DFF8B0130860D8
:10660400DFF8AC03016851F001010160DCE79DF89B
:106614000901052813D12020DFF88813086001A898
:10662400DFF890130860BDF80200DFF88C130860EF
:10663400DFF88803016851F001010160C4E79DF8A7
:1066440009010428C0D1BDF8021001A803F0DEF945
:10665400BAE700001C7900202DE9F04104004FF452
:10666400FA75DFF85C630721300003F002FB0028B1
:1066740025D0002240F22551300003F0B6FA07215C
:10668400300003F004FB5FF40030C6490860CD48D5
:1066940001684908490001600A2001F043FFBD4830
:1066A400006801F05DFABE48006801F059FABB4881
:1066B400006801F055FA5FF4E13003F039FBC24E93
:1066C4000721300003F01EFE00281BD004213000F7
:1066D40003F018FE002815D00721300003F01CFE3B
:1066E4000A2001F01FFFA548006801F039FA9F480D
:1066F400006801F035FAA548006801F031FA182065
:1067040000F078F9B14E0721300003F0B2FA002806
:1067140019D0002240F22551300003F066FA072117
:10672400300003F0B4FA4FF400709E490860A848A2
:1067340001684908490001600A2001F0F3FE5FF492
:10674400E13003F0A7FEA34E0721300003F091FAD5
:1067540000282AD0002240F22551300003F045FAE7
:106764000721300003F093FA9B4840210170002177
:1067740081800021C0F808114FF48076002710F1C1
:1067840006083A0031004046FDF7D0FC0A2001F02B
:10679400C9FE5FF4E13003F0A7FE9048006801F001
:1067A40094FF8F498F4804F083F8280001F0BAFE63
:1067B40057E70000C88B002078B58DB00024002076
:1067C4000490C8251E21002205AE3000FDF7AEFC62
:1067D400674E3078C00740F1BC8030684008400004
:1067E4003060641CE00709D56248818C006A01614D
:1067F4006148017851F01001017008E05D48818C16
:10680400006A41615C48017811F0EF010170306861
:10681400002814D5A00709D556488188006801616D
:106824005548017851F00101017008E05148818810
:10683400006841615048017811F0FE010170306830
:10684400400014D5600709D54A48818980680161F0
:106854004948017851F00201017008E045488189F6
:10686400806841614448017811F0FD01017030688D
:10687400800014D5600709D53E48818A006901610A
:106884003D48017851F00401017008E03948818ADB
:10689400006941613848017811F0FB0101705248E8
:1068A400016807291DD1E00709D53248818D806A26
:1068B40001613148017851F02001017008E02D4850
:1068C400818D806A41612C48017811F0DF010170EB
:1068D4003068C0007FF57CAF306830F080503060A5
:1068E40076E7006804287FF473AF3068C0000CD4E6
:1068F400306850F0805030601E48818D806A01619C
:106904001D48017851F0200101701420B4FBF0F10E
:1069140000FB114000287FF45BAF01F008FB334E0D
:10692400310001F034FB7069039030690290F06823
:106934000190B0680090736832682D4905A804F08E
:10694400E7FA05A804F004FB010005A803F05EF8CB
:106954003EE702F06BF80490290004A801F071FDF1
:10696400306850F00100306032E70000908C002065
:10697400988C00202CF50008528D00208C8C00206F
:106984000400FA050CED00E0DC8B0020948C002060
:10699400B4850020C08C0020D8F90008B88C0020F1
:1069A400BC8C002004000240500002404800024019
:1069B4004400024028000240200002401C00024023
:1069C4000038014058000240006400400048004084
:1069D400300002400044004088820020C88C00201F
:1069E400E4890020C0880020C48C0020B08B0020E3
:1069F4000CF7000878B589B00400002504210022B2
:106A04006E463000FDF792FB0C21002202AE3000EE
:106A1400FDF78CFB0E21002205AE3000FDF786FB4E
:106A24000421002201AE3000FDF780FB48208DF8E0
:106A3400030003208DF8020094488188ADF800100B
:106A44006946006804F0A0FA18208DF803000320BA
:106A54008DF802008E488188ADF800106946006800
:106A640004F092FA01208DF80C0001208DF80D003D
:106A740001208DF80B002000C0B2ADF80800002002
:106A84008DF80A0001208DF80F0000208DF8100009
:106A940000208DF8110000208DF8120000208DF8E0
:106AA4000E0000208DF813007A4E02A9300003F086
:106AB40099F9012833D100208DF81E000020ADF88B
:106AC40014000020ADF816000020ADF818000020D6
:106AD400ADF81A0000208DF81F0001208DF8200069
:106AE4000020ADF81C0001208DF8210005A803F05A
:106AF40002FA012248F20201300003F06BFA14207A
:106B04008DF8040006208DF8050006208DF8060097
:106B140001208DF8070001A804F0F7FA01E0012034
:106B240005002800C0B20AB070BD2DE9F84F86B048
:106B340004000025002600275FF00008142100222D
:106B44000DF104094846FDF7F1FAA0680190E078D8
:106B54008DF80E009DF80E00009014F10C0A0DF152
:106B64000F09009A5146484600F0BAF8DFF824B1FC
:106B740001A9584603F03AFA81464946C9B2584633
:106B840003F0D3FA012804D0B7F5005F01D27F1CCB
:106B9400F3E741F6FF7087420ED3022001F0C2FCF6
:106BA400200000F010F80500761C042E06D2280000
:106BB400C0B2002802D1F0E7012005002800C0B2CD
:106BC40007B0BDE8F08F2DE9F04F85B00400002533
:106BD4000026002714210022E8464046FDF7A6FAC5
:106BE400A0680090E0788DF80A009DF80A8014F1FE
:106BF4000C090DF10B0A42464946504600F070F864
:106C0400DFF890A06946504603F0F0F983465946F0
:106C1400C9B2504603F089FA012805D041F6FF7045
:106C2400864201D2761CF2E741F6FF70864201D219
:106C3400012005002800C0B205B0BDE8F08FF8B50A
:106C44000024154F002214213C2000F0F0FA386093
:106C5400124D002214213C2000F0E9FA2860104E65
:106C640003220021012000F0E2FA30603868002895
:106C740007D02868002804D03068002801D00120FB
:106C840004002000C0B2F2BD0000000000F90008BA
:106C940008F90008006400408C8C0020908C0020CF
:106CA400948C002030B4002513E050F8042BD30753
:106CB40044BFA9F101039A18091F042942F8045B8F
:106CC400FAD213468C0744BF15809B1CC90748BFE2
:106CD4001D7050F8041B0029E7D130BC7047000038
:106CE40062B38B0708D0521E11F8013B00F8013B38
:106CF40000F024808B07F6D1830740F0208000BF8A
:106D0400103A07D330B4B1E83810103AA0E838107C
:106D1400F9D230BC530724BFB1E80810A0E808102A
:106D240044BF51F8043B40F8043BD20724BF31F878
:106D3400022B20F8022B44BF0B7803707047121FFC
:106D440017D35B0009D151F8043B20F8023B1B0C1C
:106D5400121F20F8023BF6D20BE051F8043B00F876
:106D6400013B1B0A20F8023B1B0C121F00F8013BDD
:106D7400F3D238BF121D521E24BF11F8013B00F894
:106D8400013BF8D870472DE9F04104000D001600CE
:106D94005FF001080027280080B2002860D004F0CA
:106DA40029FA002801D1002080464046C0B20028BC
:106DB40008D0A02004F0B3FA04F090FA002801D11E
:106DC400002080464046C0B2002808D0200080B28F
:106DD400000AC0B204F0A3FA04F080FA80464046E8
:106DE400C0B2002806D02000C0B204F098FA04F023
:106DF40075FA80464046C0B2002805D004F0FAF97E
:106E0400002801D1002080464046C0B2002808D0A6
:106E1400A12004F084FA04F061FA002801D10020D2
:106E240080466D1E4046C0B2002817D000200700DF
:106E34003800290080B289B2884208D204F094FA5A
:106E4400390089B2705404F019FA7F1CF0E704F099
:106E54008BFA390089B2705404F028FA04F0F6F978
:106E64004046C0B2BDE8F0812DE9F04104000D00B8
:106E7400160000275FF00108280080B2002842D0E5
:106E840004F0B8F9002801D1002080464046C0B281
:106E9400002808D0A02004F042FA04F01FFA0028C9
:106EA40001D1002080464046C0B2002808D020000E
:106EB40080B2000AC0B204F032FA04F00FFA80463D
:106EC4004046C0B2002806D02000C0B204F027FA21
:106ED40004F004FA8046002007003800290080B23C
:106EE40089B288420DD24046C0B2002807D038008B
:106EF40080B2305C04F013FA04F0F0F980467F1C91
:106F0400EBE704F0A3F9052004F06BF94046C0B2A6
:106F1400BDE8F0812DE9F04704000D0016000027BC
:106F24005FF000085FF0000A200010F01F0F1BD074
:106F340014F01F00D0F1200007002800390080B2AF
:106F440089B2884200D22F00404680B206EB00028C
:106F5400390089B218EB040080B2FFF785FF81463F
:106F6400ED1B17EB080801E05FF001094846C0B2C9
:106F740000281FD0280080B200281BD02020070042
:106F84002800390080B289B2884200D22F004046DE
:106F940080B206EB0002390089B218EB040080B21B
:106FA400FFF762FF8146ED1B17EB08084846C0B2A5
:106FB4000028DFD14846C0B2BDE8F08770B40300B2
:106FC4000022002400264FF6FF7000258D4214D2C3
:106FD4005A5D504000221600082E0CD2C20706D576
:106FE40080B2020048F2084090EA520001E080B208
:106FF4004008761CF0E76D1CE8E780B2C04380B21D
:1070040070BC70472DE9F8435FF00008002447F690
:10701400F8754B4E320008212800FFF7B4FE070034
:107024003800C0B2002810D05FF000085FF00009FB
:1070340006213000FFF7C2FFF18802000B0092B274
:107044009BB29A4201D000221700320008214FF46B
:10705400FC40FFF798FE80464046C0B200280FD09F
:1070640000245FF0000906213000FFF7A7FFF18834
:1070740002000B0092B29BB29A4201D000229046C9
:1070840058EA0700C0B2002811D108240025B146EF
:107094002A0021004846FDF749F80120B08002206B
:1070A40070804AF6AA20308000F02AF826E03800E2
:1070B400C0B201280FD14046C0B200280BD1320023
:1070C40008212800FFF75FFE320008214FF4FC403E
:1070D400FFF720FF12E03800C0B200280ED140466E
:1070E400C0B201280AD1320008214FF4FC40FFF756
:1070F4004AFE320008212800FFF70CFFBDE8F183A7
:1071040038B500240E4D0020E88006212800FFF742
:1071140055FFE8802A00082147F6F870FFF7FAFEC9
:10712400012809D12A0008214FF4FC40FFF7F2FEA0
:10713400012801D1012004002000C0B232BD0000AA
:107144007C8C0020F8B507000D0001263C00002CC3
:107154000FD1502080F31188BFF34F8FBFF36F8F8F
:107164004FF49772DFF85818DFF8E80904F028F9AB
:10717400FEE7002C45D0E06B002842D05FF0FF30E2
:10718400E16BB0FBF1F0216C88423AD302F035FA9E
:107194002168E26B206C424301EB0200A0600020F6
:1071A400A063206860602168E26B521E206C424339
:1071B40001EB0200E0605FF0FF3084F8440084F8E3
:1071C4004500002D12D12069002817D014F11000B9
:1071D40001F0D0FD002811D05FF08050DFF878195D
:1071E4000860BFF34F8FBFF36F8F07E014F11000F7
:1071F40004F0FAF814F1240004F0F6F802F01EFA90
:1072040001E000200600002E0FD1502080F31188E9
:10721400BFF34F8FBFF36F8F40F26312DFF8A017F5
:10722400DFF8300904F0CCF8FEE73000F2BD2DE9B8
:10723400F8430500884691460024002D20D05FF0D5
:10724400FF30B0FBF5F040451AD308FB05F010F110
:10725400540F15D208FB05F0060016F1540004F093
:1072640011F90400002C1DD02000543007000094B4
:107274004B46DBB23A004146280000F016F811E014
:10728400002C0FD1502080F31188BFF34F8FBFF330
:107294006F8F4FF4F272DFF82817DFF8B80804F0A4
:1072A4008FF8FEE72000BDE8F2832DE9F0410500E8
:1072B4000C0016001F00DDF81880002C02D1C8F85D
:1072C400008001E0C8F80060C8F83C50C8F84040AD
:1072D40001214046FFF736FF88F850700020C8F8B7
:1072E4004800BDE8F0812DE9F64782B081460D00E3
:1072F4009A4600244E46002E0FD1502080F3118868
:10730400BFF34F8FBFF36F8F4FF45372DFF8B01694
:10731400DFF8400804F054F8FEE7002D02D1306C89
:10732400002801D1012000E00020C0B200280FD1C4
:10733400502080F31188BFF34F8FBFF36F8F40F25B
:107344004D32DFF87C16DFF80C0804F039F8FEE75C
:10735400BAF1020F02D1F06B012801D1012000E043
:107364000020C0B200280FD1502080F31188BFF351
:107374004F8FBFF36F8F40F24E32DFF84416DFF8C1
:10738400D40704F01DF8FEE701F073FE002802D1D3
:107394000398002801D1012000E00020C0B2002899
:1073A4000FD1502080F31188BFF34F8FBFF36F8F3D
:1073B40040F25132DFF80816DFF8980704F000F8BD
:1073C400FEE702F01AF9B06BF16B884202D3BAF10E
:1073D400020F40D1B76B52462900300000F0E7FBA2
:1073E4008046B06C002813D0BAF1020F01D1002FEF
:1073F4002DD1300000F025FD002828D05FF080500A
:10740400DFF854170860BFF34F8FBFF36F8F1EE090
:10741400706A00280FD016F1240001F0ABFC00289C
:1074240015D05FF08050DFF830170860BFF34F8F3E
:10743400BFF36F8F0BE0B8F1000F08D05FF08050FE
:10744400DFF814170860BFF34F8FBFF36F8F02F09C
:10745400F5F8012053E00398002803D102F0EEF878
:1074640000204CE0002C04D1684601F00FFD0120FF
:10747400040002F0E3F801F02EFA02F0BEF896F9E7
:10748400440010F1010F02D1002086F8440096F95F
:10749400450010F1010F02D1002086F8450002F0EA
:1074A400CDF803A9684601F0FDFC002821D1300085
:1074B40000F038FC002816D0039916F1100001F0F2
:1074C40001FC300000F0DCFB01F00BFA00287FF433
:1074D40078AF5FF08050DFF880160860BFF34F8FFD
:1074E400BFF36F8F6DE7300000F0CAFB01F0F9F9CC
:1074F40067E7300000F0C4FB01F0F3F9002004B0AA
:10750400BDE8F0872DE9FE4F07000D0014009846F2
:107514003E00002E0FD1502080F31188BFF34F8F0F
:10752400BFF36F8F4FF48462DFF89414DFF82C06F6
:1075340003F046FFFEE7002D02D1306C002801D194
:10754400012000E00020C0B200280FD1502080F3B9
:107554001188BFF34F8FBFF36F8F40F22142DFF8E2
:107564006014DFF8F80503F02BFFFEE7B8F1020F13
:1075740002D1F06B012801D1012000E00020C0B24B
:1075840000280FD1502080F31188BFF34F8FBFF331
:107594006F8F40F22242DFF82814DFF8C00503F0B1
:1075A4000FFFFEE702F07CF8EFF311895FF0500A59
:1075B4008AF31188BFF34F8FBFF36F8FB06BF16BFA
:1075C400884202D3B8F1020F51D196F945008DF8E3
:1075D4000000B06B019042462900300000F0E7FA49
:1075E4009DF9000010F1010F20D1B06C00280FD0DC
:1075F400B8F1020F02D10198002836D1300000F012
:1076040020FC002831D0002C2FD0012020602CE059
:10761400706A002829D016F1240001F0ABFB002881
:1076240023D0002C21D0012020601EE001F002FABA
:1076340083469DF90000584517D29DF900007F2824
:107644000ED18AF31188BFF34F8FBFF36F8F40F2CF
:10765400AB42DFF86C13DFF8040503F0B1FEFEE77C
:107664009DF80000401C86F84500012000E0002041
:1076740089F31188BDE8FE8F2DE9F64182B080467A
:107684000E0000244746002F0ED1502080F31188AD
:10769400BFF34F8FBFF36F8F40F26B52C849DFF8CF
:1076A400B40403F08DFEFEE7002E02D1386C0028EE
:1076B40001D1012000E00020C0B200280ED15020EA
:1076C40080F31188BFF34F8FBFF36F8F40F26F5277
:1076D400BB49DFF8800403F073FEFEE701F0C9FC48
:1076E400002802D10398002801D1012000E00020E5
:1076F400C0B200280ED1502080F31188BFF34F8F01
:10770400BFF36F8F40F27452AD49DFF8480403F0C1
:1077140057FEFEE701F071FFBD6B002D1BD0310059
:10772400380000F092FA681EB863386900280ED059
:1077340017F1100001F01EFB002808D05FF0805004
:10774400DFF814140860BFF34F8FBFF36F8F01F09D
:1077540075FF012057E00398002803D101F06EFF64
:10776400002050E0002C04D1684601F08FFB01207A
:10777400040001F063FF01F0AEF801F03EFF97F959
:10778400440010F1010F02D1002087F8440097F95A
:10779400450010F1010F02D1002087F8450001F0E7
:1077A4004DFF03A9684601F07DFB002820D1380075
:1077B40000F0AAFA002815D0039917F1240001F06B
:1077C40081FA380000F05CFA01F08BF80028A1D1AE
:1077D4005FF08050DFF880130860BFF34F8FBFF372
:1077E4006F8F97E7380000F04BFA01F07AF891E7D1
:1077F400380000F045FA01F074F8380000F084FA1B
:10780400002887D0002004B0BDE8F0812DE9F341C1
:1078140082B08046002446460027002E0DD1502019
:1078240080F31188BFF34F8FBFF36F8F40F2FD5287
:107834006349C84803F0C4FDFEE7306C00280DD04E
:10784400502080F31188BFF34F8FBFF36F8F40F246
:1078540001625B49BF4803F0B3FDFEE701F009FC98
:10786400002802D10398002801D1012000E0002063
:10787400C0B200280DD1502080F31188BFF34F8F80
:10788400BFF36F8F40F206624D49B24803F098FD92
:10789400FEE701F0B2FEB56B002D1CD0681EB0638C
:1078A4003068002802D101F087FDB06030690028FB
:1078B4000DD016F1100001F05DFA002807D05FF03A
:1078C4008050A5490860BFF34F8FBFF36F8F01F05D
:1078D400B5FE012070E00398002803D101F0AEFE4C
:1078E400002069E0002C04D1684601F0CFFA0120A1
:1078F400040001F0A3FE00F0EEFF01F07EFE96F915
:10790400440010F1010F02D1002086F8440096F9DA
:10791400450010F1010F02D1002086F8450001F066
:107924008DFE03A9684601F0BDFA00282AD1300073
:1079340000F0EAF900281FD03068002807D101F0D0
:107944005CFEB06801F0ACFB070001F077FE039920
:1079540016F1240001F0B6F9300000F091F900F0BE
:10796400C0FF002895D15FF080507B490860BFF3C9
:107974004F8FBFF36F8F8CE7300000F081F900F078
:10798400B0FF86E7300000F07BF900F0AAFF30007A
:1079940000F0BAF900283FF47CAF002F0BD001F0BF
:1079A4002CFE300000F0F8F805002900B06801F062
:1079B40067FC01F043FE002004B0BDE8F081000044
:1079C400C4F400082DE9F74380460E00002447461E
:1079D400002F0ED1502080F31188BFF34F8FBFF3D7
:1079E4006F8F40F2CD62DFF820155A4803F0E8FCAF
:1079F400FEE7002E02D1386C002801D1012000E0FE
:107A04000020C0B200280ED1502080F31188BFF3AB
:107A14004F8FBFF36F8F40F2D162DFF8EC144D4803
:107A240003F0CEFCFEE701F024FB002802D102980B
:107A3400002801D1012000E00020C0B200280ED1AE
:107A4400502080F31188BFF34F8FBFF36F8F40F244
:107A5400D662DFF8B4143F4803F0B2FCFEE701F04D
:107A6400CCFDBD6B002D1CD0D7F80C903100380034
:107A740000F0EBF8C7F80C90786A00280DD017F1E5
:107A8400240001F077F9002807D05FF080503249D4
:107A94000860BFF34F8FBFF36F8F01F0CFFD01205C
:107AA40056E00298002803D101F0C8FD00204FE001
:107AB400002C04D1684601F0E9F90120040001F02A
:107AC400BDFD00F008FF01F098FD97F9440010F1A6
:107AD400010F02D1002087F8440097F9450010F106
:107AE400010F02D1002087F8450001F0A7FD02A98B
:107AF400684601F0D7F900281FD1380000F004F9D6
:107B0400002814D0029917F1240001F0DBF83800A2
:107B140000F0B6F800F0E5FE0028A0D15FF0805038
:107B24000D490860BFF34F8FBFF36F8F97E738009D
:107B340000F0A6F800F0D5FE91E7380000F0A0F8B8
:107B440000F0CFFE380000F0DFF8002887D00020D6
:107B5400BDE8FE832CF6000804ED00E02CF60008D6
:107B640038B505002C00002C0FD1502080F311886B
:107B7400BFF34F8FBFF36F8F40F61F02DFF88813F8
:107B8400DFF8880303F01CFCFEE7200000F00DF989
:107B9400200003F00DFD31BD0100486A002804D027
:107BA400086B0068D0F11F0000E0002070472DE949
:107BB400F84F06000F0014005FF00008B56B306C3E
:107BC400002809D1306800283AD1B06801F0DAFA07
:107BD40080460020B06033E0002C14D1D6F84090E9
:107BE400BA46D6F804B04A4651465846FFF778F8E4
:107BF4007068316C084470607068B16888421FD343
:107C0400306870601CE0D6F84090BA46D6F80CB0E4
:107C14004A4651465846FFF763F8F068316C4942CA
:107C24000844F060F0683168884204D2B068316C6E
:107C340049420844F060022C02D1002D00D06D1E90
:107C4400681CB0634046BDE8F28F2DE9F0410400A2
:107C54000D00206C002811D0E068216C0844E0601D
:107C6400E068A168884201D32068E060266CE76878
:107C7400A846320039004046FFF732F8BDE8F081EB
:107C8400F8B5040001F0B9FC94F94550280040B25D
:107C9400012819DBA06C002807D0200000F0D1F8DF
:107CA40000280FD001F063F90CE0606A002808D0C6
:107CB40014F1240001F05EF8002803D001F057F914
:107CC40000E001E06D1EE1E75FF0FF3684F84560F7
:107CD40001F0B4FC01F091FC94F94470380040B216
:107CE40001280CDB2069002809D014F1100001F0F0
:107CF40041F8002801D001F03AF97F1EEEE784F83C
:107D0400446001F09BFCF1BD38B5040001F075FC42
:107D1400A06B002801D1012500E0002501F08EFCB4
:107D2400280032BD38B5040001F067FCA06BE16B9C
:107D3400884201D1012500E0002501F07FFC2800E4
:107D440032BDF8B505000E000024002D0DD15020E1
:107D540080F31188BFF34F8FBFF36F8F40F6D822A3
:107D640069496A4803F02CFBFEE7002E18D0002076
:107D74000700082F14D2664901EBC700406885420A
:107D840003D101EBC70004000AE0002C06D151F82E
:107D94003700002802D101EBC70004007F1CE8E78C
:107DA400002C01D026606560F1BD10B50400002CE4
:107DB4000DD1502080F31188BFF34F8FBFF36F8F25
:107DC40040F624325049514803F0FAFAFEE7002005
:107DD40008280FD24E4901EBC0025268A24207D1D3
:107DE400002241F83020002201EBC0014A6001E08A
:107DF400401CEDE710BDF8B504000D001600270087
:107E040001F0FBFB97F9440010F1010F02D10020AF
:107E140087F8440097F9450010F1010F02D10020C2
:107E240087F8450001F00AFCB86B002805D1320040
:107E3400290017F1240000F067FF3800FFF720FF46
:107E4400F1BDF1B50098846C0025002C0DD15020B3
:107E540080F31188BFF34F8FBFF36F8F40F6E33287
:107E640029492A4803F0ACFAFEE7A06BE16B88428B
:107E74000DD3502080F31188BFF34F8FBFF36F8F62
:107E840040F6E4322049214803F09AFAFEE7A06B59
:107E9400E16B884235D294F945600022694620009E
:107EA400FFF785FE050030005FF0FF3140B28842E5
:107EB4000BD1606A002824D014F1240000F05AFF8A
:107EC40000281ED0012005001BE000F0B3FD0700D0
:107ED400300040B2B84214D2300040B27F280DD1F5
:107EE400502080F31188BFF34F8FBFF36F8F40F69C
:107EF40004420549054803F063FAFEE7761C84F85A
:107F040045602800F2BD0000C4F400082CF6000807
:107F1400708B00201448018851F0100101807047D3
:107F240011490A884FF6EF7002400A807047002119
:107F34000E4800880E4A128892B280B250EA02407B
:107F4400704710B50400FFF7E5FF2000000C084956
:107F5400088006480480FFF7E3FF10BD024800884C
:107F64008006FBD570470000042800401C28004010
:107F74001828004010B50400012003F0D1FBFFF7DE
:107F8400EDFF2000FFF7DDFFFFF7E8FF10BDF0B4C1
:107F9400002200233C24B0FBF4F504FB15044C61DF
:107FA4003C24B0FBF4F03C24B0FBF4F504FB1504D2
:107FB4000C6110F5F0703C24B0FBF4F41820B4FB11
:107FC400F0F500FB1540C8601820B4FBF0F505F28D
:107FD4006D1040F2B556B0FBF6F605F26D1040F2A6
:107FE400B557B0FBF7FC07FB1C0000280BD14FF47E
:107FF400B770B5FBF0F000F2B27008600C20486076
:108004001F20886035E0AD1B40F26D10B5FBF0F029
:1080140000F2B270086040F26D10B5FBF0F200FBA4
:1080240012556D1C0868042290FBF2F302FB130046
:1080340000280AD13D2D01D36D1E06E03C2D04D14C
:10804400022048601D20886013E0002048600A4830
:108054004A6850F82220AA4207D24A6850F82200FF
:108064002D1A4868401C4860F1E74868401C486085
:108074008D60F0BC7047000000000020F0B5244C77
:10808400244A2078244B6FF0004150BB08206568D7
:1080940003FB05250E46B5FBF6F601FB1655401EFF
:1080A4006560F4D11D4D2E461020676803FB072739
:1080B4008C46B7FBFCFC01FB1C77676046F8047B2D
:1080C4008E4603FB0727B7FBFEFE01FB1E776760A6
:1080D400401E46F8047BE8D1E86FC5F8800001250E
:1080E4002570606803FB00220B46B2FBF3F301FB2F
:1080F40013210A4A616092F8803003F01F0352F89A
:108104002300C2F8800042F8231020F04040F0BD64
:108114004C0000205FF36E3C0D6619005C8A002061
:108124002DE9F14F84B00E0017009846380080B254
:10813400800003F0A7F90500002D15D0642003F09A
:10814400A1F90400002C0BD05FF064095FF0000A71
:10815400A346524649465846FBF7E8FF256304E028
:10816400280003F025FA00E00024002C12D000209F
:10817400039002940F9801900E98009043463A00A1
:1081840092B23100049800F00AF8200000F087F859
:10819400012001E05FF0FF3005B0BDE8F08F2DE96C
:1081A400F94F81B00C0016000C9F0D9DDDF838804E
:1081B400B00000905FF0A50BD8F830A05A460099A3
:1081C4005046FBF7B3FFD8F8300000EB8600B0F15F
:1081D400040A5FEADA0A5FEACA0A1AF0070000280A
:1081E4000FD0502080F31188BFF34F8FBFF36F8FF0
:1081F40040F25D32DFF84418DFF85C0803F0E0F881
:10820400FEE7002C14D000208146B9F1140F0CD2E3
:1082140014F8090008EB090181F8340014F8090086
:10822400002802D019F10109EFE7002088F847007F
:108234001F2F0FD3502080F31188BFF34F8FBFF34C
:108244006F8F40F29232DFF8F417DFF80C0803F076
:10825400B7F8FEE71F2F01D31E200700C8F82C70C3
:10826400C8F8507018F1040003F0CDF818F11800A4
:1082740003F0C9F8C8F81080D7F11F00C8F8180037
:10828400C8F82480029A0199504601F02BF9C8F8E5
:108294000000002D01D0C5F80080BDE8F78F70B54F
:1082A400040001F0AAF9DFF898170868401C086078
:1082B400DFF890572868002806D12C600868012848
:1082C4000DD100F06DFE0AE0DFF87C07006800289D
:1082D40005D1E06A2968C96A884200D32C60DFF8B6
:1082E4006C070168491C01600068A064DFF860172E
:1082F4000A680123E06A83401A430A601420DFF805
:108304005417E26A42430A445668A660B268E260BF
:10831400221DB3685A60221DB260E26A42430A44D5
:108324006261E26A4243E36A00FB03F00858401CBE
:10833400885001F083F9DFF81007006800280DD099
:108344002868C06AE16A884208D25FF08050DFF88A
:1083540018170860BFF34F8FBFF36F8F70BD70B5F0
:10836400040001F04AF9002C03D1DFF8D8060568AF
:1083740000E02500281D03F070F800280FD1DFF875
:10838400D416EA6A142042438858002807D1DFF83B
:10839400C0160A680123E86A83409A430A60A86AFF
:1083A400002803D015F1180003F057F8DFF89C06F5
:1083B4000168491C0160DFF88C66306885420AD187
:1083C400291DDFF8980603F021F8DFF89406016808
:1083D400491C016006E0DFF868060168491E016077
:1083E40000F035FE01F02AF93068854202D02800F9
:1083F40000F024FEDFF850060068002820D0306822
:1084040085421DD1DFF85C06006800280FD050209B
:1084140080F31188BFF34F8FBFF36F8F40F2AF42E9
:10842400DFF81816DFF8300602F0CAFFFEE75FF047
:108434008050DFF834160860BFF34F8FBFF36F8F9F
:1084440070BD2DE9F04104000D000026002C0FD171
:10845400502080F31188BFF34F8FBFF36F8F40F22A
:10846400C442DFF8D815DFF8F00502F0A9FFFEE7F3
:10847400002D0FD1502080F31188BFF34F8FBFF32D
:108484006F8F40F2C542DFF8B415DFF8CC0502F077
:1084940097FFFEE7DFF8CC05006800280FD05020D6
:1084A40080F31188BFF34F8FBFF36F8F40F2C64242
:1084B400DFF88815DFF8A00502F082FFFEE700F080
:1084C4000AFADFF8A805D0F800802768EF192068B9
:1084D400804507D2206887420BD2B84509D20120D3
:1084E400060006E02068874201D3B84501D2012086
:1084F40006002760002E04D00021B7EB080000F02E
:108504007BFF00F0EEF90100002908D15FF08050F4
:10851400DFF854251060BFF34F8FBFF36F8F300027
:10852400BDE8F08138B505000024002D1DD0DFF82A
:108534003405006800280FD0502080F31188BFF361
:108544004F8FBFF36F8F40F21C52DFF8F014DFF847
:10855400080502F035FFFEE700F0BDF90021280010
:1085640000F04AFF00F0BDF90400002C08D15FF0D0
:108574008050DFF8F4140860BFF34F8FBFF36F8FA0
:1085840031BDF8B5040001F038F8002C03D1DFF850
:10859400B404056800E02500281D02F05EFF0028F1
:1085A4000FD1DFF8B014EA6A142042438858002837
:1085B40007D1DFF89C140A680123E86A83409A43D0
:1085C4000A60A86A002803D015F1180002F045FFDC
:1085D400DFF89C64291D300002F018FF00200128F8
:1085E4000CDA05EB000191F86010012904D1002197
:1085F40005EB000282F86010401CF0E701F01EF861
:10860400DFF844743868002805D000F0F6FF00F065
:108614001EFD01F013F8DFF82C14086885422CD1F4
:10862400386800281ED0DFF83C04006800280FD00A
:10863400502080F31188BFF34F8FBFF36F8F40F248
:10864400D262DFF8F813DFF8100402F0B9FEFEE797
:108654005FF08050DFF810140860BFF34F8FBFF352
:108664006F8F0AE03068DFF8D8231268904202D195
:108674000020086001E000F0CDFAF1BD70B50400FF
:1086840000252600002C0FD1502080F31188BFF361
:108694004F8FBFF36F8F40F2FC62DFF8A013DFF857
:1086A400B80302F08DFEFEE77069DFF8C413884258
:1086B40009D1B06ADFF8C417884204D0B06A002830
:1086C40001D101200500280070BDF8B50400250083
:1086D400002C0FD1502080F31188BFF34F8FBFF3CC
:1086E4006F8F40F22672DFF85413DFF86C0302F048
:1086F40067FEFEE7DFF84C63306885423ED0002D0C
:108704003CD000F07AFF2800FFF7B8FF002833D0F0
:10871400281D02F0A2FEDFF838130A680123E86A74
:1087240083401A430A601420DFF82813EA6A42439C
:108734000A445268AA609368EB602B1D97687B60BB
:108744002B1D9360EB6A43430B446B61EB6A434319
:10875400EF6A00FB07F00858401CC850E86A31680B
:10876400C96A884208D35FF08050DFF804160860B5
:10877400BFF34F8FBFF36F8F00F060FFF1BDF8B50B
:10878400040000252600002C0ED1502080F311880F
:10879400BFF34F8FBFF36F8F40F25D72A749DFF8CD
:1087A400B80202F00DFEFEE700F07AFFEFF3118746
:1087B400502080F31188BFF34F8FBFF36F8F3000C9
:1087C400FFF75CFF00283ED0DFF89802006800281D
:1087D40033D1F06A9B490968C96A884205D30120EC
:1087E40005000120DFF890160860301D02F035FE08
:1087F40097490A680123F06A83401A430A601420E7
:108804009449F26A42430A445268B2609368F3603E
:10881400331DD2F808C0CCF80430331D9360F36ADA
:1088240043430B447361F36A4343D6F82CC000FB03
:108834000CF00858401CC85005E016F11801DFF888
:10884400380702F0E3FD87F311882800F2BD1CB558
:10885400DFF82C0601900020009000234FF496725C
:10886400DFF82016DFF82006FFF75AFC0400012C7D
:1088740002D102F05DFF0400012C17D1502080F3D7
:108884001188BFF34F8FBFF36F8F5FF0FF30DFF8B6
:108894001016086001206C4908600020DFF8CC1134
:1088A400086003F05DFA00F048FE10E014F1010FD7
:1088B4000DD1502080F31188BFF34F8FBFF36F8F1A
:1088C40040F612025D49644802F07AFDFEE7DFF8E3
:1088D4006007006813BDDFF88C010168491C016062
:1088E4007047F8B500250026DFF878412068002895
:1088F4000DD1502080F31188BFF34F8FBFF36F8FDA
:1089040040F685024D49544802F05AFDFEE700F056
:1089140074FE2068401E20602068002840F0828099
:108924004748006800287DD0DFF850150868002803
:1089340053D0C868C0680500A86A296AEA699160CA
:10894400E9692A6A5160416815F11802914201D11E
:10895400296A41600021A9620168491E01606869B1
:10896400E968AA689160A968EA68516041682A1DAB
:10897400914201D1E9684160002169610168491EA1
:10898400016033490A680123E86A83401A430A6094
:1089940030481421EA6A4A4302445268AA60936840
:1089A400EB602B1D946863602B1D9360EB6A4B4353
:1089B40003446B61EB6A4B43EC6A01FB04F14158DD
:1089C400491CC150E86A1F490968C96A8842ABD387
:1089D4000120DFF8A4140860A6E7002D01D000F000
:1089E40036FBDFF854763C68002C0CD000F042F8DB
:1089F400002803D00120DFF880140860641E002CD6
:108A0400F4D100203860DFF870040068002809D031
:108A1400012006005FF0805013490860BFF34F8FB8
:108A2400BFF36F8F00F00AFE3000F2BDDFF83C00A8
:108A340000687047DFF85C0600687047F8F40008C7
:108A4400FC8C0020EC8C0020088D0020188D002068
:108A5400048D0020DC7C002050F600082C8C0020C3
:108A6400F88C0020248D002004ED00E0008D00200F
:108A7400408C00202DE9F0410027DFF8FC06006857
:108A8400002840F0BF80DFF8E8070468641C046035
:108A9400002C24D1DFF8DC170868006800280FD008
:108AA400502080F31188BFF34F8FBFF36F8F40F6D0
:108AB400B722DFF88015DFF8C40602F081FCFEE778
:108AC400D1F80080DFF8B00702680A60C0F80080BF
:108AD400DFF8A8070168491C016000F0B8FADFF864
:108AE400C0130868844279D3DFF8882710680068C7
:108AF400002803D15FF0FF3008606FE01068C068A1
:108B0400C068050068680600B44201D20E6065E0E2
:108B14006869EA68AB689A60AA68EB685A60426858
:108B24002B1D9A4201D1EA68426000226A61026800
:108B3400521E0260A86A002812D0A86A2A6AEB6949
:108B44009A60EA692B6A5A60426815F118039A42DE
:108B540001D12A6A42600022AA620268521E02609F
:108B6400DFF81C2613685FF0010CE86A1CFA00FCAD
:108B74005CEA03031360DFF820051422EB6A534315
:108B840003445B68AB60D3F808C0C5F80CC015F1AA
:108B9400040CD3F808E0CEF804C015F1040CC3F8B3
:108BA40008C0D5F82CC002FB0CFC8444C5F814C0E2
:108BB400D5F82CC002FB0CFCD5F82CE002FB0EF21D
:108BC4008258521C40F80C20DFF8A0060068C06AE6
:108BD400EA6A904288D20120070085E7DFF88C0614
:108BE4000068DFF8B414C26A14204243885802288B
:108BF40001D301200700A0480068002807D0012005
:108C0400070004E0DFF830040168491C0160380003
:108C1400BDE8F08110B5DFF860050068002803D0D6
:108C24000120954908604CE0002093490860DFF872
:108C3400A017DFF8340600680860DFF8982710688A
:108C44000B68984208D2DFF8240603689C6D086814
:108C540004191068241A9C6508681060DFF8200560
:108C64000068B0FA80F4D4F11F041421DFF828243A
:108C740001FB04F0105800280FD1502080F3118814
:108C8400BFF34F8FBFF36F8F40F6F632DFF8A413B4
:108C9400DFF8E80402F094FBFEE701FB04F102EBC9
:108CA4000100416849684160416810F1080291423D
:108CB40002D14168496841604068C068DFF8AC157A
:108CC400086010BD38B504000D00002C0FD15020F1
:108CD40080F31188BFF34F8FBFF36F8F40F60E42BE
:108CE400DFF85013DFF8940402F06AFBFEE7DFF8C4
:108CF4007C05006810F11801200002F093FB0121AB
:108D0400280000F079FB31BD70B504000E00150099
:108D1400002C0FD1502080F31188BFF34F8FBFF385
:108D24006F8F40F64442DFF80C13DFF8500402F072
:108D340047FBFEE76068DFF834150A68D061826893
:108D44000B681A620A68183283685A600A68183213
:108D5400826009688C622168491C2160002D02D060
:108D64005FF0FF3006002900300000F045FB70BDC5
:108D740004ED00E070B50500E868C468002C0FD16C
:108D8400502080F31188BFF34F8FBFF36F8F40F6ED
:108D94007442DFF8A012DFF8E40302F011FBFEE7EF
:108DA400A06A216AE2699160E169226A51604168BE
:108DB40014F11802914201D1216A41600021A1629B
:108DC4000168491E0160DFF8B0030068002835D14E
:108DD4006069E168A2689160A168E26851604168D5
:108DE400221D914201D1E168416000216161016865
:108DF400491E0160DFF888130A680123E06A834092
:108E04001A430A60DFF890021421E26A4A430244DA
:108E14005268A2609368E360231D96687360231D03
:108E24009360E36A4B4303446361E36A4B43E66A3A
:108E340001FB06F14158491CC1500FE00F49486835
:108E4400E0618268226214F1180283685A6014F1A6
:108E540018028260A1620A68521C0A60DFF80C04DE
:108E64000068C06AE16A884204D201200121024AF2
:108E7400116000E0002070BD108D0020188C0020CF
:108E8400208D0020C0F90008818F0008DFF8EC1362
:108E940009680160DFF8D813096841607047000071
:108EA4001C8D00202DE9F04104000D00002C0ED192
:108EB400502080F31188BFF34F8FBFF36F8F40F6BC
:108EC400EF425C49DFF8B40202F07AFAFEE7002DC3
:108ED4000ED1502080F31188BFF34F8FBFF36F8FF3
:108EE4004FF44F625349DFF8940202F069FAFEE747
:108EF40000F083FBDFF8780306686768F71BDFF888
:108F04006C13086890F86100002806D000200968F6
:108F140081F861005FF0010824E0286810F1010F76
:108F240002D15FF000081DE0DFF8500300682168FB
:108F3400884207D06068864204D35FF001080020AD
:108F440028600FE02868874208D22868C01B286080
:108F54002000FFF79BFF5FF0000803E0002028607B
:108F64005FF0010800F06AFB4046BDE8F081012093
:108F7400DFF8641408607047188C002010B50400F2
:108F840000F037F8444800680228F9D35FF08050B5
:108F9400DFF85C140860BFF34F8FBFF36F8FEFE708
:108FA40070B500241F2C08D23B48142101FB04F1A6
:108FB400084402F019FA641CF4E7DFF8205428008E
:108FC40002F012FADFF81864300002F00DFADFF84C
:108FD400140402F009FA314802F006FADFF8080432
:108FE40002F002FADFF88C020560DFF88C020660FA
:108FF40070BD38B5DFF8F4532868002815D000F0A8
:10900400FCFA2648C068C0680400201D02F025FA56
:1090140020480168491E01602868401E286000F04D
:109024000DFB200000F00AF8E4E731BD0000000069
:1090340048000020F8F400080C8D002010B504004E
:10904400206B02F0B5FA200002F0B2FA10BD894993
:1090540008680068002805D15FF0FF30DFF8581475
:10906400086005E00868C0680068DFF84C14086010
:109074007047DFF880030068002801D1012007E071
:10908400DFF838040068002801D1022000E0002045
:1090940070470000FC8C0020DC7C00202C8C00201D
:1090A4002DE9F843040025000026002C60D0DFF8E9
:1090B400BC91E86AD9F80010C96A884250D2A869FC
:1090C400002805D4D9F80000C06AD0F11F00A861B7
:1090D400DFF8EC735FF014086869E96A08FB01F1D2
:1090E4003944884235D1281D02F0B7F9002807D148
:1090F400DFF8D0130A680123E86A83409A430A60C0
:10910400D9F80000C06AE862DFF8B8130A680123DE
:10911400E86A83401A430A60E86A08FB00F03844AE
:109124004068A8608168E960291D82685160291D32
:109134008160E96A08FB01F139446961E96A08FB65
:1091440001F1EA6A08FB02F857F80820521C7A5029
:1091540003E0D9F80000C06AE8620120060007E0D5
:10916400286DD9F80010C96A884201D2012006008E
:109174003000BDE8F2830000248D002050F6000882
:10918400048D0020F8B5040025000026002C68D0CA
:109194003648006885420FD0502080F31188BFF311
:1091A4004F8FBFF36F8F41F24802DFF81C13DFF8D3
:1091B4001C0302F005F9FEE7686D00280FD150206A
:1091C40080F31188BFF34F8FBFF36F8F41F24902D1
:1091D400DFF8F412DFF8F40202F0F2F8FEE7686D4B
:1091E400401E6865E86A296D88423AD0686D002897
:1091F40037D1281D02F031F9002807D1DFF8C41255
:109204000A680123E86A83409A430A60286DE86289
:10921400E86AD0F11F00A861DFF8A8120A680123E8
:10922400E86A83401A430A601420DFF89412EA6A59
:1092340042430A445268AA609368EB602B1D976806
:109244007B602B1D9360EB6A43430B446B61EB6AB9
:109254004343EF6A00FB07F00858401CC850012044
:1092640006003000F2BD0000E48C0020EC8C0020ED
:10927400008D0020F08C0020F48C0020148D002040
:109284002DE9F84F04000F00A0465FF00109002CFF
:1092940000F09080D8F8540000280FD1502080F3BB
:1092A4001188BFF34F8FBFF36F8F41F29802DFF83D
:1092B4001812DFF8180202F083F8FEE7D8F850001D
:1092C400B84201D23E0002E0D8F850000600D8F8B7
:1092D4002C00B0426ED0D8F8540048456AD1DFF86B
:1092E400D401006880450FD1502080F31188BFF36A
:1092F4004F8FBFF36F8F41F2B302DFF8CC11DFF869
:10930400CC0102F05DF8FEE7D8F82C000500C8F89F
:109314002C60D8F81800002803D4D6F11F00C8F830
:109324001800DFF89CA15FF0140BD8F814000BFBB5
:1093340005F1514488423DD118F1040002F08DF842
:10934400002808D1DFF87C110A680123D8F82C0022
:1093540083409A430A60DFF86C110A680123D8F845
:109364002C0083401A430A60D8F82C000BFB00F051
:1093740050444068C8F808008168C8F80C1018F117
:1093840004018268516018F104018160D8F82C103E
:109394000BFB01F15144C8F81410D8F82C100BFB46
:1093A40001F1D8F82C200BFB02FB5AF80B20521CBD
:1093B4004AF80120BDE8F18FDFF8F81008680028AA
:1093C40003D00868426D521C42650868704700006B
:1093D4002C8D0020288D0020108D0020F08B002083
:1093E400048C0020188C0020408C0020F88C002075
:1093F40004ED00E0088D00202DE9F04105000C008B
:1094040033480768DFF8AC800020D8F8001081F8F2
:109414006100D8F80000001D02F01FF8002808D1F0
:10942400D8F8000027490A680123C06A83409A4398
:109434000A6015F1010F1AD1002C18D02548416893
:10944400D8F8002091608A68D8F80030DA60D8F83B
:109454000020121D8B685A60D8F80020121D8A6003
:10946400D8F8002050610268521C02601FE0E8191D
:109474000600D8F800004660BE4207D2D8F80000C3
:10948400011D1548006801F0CDFF10E0D8F8000078
:10949400011D1248006801F0C5FF074801688E42AB
:1094A40005D2066001680E4A914200D30660BDE809
:1094B400F0810000EC8C00201C8D0020248D002005
:1094C400DC7C0020048D0020F8F4000850F600082D
:1094D400008D0020408C0020F48C0020F08C0020B3
:1094E40001000008001F5FF080730360001F4B0839
:1094F4005B000360001F0FF20D0303601438026069
:109504002038704780B58048006810F1010F0CD0F6
:10951400502080F31188BFF34F8FBFF36F8FCB229E
:109524007A497B4801F04CFFFEE7502080F3118814
:10953400BFF34F8FBFF36F8FFEE71CB5754C2078D8
:109544000190FF20207020788DF800009DF8000025
:1095540010F05000704908707048072101609DF8B0
:109564000010090608D50168491E01609DF8001025
:1095740049008DF80010F2E70168D1F107010429D0
:109584000DD0502080F31188BFF34F8FBFF36F8F3E
:109594004FF482725D495E4801F012FFFEE70168F4
:1095A400D1F1070104290DD0502080F31188BFF3B5
:1095B4004F8FBFF36F8F40F20D125449544801F09E
:1095C400FFFEFEE7016809020160016811F4E06131
:1095D4000160019820705248016851F470010160E3
:1095E400016851F07041016000F0A2F80020464982
:1095F400086002F0EEFB002016BD80B5502080F319
:109604001188BFF34F8FBFF36F8F3F490A68521C15
:109614000A600968012910D14249096809060CD079
:1096240080F31188BFF34F8FBFF36F8F40F2431263
:109634003649374801F0C4FEFEE701BD80B5324922
:10964400086800280DD1502080F31188BFF34F8F94
:10965400BFF36F8F4FF4A5722C492D4801F0B0FE73
:10966400FEE70868401E08600868002802D1002050
:1096740080F3118801BD80B5502080F31188BFF3B9
:109684004F8FBFF36F8FFFF7F5F9002803D05FF01A
:10969400805024490860002080F3118801BD000037
:1096A40038B5EFF30585102D17D31F480068405DCA
:1096B4000400200018490978C0B288420DD2502015
:1096C40080F31188BFF34F8FBFF36F8F40F28A226C
:1096D4000E490F4801F074FEFEE710480068134974
:1096E400096811F4E06188420DD2502080F311889A
:1096F400BFF34F8FBFF36F8F40F29B22034904489F
:1097040001F05EFEFEE731BD3000002050F4000899
:1097140008F6000800E400E0538D0020E08C0020EF
:1097240020ED00E004ED00E0E0F900080CED00E0BD
:109734000548002101600021044A11600449054ADA
:10974400116007210160704710E000E018E000E0BC
:10975400BFD4010014E000E02DE9F04704000D003F
:10976400160000275FF0000A280080B20B2856DBA1
:10977400280080B2390089B20B3188424FDB3800AF
:1097840080B2205C7E2848D1380080B220444078E2
:10979400552842D15FF000085FF00009002138002D
:1097A40080B220448078002807D0380080B220445A
:1097B40090F802A01AF1030A0EE0380080B22044A7
:1097C40090F80AA05FEA0A2A380080B22044407A5E
:1097D40050EA0A0A1AF10D0A514689B2091F3800E3
:1097E40080B22044801CFDF7E9FB514689B211FA8E
:1097F40087F1214411F8012C1202514689B211FA61
:1098040087F1214411F8021C0A430100130089B2B4
:109814009BB2994203D000218A467F1CA8E7504698
:1098240080B2BDE8F087B1F5807F02D34FF0FF30FE
:1098340070470170012070470078401E8041C0438A
:10984400C00F704730B585B00400042100226D4676
:109854002800FAF76BFC1021002201AD2800FAF76A
:1098640065FC10208DF8030003208DF80200614D83
:10987400A888ADF800006946286801F085FBA8882F
:10988400296848615C4D280000F0E2F85B48818853
:10989400ADF8001018218DF803106946006801F036
:1098A40073FB57488188ADF8001004218DF803102C
:1098B4006946006801F068FB01940020ADF80800D7
:1098C4000020ADF80A000020ADF80C000020ADF82F
:1098D40010000C20ADF80E0001A9280000F000F9DA
:1098E4000121280000F072F905B030BD4FF4C041E9
:1098F4004843401C0100481E0029FBD1704738B57D
:1099040084B004000A21002201AD2800FAF70EFCFD
:10991400042100226D462800FAF708FCB4F5165F0E
:1099240004D140F6AA70ADF8080003E040F2D66016
:10993400ADF808007720ADF804000020ADF80A0067
:109944000020ADF806002F4D01A9280002F052FABC
:1099540001220121280002F0AEFA0021280002F0C1
:109964009BFA1E208DF8000007208DF801000720C7
:109974008DF8020001208DF80300684601F0C5FB54
:1099840005B030BD1CB5042100226C462000FAF756
:10999400CDFB26208DF8000007208DF8010007205C
:1099A4008DF8020001208DF80300684601F0ADFB3C
:1099B40013BD70B504000D000F4E40F22771300046
:1099C40000F0A2F92200D2B240F22551300000F09A
:1099D4000CF92A00D2B240F22661300000F005F9F9
:1099E40070BD054909880906FBD50100C9B2064ABC
:1099F40011807047A0F900080044004090F9000865
:109A040098F90008000800400444004070B50400C0
:109A14000D0000200026AE4204D2A05DFFF7E1FF56
:109A2400761CF8E770BD10B50400200001F090FA30
:109A340001002000FFF7EAFF0D20FFF7D2FF0A2004
:109A4400FFF7CFFF10BD0268531C0360117070470D
:109A540010B50400584884420AD101214FF48040D3
:109A640002F086FB00214FF4804002F081FB36E0D7
:109A7400524884420AD101215FF4003002F086FB8F
:109A840000215FF4003002F081FB28E04C4884425E
:109A94000AD101215FF4802002F078FB00215FF4F9
:109AA400802002F073FB1AE0464884420AD1012167
:109AB4005FF4002002F06AFB00215FF4002002F052
:109AC40065FB0CE04048844209D101215FF4801019
:109AD40002F05CFB00215FF4801002F057FB10BD24
:109AE4002DE9F84F86B004000D00002600275FF032
:109AF40000085FF000095FF0000AA8890028A34667
:109B0400218A4CF6FF700140E888014300910098D7
:109B14002082A1894EF6F3100140AA8828890243C5
:109B240068890243114300910098A081A18A4FF6ED
:109B3400FF400140A889014300910098A08201A838
:109B440002F080FA1C48834501D1049900E003998E
:109B5400A089000407D5192000FB01F02A685200EF
:109B6400B0FBF2F206E0192000FB01F02A68920033
:109B7400B0FBF2F26420B2FBF0F6360133001B09AD
:109B8400642000FB1323A089000408D5D8003230D8
:109B94006427B0FBF7F010F00700064307E0180154
:109BA40032306427B0FBF7F010F00F000643268133
:109BB40007B0BDE8F08F00000038014000440040C9
:109BC40000480040004C0040005000400A00D2B25F
:109BD400002A04D0828952F40052828104E08389ED
:109BE4004DF6FF721340838170472DE9F041002345
:109BF400002500275FF0000E0C0040F66A16A4B2A0
:109C0400B44280460C00E4B26409E4B20E00B6B279
:109C140016F01F065FF0010C1CFA06FC012C02D1A1
:109C240018F10C0806E0022C02D118F1100801E02A
:109C340018F114081300DBB2002B06D0D8F800305A
:109C44005CEA0303C8F8003005E0D8F8003033EAD2
:109C54000C03C8F80030BDE8F0811300DBB2002B20
:109C640003D0838A0B43838202E0838A8B438382FB
:109C7400704702000023080080B2B0F5007F10880E
:109C8400084201D0012000E00020C0B270470A0061
:109C940092B292050A0092B2D24302807047F0B4A5
:109CA400040000270020002200260B0040F66A155D
:109CB4009BB2AB420D00EDB26D09EDB20B009BB24D
:109CC40013F01F035FF0010C1CFA03F3012D02D102
:109CD400A089034006E0022D02D1208A034001E05E
:109CE400A08A03400A0092B2120A92B21CFA02F24B
:109CF40020880240002B03D0002A01D0012000E07C
:109D04000020C0B2F0BC704770B4002200240B00E5
:109D140040F66A159BB2AB420B009BB21B0A0125AD
:109D24009D402E00B6B2F643068070BC70472E00EC
:109D34002DE9F04104000025200002F081FA02F030
:109D4400DBFA4FF480711F4802F0E7FA4FF4807198
:109D54001D4802F031FB5FF400301C4908604FF4E9
:109D640080701B4908601B48016851F001010160C3
:109D7400DFF8648000224FF488710520FDF757FA5C
:109D8400C8F80000154E00224FF485710520FDF738
:109D94004EFA3060124F032200210120FDF747FAEA
:109DA4003860D8F80000002807D03068002804D0B4
:109DB4003868002801D0012005002800C0B2BDE8A1
:109DC400F08100BFB88500207E810020040002409D
:109DD4005C00024058000240B88C0020BC8C00207B
:109DE400C08C002030B4020000240023106830F03E
:109DF40002001060106850F0010010605068C00745
:109E040005D44FF6FF70834201D05B1CF6E750681F
:109E1400C00701D400206BE08879012804D11068C0
:109E240050F08000106003E0106830F08000106093
:109E3400C879012804D1106850F04000106003E094
:109E4400106830F040001060087A012804D11068CE
:109E540050F02000106003E0106830F02000106023
:109E6400487A012804D1106850F01000106003E013
:109E7400106830F010001060887A012804D110684E
:109E840050F00800106003E0106830F00800106023
:109E9400C87A012804D1106850F00400106003E06F
:109EA400106830F0040010608878CD782D0655EAEB
:109EB4008075087955EA0045487955EA00550888BF
:109EC400401E0543D5611068400840001060002022
:109ED40003005068C00705D54FF6FF70834201D0D8
:109EE4005B1CF6E75068C00701D5002000E00120A4
:109EF400C0B230BC704770B400250121827A11FAD7
:109F040002F22E4B196851F0010119602C4C2168A2
:109F140091432160017B002913D12A490D6895439F
:109F24000D602949C588468856EA0546857A41F870
:109F34003560857A01EBC5018588068856EA0546B1
:109F44004E60017B012913D11E490D6815430D6034
:109F54001D490588468856EA0546857A41F83560E4
:109F6400857A01EBC5018588C68856EA05464E60A8
:109F7400C17A002904D115490D6895430D6003E0A9
:109F840012490D6815430D600189002903D1104958
:109F94000D6895430D600189012903D10C490D68B1
:109FA40015430D60417B012902D1216811432160D1
:109FB400196849084900196070BC70470066004080
:109FC4001C6600400C660040406600400466004089
:109FD400146600401300DBB2002B03D043690B432B
:109FE400436102E043698B434361704730B403002B
:109FF40000229868400101D500200AE09868000119
:10A0040001D5012005E09868C00001D5022000E0D8
:10A0140004200200D2B2042A00F084800200D2B2EA
:10A0240012011A44D2F8802112F001020400E4B2B1
:10A0340024011C44C4F880210A7A002A11D10200A8
:10A04400D2B212011A44D2F880210C684D7A55EA32
:10A0540044552A430400E4B224011C44C4F880217A
:10A0640012E00200D2B212011A44D2F880414A68C6
:10A074000D7A55EAC2054A7A15432C430200D2B23E
:10A0840012011A44C2F880418A7A12F00F028A72CD
:10A094000200D2B212011A44D2F884211209120128
:10A0A4000400E4B224011C44C4F884210200D2B2A6
:10A0B40012011A44D2F884418A7A14430200D2B2BB
:10A0C40012011A44C2F884418A7B4C7B240454EA6A
:10A0D40002640A7B54EA0224CA7A14430200D2B20C
:10A0E40012011A44C2F888418A7C4C7C240454EA44
:10A0F40002640A7C54EA0224CA7B14430200D2B2EA
:10A1040012011A44C2F88C410200D2B212011A445C
:10A11400D2F8802152F001020400E4B224011C446C
:10A12400C4F88021C0B230BC7047020000200B008C
:10A13400DBB2002B03D0022B22D010D331E0936882
:10A144009B0013F004031843936813F002031843AD
:10A1540093689B0E13F001031843030022E09368F5
:10A164009B0913F00403184393681B0A13F00203BA
:10A1740018439368DB0E13F001031843030011E046
:10A1840093689B0B13F00403184393681B0C13F0A0
:10A194000203184393681B0F13F0010318430300D1
:10A1A40000E000231800C0B2002804D0052804D021
:10A1B400072804D005E0022004E0002002E001208A
:10A1C40000E00020C0B270470A00D2B2002A02D1D7
:10A1D4002022C26001E020220261704702000023B5
:10A1E4000800C0B2002803D1D06810F0030008E0D2
:10A1F4000800C0B2012803D1106910F0030000E088
:10A204000020C0B2704770B504000E001500300085
:10A21400C0B200012044D0F8B00110F0040028724C
:10A22400287A002808D13000C0B200012044D0F8B8
:10A23400B001400D286007E03000C0B200012044A6
:10A24400D0F8B001C00868603000C0B200012044FA
:10A25400D0F8B00110F0020068723000C0B2000102
:10A264002044D0F8B40110F00F00A8723000C0B23E
:10A2740000012044D0F8B401000AE8743000C0B2F0
:10A2840000012044D0F8B801E8723000C0B20001E7
:10A294002044D0F8B801000A28733000C0B200018D
:10A2A4002044D0F8B801000C68733000C0B200013B
:10A2B4002044D0F8B801000EA8733000C0B20001E9
:10A2C4002044D0F8BC01E8733000C0B2000120443F
:10A2D400D0F8BC01000A28743000C0B20001204448
:10A2E400D0F8BC01000C68743000C0B200012044F6
:10A2F400D0F8BC01000EA8743100C9B22000FFF7E9
:10A3040063FF70BD020000239069084201D0012060
:10A3140000E00020C0B2704782698A4382617047BE
:10A3240070B504000D000026280004282CD0052850
:10A3340019D006281CD0072820D0082829D0202886
:10A344002CD040282FD0B0F5807F31D0B0F5007FDD
:10A3540033D0B0F5806F35D0B0F5803F3CD0B0F548
:10A36400003F34D03DE00121A06800F089F839E0D5
:10A374004FF48071A06800F083F833E05FF480311B
:10A38400A06800F07DF82DE00821E06800F078F87E
:10A3940028E01021E06800F073F823E00821206928
:10A3A40000F06EF81EE01021206900F069F819E051
:10A3B4000121A06900F064F814E00221A06900F012
:10A3C4005FF80FE00421A06900F05AF80AE01021B8
:10A3D400606800F055F805E00821606800F050F866
:10A3E40000E00020C0B270BD0A00042A26D0052A6D
:10A3F40019D0062A1AD0072A1CD0082A21D0202ACC
:10A4040022D0402A23D0B2F5807F23D0B2F5007F3A
:10A4140025D0B2F5806F27D0B2F5803F29D0B2F5B0
:10A42400003F29D02BE00122826028E04FF48072A3
:10A43400826024E05FF48032826020E00822C260FF
:10A444001DE01022C2601AE00822026117E0102207
:10A45400026114E082695208520082610FE082694D
:10A4640032F0020282610AE0826932F004028261FF
:10A4740005E00822426002E010224260FFE77047D4
:10A48400020000230A4201D0012000E00020C0B2F3
:10A494007047430010B50400200001F0E7FF02F00C
:10A4A4005AF84FF480710B4802F066F84FF480714B
:10A4B400094802F0AFF84FF40070084908604FF4FF
:10A4C4008070074908600748016851F00101016084
:10A4D400012010BDAC8400206E80002004000240E6
:10A4E400340002403000024010B504002000FFF7A1
:10A4F400A9F9FFF747FA00210120FFF75AFA2000D3
:10A50400FFF7FDF9DFF890190A884FF6FE70024054
:10A514000A8010BD2DE9FE4F040042F21070029033
:10A5240000200090009400980078012840F04381B6
:10A53400DFF8585907212800FFF79BFB002828D093
:10A54400002240F225512800FFF74FFB0220FFF7BD
:10A55400CDF9DFF83C094021017000218180002100
:10A56400C0F808114FF48076002710F106083A006D
:10A5740031004046F9F7DAFD07212800FFF787FB91
:10A584005FF4E130FFF7B0FF2100DFF8100900F0BD
:10A594008FF9DFF8FC683078022802D0307803287D
:10A5A40044D14FF488770196DFF8F488C1463A0025
:10A5B40001994846FCF794FB402030700020B0809D
:10A5C4000020C6F808014FF480795FF0000A16F104
:10A5D400060B524649465846F9F7A8FDDFF8BCB8C1
:10A5E4009BF80000002809D0B8F8041018F1060000
:10A5F40001F0F9FA0221ADA001F0F5FAB8F804204F
:10A6040018F10601584600F0DFFA00280ED09BF836
:10A614000B0080070AD520208BF80B00DFF8840894
:10A624000068CBF870000020CBF80C00DFF86C78E1
:10A63400B87A002840F09A80F87AC00736D5F87ABC
:10A6440010F0FE00F872387A797A8842BFF46AAF63
:10A65400402030700020B0800020C6F808014FF47C
:10A6640080755FF00008B61D424629003000F9F7F6
:10A674005DFDDFF830080168380000F0A8F9F87AC9
:10A6840050F00600F872387800283FF44BAFDFF83A
:10A694001858280000F05CFC010089B2280001F081
:10A6A400A2FA022181A001F09EFA3BE7F87A800722
:10A6B40027D5386F397A07EB4101098E10FA81F0FA
:10A6C400DFF8E01709688842BFF42CAFF868401C33
:10A6D400F860F868042802D20120F87222E7B87AF8
:10A6E40000280BD10298FDF71DFF5FF4E130FFF75E
:10A6F400FBFE2100380000F0DBF813E70820F872B5
:10A7040010E7F87A80060AD5386FC01CDFF8941772
:10A7140009688842BFF406AF0820F87202E7F87AA5
:10A7240000077FF5FFAEF87A10F0F700F87200200A
:10A73400F860380000F022FB00283FF4F3AE387ACA
:10A74400797A88420FD3B87A00287FF4EBAE0120DF
:10A75400B8720020F8720420DFF850170860002057
:10A76400FDF70FFFDEE60120F872DBE6B87A022877
:10A774007FF4D8AE0220FFF7B9F8402030700020F3
:10A78400B0800020C6F808014FF480785FF000091B
:10A79400B61D4A4641463000F9F7C8FC0721280097
:10A7A400FFF775FA5FF4E130FFF79EFE21003800F1
:10A7B40000F07EF8B6E60120DFF8F016086000200D
:10A7C400FDF7DFFEAEE62DE9F84F04000125DFF8C2
:10A7D400C0B69BF80000022803D09BF800000328B1
:10A7E40060D1DFF8B866B07A01285BD14FF488777E
:10A7F400CDF800B0DFF8A886C1463A000099484673
:10A80400FCF76EFA40208BF800000020ABF804003F
:10A814000020CBF808014FF480795FF0000A1BF1A7
:10A82400060B524649465846F9F780FC3078002812
:10A8340009D0B8F8041018F1060001F0D4F9022187
:10A844001AA001F0D0F9310018F1060000F05FFA07
:10A854007078022811D10420DFF850160860042013
:10A8640088F80C010023002241462000FCF74AFE30
:10A87400002817D10020050014E07078012804D1C5
:10A884000720DFF8281608600CE07078002802D052
:10A894007078FF2806D10220B072DFF81406006831
:10A8A400FDF76DFF2800C0B2BDE8F28F0D0A00006D
:10A8B4002DE9F04704000D00DFF8F865B088316831
