:020000040800F2
:1040000000AD002089ED000841DB000843DB00081B
:1040100045DB000847DB000849DB00080000000022
:1040200000000000000000000000000013CD0008A8
:104030004BDB000800000000CDCC000827A80008DA
:10404000F5EE0008F9EE0008FDEE000801EF0008AB
:1040500005EF000809EF00080DEF000811EF000858
:1040600015EF000819EF00081DEF000821EF000808
:1040700083DD000869DD0008A1DC000887DC00089A
:1040800025EF000829EF00082DEF000831EF0008A8
:10409000FFDB000835EF000839EF00083DEF0008AE
:1040A00041EF000845EF000849EF00084DEF000818
:1040B0004DDB000851EF0008D3DE000855EF000883
:1040C00059EF00085DEF000861EF000865EF000898
:1040D00069EF0008D5DC000845DE0008B5DD000802
:1040E0006DEF000871EF000875EF000879EF000828
:1040F0007DEF000881EF000885EF000889EF0008D8
:104100008DEF000891EF000895EF000899EF000887
:10411000D5DB00089DEF0008A1EF0008A5EF00081F
:10412000A9EF0008ADEF000883DB00089BDB000867
:1041300062F30F2262F31F42401810F0030308D00D
:10414000C91A1FD3DB0748BF00F8012D28BF20F88C
:10415000022D130030B414461546103928BF20E94B
:104160003C00FAD8490728BF20E90C0048BF40F8B6
:10417000042D890028BF20F8022D48BF00F8012D2A
:1041800030BC7047C91818BF00F8012DCB0728BFF5
:1041900000F8012D704712AA01120001200201024D
:1041A000030404400806070809020406081E00016B
:1041B000120108F002078EB300080452FF01E3EE7B
:1041C000911420040000A2A9000840F00316240066
:1041D000002000012002F98C00082C43E78C3C21D0
:1041E00001100402040101B08A4420018B00200860
:0D41F000310C1101610812E860F212D46474
:105000005250333432335F4D4220323431323235F4
:1050100030302047323331323030000000000000A1
:105020000000000000000000000000000000000080
:0250300000007E
:1050340080B501F0C8FA002800D000BF01BD2DE9F9
:10504400F047B4240025DFF8B46B37002A002100B0
:105054003800FFF76BF80120307005203071002014
:1050640070710020B0710020F071002030720020B7
:1050740070720020B0720020F072002030730120A2
:1050840070730020B0730020F0730020307400208F
:1050940070740120B0740020F0740020307500207A
:1050A40070750020B075012086F82800002086F86D
:1050B40029004FF4FA707085002086F82C00DFF880
:1050C400400B30634FF40260B086012086F83C0048
:1050D4000020A6F89000C02086F89400A82086F846
:1050E4009500012086F89600082086F897004FF472
:1050F400FB70A6F89200FF2086F89C0086F89D00BD
:1051040086F89E00002086F89F00C02086F898004C
:10511400A82086F89900012086F89A00012086F8D4
:105124009B00C02086F8A200A82086F8A3000120D6
:1051340086F8A400C42086F8A50042F21170A6F8EF
:10514400A000D6F88C0050F00100C6F88C000020B6
:10515400A6F840000820A6F842000827DFF8A48A31
:1051640016F144093A004146484601F07DFA082008
:10517400A6F866005FF00809DFF88CAA68364A468C
:105184005146300001F070FABDE8F0872DE9F04196
:1051940000270026DFF8644A2200B4214FF480700F
:1051A40001F0B5FA05002800C0B200280CD0002791
:1051B4005FF00008B021200001F0C4FBD4F8B01067
:1051C400884201D0002215002200B4214FF4A060CF
:1051D40001F09DFA07003800C0B200280CD0002668
:1051E4005FF00008B021200001F0ACFBD4F8B0104F
:1051F400884201D00022170057EA0500C0B20028F7
:1052040004D1FFF71CFF00F046F828E02800C0B2E4
:10521400012810D13800C0B200280CD12200B421DA
:105224004FF4807001F073FA2200B4214FF4A060AF
:1052340001F034FB13E02800C0B200280FD138007D
:10524400C0B201280BD12200B4214FF4A06001F0B8
:105254005EFA2200B4214FF4807001F01FFB01F0CC
:1052640095FB45F25550DFF8341A0A88824209D179
:105274004A88637893EA020F04D18A88237893EAF0
:10528400020F06D00880607848802078888001F07A
:10529400FBFBBDE8F08170B50024DFF860690020F5
:1052A400C6F8B000B021300001F04CFBC6F8B000E5
:1052B4003200B4214FF4807001F0F0FA050032009E
:1052C400B4214FF4A06001F0E9FAC0B270BD2DE939
:1052D400F84F05000E00170000245FF000087E2040
:1052E400210089B239440871641C5520210089B217
:1052F40039440871641C0020210089B239440871C2
:10530400641CDFF8F8080078210089B23944087178
:10531400641C0020210089B239440871641CB7F868
:105324000601210089B239440871641CB7F80601EA
:1053340080B2000A210089B239440871641C1F201C
:10534400210089B239440871641C97F808012100CE
:1053540089B239440871641C0020210089B239449F
:105364000871641C300080B2FD281CDB200080B270
:1053740038440671641C300080B2000A210089B2EE
:1053840039440871641CB1461FFA89F9AA46200001
:1053940080B2384410F1040B4A465146584601F095
:1053A40063F934191FE0B1461FFA89F9AA462000AF
:1053B40080B2384410F1040B4A465146584601F075
:1053C40053F9341997F80401210089B2394408715A
:1053D400641C97F80501210089B239440871641CE2
:1053E4002000401EB871210089B2891EB81D01F049
:1053F400A9FA0100200080B238440171641C200025
:105404000A0092B2120A03009BB23B441A71401C78
:10541400788080B2BDE8F28F2DE9F84F86B00400A1
:105424000D000023002000210022B4F8056037009D
:10543400BFB24FF6FF7C674509D03000DFF8BC7778
:105444003F7880B2BFB2B84201D00020FBE0B4F88C
:105454000300A5F8060100206880E77985F8087143
:10546400002085F80401002085F80501A0780028B3
:1054740004D1B4F8098014F10B0904E0A078B0F168
:10548400080814F109093800C0B2202877D021286F
:1054940000F08380222800F08E80232800F0998079
:1054A400242800F0A480252800F0AF80F72802D03B
:1054B400FE280ED0B7E0404680B2002808D1012073
:1054C40028702A003221DFF85409FFF700FF6880B2
:1054D400A9E0404680B20A2850DA404680B2032848
:1054E4004CDB142100220DF1040A5046FEF71EFE87
:1054F40099F80000FF280ED140F2FF7003900020BD
:105504008DF80500012028702A0000210020FFF7F3
:10551400DEFE68800BE099F8000010F580700390BF
:1055240001208DF805000120688000202870404685
:10553400401E8DF807009DF80700009019F1010A3C
:105544000DF1100B009A5146584601F08DF80120D8
:105554008DF8040000235FF0FF3201A9DFF8C809C9
:10556400006801F084FB002808D0DFF8C009FE21A0
:1055740080F80811B5F80611A0F8061153E040466A
:1055840080B2002808D1012028702A000521DFF804
:10559400A009FFF79CFE688045E0404680B20028E1
:1055A40008D1012028702A000421DFF88809FFF7B8
:1055B4008EFE688037E0404680B2002808D1012082
:1055C40028702A000521DFF87009FFF780FE688043
:1055D40029E0404680B2002808D1012028702A0022
:1055E4000421DFF85809FFF772FE68801BE040468B
:1055F40080B2002808D1012028702A000121DFF898
:10560400080AFFF764FE68800DE0404680B2002877
:1056140008D1012028702A000521DFF8F009FFF7DE
:1056240056FE6880FFE7688800280BD1012085F8C2
:105634000401042085F805012A0000210020FFF759
:1056440046FE6880688807B0BDE8F08F2DE9F04F0A
:1056540085B004000D0016001F00082100220DF182
:1056640008084046FEF762FD5FF0000B5FF000089B
:105674000021DFF888050278944205D040F2FF72D9
:10568400944201D000206AE040F2FF7292EA040FD3
:1056940002D014F5907903E090F8009019F5E069D0
:1056A4002800C0B2022802D0072810D055E03000EC
:1056B400C0B202280AD101208046002000900023B5
:1056C40000222900C9B2484600F0B3F945E0300091
:1056D400C0B2032840D10020B9788DF804109DF899
:1056E40004100A292DDA9DF8040002A95A46D2B200
:1056F40088541BF1010B8DF800B05FF0050ADFF848
:105704001C179DF804200520424301EB020004907D
:1057140002A89DF8001000EB010B5246049958466C
:1057240000F0A2FF9DF800B01BF1050B02A8009049
:105734005B46DBB200222900C9B2484600F079F981
:1057440008E000200090002302222900C9B2484644
:1057540000F06FF901208046FFE74046C0B205B073
:10576400BDE8F08F2DE9F24F82B0050016001F004E
:10577400DDF830805FF000099DF80800002808D0AB
:1057840002281BD0072820D0302860D0322851D0DE
:105794006AE03000C0B204280FD10024B878402851
:1057A4000BD12800C0B200F0F6F9002805D0F97832
:1057B4008170DFF82C1A0968816055E03000C0B2AE
:1057C400022801D1042081464EE03000C0B20828EE
:1057D4002FD100205FF0000AB9788DF8001098F8F6
:1057E400081011F00F018D4223D19DF8000098F8A4
:1057F4000E1088421DD12800C0B200F0CCF904007C
:10580400002C11D05FF0050AF81C01909DF80010DF
:105814000520414304EB010010F1100B524601999D
:10582400584600F021FF02E000208DF8000004201B
:10583400814619E03000C0B2022807D198F8080068
:1058440010F00F00854201D1042081460CE03000A5
:10585400C0B2022807D198F8080010F00F00854262
:1058640001D104208146FFE74846C0B2BDE8FE8F5F
:105874002DE9FE4F05000E00170098465FF0000961
:105884003000C0B2002804D0012824D040285ED0C3
:10589400B4E03800C0B203281CD15FF0000A28002D
:1058A400C0B200F078F90400002C07D02570DFF8AE
:1058B40030090068A06098F80200E07000200090B1
:1058C400002300223100C9B215F5B07000F0B1F820
:1058D4000120814692E03800C0B2042836D15FF03E
:1058E400000A2800C0B200F056F90400002C09D0C8
:1058F400257098F80200607098F80300A070A078F2
:10590400E07017E0DFF8F81908780E2812DA0A7840
:105914004420424301EB0200001D0400257098F866
:105924000200607098F80300A070A078E070087816
:10593400401C087000200090002300223100C9B2EE
:1059440015F5B07000F075F80120814656E0380076
:10595400C0B2062851D1002000215FF0000A52464F
:10596400D2B2424494781AF1010A5246D2B2424465
:1059740092788DF804201AF1010ADFF888B9220020
:105984009BF81330D2B29A4237D100200090002302
:1059940000223100C9B215F5B07000F04AF80121B7
:1059A4009BF80000082803D09BF80000022824D1AB
:1059B4000800C0B200281DD004208BF800008BF82A
:1059C40014105046C0B2404480788BF815001AF188
:1059D400010A5046C0B2404480788BF816001AF190
:1059E400010A5046C0B2404480788BF817001AF17F
:1059F400010A02E010208BF80000FFE74846C0B21D
:105A0400BDE8FE8FF0B40400002000255E780F008E
:105A1400FFB2012F0AD11500EDB2042D05D13500D6
:105A2400EDB2002D01D102252800FFE7C0B2F0BC81
:105A340070472DE9FC4704000D0016001F000020EC
:105A44000021DFF8C488C8F8084088F804503A00F8
:105A5400D2B2072A1FDA0800C0B240440573491CB9
:105A64000800C0B240440673491C8DF80010B946C2
:105A74005FFA89F90A9801909DF80000404410F1FA
:105A84000C0A4A460199504600F0EEFD9DF80010BC
:105A9400791888F80310BDE8F3872DE9F84187B039
:105AA400082100226C462000FEF740FB002400255C
:105AB4001421002202AE3000FEF738FB6E4632207D
:105AC4002100C9B27054641C00202100C9B2705472
:105AD400641C01F0E3FEFF2190FBF1F201FB1200D4
:105AE4002100C9B27054641C01F0D8FE202190FB3F
:105AF400F1F201FB12002100C9B27054641C01F0E0
:105B0400CDFE302190FBF1F201FB12002100C9B25D
:105B14007054641C01F0C2FE302190FBF1F201FBD1
:105B240012002100C9B27054641C01F0B7FE0421B4
:105B340090FBF1F601FB16063000C0B202280AD031
:105B44003000C0B2032806D040F2FF700490002059
:105B54008DF8090007E03000C0B210F580700490A1
:105B640001208DF809002500EDB26F460DF11408EF
:105B74002A003900404600F077FD8DF80B400023E1
:105B84005FF0FF3202A9DFF8A003006801F06FF8AC
:105B940008B0BDE8F081F0B4040000220023002026
:105BA400DFF85C5729780E2925DA2978002922D0D4
:105BB40000210A0011002E78C9B2B1420FD226008A
:105BC4001700FFB244214F4305EB07010979F6B2F0
:105BD4008E4202D101210B0001E0521CEAE71900B8
:105BE400C9B2002907D01600F6B244214E4305EB92
:105BF4000601091D0800F0BC7047000078890020E8
:105C0400A086010098ED0008A4ED000870B504001A
:105C14000D002000C0B210F58070A8600320E87069
:105C24000120687007202873002068730020A8737F
:105C3400BD4E00235FF0FF322900306801F017F8F1
:105C44000120A87300235FF0FF322900306801F0BF
:105C54000EF80220A87300235FF0FF322900306899
:105C640001F005F80320A87300235FF0FF32290038
:105C7400306800F0FCFF0420A87300235FF0FF32BB
:105C84002900306800F0F3FF0520A87300235FF0BB
:105C9400FF322900306800F0EAFF70BD288C002034
:105CA4002DE9F14F8CB01421002207AC2000FEF73F
:105CB4003DFA1421002202AC2000FEF737FA00243A
:105CC400002001900025002600275FF000084FF413
:105CD4007A7207A9DFF83406006801F091F9012807
:105CE400F5D10DF11C0999F80C00804619F10C004E
:105CF400060099F80300070040F2FF70D9F8081075
:105D040090EA010F0AD0D9F80800000900010190B7
:105D140099F8080010F00F00050002E001900198C6
:105D24000500002202A98048006801F00FFB0198D9
:105D3400B0F5807F0FD0B0F5907F16D0B0F5A07F7E
:105D44001FD0B0F5B07F26D0B0F5E06F2DD040F273
:105D5400FF7188422CD133003A00D2B24146C9B215
:105D64002800FFF773FC040022E002A8009033002F
:105D74003A00D2B24146C9B22800FFF7F3FC04004E
:105D840016E033003A00D2B24146C9B22800FFF708
:105D94006FFD04000CE033003A00D2B24146C9B2B0
:105DA4002800FFF72FFE040002E000200400FFE7B4
:105DB4002000C0B2012814D1DFF84CA5504600F0F1
:105DC40078FB002883D09AF8040002287FF47FAF80
:105DD400142001F046FFDFF83805DFF838150860B5
:105DE40075E72000C0B204287FF471AF9DF8080065
:105DF40001280AD15FF0140ACDF80090DFF818B535
:105E040052460099584600F02FFC0023002200213E
:105E1400DFF80805006800F02AFF58E70050000882
:105E24002DE9F84785B00400142100226D462800AE
:105E3400FEF77CF90025002615275FF06408DFF8DB
:105E4400E8905FF0FF326946D9F8000001F07EFA6D
:105E54000128F4D1EA46504600F02BFB002860D01C
:105E6400002005009AF8010001284ED1380001F005
:105E7400F8FE4146DFF8A404006801F08BF901281C
:105E840017D101200500002006009DF8000001281C
:105E94002BD12648002180F80411002180F8051137
:105EA400002300220021DFF87804006800F0DFFE00
:105EB4001BE0761C3000C0B2072816DB0120050069
:105EC400002006009DF8000001280ED1174801218A
:105ED40080F80411032180F8051100230022002119
:105EE400DFF83C04006800F0C2FE2800C0B20028BD
:105EF400A5D05FF0FF326946D9F8000001F080F8C0
:105F040000289CD10120050099E75FF0FF32694623
:105F1400D9F8000001F074F8002890D100200500A1
:105F24008DE7002005008AE73C8C00208485002052
:105F34007C89002081890020858900208A890020AD
:105F44002DE9F14F86B01421002201AC2000FEF7A8
:105F5400EDF85FF000086846DFF8C8130A680260CD
:105F64000024002542F2107641F28837DFF890933E
:105F740099F80000002842D001A8040000208046BF
:105F8400404699F80010C0B288421FD24146C9B2B7
:105F94004420414309EB0100001D0500A878402876
:105FA40008D18F480068A968711888420BD3FF2074
:105FB400A87008E0A878802805D121002878FFF788
:105FC40025FE4020A87018F10108D9E70020607070
:105FD40040F2FF70A0605FF00309EA4614F10C0B75
:105FE4004A465146584600F03FFB0320E070002328
:105FF4005FF0FF3201A9CC48006800F038FE380099
:1060040001F02FFEB2E700008E8900208F89002066
:1060140010B504004FF4FA6001F023FEFFF73DFDD4
:10602400F8E72DE9F843ADF5087D04004FF48871D5
:10603400002244AD2800FEF779F84FF48571002260
:1060440001AD2800FEF772F864250020ADF80000C9
:106054000126B64F5FF0FF3244A9386801F076F9A3
:106064000128F6D1BDF814010B286CDB6A46BDF893
:1060740014110DF58B7002F0CDFD00285CD03000BA
:10608400C0B2002831D001A944A8BDF800201044B2
:10609400801DFFF7C1F9ADF806009DF80400012842
:1060A40012D19DF81C028DF80D0100235FF0FF3220
:1060B40001A99F48006800F0DAFD5FF0FF3244A9AF
:1060C400386800F09DFFC4E79DF804000028C0D1A3
:1060D4000020060014275FF00008DFF83C924246D7
:1060E40039004846FEF722F8B3E729008C480068D7
:1060F40001F050F80128ACD101200600DFF8348209
:106104009DF81C0288F8090183484246C17889B287
:106114000C30FFF7DCF8A8F802005FF0FF3244A966
:10612400386800F06DFF00235FF0FF32414680487D
:10613400006800F09CFD8CE75FF0FF3244A93868EA
:1061440000F05EFF85E75FF0FF3244A9386800F095
:1061540057FF7EE730B5C3B004004FF485710022C9
:106164006D462800FDF7E2FF5FF0FF326946704894
:10617400006800F045FF0128F6D19DF809010128C7
:1061840010D14FF400506C49086001A86B490860B5
:10619400BDF802006A4908606A48016851F00101CB
:1061A4000160E1E79DF8090105280FD1202062492B
:1061B400086001A864490860BDF8020063490860EA
:1061C4006348016851F001010160CDE79DF80901C0
:1061D4000428C9D1BDF8021001A802F075FEC3E776
:1061E400908C00202DE9F04104004FF4FA75594ECB
:1061F4000721300002F09BFF002825D0002240F246
:106204002551300002F04FFF0721300002F09DFFBE
:106214005FF40030484908604F4801684908490064
:1062240001600A2001F01DFD3D48006801F05CF9A1
:106234003F48006801F058F93C48006801F054F9FF
:106244005FF4E13002F0D2FF0721444803F0B8FACA
:10625400434E0721300002F06AFF002819D00022C3
:1062640040F22551300002F01EFF0721300002F0F9
:106274006CFF4FF40070304908603A4801684908DF
:10628400490001600A2001F0ECFC5FF4E13003F006
:10629400A1FA354E0721300002F049FF00282AD028
:1062A400002240F22551300002F0FDFE07213000AB
:1062B40002F04BFF2D484021017000218180002114
:1062C400C0F808114FF48076002710F106083A0050
:1062D40031004046FDF72AFF0A2001F0C2FC5FF4BA
:1062E400E13003F0A1FA2248006801F08DFD214954
:1062F400214803F075FC280001F0B3FC77E70000A7
:10630400EC780020408B0020748B0020388C002017
:106314000400FA050CED00E0888B0020408C00207E
:10632400688C0020E8EE00083C8C0020608C002083
:10633400648C002084850020040002405000024048
:10634400480002404400024028000240200002406D
:106354001C00024000380140580002400064004024
:1063640000480040300002400044004058820020B1
:10637400708C0020B48900209088002078B589B002
:1063840004000025042100226E463000FDF7CEFEF5
:106394000C21002202AE3000FDF7C8FE0E210022BF
:1063A40005AE3000FDF7C2FE0421002201AE30002C
:1063B400FDF7BCFE48208DF8030003208DF8020091
:1063C40094488188ADF800106946006803F030FFF6
:1063D40018208DF8030003208DF802008E48818870
:1063E400ADF800106946006803F022FF01208DF823
:1063F4000C0001208DF80D0001208DF80B00200009
:10640400C0B2ADF8080000208DF80A0000208DF815
:106414000F0000208DF8100000208DF811000020DE
:106424008DF8120000208DF80E0000208DF8130066
:106434007A4E02A9300002F033FF012833D1002044
:106444008DF81E000020ADF814000020ADF81600F1
:106454000020ADF818000020ADF81A0000208DF8D7
:106464001F0001208DF820000020ADF81C00012041
:106474008DF8210005A802F09CFF012248F20201D8
:10648400300003F005F814208DF8040006208DF880
:10649400050006208DF8060001208DF8070001A8EC
:1064A40003F087FF01E0012005002800C0B20AB014
:1064B40070BD2DE9F84F86B00400002500260027A2
:1064C4005FF00008142100220DF104094846FDF78D
:1064D4002DFEA0680190E0788DF80E009DF80E0066
:1064E400009014F10C0A0DF10F09009A5146484628
:1064F40000F0BAF8DFF824B101A9584602F0D4FF3D
:1065040081464946C9B2584603F06DF8012804D0C3
:10651400B7F5005F01D27F1CF3E741F6FF708742B5
:106524000ED3022001F09DFB200000F010F80500BE
:10653400761C042E06D22800C0B2002802D1F0E74F
:10654400012005002800C0B207B0BDE8F08F2DE996
:10655400F04F85B0040000250026002714210022F6
:10656400E8464046FDF7E2FDA0680090E0788DF82B
:106574000A009DF80A8014F10C090DF10B0A424639
:106584004946504600F070F8DFF890A0694650463E
:1065940002F08AFF83465946C9B2504603F023F8F5
:1065A400012805D041F6FF70864201D2761CF2E73D
:1065B40041F6FF70864201D2012005002800C0B2D6
:1065C40005B0BDE8F08FF8B50024154F0022142162
:1065D4003C2000F0F0FA3860124D002214213C20D7
:1065E40000F0E9FA2860104E03220021012000F097
:1065F400E2FA30603868002807D02868002804D000
:106604003068002801D0012004002000C0B2F2BD8F
:106614000000000010EE000818EE000800640040BE
:10662400388C00203C8C0020408C002030B40025A5
:1066340013E050F8042BD30744BFA9F101039A18BF
:10664400091F042942F8045BFAD213468C0744BF9D
:1066540015809B1CC90748BF1D7050F8041B0029F6
:10666400E7D130BC7047000062B38B0708D0521EDC
:1066740011F8013B00F8013B00F024808B07F6D1B0
:10668400830740F0208000BF103A07D330B4B1E84C
:106694003810103AA0E83810F9D230BC530724BFA0
:1066A400B1E80810A0E8081044BF51F8043B40F8D2
:1066B400043BD20724BF31F8022B20F8022B44BF3D
:1066C4000B7803707047121F17D35B0009D151F880
:1066D400043B20F8023B1B0C121F20F8023BF6D2AD
:1066E4000BE051F8043B00F8013B1B0A20F8023B85
:1066F4001B0C121F00F8013BF3D238BF121D521EAF
:1067040024BF11F8013B00F8013BF8D870472DE98C
:10671400F04104000D0016005FF001080027280076
:1067240080B2002860D003F0B9FE002801D1002017
:1067340080464046C0B2002808D0A02003F043FFA2
:1067440003F020FF002801D1002080464046C0B25B
:10675400002808D0200080B2000AC0B203F033FF42
:1067640003F010FF80464046C0B2002806D0200047
:10677400C0B203F028FF03F005FF80464046C0B2D4
:10678400002805D003F08AFE002801D100208046AD
:106794004046C0B2002808D0A12003F014FF03F043
:1067A400F1FE002801D1002080466D1E4046C0B293
:1067B400002817D0002007003800290080B289B2D1
:1067C400884208D203F024FF390089B2705403F0E0
:1067D400A9FE7F1CF0E703F01BFF390089B2705457
:1067E40003F0B8FE03F086FE4046C0B2BDE8F08177
:1067F4002DE9F04104000D00160000275FF00108A8
:10680400280080B2002842D003F048FE002801D1BD
:10681400002080464046C0B2002808D0A02003F0E3
:10682400D2FE03F0AFFE002801D10020804640468E
:10683400C0B2002808D0200080B2000AC0B203F021
:10684400C2FE03F09FFE80464046C0B2002806D038
:106854002000C0B203F0B7FE03F094FE804600208F
:1068640007003800290080B289B288420DD2404620
:10687400C0B2002807D0380080B2305C03F0A3FE19
:1068840003F080FE80467F1CEBE703F033FE052017
:1068940003F0FBFD4046C0B2BDE8F0812DE9F047AE
:1068A40004000D00160000275FF000085FF0000AE6
:1068B400200010F01F0F1BD014F01F00D0F1200097
:1068C40007002800390080B289B2884200D22F0024
:1068D400404680B206EB0002390089B218EB04008E
:1068E40080B2FFF785FF8146ED1B17EB080801E036
:1068F4005FF001094846C0B200281FD0280080B2CA
:1069040000281BD0202007002800390080B289B25B
:10691400884200D22F00404680B206EB00023900C4
:1069240089B218EB040080B2FFF762FF8146ED1BC9
:1069340017EB08084846C0B20028DFD14846C0B269
:10694400BDE8F08770B403000022002400264FF64F
:10695400FF7000258D4214D25A5D5040002216006B
:10696400082E0CD2C20706D580B2020048F20840B5
:1069740090EA520001E080B24008761CF0E76D1CFA
:10698400E8E780B2C04380B270BC70472DE9F84399
:106994005FF00008002447F6F8754B4E32000821DA
:1069A4002800FFF7B4FE07003800C0B2002810D05A
:1069B4005FF000085FF0000906213000FFF7C2FF16
:1069C400F18802000B0092B29BB29A4201D00022DD
:1069D4001700320008214FF4FC40FFF798FE804670
:1069E4004046C0B200280FD000245FF00009062101
:1069F4003000FFF7A7FFF18802000B0092B29BB2B0
:106A04009A4201D00022904658EA0700C0B20028FA
:106A140011D108240025B1462A0021004846FDF77B
:106A240085FB0120B080022070804AF6AA203080C5
:106A340000F02AF826E03800C0B201280FD1404601
:106A4400C0B200280BD1320008212800FFF75FFEF6
:106A5400320008214FF4FC40FFF720FF12E0380019
:106A6400C0B200280ED14046C0B201280AD132007B
:106A740008214FF4FC40FFF74AFE320008212800A9
:106A8400FFF70CFFBDE8F18338B500240E4D00205C
:106A9400E88006212800FFF755FFE8802A00082136
:106AA40047F6F870FFF7FAFE012809D12A000821F9
:106AB4004FF4FC40FFF7F2FE012801D1012004004D
:106AC4002000C0B232BD0000288C0020F8B50700B9
:106AD4000D0001263C00002C0FD1502080F31188BA
:106AE400BFF34F8FBFF36F8F4FF49772DFF85818CF
:106AF400DFF8E80903F0B8FDFEE7002C45D0E06BB1
:106B0400002842D05FF0FF30E16BB0FBF1F0216C64
:106B140088423AD303F047FE2168E26B206C42437B
:106B240001EB0200A0600020A0632068606021687F
:106B3400E26B521E206C424301EB0200E0605FF006
:106B4400FF3084F8440084F84500002D12D12069F8
:106B5400002817D014F1100001F0ACFC002811D06B
:106B64005FF08050DFF878190860BFF34F8FBFF3F0
:106B74006F8F07E014F1100003F0C4FE14F1240039
:106B840003F0C0FE03F030FE01E000200600002EFA
:106B94000FD1502080F31188BFF34F8FBFF36F8F55
:106BA40040F26312DFF8A017DFF8300903F05CFD50
:106BB400FEE73000F2BD2DE9F84305008846914612
:106BC4000024002D20D05FF0FF30B0FBF5F04045ED
:106BD4001AD308FB05F010F1540F15D208FB05F089
:106BE400060016F1540003F0DBFE0400002C1DD057
:106BF40020005430070000944B46DBB23A00414673
:106C0400280000F016F811E0002C0FD1502080F37A
:106C14001188BFF34F8FBFF36F8F4FF4F272DFF819
:106C24002817DFF8B80803F01FFDFEE72000BDE8D1
:106C3400F2832DE9F04105000C0016001F00DDF879
:106C44001880002C02D1C8F8008001E0C8F8006068
:106C5400C8F83C50C8F8404001214046FFF736FFD1
:106C640088F850700020C8F84800BDE8F0812DE98C
:106C7400F64782B081460D009A4600244E46002E07
:106C84000FD1502080F31188BFF34F8FBFF36F8F64
:106C94004FF45372DFF8B016DFF8400803F0E4FC59
:106CA400FEE7002D02D1306C002801D1012000E064
:106CB4000020C0B200280FD1502080F31188BFF308
:106CC4004F8FBFF36F8F40F24D32DFF87C16DFF841
:106CD4000C0803F0C9FCFEE7BAF1020F02D1F06B15
:106CE400012801D1012000E00020C0B200280FD10A
:106CF400502080F31188BFF34F8FBFF36F8F40F2A2
:106D04004E32DFF84416DFF8D40703F0ADFCFEE79B
:106D140001F04FFD002802D10398002801D1012081
:106D240000E00020C0B200280FD1502080F3118869
:106D3400BFF34F8FBFF36F8F40F25132DFF8081665
:106D4400DFF8980703F090FCFEE703F02CFDB06B2E
:106D5400F16B884202D3BAF1020F40D1B76B5246AD
:106D64002900300000F0E7FB8046B06C002813D007
:106D7400BAF1020F01D1002F2DD1300000F025FD12
:106D8400002828D05FF08050DFF854170860BFF364
:106D94004F8FBFF36F8F1EE0706A00280FD016F17B
:106DA400240001F087FB002815D05FF08050DFF845
:106DB40030170860BFF34F8FBFF36F8F0BE0B8F14C
:106DC400000F08D05FF08050DFF814170860BFF39D
:106DD4004F8FBFF36F8F03F007FD012053E003983B
:106DE400002803D103F000FD00204CE0002C04D166
:106DF400684601F0EBFB0120040003F0F5FC01F010
:106E040009F903F0D0FC96F9440010F1010F02D106
:106E1400002086F8440096F9450010F1010F02D1D4
:106E2400002086F8450003F0DFFC03A9684601F062
:106E3400D9FB002821D1300000F038FC002816D0FE
:106E4400039916F1100001F0DDFA300000F0DCFBCC
:106E540001F0E6F800287FF478AF5FF08050DFF8A7
:106E640080160860BFF34F8FBFF36F8F6DE730005C
:106E740000F0CAFB01F0D4F867E7300000F0C4FB6F
:106E840001F0CEF8002004B0BDE8F0872DE9FE4FF4
:106E940007000D00140098463E00002E0FD150202C
:106EA40080F31188BFF34F8FBFF36F8F4FF4846269
:106EB400DFF89414DFF82C0603F0D6FBFEE7002D70
:106EC40002D1306C002801D1012000E00020C0B2C2
:106ED40000280FD1502080F31188BFF34F8FBFF3E8
:106EE4006F8F40F22142DFF86014DFF8F80503F0F9
:106EF400BBFBFEE7B8F1020F02D1F06B012801D110
:106F0400012000E00020C0B200280FD1502080F3FF
:106F14001188BFF34F8FBFF36F8F40F22242DFF827
:106F24002814DFF8C00503F09FFBFEE703F08EFC96
:106F3400EFF311895FF0500A8AF31188BFF34F8F82
:106F4400BFF36F8FB06BF16B884202D3B8F1020FBD
:106F540051D196F945008DF80000B06B019042467E
:106F64002900300000F0E7FA9DF9000010F1010F4C
:106F740020D1B06C00280FD0B8F1020F02D10198D3
:106F8400002836D1300000F020FC002831D0002C3D
:106F94002FD0012020602CE0706A002829D016F13F
:106FA400240001F087FA002823D0002C21D00120EE
:106FB40020601EE001F0DDF883469DF9000058458D
:106FC40017D29DF900007F280ED18AF31188BFF3F0
:106FD4004F8FBFF36F8F40F2AB42DFF86C13DFF8D3
:106FE400040503F041FBFEE79DF80000401C86F811
:106FF4004500012000E0002089F31188BDE8FE8FE0
:107004002DE9F64182B080460E0000244746002F49
:107014000ED1502080F31188BFF34F8FBFF36F8FD1
:1070240040F26B52C849DFF8B40403F01DFBFEE7DD
:10703400002E02D1386C002801D1012000E000208C
:10704400C0B200280ED1502080F31188BFF34F8FB7
:10705400BFF36F8F40F26F52BB49DFF8800403F037
:1070640003FBFEE701F0A5FB002802D103980028EA
:1070740001D1012000E00020C0B200280ED1502030
:1070840080F31188BFF34F8FBFF36F8F40F27452B8
:10709400AD49DFF8480403F0E7FAFEE703F083FBA9
:1070A400BD6B002D1BD03100380000F092FA681E31
:1070B400B863386900280ED017F1100001F0FAF90E
:1070C400002808D05FF08050DFF814140860BFF384
:1070D4004F8FBFF36F8F03F087FB012057E00398B6
:1070E400002803D103F080FB002050E0002C04D1E1
:1070F400684601F06BFA0120040003F075FB00F010
:1071040089FF03F050FB97F9440010F1010F02D1FD
:10711400002087F8440097F9450010F1010F02D1CF
:10712400002087F8450003F05FFB03A9684601F0DF
:1071340059FA002820D1380000F0AAFA002815D006
:10714400039917F1240001F05DF9380000F05CFAAE
:1071540000F066FF0028A1D15FF08050DFF88013B3
:107164000860BFF34F8FBFF36F8F97E7380000F0CD
:107174004BFA00F055FF91E7380000F045FA00F0B3
:107184004FFF380000F084FA002887D0002004B0B4
:10719400BDE8F0812DE9F34182B0804600244646E3
:1071A4000027002E0DD1502080F31188BFF34F8F9C
:1071B400BFF36F8F40F2FD526349C84803F054FA9D
:1071C400FEE7306C00280DD0502080F31188BFF307
:1071D4004F8FBFF36F8F40F201625B49BF4803F0EA
:1071E40043FAFEE701F0E5FA002802D103980028EB
:1071F40001D1012000E00020C0B200280DD15020B0
:1072040080F31188BFF34F8FBFF36F8F40F2066294
:107214004D49B24803F028FAFEE703F0C4FAB56B0F
:10722400002D1CD0681EB0633068002802D101F024
:1072340063FCB060306900280DD016F1100001F035
:1072440039F9002807D05FF08050A5490860BFF3E2
:107254004F8FBFF36F8F03F0C7FA012070E00398DC
:10726400002803D103F0C0FA002069E0002C04D107
:10727400684601F0ABF90120040003F0B5FA00F010
:10728400C9FE03F090FA96F9440010F1010F02D1FF
:10729400002086F8440096F9450010F1010F02D150
:1072A400002086F8450003F09FFA03A9684601F020
:1072B40099F900282AD1300000F0EAF900281FD0FB
:1072C4003068002807D103F06EFAB06801F088FA3C
:1072D400070003F089FA039916F1240001F092F8EB
:1072E400300000F091F900F09BFE002895D15FF08A
:1072F40080507B490860BFF34F8FBFF36F8F8CE7DB
:10730400300000F081F900F08BFE86E7300000F0D9
:107314007BF900F085FE300000F0BAF900283FF454
:107324007CAF002F0BD003F03EFA300000F0F8F8E9
:1073340005002900B06801F043FB03F055FA002072
:1073440004B0BDE8F081000004EA00082DE9F74329
:1073540080460E0000244746002F0ED1502080F3B3
:107364001188BFF34F8FBFF36F8F40F2CD62DFF808
:1073740020155A4803F078F9FEE7002E02D1386C44
:10738400002801D1012000E00020C0B200280ED165
:10739400502080F31188BFF34F8FBFF36F8F40F2FB
:1073A400D162DFF8EC144D4803F05EF9FEE701F01A
:1073B40000FA002802D10298002801D1012000E03F
:1073C4000020C0B200280ED1502080F31188BFF3F2
:1073D4004F8FBFF36F8F40F2D662DFF8B4143F488B
:1073E40003F042F9FEE703F0DEF9BD6B002D1CD07B
:1073F400D7F80C903100380000F0EBF8C7F80C9087
:10740400786A00280DD017F1240001F053F8002801
:1074140007D05FF0805032490860BFF34F8FBFF34D
:107424006F8F03F0E1F9012056E00298002803D1A0
:1074340003F0DAF900204FE0002C04D1684601F093
:10744400C5F80120040003F0CFF900F0E3FD03F0D8
:10745400AAF997F9440010F1010F02D1002087F82E
:10746400440097F9450010F1010F02D1002087F87C
:10747400450003F0B9F902A9684601F0B3F8002801
:107484001FD1380000F004F9002814D0029917F134
:10749400240000F0B7FF380000F0B6F800F0C0FD9B
:1074A4000028A0D15FF080500D490860BFF34F8FD2
:1074B400BFF36F8F97E7380000F0A6F800F0B0FD37
:1074C40091E7380000F0A0F800F0AAFD380000F0C1
:1074D400DFF8002887D00020BDE8FE836CEB0008AD
:1074E40004ED00E06CEB000838B505002C00002C1E
:1074F4000FD1502080F31188BFF34F8FBFF36F8FEC
:1075040040F61F02DFF88813DFF8880303F0ACF8B5
:10751400FEE7200000F00DF9200003F0D7FA31BD9A
:107524000100486A002804D0086B0068D0F11F00ED
:1075340000E0002070472DE9F84F06000F0014000A
:107544005FF00008B56B306C002809D13068002862
:107554003AD1B06801F0B6F980460020B06033E05B
:10756400002C14D1D6F84090BA46D6F804B04A4656
:1075740051465846FFF778F87068316C08447060DB
:107584007068B16888421FD3306870601CE0D6F818
:107594004090BA46D6F80CB04A4651465846FFF7D2
:1075A40063F8F068316C49420844F060F06831686F
:1075B400884204D2B068316C49420844F060022C1D
:1075C40002D1002D00D06D1E681CB0634046BDE89A
:1075D400F28F2DE9F04104000D00206C002811D039
:1075E400E068216C0844E060E068A168884201D347
:1075F4002068E060266CE768A846320039004046FF
:10760400FFF732F8BDE8F081F8B5040003F0CBF8D9
:1076140094F94550280040B2012819DBA06C0028D9
:1076240007D0200000F0D1F800280FD001F03FF877
:107634000CE0606A002808D014F1240000F03AFF3E
:10764400002803D001F033F800E001E06D1EE1E70B
:107654005FF0FF3684F8456003F0C6F803F0A3F842
:1076640094F94470380040B201280CDB20690028EA
:1076740009D014F1100000F01DFF002801D001F022
:1076840016F87F1EEEE784F8446003F0ADF8F1BD10
:1076940038B5040003F087F8A06B002801D1012558
:1076A40000E0002503F0A0F8280032BD38B504003E
:1076B40003F079F8A06BE16B884201D1012500E069
:1076C400002503F091F8280032BDF8B505000E003E
:1076D4000024002D0DD1502080F31188BFF34F8F6B
:1076E400BFF36F8F40F6D82269496A4802F0BCFFA5
:1076F400FEE7002E18D000200700082F14D2664998
:1077040001EBC7004068854203D101EBC7000400C8
:107714000AE0002C06D151F83700002802D101EB11
:10772400C70004007F1CE8E7002C01D026606560D8
:10773400F1BD10B50400002C0DD1502080F3118848
:10774400BFF34F8FBFF36F8F40F624325049514837
:1077540002F08AFFFEE7002008280FD24E4901EB11
:10776400C0025268A24207D1002241F83020002210
:1077740001EBC0014A6001E0401CEDE710BDF8B523
:1077840004000D001600270003F00DF897F94400DB
:1077940010F1010F02D1002087F8440097F9450049
:1077A40010F1010F02D1002087F8450003F01CF806
:1077B400B86B002805D13200290017F1240000F02D
:1077C40043FE3800FFF720FFF1BDF1B50098846C4B
:1077D4000025002C0DD1502080F31188BFF34F8F6A
:1077E400BFF36F8F40F6E33229492A4802F03CFF89
:1077F400FEE7A06BE16B88420DD3502080F3118823
:10780400BFF34F8FBFF36F8F40F6E4322049214816
:1078140002F02AFFFEE7A06BE16B884235D294F9AF
:107824004560002269462000FFF785FE0500300010
:107834005FF0FF3140B288420BD1606A002824D047
:1078440014F1240000F036FE00281ED001200500AB
:107854001BE000F08EFC0700300040B2B84214D2A6
:10786400300040B27F280DD1502080F31188BFF33F
:107874004F8FBFF36F8F40F604420549054802F06D
:10788400F3FEFEE7761C84F845602800F2BD000094
:1078940004EA00086CEB0008008B0020F0B5244CCF
:1078A400244A2078244B6FF0004150BB08206568BF
:1078B40003FB05250E46B5FBF6F601FB1655401EE7
:1078C4006560F4D11D4D2E461020676803FB072721
:1078D4008C46B7FBFCFC01FB1C77676046F8047B15
:1078E4008E4603FB0727B7FBFEFE01FB1E7767608E
:1078F400401E46F8047BE8D1E86FC5F880000125F6
:107904002570606803FB00220B46B2FBF3F301FB16
:1079140013210A4A616092F8803003F01F0352F881
:107924002300C2F8800042F8231020F04040F0BD4C
:107934001C0000205FF36E3C0D6619002C8A0020A9
:107944002DE9F14F84B00E0017009846380080B23C
:10795400800003F025F80500002D15D0642003F005
:107964001FF80400002C0BD05FF064095FF0000ADC
:10797400A346524649465846FCF7D8FB256304E023
:10798400280003F0A3F800E00024002C12D000200B
:10799400039002940F9801900E98009043463A0089
:1079A40092B23100049800F00AF8200000F087F841
:1079B400012001E05FF0FF3005B0BDE8F08F2DE954
:1079C400F94F81B00C0016000C9F0D9DDDF8388036
:1079D400B00000905FF0A50BD8F830A05A4600998B
:1079E4005046FCF7A3FBD8F8300000EB8600B0F15A
:1079F400040A5FEADA0A5FEACA0A1AF007000028F2
:107A04000FD0502080F31188BFF34F8FBFF36F8FD7
:107A140040F25D32DFF86417DFF87C0702F024FEE1
:107A2400FEE7002C14D000208146B9F1140F0CD2CB
:107A340014F8090008EB090181F8340014F809006E
:107A4400002802D019F10109EFE7002088F8470067
:107A54001F2F0FD3502080F31188BFF34F8FBFF334
:107A64006F8F40F29232DFF81417DFF82C0702F020
:107A7400FBFDFEE71F2F01D31E200700C8F82C7062
:107A8400C8F8507018F1040002F04BFF18F1180008
:107A940002F047FFC8F81080D7F11F00C8F818009B
:107AA400C8F82480029A0199504602F0F1FDC8F802
:107AB4000000002D01D0C5F80080BDE8F78F70B537
:107AC400040002F070FEDFF8B8160868401C086075
:107AD400DFF8B0562868002806D12C600868012811
:107AE4000DD100F0FDFD0AE0DFF89C0600680028D7
:107AF40005D1E06A2968C96A884200D32C60DFF89E
:107B04008C060168491C01600068A064DFF88016D7
:107B14000A680123E06A83401A430A601420DFF8EC
:107B24007416E26A42430A445668A660B268E26088
:107B3400221DB3685A60221DB260E26A42430A44BD
:107B44006261E26A4243E36A00FB03F00858401CA6
:107B5400885002F049FEDFF83006006800280DD096
:107B64002868C06AE16A884208D25FF08050DFF872
:107B740038160860BFF34F8FBFF36F8F70BD70B5B9
:107B8400040002F010FE002C03D1DFF8F8050568AC
:107B940000E02500281D02F0EEFE00280FD1DFF8DA
:107BA400F415EA6A142042438858002807D1DFF804
:107BB400E0150A680123E86A83409A430A60A86AC8
:107BC400002803D015F1180002F0D5FEDFF8BC053B
:107BD4000168491C0160DFF8AC65306885420AD150
:107BE400291DDFF8B80502F09FFEDFF8B40501682F
:107BF400491C016006E0DFF888050168491E016040
:107C040000F0C5FD02F0F0FD3068854202D0280086
:107C140000F0B4FDDFF870050068002820D030685B
:107C240085421DD1DFF87C05006800280FD0502064
:107C340080F31188BFF34F8FBFF36F8F40F2AF42D1
:107C4400DFF83815DFF8500502F00EFDFEE75FF0AF
:107C54008050DFF854150860BFF34F8FBFF36F8F68
:107C640070BD38B505000024002D1DD0DFF83405A3
:107C7400006800280FD0502080F31188BFF34F8F85
:107C8400BFF36F8F40F21C52DFF8F014DFF80805E1
:107C940002F0EAFCFEE700F0BDF90021280000F044
:107CA40049FF00F0BDF90400002C08D15FF08050BA
:107CB400DFF8F4140860BFF34F8FBFF36F8F31BD4B
:107CC400F8B5040002F06FFD002C03D1DFF8B40412
:107CD400056800E02500281D02F04DFE00280FD1A4
:107CE400DFF8B014EA6A142042438858002807D108
:107CF400DFF89C140A680123E86A83409A430A6007
:107D0400A86A002803D015F1180002F034FEDFF849
:107D1400A064291D300002F007FE002001280CDABF
:107D240005EB000191F86010012904D1002105EB55
:107D3400000282F86010401CF0E702F055FDDFF805
:107D440048743868002805D002F02DFD00F01FFDAE
:107D540002F04AFDDFF82C14086885422CD13868FB
:107D640000281ED0DFF83C04006800280FD0502003
:107D740080F31188BFF34F8FBFF36F8F40F2D2624D
:107D8400DFF8F813DFF8100402F06EFCFEE75FF092
:107D94008050DFF814140860BFF34F8FBFF36F8F68
:107DA4000AE03068DFF8D8231268904202D100203C
:107DB400086001E000F0CEFAF1BD70B504000025C2
:107DC4002600002C0FD1502080F31188BFF34F8F71
:107DD400BFF36F8F40F2FC62DFF8A013DFF8B80343
:107DE40002F042FCFEE77069DFF8C413884209D14F
:107DF400B06ADFF8C817884204D0B06A002801D1FD
:107E040001200500280070BDF8B504002500002CF1
:107E14000FD1502080F31188BFF34F8FBFF36F8FC2
:107E240040F22672DFF85413DFF86C0302F01CFCF6
:107E3400FEE7DFF85063306885423ED0002D3CD029
:107E440002F0B1FC2800FFF7B8FF002833D0281D4A
:107E540002F091FDDFF838130A680123E86A8340D1
:107E64001A430A601420DFF82C13EA6A42430A44D6
:107E74005268AA609368EB602B1D97687B602B1D8A
:107E84009360EB6A43430B446B61EB6A4343EF6AD1
:107E940000FB07F00858401CC850E86A3168C96AFA
:107EA400884208D35FF08050DFF804160860BFF3FF
:107EB4004F8FBFF36F8F02F097FCF1BDF8B504004C
:107EC40000252600002C0ED1502080F31188BFF32A
:107ED4004F8FBFF36F8F40F25D72A849DFF8B8028D
:107EE40002F0C2FBFEE702F0B1FCEFF31187502071
:107EF40080F31188BFF34F8FBFF36F8F3000FFF70C
:107F04005CFF00283ED0DFF89C020068002833D1D3
:107F1400F06A9C490968C96A884205D301200500B2
:107F24000120DFF894160860301D02F024FD984902
:107F34000A680123F06A83401A430A6014209549B1
:107F4400F26A42430A445268B2609368F360331D94
:107F5400D2F808C0CCF80430331D9360F36A43436D
:107F64000B447361F36A4343D6F82CC000FB0CF056
:107F74000858401CC85005E016F11801DFF838070E
:107F840002F0D2FC87F311882800F2BD1CB5DFF89B
:107F9400300601900020009000234FF49672DFF821
:107FA4002416DFF82406FFF7CBFC0400012C02D1D1
:107FB40002F044FE0400012C17D1502080F31188F4
:107FC400BFF34F8FBFF36F8F5FF0FF30DFF81016F2
:107FD400086001206C4908600020DFF8D0110860B7
:107FE40003F044F902F07FFB10E014F1010F0DD10E
:107FF400502080F31188BFF34F8FBFF36F8F40F68B
:1080040012025E49644802F02FFBFEE7DFF86007C6
:10801400006813BDDFF88C010168491C01607047DA
:10802400F8B500250026DFF87C41206800280DD132
:10803400502080F31188BFF34F8FBFF36F8F40F64A
:1080440085024E49544802F00FFBFEE702F0ABFBF9
:108054002068401E20602068002840F08280484844
:10806400006800287DD0DFF854150868002853D034
:10807400C868C0680500A86A296AEA699160E96964
:108084002A6A5160416815F11802914201D1296AA6
:1080940041600021A9620168491E01606869E968BC
:1080A400AA689160A968EA68516041682A1D9142F2
:1080B40001D1E9684160002169610168491E0160DC
:1080C40033490A680123E86A83401A430A60314845
:1080D4001421EA6A4A4302445268AA609368EB6036
:1080E4002B1D946863602B1D9360EB6A4B43034420
:1080F4006B61EB6A4B43EC6A01FB04F14158491C88
:10810400C150E86A1F490968C96A8842ABD3012093
:10811400DFF8A4140860A6E7002D01D000F037FBB7
:10812400DFF854763C68002C0CD000F043F80028AB
:1081340003D00120DFF880140860641E002CF4D101
:1081440000203860DFF870040068002809D001209E
:1081540006005FF0805014490860BFF34F8FBFF3EF
:108164006F8F02F041FB3000F2BDDFF84000006881
:108174007047DFF8600600687047000038EA0008BE
:10818400A48C0020948C0020B08C0020C08C002093
:10819400AC8C0020AC7C002090EB0008D88B002035
:1081A400A08C0020CC8C002004ED00E0A88C0020E2
:1081B400EC8B00202DE9F0410027DFF8FC06006875
:1081C400002840F0BF80DFF8E8070468641C0460FE
:1081D400002C24D1DFF8DC170868006800280FD0D1
:1081E400502080F31188BFF34F8FBFF36F8F40F699
:1081F400B722DFF88015DFF8C40602F035FAFEE78F
:10820400D1F80080DFF8B00702680A60C0F8008087
:10821400DFF8A8070168491C016000F0B8FADFF82C
:10822400C0130868844279D3DFF88827106800688F
:10823400002803D15FF0FF3008606FE01068C06869
:10824400C068050068680600B44201D20E6065E0AB
:108254006869EA68AB689A60AA68EB685A60426821
:108264002B1D9A4201D1EA68426000226A610268C9
:10827400521E0260A86A002812D0A86A2A6AEB6912
:108284009A60EA692B6A5A60426815F118039A42A7
:1082940001D12A6A42600022AA620268521E026068
:1082A400DFF81C2613685FF0010CE86A1CFA00FC76
:1082B4005CEA03031360DFF820051422EB6A5343DE
:1082C40003445B68AB60D3F808C0C5F80CC015F173
:1082D400040CD3F808E0CEF804C015F1040CC3F87C
:1082E40008C0D5F82CC002FB0CFC8444C5F814C0AB
:1082F400D5F82CC002FB0CFCD5F82CE002FB0EF2E6
:108304008258521C40F80C20DFF8A0060068C06AAE
:10831400EA6A904288D20120070085E7DFF88C06DC
:108324000068DFF8B414C26A142042438858022853
:1083340001D301200700A0480068002807D00120CD
:10834400070004E0DFF830040168491C01603800CC
:10835400BDE8F08110B5DFF860050068002803D09F
:108364000120954908604CE0002093490860DFF83B
:10837400A017DFF8340600680860DFF89827106853
:108384000B68984208D2DFF8240603689C6D0868DD
:1083940004191068241A9C6508681060DFF8200529
:1083A4000068B0FA80F4D4F11F041421DFF8282403
:1083B40001FB04F0105800280FD1502080F31188DD
:1083C400BFF34F8FBFF36F8F40F6F632DFF8A4137D
:1083D400DFF8E80402F048F9FEE701FB04F102EBE0
:1083E4000100416849684160416810F10802914206
:1083F40002D14168496841604068C068DFF8AC1543
:10840400086010BD38B504000D00002C0FD15020B9
:1084140080F31188BFF34F8FBFF36F8F40F60E4286
:10842400DFF85013DFF8940402F01EF9FEE7DFF8DA
:108434007C05006810F11801200002F081FA012186
:10844400280000F077FB31BD70B504000E00150064
:10845400002C0FD1502080F31188BFF34F8FBFF34E
:108464006F8F40F64442DFF80C13DFF8500402F03B
:10847400FBF8FEE76068DFF834150A68D0618268AB
:108484000B681A620A68183283685A600A681832DC
:10849400826009688C622168491C2160002D02D029
:1084A4005FF0FF3006002900300000F043FB70BD90
:1084B40004ED00E070B50500E868C468002C0FD135
:1084C400502080F31188BFF34F8FBFF36F8F40F6B6
:1084D4007442DFF8A012DFF8E40302F0C5F8FEE707
:1084E400A06A216AE2699160E169226A5160416887
:1084F40014F11802914201D1216A41600021A16264
:108504000168491E0160DFF8B0030068002835D116
:108514006069E168A2689160A168E268516041689D
:10852400221D914201D1E16841600021616101682D
:10853400491E0160DFF888130A680123E06A83405A
:108544001A430A60DFF890021421E26A4A430244A3
:108554005268A2609368E360231D96687360231DCC
:108564009360E36A4B4303446361E36A4B43E66A03
:1085740001FB06F14158491CC1500FE00F494868FE
:10858400E0618268226214F1180283685A6014F16F
:1085940018028260A1620A68521C0A60DFF80C04A7
:1085A4000068C06AE16A884204D201200121024ABB
:1085B400116000E0002070BDB88C0020C48B002046
:1085C400C88C0020D0EE0008C1860008DFF8EC1348
:1085D40009680160DFF8D81309684160704700003A
:1085E400C48C00202DE9F04104000D00002C0ED1B4
:1085F400502080F31188BFF34F8FBFF36F8F40F685
:10860400EF425C49DFF8B40202F02EF8FEE7002DD9
:108614000ED1502080F31188BFF34F8FBFF36F8FBB
:108624004FF44F625349DFF8940202F01DF8FEE75D
:1086340002F0B9F8DFF8780306686768F71BDFF81B
:108644006C13086890F86100002806D000200968BF
:1086540081F861005FF0010824E0286810F1010F3F
:1086640002D15FF000081DE0DFF8500300682168C4
:10867400884207D06068864204D35FF00108002076
:1086840028600FE02868874208D22868C01B286049
:108694002000FFF79BFF5FF0000803E00020286044
:1086A4005FF0010802F0A0F84046BDE8F081012027
:1086B400DFF8641408607047C48B002010B5040010
:1086C40000F037F8444800680228F9D35FF080507E
:1086D400DFF85C140860BFF34F8FBFF36F8FEFE7D1
:1086E40070B500241F2C08D23B48142101FB04F16F
:1086F400084402F007F9641CF4E7DFF8205428006A
:1087040002F000F9DFF81864300002F0FBF8DFF83B
:10871400140402F0F7F8314802F0F4F8DFF8080422
:1087240002F0F0F8DFF88C020560DFF88C020660D6
:1087340070BD38B5DFF8F4532868002815D002F06E
:1087440032F82648C068C0680400201D02F013F9FE
:1087540020480168491E01602868401E286002F014
:1087640043F8200000F00AF8E4E731BD00000000FF
:108774001800002038EA0008B48C002010B504006A
:10878400206B02F0A3F9200002F0A0F910BD894982
:1087940008680068002805D15FF0FF30DFF848144E
:1087A400086005E00868C0680068DFF83C140860E9
:1087B4007047DFF838040068002801D1012007E081
:1087C400DFF82C040068002801D1022000E000201A
:1087D40070470000A48C0020AC7C0020D88B0020C3
:1087E4002DE9F843040025000026002C60D0DFF8B2
:1087F400BC91E86AD9F80010C96A884250D2A869C5
:10880400002805D4D9F80000C06AD0F11F00A8617F
:10881400DFF8E0735FF014086869E96A08FB01F1A6
:108824003944884235D1281D02F0A5F8002807D123
:10883400DFF8C4130A680123E86A83409A430A6094
:10884400D9F80000C06AE862DFF8AC130A680123B3
:10885400E86A83401A430A60E86A08FB00F0384477
:108864004068A8608168E960291D82685160291DFB
:108874008160E96A08FB01F139446961E96A08FB2E
:1088840001F1EA6A08FB02F857F80820521C7A50F2
:1088940003E0D9F80000C06AE8620120060007E09E
:1088A400286DD9F80010C96A884201D20120060057
:1088B4003000BDE8F2830000CC8C002090EB00086F
:1088C400AC8C0020F8B5040025000026002C68D0EC
:1088D4003648006885420FD0502080F31188BFF3DA
:1088E4004F8FBFF36F8F41F24802DFF81013DFF8A8
:1088F400100301F0B9FEFEE7686D00280FD1502087
:1089040080F31188BFF34F8FBFF36F8F41F2490299
:10891400DFF8E812DFF8E80201F0A6FEFEE7686D72
:10892400401E6865E86A296D88423AD0686D00285F
:1089340037D1281D02F01FF8002807D1DFF8B8123C
:108944000A680123E86A83409A430A60286DE86252
:10895400E86AD0F11F00A861DFF89C120A680123BD
:10896400E86A83401A430A601420DFF88812EA6A2E
:1089740042430A445268AA609368EB602B1D9768CF
:108984007B602B1D9360EB6A43430B446B61EB6A82
:108994004343EF6A00FB07F00858401CC85001200D
:1089A40006003000F2BD00008C8C0020948C002066
:1089B400A88C0020988C00209C8C0020BC8C00206B
:1089C4002DE9F84F04000F00A0465FF00109002CC8
:1089D40000F09080D8F8540000280FD1502080F384
:1089E4001188BFF34F8FBFF36F8F41F29802DFF806
:1089F4000C12DFF80C0201F037FEFEE7D8F8500045
:108A0400B84201D23E0002E0D8F850000600D8F87F
:108A14002C00B0426ED0D8F8540048456AD1DFF833
:108A2400C401006880450FD1502080F31188BFF342
:108A34004F8FBFF36F8F41F2B302DFF8C011DFF83D
:108A4400C00101F011FEFEE7D8F82C000500C8F8BB
:108A54002C60D8F81800002803D4D6F11F00C8F8F9
:108A64001800DFF890A15FF0140BD8F814000BFB8A
:108A740005F1514488423DD118F1040001F07BFF17
:108A8400002808D1DFF870110A680123D8F82C00F7
:108A940083409A430A60DFF860110A680123D8F81A
:108AA4002C0083401A430A60D8F82C000BFB00F01A
:108AB40050444068C8F808008168C8F80C1018F1E0
:108AC40004018268516018F104018160D8F82C1007
:108AD4000BFB01F15144C8F81410D8F82C100BFB0F
:108AE40001F1D8F82C200BFB02FB5AF80B20521C86
:108AF4004AF80120BDE8F18FDFF8E8100868002883
:108B040003D00868426D521C426508687047000033
:108B1400D48C0020D08C0020B88C00209C8B0020AA
:108B2400B08B0020C48B0020EC8B0020A08C002094
:108B340004ED00E02DE9F04105000C003148076820
:108B4400DFF8A0800020D8F8001081F86100D8F880
:108B54000000001D01F00FFF002808D1D8F8000024
:108B640025490A680123C06A83409A430A6015F1C3
:108B7400010F1AD1002C18D023484168D8F80020DE
:108B840091608A68D8F80030DA60D8F80020121DA5
:108B94008B685A60D8F80020121D8A60D8F800202B
:108BA40050610268521C02601AE0E8190600D8F805
:108BB40000004660BE4207D2D8F80000011D1348E9
:108BC400006801F0BDFE0BE0D8F80000011D10485C
:108BD400006801F0B5FE044801688E4200D20660C8
:108BE400BDE8F081948C0020C48C0020B08C00205F
:108BF400CC8C0020AC7C0020AC8C002038EA00082F
:108C040090EB0008A88C0020EC8B00209C8C0020AA
:108C1400988C00202DE9F04704000D001600002771
:108C24005FF0000A280080B20B2856DB280080B2CF
:108C3400390089B20B3188424FDB380080B2205CA6
:108C44007E2848D1380080B220444078552842D14B
:108C54005FF000085FF000090021380080B2204472
:108C64008078002807D0380080B2204490F802A011
:108C74001AF1030A0EE0380080B2204490F80AA0EA
:108C84005FEA0A2A380080B22044407A50EA0A0A8D
:108C94001AF10D0A514689B2091F380080B22044E6
:108CA400801CFDF74FFE514689B211FA87F1214429
:108CB40011F8012C1202514689B211FA87F12144AC
:108CC40011F8021C0A430100130089B29BB29942B5
:108CD40003D000218A467F1CA8E7504680B2BDE835
:108CE400F087B1F5807F02D34FF0FF3070470170F9
:108CF400012070470078401E8041C043C00F704778
:108D040030B585B00400042100226D462800FBF72D
:108D14000DFA1021002201AD2800FBF707FA1020FC
:108D24008DF8030003208DF80200614DA888ADF88A
:108D340000006946286801F07BFAA8882968486120
:108D44005C4D280000F0E2F85B488188ADF8001023
:108D540018218DF803106946006801F069FA574834
:108D64008188ADF8001004218DF80310694600686D
:108D740001F05EFA01940020ADF808000020ADF87F
:108D84000A000020ADF80C000020ADF810000C2003
:108D9400ADF80E0001A9280000F000F90121280017
:108DA40000F072F905B030BD4FF4C0414843401C97
:108DB4000100481E0029FBD1704738B584B0040077
:108DC4000A21002201AD2800FBF7B0F9042100229A
:108DD4006D462800FBF7AAF9B4F5165F04D140F6F6
:108DE400AA70ADF8080003E040F2D660ADF80800C0
:108DF4007720ADF804000020ADF80A000020ADF89B
:108E040006002F4D01A9280002F036FA01220121A3
:108E1400280002F092FA0021280002F07FFA1E20B6
:108E24008DF8000007208DF8010007208DF802005E
:108E340001208DF80300684601F0BBFA05B030BD8F
:108E44001CB5042100226C462000FBF76FF9262094
:108E54008DF8000007208DF8010007208DF802002E
:108E640001208DF80300684601F0A3FA13BD70B524
:108E740004000D000F4E40F22771300000F0A2F9FB
:108E84002200D2B240F22551300000F00CF92A0041
:108E9400D2B240F22661300000F005F970BD0549F8
:108EA40009880906FBD50100C9B2064A118070473A
:108EB400B0EE000800440040A0EE0008A8EE000850
:108EC400000800400444004070B504000D00002078
:108ED4000026AE4204D2A05DFFF7E1FF761CF8E75E
:108EE40070BD10B50400200002F050FA010020000B
:108EF400FFF7EAFF0D20FFF7D2FF0A20FFF7CFFFAD
:108F040010BD0268531C03601170704710B5040053
:108F1400584884420AD101214FF4804002F086FB74
:108F240000214FF4804002F081FB36E05248844235
:108F34000AD101215FF4003002F086FB00215FF4C6
:108F4400003002F081FB28E04C4884420AD1012120
:108F54005FF4802002F078FB00215FF4802002F0AF
:108F640073FB1AE0464884420AD101215FF40020D1
:108F740002F06AFB00215FF4002002F065FB0CE0C4
:108F84004048844209D101215FF4801002F05CFB67
:108F940000215FF4801002F057FB10BD2DE9F84F5B
:108FA40086B004000D00002600275FF000085FF083
:108FB40000095FF0000AA8890028A346218A4CF61C
:108FC400FF700140E8880143009100982082A18944
:108FD4004EF6F3100140AA882889024368890243A7
:108FE400114300910098A081A18A4FF6FF400140EF
:108FF400A889014300910098A08201A802F080FA98
:109004001C48834501D1049900E00399A089000418
:1090140007D5192000FB01F02A685200B0FBF2F2D8
:1090240006E0192000FB01F02A689200B0FBF2F27E
:109034006420B2FBF0F6360133001B09642000FB08
:109044001323A089000408D5D80032306427B0FB6C
:10905400F7F010F00700064307E0180132306427E8
:10906400B0FBF7F010F00F000643268107B0BDE80F
:10907400F08F0000003801400044004000480040E8
:10908400004C0040005000400A00D2B2002A04D034
:10909400828952F40052828104E083894DF6FF7282
:1090A4001340838170472DE9F041002300250027F8
:1090B4005FF0000E0C0040F66A16A4B2B44280467B
:1090C4000C00E4B26409E4B20E00B6B216F01F0656
:1090D4005FF0010C1CFA06FC012C02D118F10C08FB
:1090E40006E0022C02D118F1100801E018F114086E
:1090F4001300DBB2002B06D0D8F800305CEA03037F
:10910400C8F8003005E0D8F8003033EA0C03C8F89A
:109114000030BDE8F0811300DBB2002B03D0838A5A
:109124000B43838202E0838A8B438382704702006D
:109134000023080080B2B0F5007F1088084201D0F7
:10914400012000E00020C0B270470A0092B29205EC
:109154000A0092B2D24302807047F0B404000027A0
:109164000020002200260B0040F66A159BB2AB4299
:109174000D00EDB26D09EDB20B009BB213F01F03AD
:109184005FF0010C1CFA03F3012D02D1A089034006
:1091940006E0022D02D1208A034001E0A08A0340A8
:1091A4000A0092B2120A92B21CFA02F22088024019
:1091B400002B03D0002A01D0012000E00020C0B21F
:1091C400F0BC704770B4002200240B0040F66A150E
:1091D4009BB2AB420B009BB21B0A01259D402E00A3
:1091E400B6B2F643068070BC70472E002DE9F041FC
:1091F40004000025200002F081FA02F0DBFA4FF4AB
:1092040080711F4802F0E7FA4FF480711D4802F0A4
:1092140031FB5FF400301C4908604FF480701B4937
:1092240008601B48016851F001010160DFF86480A7
:1092340000224FF488710520FDF7BDFCC8F800003A
:10924400154E00224FF485710520FDF7B4FC306003
:10925400124F032200210120FDF7ADFC3860D8F83D
:109264000000002807D03068002804D0386800289F
:1092740001D0012005002800C0B2BDE8F08100BF84
:10928400888500204E810020040002405C000240DA
:1092940058000240608C0020648C0020688C002000
:1092A40030B4020000240023106830F00200106083
:1092B400106850F0010010605068C00705D44FF6E4
:1092C400FF70834201D05B1CF6E75068C00701D4ED
:1092D40000206BE08879012804D1106850F08000E8
:1092E400106003E0106830F080001060C879012835
:1092F40004D1106850F04000106003E0106830F0B2
:1093040040001060087A012804D1106850F0200051
:10931400106003E0106830F020001060487A0128E3
:1093240004D1106850F01000106003E0106830F0B1
:1093340010001060887A012804D1106850F00800E9
:10934400106003E0106830F008001060C87A01284B
:1093540004D1106850F00400106003E0106830F08D
:10936400040010608878CD782D0655EA8075087958
:1093740055EA0045487955EA00550888401E0543DA
:10938400D561106840084000106000200300506858
:10939400C00705D54FF6FF70834201D05B1CF6E78A
:1093A4005068C00701D5002000E00120C0B230BCE5
:1093B400704770B400250121827A11FA02F22E4B13
:1093C400196851F0010119602C4C21689143216006
:1093D400017B002913D12A490D6895430D60294961
:1093E400C588468856EA0546857A41F83560857A07
:1093F40001EBC5018588068856EA05464E60017B67
:10940400012913D11E490D6815430D601D490588B6
:10941400468856EA0546857A41F83560857A01EB37
:10942400C5018588C68856EA05464E60C17A00297A
:1094340004D115490D6895430D6003E012490D6888
:1094440015430D600189002903D110490D68954326
:109454000D600189012903D10C490D6815430D6084
:10946400417B012902D1216811432160196849080F
:109474004900196070BC7047006600401C660040DB
:109484000C660040406600400466004014660040DC
:109494001300DBB2002B03D043690B43436102E0AA
:1094A40043698B434361704730B4030000229868DA
:1094B400400101D500200AE09868000101D501208F
:1094C40005E09868C00001D5022000E004200200F5
:1094D400D2B2042A00F084800200D2B212011A44EB
:1094E400D2F8802112F001020400E4B224011C44E9
:1094F400C4F880210A7A002A11D10200D2B21201E2
:109504001A44D2F880210C684D7A55EA44552A430E
:109514000400E4B224011C44C4F8802112E00200D7
:10952400D2B212011A44D2F880414A680D7A55EA3F
:10953400C2054A7A15432C430200D2B212011A44DE
:10954400C2F880418A7A12F00F028A720200D2B203
:1095540012011A44D2F88421120912010400E4B25F
:1095640024011C44C4F884210200D2B212011A441A
:10957400D2F884418A7A14430200D2B212011A4406
:10958400C2F884418A7B4C7B240454EA02640A7B3B
:1095940054EA0224CA7A14430200D2B212011A44D1
:1095A400C2F888418A7C4C7C240454EA02640A7C14
:1095B40054EA0224CA7B14430200D2B212011A44B0
:1095C400C2F88C410200D2B212011A44D2F88021AE
:1095D40052F001020400E4B224011C44C4F88021C6
:1095E400C0B230BC7047020000200B00DBB2002B7D
:1095F40003D0022B22D010D331E093689B0013F0E8
:1096040004031843936813F00203184393689B0EF2
:1096140013F001031843030022E093689B0913F03D
:109624000403184393681B0A13F002031843936856
:10963400DB0E13F001031843030011E093689B0B46
:1096440013F00403184393681B0C13F0020318432C
:1096540093681B0F13F001031843030000E0002379
:109664001800C0B2002804D0052804D0072804D06C
:1096740005E0022004E0002002E0012000E00020D8
:10968400C0B270470A00D2B2002A02D12022C260BE
:1096940001E0202202617047020000230800C0B2EA
:1096A400002803D1D06810F0030008E00800C0B21D
:1096B400012803D1106910F0030000E00020C0B2BB
:1096C400704770B504000E0015003000C0B20001F0
:1096D4002044D0F8B00110F004002872287A002841
:1096E40008D13000C0B200012044D0F8B001400DD0
:1096F400286007E03000C0B200012044D0F8B00177
:10970400C00868603000C0B200012044D0F8B00145
:1097140010F0020068723000C0B200012044D0F89A
:10972400B40110F00F00A8723000C0B20001204450
:10973400D0F8B401000AE8743000C0B2000120443B
:10974400D0F8B801E8723000C0B200012044D0F86B
:10975400B801000A28733000C0B200012044D0F8D8
:10976400B801000C68733000C0B200012044D0F886
:10977400B801000EA8733000C0B200012044D0F834
:10978400BC01E8733000C0B200012044D0F8BC0131
:10979400000A28743000C0B200012044D0F8BC0193
:1097A400000C68743000C0B200012044D0F8BC0141
:1097B400000EA8743100C9B22000FFF763FF70BD2A
:1097C400020000239069084201D0012000E000203B
:1097D400C0B2704710B50400200002F0A5F802F0F2
:1097E40018F94FF480710B4802F024F94FF480719A
:1097F400094802F06DF94FF40070084908604FF40D
:109804008070074908600748016851F00101016050
:10981400012010BD7C8400203E8000200400024012
:10982400340002403000024010B504002000FFF76D
:1098340067FAFFF705FB00210120FFF718FB200062
:10984400FFF7BBFADFF86C190A884FF6FE70024086
:109854000A8010BD2DE9FE4F040042F21070029000
:1098640000200090009400980078012840F03B818B
:10987400DFF8385907212800FFF759FC002828D0C1
:10988400002240F225512800FFF70DFC0220FFF7CB
:109894008BFADFF824094021017000218180002126
:1098A400C0F808114FF48076002710F106083A003A
:1098B40031004046FAF73AFC07212800FFF745FC3F
:1098C4005FF4E130FFF7B0FF2100DFF8F00800F0AB
:1098D40087F9DFF8E4683078022802D0307803286A
:1098E40044D14FF488770196DFF8D488C1463A0012
:1098F40001994846FCF7B8FE402030700020B08043
:109904000020C6F808014FF480795FF0000A16F1D0
:10991400060B524649465846FAF708FCDFF89CB84D
:109924009BF80000002809D0B8F8041018F10600CC
:1099340001F0DFFB0221A9A001F0DBFBB8F8042051
:1099440018F10601584600F0CCFA00280ED09BF816
:109954000B0080070AD520208BF80B00DFF8640881
:109964000068CBF870000020CBF80C00DFF84C78CE
:10997400B87A002840F09280F87AC00736D5F87A91
:1099840010F0FE00F872387A797A8842BFF46AAF30
:10999400402030700020B0800020C6F808014FF449
:1099A40080755FF00008B61D424629003000FAF7C2
:1099B400BDFBDFF810080168380000F09BF9F87A65
:1099C40050F00600F872387800283FF44BAFDFF807
:1099D400F857280001F0DAFC010089B2280001F0F0
:1099E40088FB02217DA001F084FB3BE7F87A800725
:1099F40023D5386F397A07EB4101098E10FA81F0CB
:109A0400DFF8C01709688842BFF42CAFF868401C1F
:109A1400F860F868042802D20120F87222E7B87AC4
:109A2400002807D10298FEF71CF92100380000F045
:109A3400D7F817E70820F87214E7F87A80060AD5F1
:109A4400386FC01CDFF87C1709688842BFF40AAF7E
:109A54000820F87206E7F87A00077FF503AFF87A72
:109A640010F0F700F8720020F860380000F015FBE1
:109A740000283FF4F7AE387A797A88420BD3B87A63
:109A840000287FF4EFAE0120B8720020F8720020A5
:109A9400FEF716F9E6E60120F872E3E6B87A022842
:109AA4007FF4E0AE0220FFF77FF940203070002001
:109AB400B0800020C6F808014FF480785FF00009F8
:109AC400B61D4A4641463000FAF730FB072128000C
:109AD400FFF73BFB5FF4E130FFF7A6FE21003800FF
:109AE40000F07EF8BEE60120DFF8E01608600020F2
:109AF400FEF7E6F8B6E62DE9F84F04000125DFF895
:109B0400B8B69BF80000022803D09BF80000032895
:109B140060D1DFF8A866B07A01285BD14FF488776A
:109B2400CDF800B0DFF89886C1463A00009948465F
:109B3400FCF79AFD40208BF800000020ABF80400ED
:109B44000020CBF808014FF480795FF0000A1BF184
:109B5400060B524649465846FAF7E8FA3078002888
:109B640009D0B8F8041018F1060001F0C2FA022175
:109B74001AA001F0BEFA310018F1060000F056FAFE
:109B84007078022811D10420DFF840160860042000
:109B940088F80C010023002241462000FDF776F9E5
:109BA400002817D10020050014E07078012804D1A2
:109BB4000520DFF8181608600CE07078002802D041
:109BC4007078FF2806D10220B072DFF8040600681E
:109BD400FEF774F92800C0B2BDE8F28F0D0A000048
:109BE4002DE9F04704000D00DFF8E865B08831681E
:109BF40048610A20FFF7D8F8B0883168086132203C
:109C0400FFF7D2F844F62060DFF8CC150880012075
:109C1400DFF8C8150880E8260027A0463A0031007E
:109C24004046FAF783FA95F8540010F0060084F8D9
:109C3400E40095F8500010F0010020705FF0700807
:109C4400A94614F1740A424649465046FCF70CFDF5
:109C54000020A072200000F010F8BDE8F087437ADD
:109C6400202B09DA437A03441974437A00EB430343
:109C74001A86437A5B1C4372704710B504000020B7
:109C8400207200206072C82203212000FFF7E7FF42
:109C9400C82204212000FFF7E2FFC8220621200089
:109CA400FFF7DDFF4FF4FA6207212000FFF7D7FF2B
:109CB400C82208212000FFF7D2FFC8221321200068
:109CC400FFF7CDFF4FF4FA6211212000FFF7C7FF21
:109CD40094F8E400002804D1C82217212000FFF7DB
:109CE400BEFF4FF4FA6214212000FFF7B8FF0120F1
:109CF400E07210BDF8B58AB004000D000020217A8E
:109D040021440E7C3100C9B203291AD0042924D07D
:109D140006292ED0072969D0082900F08A80112944
:109D240000F0AB80132900F09080142900F0998092
:109D3400172900F0C7801F2940F0D0800320E0607D
:109D4400CCE0DFF88474DFF89824B7A1380001F080
:109D54001DFF3800FFF7C5F8C0E0DFF86C74DFF8CA
:109D64008424B1A1380001F011FF3800FFF7B9F8DD
:109D7400B4E094F8C800C0070BD5DFF84C74DFF8E2
:109D84006824A9A1380001F001FF3800FFF7A9F801
:109D94002BE0DFF8347494F8D300099094F8D200DF
:109DA400089094F8D100079094F8D000069094F8A5
:109DB400D700059094F8D600049094F8D500039049
:109DC40094F8D400029094F8CF00019094F8CE0057
:109DD400009094F8CD3094F8CC20DFF810143800BB
:109DE40001F0D4FE3800FFF77CF877E0B4F87A008D
:109DF40000281DD0B4F89E00002819D00020B4F823
:109E04007A10214481F87C000020B4F89E1021448B
:109E140081F8A000DFF8B07314F1A00314F17C0200
:109E2400DFF8CC13380001F0B1FE3800FFF759F821
:109E340054E0DFF89473DFF8BC237BA1380001F011
:109E4400A5FE3800FFF74DF848E0DFF87C73DFF833
:109E5400A82375A1380001F099FE3800FFF741F8F6
:109E64003CE0DFF86473DFF894236FA1380001F05D
:109E74008DFE3800FFF735F830E094F8E400002850
:109E840008D1B4F8CA20DFF87813DFF83C0301F0F6
:109E94007DFE12E0B4F8D800029094F8DD00019041
:109EA40094F8DC00009094F8DB3094F8DA20DFF8C2
:109EB4005413DFF8140301F069FEDFF80C03FFF715
:109EC40010F80BE0DFF80073DFF83C2356A13800EC
:109ED40001F05CFE3800FFF704F8FFE725670BB0DC
:109EE400F0BD2DE9F04104000D001600002000270C
:109EF400217A214491F810804146C9B203292AD01D
:109F0400042928D0062926D007290ED0082916D0DE
:109F1400112946D013291ED0142926D0172959D027
:109F24001F2977D10120070074E0DFF8E012280030
:109F340001F04CFE002801D0012007006AE0DFF8A0
:109F4400D012280001F042FE002803D001206070E6
:109F5400012007005EE0DFF8BC12280001F036FEA5
:109F6400002801D00120070054E064A1280001F07A
:109F74002DFE002804D002206070012007000FE0AD
:109F8400DFF89412280001F021FE002804D00020FC
:109F9400E0600120070003E02100280000F046F8FB
:109FA40038E0DFF87812280001F010FE00280AD00B
:109FB40094F8C80010F00600022801D10220607055
:109FC4000120070005E094F8E400022801D10020F4
:109FD400E0601FE074A1280001F0F8FD002818D00B
:109FE4002100280000F022F8002802D00320E060BD
:109FF4000FE094F8E40000280BD10020E060210079
:10A00400280000F07DF8002803D0022060700120B1
:10A014000700FFE73800C0B2002801D00020E0604C
:10A024003800C0B2BDE8F0812573000070B50400AB
:10A034000D000026DFF8E811200001F0C7FD00281C
:10A0440004D0002068700120060023E0DFF8D4115A
:10A05400200001F0BBFD002804D00120687002201C
:10A06400060017E0DFF8C011200001F0AFFD002862
:10A0740007D0A87A012801D10220687000200600C8
:10A0840008E0DFF8A811200001F0A0FD002801D0AD
:10A09400FF2006003000C0B270BD010001200A7A22
:10A0A400521C0A72C0B270472DE9F84304000D0037
:10A0B40016001F005FF000085FF00009200001F0A7
:10A0C40065F902000021914214D2781E814211D216
:10A0D400605C3300DBB298420CD0605C002809D08D
:10A0E400605C302806DB605C3A2803DA605C685404
:10A0F400491CE8E70800BDE8F28300003E000000C8
:10A104002DE9F24F84B00500002402A8052101F0D6
:10A1140073FD6846052101F06FFD002600275FF0FE
:10A12400000823A105EB070001F050FD0400002CFA
:10A1340033D0B4EB050AA41C1AF1020A05232C221D
:10A1440002A92000FFF7B0FF814604EB0900441C7C
:10A1540019F1010010EB0A0A05232C22694620009C
:10A16400FFF7A2FF834604EB0B00441C1BF1010024
:10A1740010EB0A0A574605232C2269462000FFF7F4
:10A1840093FF0600012E06D19DF80000332802D16A
:10A194000120804603E0701CC719002CC1D1404641
:10A1A400C0B205B0BDE8F08F4F4B00000044004042
:10A1B4000D0A00000008004058820020908800200A
:10A1C40068830020908C0020908700206C8C0020F5
:10A1D400708C0020B0EE00082C08004014080040E9
:10A1E40070EE000848ED0008B0ED00089CEA000895
:10A1F40058ED0008BCED000810ED0008C8ED00089B
:10A2040068ED0008F8EB0008D4ED000878EE0008CB
:10A2140080EE000888EE0008E0ED000890EE0008EB
:10A22400ECED000824ED0008F8ED000898EE0008B5
:10A23400F0B500220023002400250026002791F811
:10A2440003C01CF00F0C91F803E05FEACE6E02D558
:10A254008A7852EA0C0C0A7812062AD00268160090
:10A2640000221400082C23D25FF0010E1EFA04F21F
:10A2740015000A882A401300AB4217D1A20015002A
:10A284000F22AA401700BE431CFA05F21643CA78EF
:10A29400282A04D11EFA04FEC0F814E006E0CA78A5
:10A2A400482A03D11EFA04FEC0F810E0641CD9E762
:10A2B40006600A88B2F5807F2EDB42681600002211
:10A2C4001400082C27D25FF0010E14F108021EFAC4
:10A2D40002F215000A882A401300AB4219D1A200E9
:10A2E40015000F22AA401700BE431CFA05F21643BC
:10A2F400CA78282A04D114F108021EFA02F2426133
:10A30400CA78482A05D114F108021EFA02FEC0F8E0
:10A3140010E0641CD5E74660F0BDF0B400220023D1
:10A3240000250027002802D51D4C246801E01D4C9F
:10A334002468C0F3034586B210F4401CBCF5401FEA
:10A3440007D134F07064174A176837F070671760E4
:10A3540011E0C20206D50322AA4013009C4354F024
:10A36400706408E00200520DD2B2120116FA02F231
:10A37400944354F070640A00D2B2002A06D002005A
:10A38400520DD2B2120116FA02F21443002802D579
:10A39400034A146001E0034A1460F0BC70470000F3
:10A3A4001C000140040001401E4901431E4A116083
:10A3B4007047F0B4002200230F24C17800291FD075
:10A3C4001949096811F4E061D1F5E061090AD1F194
:10A3D40004052B00CC4045789D40867826403543C3
:10A3E4002D012A00114D0678AA550125067816F08C
:10A3F4001F06B5400E4E07787F1146F8275009E036
:10A404000121057815F01F05A9400A4D067876113B
:10A4140045F82610F0BC7047074A0A400243074B30
:10A424001A6070470000FA050CED00E000E400E05B
:10A4340000E100E080E100E080FFFF1F08ED00E0A4
:10A444001CB5042100226C462000F9F76FFE03209E
:10A454008DF8020014208DF8030081488188ADF83E
:10A46400001069460068FFF7E3FE7E488188ADF876
:10A47400001069460068FFF7DBFE13BD002064216D
:10A484000800411E0028FBD170474FF4C0414843E7
:10A49400401C0100481E0029FBD1704710B5704CC8
:10A4A400A088216808616F48818800680161FFF70E
:10A4B400E5FF20688068002801D1012000E0002029
:10A4C400217911F00101084201D0002011E0A08897
:10A4D40021684861FFF7D2FF20688068A18808429C
:10A4E40001D0002005E0A08821684861FFF7C6FF7D
:10A4F400012010BD38B55B4CA08821684861FFF786
:10A50400BDFF574DA88829684861FFF7B7FFA088A9
:10A5140021680861FFF7B2FFA88829680861FFF77E
:10A52400ADFF31BD10B54F4CA08821684861FFF7DD
:10A53400A5FF4B48818800684161FFF79FFFA08811
:10A5440021680861FFF79AFFA08821684861FFF736
:10A5540095FF10BD10B5434CA08821684861FFF7F2
:10A564008DFF3F48818800680161FFF787FFA0885D
:10A5740021680861FFF782FFA08821684861FFF71E
:10A584007DFF10BD38B5374CA08821684861FFF7BE
:10A5940075FF334DA88829680861FFF76FFFA0880D
:10A5A40021680861FFF76AFF28688068A988084263
:10A5B40004D0A08821684861002003E0A0882168B5
:10A5C4004861012032BD70B5040008252800451EED
:10A5D400C0B2002817D0234EB088316848612006E5
:10A5E40004D51F4881880068016103E01C48818804
:10A5F40000684161FFF742FFB08831680861FFF7E6
:10A604003DFF6400E2E7174881880068416170BD3E
:10A61400F8B508240025124EB0883168086120007E
:10A62400441EC0B2002813D06D000E4FB88839689C
:10A634004861FFF723FFB88839680861FFF71EFFF8
:10A6440030688068B1880842E9D055F00105E6E732
:10A6540004488188006841612800C0B2F2BD00004E
:10A6640030EE000838EE00080EB4C0B5024603A868
:10A6740000210190009101AB0121044878440C3081
:10A6840001F0BEFA06BC5DF810FB00BF35460000C1
:10A69400001F5FF080730360001F4B085B000360C2
:10A6A400001F0FF20D030360143802602038704756
:10A6B40080B58048006810F1010F0CD0502080F361
:10A6C4001188BFF34F8FBFF36F8FCB227A497B483A
:10A6D400FFF7CAFFFEE7502080F31188BFF34F8FC6
:10A6E400BFF36F8FFEE71CB5754C20780190FF20F7
:10A6F400207020788DF800009DF8000010F05000C4
:10A70400704908707048072101609DF8001009061F
:10A7140008D50168491E01609DF8001049008DF8B4
:10A724000010F2E70168D1F1070104290DD050208F
:10A7340080F31188BFF34F8FBFF36F8F4FF4827292
:10A744005D495E48FFF790FFFEE70168D1F107011C
:10A7540004290DD0502080F31188BFF34F8FBFF32D
:10A764006F8F40F20D1254495448FFF77DFFFEE706
:10A77400016809020160016811F4E0610160019857
:10A7840020705248016851F470010160016851F071
:10A794007041016000F0A2F800204649086002F010
:10A7A400C6FA002016BD80B5502080F31188BFF38F
:10A7B4004F8FBFF36F8F3F490A68521C0A600968C4
:10A7C400012910D14249096809060CD080F3118887
:10A7D400BFF34F8FBFF36F8F40F2431236493748B0
:10A7E400FFF742FFFEE701BD80B532490868002843
:10A7F4000DD1502080F31188BFF34F8FBFF36F8FBB
:10A804004FF4A5722C492D48FFF72EFFFEE7086888
:10A81400401E08600868002802D1002080F31188D7
:10A8240001BD80B5502080F31188BFF34F8FBFF373
:10A834006F8FFDF7BFFC002803D05FF080502449E0
:10A844000860002080F3118801BD000038B5EFF3E3
:10A854000585102D17D31F480068405D04002000B3
:10A8640018490978C0B288420DD2502080F311886B
:10A87400BFF34F8FBFF36F8F40F28A220E490F4808
:10A88400FFF7F2FEFEE7104800681349096811F467
:10A89400E06188420DD2502080F31188BFF34F8FBE
:10A8A400BFF36F8F40F29B2203490448FFF7DCFE9D
:10A8B400FEE731BD0000002090E9000848EB0008E5
:10A8C40000E400E0FB8C0020888C002020ED00E0F8
