:020000040800F2
:10400000F8A9002015E10008F9C70008FBC700085F
:10401000FDC70008FFC7000801C800080000000035
:10402000000000000000000000000000F382000813
:1040300003C8000800000000AD8200080B6A0008F9
:10404000F1E10008F5E10008F9E10008FDE10008F0
:1040500001E2000805E2000809E200080DE200089C
:1040600011E2000815E2000819E200081DE200084C
:104070003BCA000821CA000859C900083FC9000806
:1040800021E2000825E2000829E200082DE20008EC
:10409000B7C8000831E2000835E2000839E200083C
:1040A0003DE2000841E2000845E2000849E200085C
:1040B00005C800084DE2000883CB000851E2000863
:1040C00055E2000859E200085DE2000861E20008DC
:1040D00065E200088DC90008FDCA00086DCA000825
:1040E00069E200086DE2000871E2000875E200086C
:1040F00079E200087DE2000881E2000885E200081C
:1041000089E200088DE2000891E2000895E20008CB
:104110008DC8000899E200089DE20008A1E20008AD
:10412000A5E20008A9E200083BC8000853C800083F
:1041300062F30F2262F31F42401810F0030308D00D
:10414000C91A1FD3DB0748BF00F8012D28BF20F88C
:10415000022D130030B414461546103928BF20E94B
:104160003C00FAD8490728BF20E90C0048BF40F8B6
:10417000042D890028BF20F8022D48BF00F8012D2A
:1041800030BC7047C91818BF00F8012DCB0728BFF5
:1041900000F8012D704712AA01120001200201024D
:1041A000030404400806070809020406081E00016B
:1041B000120108F00207569800080452FF01E3AA12
:1041C000821420040000B693000840F00316240077
:1041D0000020000120026D6800082C435B683C2130
:1041E00001200A02040101B487002004880020088D
:0D41F0002104211B610812E860F212D46462
:105000005250333432335F4D4220323431323235F4
:1050100030302047323331323030000000000000A1
:105020000000000000000000000000000000000080
:0250300000007E
:105034002DE9F14F84B00E0017009846380080B275
:10504400800001F03BFA0500002D15D0642001F02A
:1050540035FA0400002C0BD05FF064095FF0000AFD
:10506400A346524649465846FFF760F8256304E0D4
:10507400280001F0B9FA00E00024002C12D000202E
:10508400039002940F9801900E98009043463A00C2
:1050940092B23100049800F00AF8200000F087F87A
:1050A400012001E05FF0FF3005B0BDE8F08F2DE98D
:1050B400F94F81B00C0016000C9F0D9DDDF838806F
:1050C400B00000905FF0A50BD8F830A05A460099C4
:1050D4005046FFF72BF8D8F8300000EB8600B0F10B
:1050E400040A5FEADA0A5FEACA0A1AF0070000282B
:1050F4000FD0502080F31188BFF34F8FBFF36F8F11
:1051040040F25D32DFF84015DFF8900501F042FB14
:10511400FEE7002C14D000208146B9F1140F0CD204
:1051240014F8090008EB090181F8340014F80900A7
:10513400002802D019F10109EFE7002088F84700A0
:105144001F2F0FD3502080F31188BFF34F8FBFF36D
:105154006F8F40F29232DFF8F014DFF8400501F06F
:1051640019FBFEE71F2F01D31E200700C8F82C707F
:10517400C8F8507018F1040001F02FFB18F1180062
:1051840001F02BFBC8F81080D7F11F00C8F81800F5
:10519400C8F82480029A0199504601F06BFBC8F8C4
:1051A4000000002D01D0C5F80080BDE8F78F70B570
:1051B400040001F0EAFBDFF8CC140868401C086026
:1051C400DFF8C4542868002806D12C600868012838
:1051D4000DD100F061FD0AE0DFF8B004006800289A
:1051E40005D1E06A2968C96A884200D32C60DFF8D7
:1051F400A0040168491C01600068A064DFF89414ED
:105204000A680123E06A83401A430A601420DFF825
:105214008814E26A42430A445668A660B268E260AF
:10522400221DB3685A60221DB260E26A42430A44F6
:105234006261E26A4243E36A00FB03F00858401CDF
:10524400885001F0C3FBDFF84404006800280DD047
:105254002868C06AE16A884208D25FF08050DFF8AB
:10526400FC140860BFF34F8FBFF36F8F70BD70B530
:10527400040001F08AFB002C03D1DFF80C0405685C
:1052840000E02500281D01F0D2FA00280FD1DFF834
:105294000814EA6A142042438858002807D1DFF82A
:1052A400F4130A680123E86A83409A430A60A86AEF
:1052B400002803D015F1180001F0B9FADFF8D00383
:1052C4000168491C0160DFF8C063306885420AD177
:1052D400291DDFF8CC0301F083FADFF8C803016865
:1052E400491C016006E0DFF89C030168491E016067
:1052F40000F0C9FD01F06AFB3068854202D0280045
:1053040000F0B8FDDFF884030068002820D030687E
:1053140085421DD1DFF84004006800280FD05020DA
:1053240080F31188BFF34F8FBFF36F8F40F2AF420A
:10533400DFF81413DFF8640301F02CFAFEE75FF0E2
:105344008050DFF818140860BFF34F8FBFF36F8FDE
:1053540070BD38B505000024002D1DD0DFF8F8031A
:10536400006800280FD0502080F31188BFF34F8FBE
:10537400BFF36F8F40F21C52DFF8CC12DFF81C032E
:1053840001F008FAFEE700F0ACF80021280001F073
:1053940027F800F0ACF80400002C08D15FF080502E
:1053A400DFF8B8130860BFF34F8FBFF36F8F31BDC1
:1053B4002DE9F04106003500002D0FD1502080F377
:1053C4001188BFF34F8FBFF36F8F40F24A52DFF85B
:1053D4007812DFF8C80201F0DDF9FEE7DFF8A80271
:1053E4000068854201D1002034E001F0CEFA6869FA
:1053F4000400DFF8740300680700DFF87003006836
:10540400804601F0E3FABC4201D0444501D10220B8
:1054140020E0DFF85C03844213D1A86A00280ED18F
:1054240003200021012915DA05EB010292F860201E
:10543400012A02D1022210000CE0491CF2E70220EA
:1054440008E0DFF85C02844201D0002C01D1042082
:1054540000E00120C0B2BDE8F0811CB5DFF81C07F4
:1054640001900020009000234FF49672DFF810178B
:10547400DFF81007FFF7DCFD0400012C02D101F076
:1054840033FB0400012C17D1502080F31188BFF3A3
:105494004F8FBFF36F8F5FF0FF30DFF800170860A6
:1054A40001207A4908600020DFF8B812086001F092
:1054B40045FE01F00AFA10E014F1010F0DD150205D
:1054C40080F31188BFF34F8FBFF36F8F40F6120242
:1054D4005D49724801F05EF9FEE7DFF84C080068A8
:1054E40013BDDFF874020168491C01607047F8B508
:1054F40000250026DFF86042206800280DD15020E6
:1055040080F31188BFF34F8FBFF36F8F40F685028E
:105514004D49624801F03EF9FEE701F036FA206891
:10552400401E20602068002840F0828055480068B2
:1055340000287DD0DFF840160868002853D0C868DA
:10554400C0680500A86A296AEA699160E9692A6A5B
:105554005160416815F11802914201D1296A4160F4
:105564000021A9620168491E01606869E968AA68A6
:105574009160A968EA68516041682A1D914201D18D
:10558400E9684160002169610168491E016041497F
:105594000A680123E86A83401A430A603E481421DA
:1055A400EA6A4A4302445268AA609368EB602B1D7E
:1055B400946863602B1D9360EB6A4B4303446B61F7
:1055C400EB6A4B43EC6A01FB04F14158491CC1509E
:1055D400E86A2D490968C96A8842ABD30120DFF81B
:1055E40094150860A6E7002D01D000F04CFCDFF80C
:1055F40080783C68002C0CD000F0BCF8002803D064
:105604000120DFF870150860641E002CF4D100201E
:105614003860DFF860050068002809D00120060022
:105624005FF080504D490860BFF34F8FBFF36F8F19
:1056340001F0CCF93000F2BDDFF8280100687047B2
:10564400DFF888080068704708DE000838B50500F0
:10565400002D02D10C48046800E02C00002C0ED16F
:10566400502080F31188BFF34F8FBFF36F8F40F644
:105674002B12DFF8B8163A4801F08CF8FEE714F163
:10568400340032BDA089002090890020AC8900201C
:10569400BC890020A8890020AC7C002058DF0008C9
:1056A400DC8800209C8900202DE9F24F06001500BB
:1056B40000271F24FFF715FF0098DFF8101809686A
:1056C400884244D3641E5FF024080122DFF80008F6
:1056D400142101FB04F1014408FB07F0304400F0FD
:1056E40074FBC0190700002CECD102221E4801688B
:1056F40008FB07F0304400F068FB814619EB07090A
:1057040002221A48016808FB09F0304400F05DFBEE
:1057140082461AEB090A0422DFF8B81708FB0AF0DC
:10572400304400F052FB83461BEB0A0B0322104962
:1057340008FB0BF806EB080000F047FB10EB0B002E
:105744000700002D03D0DFF8580900682860FFF730
:10575400CEFE3800BDE8F28FC889002004ED00E0D9
:1057640058DF0008A489002094890020988900202B
:10577400F08800202DE9F0410027DFF834080068A4
:10578400002840F0BF80DFF820090468641C04602E
:10579400002C24D1DFF814190868006800280FD001
:1057A400502080F31188BFF34F8FBFF36F8F40F603
:1057B400B722DFF87815DFF8FC0700F0EBFFFEE70F
:1057C400D1F80080DFF8E80802680A60C0F80080B9
:1057D400DFF8E0080168491C016000F054FBDFF8C1
:1057E400BC130868844279D3DFF8C02810680068C5
:1057F400002803D15FF0FF3008606FE01068C068D4
:10580400C068050068680600B44201D20E6065E015
:105814006869EA68AB689A60AA68EB685A6042688B
:105824002B1D9A4201D1EA68426000226A61026833
:10583400521E0260A86A002812D0A86A2A6AEB697C
:105844009A60EA692B6A5A60426815F118039A4211
:1058540001D12A6A42600022AA620268521E0260D2
:10586400DFF8542713685FF0010CE86A1CFA00FCA7
:105874005CEA03031360DFF858061422EB6A53430F
:1058840003445B68AB60D3F808C0C5F80CC015F1DD
:10589400040CD3F808E0CEF804C015F1040CC3F8E6
:1058A40008C0D5F82CC002FB0CFC8444C5F814C015
:1058B400D5F82CC002FB0CFCD5F82CE002FB0EF250
:1058C4008258521C40F80C20DFF8D8070068C06AE0
:1058D400EA6A904288D20120070085E7DFF8C4070E
:1058E4000068DFF8EC15C26A142042438858022885
:1058F40001D3012007009F480068002807D0012039
:10590400070004E0DFF868050168491C01603800FD
:10591400BDE8F08110B5DFF898060068002803D0D0
:105924000120944908604CE0002092490860DFF8A7
:10593400C018DFF86C0700680860DFF8B828106842
:105944000B68984208D2DFF85C0703689C6D08680E
:1059540004191068241A9C6508681060DFF858065A
:105964000068B0FA80F4D4F11F041421DFF8602534
:1059740001FB04F0105800280FD1502080F3118847
:10598400BFF34F8FBFF36F8F40F6F632DFF89C13EF
:10599400DFF8200600F0FEFEFEE701FB04F102EB57
:1059A4000100416849684160416810F10802914270
:1059B40002D14168496841604068C068DFF8E41674
:1059C400086010BD38B504000D00002C0FD1502024
:1059D40080F31188BFF34F8FBFF36F8F40F60E42F1
:1059E400DFF84813DFF8CC0500F0D4FEFEE7DFF85B
:1059F400B406006810F11801200000F0FDFE01213A
:105A0400280000F0EDFC31BD70B504000E00150057
:105A1400002C0FD1502080F31188BFF34F8FBFF3B8
:105A24006F8F40F64442DFF80413DFF8880500F076
:105A3400B1FEFEE76068DFF86C160A68D061826820
:105A44000B681A620A68183283685A600A68183246
:105A5400826009688C622168491C2160002D02D093
:105A64005FF0FF3006002900300000F0B9FC70BD83
:105A740070B50500E868C468002C0FD1502080F38D
:105A84001188BFF34F8FBFF36F8F40F67442DFF876
:105A94009C12DFF8200500F07DFEFEE7A06A216A73
:105AA400E2699160E169226A5160416814F1180267
:105AB400914201D1216A41600021A1620168491E1D
:105AC4000160DFF8EC040068002835D16069E16802
:105AD400A2689160A168E26851604168221D914208
:105AE40001D1E1684160002161610168491E0160E2
:105AF400DFF8C4140A680123E06A83401A430A6089
:105B0400DFF8CC031421E26A4A4302445268A260DB
:105B14009368E360231D96687360231D9360E36AB2
:105B24004B4303446361E36A4B43E66A01FB06F1BA
:105B34004158491CC1500FE00F494868E061826830
:105B4400226214F1180283685A6014F11802826008
:105B5400A1620A68521C0A60DFF848050068C06A3E
:105B6400E16A884204D201200121024A116000E066
:105B7400002070BDB4890020C8880020C48900209A
:105B8400CCE10008795C0008DFF828150968016099
:105B9400DFF814150968416070470000C0890020CF
:105BA4002DE9F04104000D00002C0ED1502080F3AB
:105BB4001188BFF34F8FBFF36F8F40F6EF425B49FD
:105BC400DFF8F00300F0E6FDFEE7002D0ED15020D3
:105BD40080F31188BFF34F8FBFF36F8F4FF44F6281
:105BE4005249DFF8D00300F0D5FDFEE700F0CDFE0A
:105BF400DFF8B40406686768F71BDFF8A8140868C0
:105C040090F86100002806D00020096881F861003E
:105C14005FF0010824E0286810F1010F02D15FF061
:105C240000081DE0DFF88C0400682168884207D072
:105C34006068864204D35FF00108002028600FE00A
:105C44002868874208D22868C01B28602000FFF714
:105C54009BFF5FF0000803E0002028605FF001086C
:105C640000F0B4FE4046BDE8F0810120DFF83C17A7
:105C74000860704710B5040000F037F894480068D5
:105C84000228F9D35FF08050DFF838170860BFF3BB
:105C94004F8FBFF36F8FEFE770B500241F2C08D22E
:105CA4008B48142101FB04F1084400F087FD641CB7
:105CB400F4E7DFF8FC56280000F080FDDFF8F46616
:105CC400300000F07BFDDFF8F00600F077FD81483E
:105CD40000F074FDDFF8E40600F070FDDFF8CC039B
:105CE4000560DFF8CC03066070BD38B5DFF8D05628
:105CF4002868002815D000F048FE7648C068C068BF
:105D04000400201D00F093FD70480168491E0160E5
:105D14002868401E286000F059FE200000F0AAF810
:105D2400E4E731BD000000001800002008DE000890
:105D34002DE9F04104000E0015001F00002C04D1D1
:105D4400DFF86003D0F8008000E0A046C6F80080C9
:105D540018F134007060D8F82C003061D8F83000A5
:105D6400F061D8F84800B060D8F850007061D8F8F5
:105D74005800B0613800C0B2052816D0C948006880
:105D8400804502D10020307313E037733800C0B26D
:105D940003280ED1FFF7A5FBD8F82800002801D06E
:105DA40002203073FFF7A3FB03E04046FFF700FB3C
:105DB4003073002D05D0D8F8300000F040F830845E
:105DC40001E000203084BDE8F0812DE9F8430400AF
:105DD4000D0016005FF00009286800282CD0280068
:105DE400416849684160416810F10802914202D15A
:105DF4004168496841604068C0688046280041683D
:105E040049684160416810F10802914202D1416839
:105E1400496841604068C06807003300DBB2012272
:105E2400242000FB09F004EB00013800FFF780FF99
:105E340019F101094745E1D14846BDE8F283010063
:105E440000200A78A52A02D1491C401CF9E78008E1
:105E540080B2704770B50400002C02D191480568E7
:105E640000E025002E6B3000FFF7E9FF70BD000055
:105E7400B089002010B50400206B00F0B5FB2000B1
:105E840000F0B2FB10BD894908680068002805D1FC
:105E94005FF0FF30DFF83815086005E00868C06877
:105EA4000068DFF82C1508607047DFF81C050068EF
:105EB400002801D1012006E03D480068002801D1F6
:105EC400022000E00020704700000000A0890020AC
:105ED400AC7C0020DC8800202DE9F8430400250078
:105EE4000026002C60D0DFF8BC91E86AD9F80010D5
:105EF400C96A884250D2A869002805D4D9F800009C
:105F0400C06AD0F11F00A861DFF8C0745FF0140804
:105F14006869E96A08FB01F13944884235D1281DD2
:105F240000F085FC002807D1DFF8A8140A680123D3
:105F3400E86A83409A430A60D9F80000C06AE862BC
:105F4400DFF890140A680123E86A83401A430A6060
:105F5400E86A08FB00F038444068A8608168E9609A
:105F6400291D82685160291D8160E96A08FB01F1DD
:105F740039446961E96A08FB01F1EA6A08FB02F83D
:105F840057F80820521C7A5003E0D9F80000C06A80
:105F9400E8620120060007E0286DD9F80010C96AFC
:105FA400884201D2012006003000BDE8F2830000DF
:105FB400C889002058DF0008A8890020F8B504002B
:105FC40025000026002C68D03648006885420FD092
:105FD400502080F31188BFF34F8FBFF36F8F41F2CE
:105FE4004802DFF8F413DFF8F40300F0D3FBFEE714
:105FF400686D00280FD1502080F31188BFF34F8FB4
:10600400BFF36F8F41F24902DFF8CC13DFF8CC0302
:1060140000F0C0FBFEE7686D401E6865E86A296D04
:1060240088423AD0686D002837D1281D00F0FFFB64
:10603400002807D1DFF89C130A680123E86A83402B
:106044009A430A60286DE862E86AD0F11F00A861EB
:10605400DFF880130A680123E86A83401A430A6060
:106064001420DFF86813EA6A42430A445268AA60BB
:106074009368EB602B1D97687B602B1D9360EB6A24
:1060840043430B446B61EB6A4343EF6A00FB07F045
:106094000858401CC850012006003000F2BD000022
:1060A4008889002090890020A489002094890020F8
:1060B40098890020B88900202DE9F84F04000F00CA
:1060C400A0465FF00109002C00F09080D8F854003D
:1060D40000280FD1502080F31188BFF34F8FBFF3F6
:1060E4006F8F41F29802DFF8F012DFF8F00200F04F
:1060F40051FBFEE7D8F85000B84201D23E0002E05E
:10610400D8F850000600D8F82C00B0426ED0D8F869
:10611400540048456AD1DFF87803006880450FD100
:10612400502080F31188BFF34F8FBFF36F8F41F27C
:10613400B302DFF8A412DFF8A40200F02BFBFEE7A1
:10614400D8F82C000500C8F82C60D8F818000028EE
:1061540003D4D6F11F00C8F81800DFF870A25FF06E
:10616400140BD8F814000BFB05F1514488423DD1BF
:1061740018F1040000F05BFB002808D1DFF81413C9
:106184000A680123D8F82C0083409A430A60DFF898
:1061940004130A680123D8F82C0083401A430A60C8
:1061A400D8F82C000BFB00F050444068C8F80800F5
:1061B4008168C8F80C1018F104018268516018F164
:1061C40004018160D8F82C100BFB01F15144C8F88C
:1061D4001410D8F82C100BFB01F1D8F82C200BFB71
:1061E40002FB5AF80B20521C4AF80120BDE8F18F3B
:1061F400D0890020CC89002038B504000D00290086
:10620400200000F0A1FF200000F0AAFF132803D211
:1062140020212154401CF9E700212154204432BD9F
:106224002DE9FC47050000202870DFF86C02D0F847
:1062340000805FF02409006809FB00F000F03EF9DB
:106244000400002C4ED0002241462000FFF72CFA17
:10625400804600200600464541D209FB06F0204452
:10626400007B002806D002280AD006D304280DD0CB
:1062740009D30EE0582007000DE0522007000AE081
:106284004220070007E05320070004E044200700F1
:1062940001E00020070009FB06F0204441682800C3
:1062A400FFF7AAFF824609FB06F0204480680190AC
:1062B40009FB06F02044008C009009FB06F0204402
:1062C40003693A00D2B2DFF8D411504600F068FFF7
:1062D400504600F045FF50440500761CBBE7200003
:1062E40000F082F9BDE8F3872DE9FC4706000020A1
:1062F4003070DFF8A401D0F800805FF02409006852
:1063040009FB00F000F0DAF80500002D41D06A46E0
:1063140041462800FFF7C8F9804600986421B0FB85
:10632400F1F000900098002830D000200700474585
:106334002CD209FB07F0284480690099B0FBF1F0E6
:10634400040009FB07F0284441683000FFF754FFBC
:106354008246002C0AD0230009FB07F028448269F6
:10636400DFF83C11504600F01BFF08E009FB07F082
:1063740028448269DFF82C11504600F011FF504682
:1063840000F0EEFE0AEB00067F1CD0E7280000F0C8
:106394002BF9BDE8F387DFF8F8100868002803D06C
:1063A4000868426D521C426508687047B489002031
:1063B400A0880020B4880020C8880020F08800202D
:1063C4009C89002004ED00E0AC890020AC7C002016
:1063D400C0890020A889002008DE000858DF0008D2
:1063E4002DE9F04105000C002F480768DFF8A08074
:1063F4000020D8F8001081F86100D8F80000001DD2
:1064040000F015FA002808D1D8F8000021490A68DC
:106414000123C06A83409A430A6015F1010F1AD11F
:10642400002C18D021484168D8F8002091608A686F
:10643400D8F80030DA60D8F80020121D8B685A6052
:10644400D8F80020121D8A60D8F800205061026834
:10645400521C02601AE0E8190600D8F800004660F1
:10646400BE4207D2D8F80000011D1148006800F0B0
:10647400C3F90BE0D8F80000011D0E48006800F0D5
:10648400BBF90D4801688E4200D20660BDE8F08178
:1064940090890020A8890020A089002004E1000838
:1064A40030E100083CE10008A4890020F0880020C5
:1064B4009889002094890020C08900202DE9F84F94
:1064C40004005FF00009FFF70CF8DFF864A2DAF8C3
:1064D4000000002801D100F0CEF8002C10D0DFF825
:1064E40054020168083114F00700091A0D005FF026
:1064F400FF30401BA04201D32C1901E0002004000E
:10650400002C5AD4002C58D0DFF82CB2DBF8000051
:10651400A04252D389480700006806007068A04270
:1065240005D23068002802D037003668F6E7DAF87A
:106534000000864241D07F48396802681144894688
:1065440031683960006840007168091B88421BD2B9
:1065540006EB0400804618F0070000280CD05020F9
:1065640080F31188BFF34F8FBFF36F8FDC22744920
:10657400744800F00FF9FEE77068001BC8F80400C7
:106584007460404600F0A4F8DBF800107068091A43
:10659400CBF800106C48DBF800100268914202D27C
:1065A400DBF800100160706850F00040706000205B
:1065B400306066480168491C0160FEF798FF19F0D5
:1065C400070000280DD0502080F31188BFF34F8FAF
:1065D400BFF36F8F4FF48E7259495A4800F0DAF8BE
:1065E400FEE74846BDE8F28F70B504002600002C93
:1065F40040D050480068404206443500686800288E
:106604000DD4502080F31188BFF34F8FBFF36F8FE9
:1066140040F22F124A494B4800F0BCF8FEE72868C4
:1066240000280DD0502080F31188BFF34F8FBFF3A3
:106634006F8F4FF498724249424800F0ABF8FEE77E
:106644006868002816D52868002813D1686820F0E7
:1066540000406860FEF745FF37490A686868821899
:106664000A60280000F034F839480168491C0160C8
:10667400FEF73DFF70BD70B44FF4F04235480100A1
:1066840011F0070F04D0C91DC908C900521A821895
:106694000B002A48036000244460D418254800688D
:1066A400241AE408E400224D2C6000202E68706057
:1066B40000202E6830601800261A46602D68056098
:1066C4004568214E356045681B4E356070BC704787
:1066D40030B41A4A1168814201D21268FAE71400F0
:1066E40051682144814204D153684168CB185360F6
:1066F40010000300416819441568A94210D10C49DF
:1067040014680D68AC4208D04468116849680C19D3
:10671400446011680968016004E00968016001E0EF
:1067240011680160824200D0106030BC70470000E4
:1067340070890020E8E10008748900203489002071
:10674400E8DC0008ECDE0008788900207C89002061
:1067540080890020EC00002030B4002513E050F8BC
:10676400042BD30744BFA9F101039A18091F042974
:1067740042F8045BFAD213468C0744BF15809B1C75
:10678400C90748BF1D7050F8041B0029E7D130BC6D
:10679400704700000EB4C0B5024603A80021019062
:1067A400009101AB0121044878440C3000F018FD3D
:1067B40006BC5DF810FB00BF0179000010F1080170
:1067C40041605FF0FF31816010F10801C16010F198
:1067D40008010161002101607047002101617047D7
:1067E40042684A6093688B6093685960916008615D
:1067F40003685B1C0360704710B40B6813F1010F4E
:1068040001D1026907E010F1080254682468A34228
:1068140001D35268F9E754684C604C68A1608A60FF
:10682400516008610468641C046010BC7047010076
:1068340008698A684B689A604A688B685A6042683B
:106844008A4201D18A68426000220A610268521EAB
:10685400026000687047B1F5807F02D34FF0FF30CB
:1068640070470170012070470078401E8041C0438A
:10687400C00F7047001F5FF080730360001F4B0858
:106884005B000360001F0FF20D0303601438026005
:106894002038704780B58048006810F1010F0CD093
:1068A400502080F31188BFF34F8FBFF36F8FCB223B
:1068B4007A497B48FFF76EFFFEE7502080F311888A
:1068C400BFF34F8FBFF36F8FFEE71CB5754C207875
:1068D4000190FF20207020788DF800009DF80000C2
:1068E40010F05000704908707048072101609DF84D
:1068F4000010090608D50168491E01609DF80010C2
:1069040049008DF80010F2E70168D1F1070104296C
:106914000DD0502080F31188BFF34F8FBFF36F8FDA
:106924004FF482725D495E48FFF734FFFEE7016869
:10693400D1F1070104290DD0502080F31188BFF351
:106944004F8FBFF36F8F40F20D1254495448FFF735
:1069540021FFFEE7016809020160016811F4E061AA
:106964000160019820705248016851F4700101607F
:10697400016851F07041016000F0A2F8002046491E
:10698400086001F0C4FC002016BD80B5502080F3DF
:106994001188BFF34F8FBFF36F8F3F490A68521CB2
:1069A4000A600968012910D14249096809060CD016
:1069B40080F31188BFF34F8FBFF36F8F40F2431200
:1069C40036493748FFF7E6FEFEE701BD80B5324998
:1069D400086800280DD1502080F31188BFF34F8F31
:1069E400BFF36F8F4FF4A5722C492D48FFF7D2FEE9
:1069F400FEE70868401E08600868002802D10020ED
:106A040080F3118801BD80B5502080F31188BFF355
:106A14004F8FBFF36F8FFEF7ADFE002803D05FF0FA
:106A2400805024490860002080F3118801BD0000D3
:106A340038B5EFF30585102D17D31F480068405D66
:106A44000400200018490978C0B288420DD25020B1
:106A540080F31188BFF34F8FBFF36F8F40F28A2208
:106A64000E490F48FFF796FEFEE7104800681349E9
:106A7400096811F4E06188420DD2502080F3118836
:106A8400BFF34F8FBFF36F8F40F29B22034904483B
:106A9400FFF780FEFEE731BD000000202CDD00087A
:106AA40010DF000800E400E0F7890020848900205A
:106AB40020ED00E004ED00E0ECE100080CED00E066
:106AC4000548002101600021044A11600449054A77
:106AD400116007210160704710E000E018E000E059
:106AE400BFD4010014E000E01CB5002400F08FF9CD
:106AF400DFF86003006800280ED0DFF85C03019023
:106B04000220009000234FF41672DFF850130FF2A6
:106B14009900FEF78DFA0400002C0FD1502080F369
:106B24001188BFF34F8FBFF36F8F40F21912DFF854
:106B34003013DFF83003FFF72DFEFEE7200016BD0B
:106B440070B504000D0016002B003200A16949192C
:106B5400200000F094F8002805D0A0694519200011
:106B6400216A8847F0E770BD70B504000D00DFF8B6
:106B7400F8020068C068C668301DFFF758FE96F832
:106B84002800400705D52A0021003000FFF7D8FF70
:106B940005E096F8280010F0FE0086F82800300082
:106BA400316A884770BD000038B50400684600F0BB
:106BB40040F805000099280000F003F800F087F879
:106BC400F4E77CB505000C00FEF78BFC684600F08A
:106BD40043F806000098002828D1002C08D1AE42C2
:106BE40006D3FEF784FC31002800FFF7BDFF1FE049
:106BF400002C08D0DFF8740200680068002801D176
:106C0400012400E000242200A91B9248006802F03D
:106C1400E8F9FEF76CFC00280AD15FF08050944933
:106C24000860BFF34F8FBFF36F8F01E0FEF75FFC87
:106C340073BD01008C4A10680068002801D101204E
:106C440000E0002008600868002803D11068C068CC
:106C5400006800E00020704770B50400FEF7ECFC0B
:106C64000500844E3068854204D200F0BAF8012051
:106C7400206001E0002020603560280070BD2DE90F
:106C8400F04104000D0016001F005FF0000865606D
:106C94002461AE420CD3F01BA169884202D30120C7
:106CA400804611E0211D71480068FFF7A5FD0BE047
:106CB400BE4204D2BD4202D30120804604E0211D1D
:106CC40069480068FFF798FD4046BDE8F08138B593
:106CD40084B0002269465F48006801F0C3FD0028C3
:106CE4007DD000980028F4D402980400606900283C
:106CF40002D0201DFFF79BFD03A8FFF7ADFF0500A1
:106D0400009801280DD069D3032830D009D3052871
:106D140055D033D3072804D003D309282ED026D343
:106D24005CE094F8280050F0010084F82800019BEE
:106D34002A000199A06941182000FFF7A0FF00284C
:106D440014D094F82800400707D52A000199A069B7
:106D540041182000FFF7F4FE05E094F8280010F035
:106D6400FE0084F828002000216A8847B1E794F8DF
:106D7400280010F0FE0084F82800AAE794F8280000
:106D840050F0010084F828000198A061A06900284F
:106D94000DD1502080F31188BFF34F8FBFF36F8F55
:106DA40040F25E322E492F48FFF7F4FCFEE72B0039
:106DB4002A00A16949192000FFF761FF89E794F8C7
:106DC4002800800703D42000FFF70EFC05E094F8A8
:106DD400280010F0FE0084F828007AE779E705B06F
:106DE40030BD10B5204908680068002809D008683B
:106DF400C068006804005FF0FF312000FFF7B4FEB4
:106E0400F0E70868194A13680B60106010BD70B58C
:106E1400FFF7BBFD0F4C2068002818D1164D280041
:106E2400FFF7CCFC154E3000FFF7C8FC0E48056098
:106E34000E48066000220C21052001F0EEFA2060C5
:106E44002068002803D00E49206802F070F8FFF78C
:106E5400BDFD70BDDC890020E0890020D4E100087C
:106E640068DD00087CDF0008D4890020D889002070
:106E740004ED00E0E4890020048900201889002042
:106E8400DCE1000838B586B0042100226C462000FD
:106E9400FDF74CF91021002202AC2000FDF746F961
:106EA4000421002201AC2000FDF740F97C4C2000B5
:106EB40002F026F97B488188ADF8001003218DF893
:106EC400021018218DF803106946006802F072FA66
:106ED40075488188ADF8001004218DF803106946C7
:106EE400006802F067FA714DA888ADF80000102020
:106EF4008DF803006946286802F05CFAA8882968BE
:106F040048616B486B4908604FF490706A490860A7
:106F14006A48016851F001010160A8882968086184
:106F24004FF4165002900020ADF80C000020ADF88C
:106F34000E000020ADF810000020ADF814000C2065
:106F4400ADF8120002A9200002F022F9012120006C
:106F540002F094F9012240F22441200002F09DF94C
:106F640001224021200002F0D0F934208DF80400E1
:106F74000A208DF8050002208DF8060001208DF806
:106F8400070001A802F0D7FA07B030BD44490988C8
:106F94000906FBD50100C9B2494A1180704770B592
:106FA40004000D00002041498A8809680A6100260E
:106FB4003000290080B289B2884206D2300080B203
:106FC400205CFFF7E3FF761CF2E7354800884006B3
:106FD400FBD570BD10B50400200000F0C1F801001D
:106FE40089B22000FFF7DBFF0D20FFF7CFFF0A2057
:106FF400FFF7CCFF10BD70B58CB004000D00042168
:1070040000226E463000FDF791F82C21002201AEDB
:107014003000FDF78BF8294E300002F0D3FA2848EF
:107024000190029400200390049500200590802094
:1070340006900020079000200890002009904FF44B
:1070440040500A9000200B9001A9300002F032FB5E
:1070540001220221300002F04BFB1548154908605B
:1070640030684008400030603A208DF800000A2063
:107074008DF8010002208DF8020001208DF8030034
:10708400684602F058FA0CB070BD80B5FFF7FAFEFE
:107094004FF490710B48FFF7AEFF01BD00000000F4
:1070A400004C0040B4E10008BCE10008C4E1000861
:1070B4000002001004040240340402403004024080
:1070C400044C0040187F002011B581B00C00012150
:1070D40001A8FFF764FF019816BD38B584B0040019
:1070E4000D002000ADF808002800ADF804000020D1
:1070F400ADF80A000020ADF8060001A95FF0804059
:1071040002F01EFB012201215FF0804002F079FBB6
:107114001C208DF8000004208DF8010000208DF85B
:10712400020001208DF80300684602F004FA0121F0
:107134005FF0804002F056FB05B030BD80B577218A
:107144000920FFF7CAFF01BD5FEA000C11F8012B0B
:1071540000F8012B12B111F8012BF9E760467047D2
:1071640000F10103810704D010F8011B820781B1EB
:10717400FAD10268A2F10131914311F0803104BFC8
:1071840050F8042FF6E709BAB1FA81F100EBD10007
:10719400401CC01A70470268531C0360117070478A
:1071A4000CB430B583B00A4606A902910446002502
:1071B4000194009502AB01A9084878441E3000F000
:1071C4000FF8019A157000284EBF04460198041B5D
:1071D400204603B030BC5DF80CFB00BFBBFFFFFFD3
:1071E4002DE9F14FB2B09946924600230691CDE9BC
:1071F40000333C9A0F930DF14A0114914A7011E047
:10720400329E57462C4617F8011B0698B0470028B3
:10721400069000F026810F98401C641E0F90F2D156
:107224003296AA449AF80000252808D100210022A9
:1072340009910A920B910C920D910E920FE06A46FD
:107244004FF0FF31504602F039FB050002D10F9890
:1072540000F066BED4D50125E3E741F001011AF838
:10726400010F2028F9D023280CD02B2804D02D2856
:1072740005D0302809D00BE041F00201EFE741F0DE
:107284000401ECE741F00801E9E741F01001E6E709
:107294002A280FD1D9F8002052F8040BC9F800208D
:1072A4000028119003D54042119041F004010AF1E5
:1072B400010A14E01192DFF8EC3B0AE011989842BD
:1072C40005DA00EB800402EB4402303A11920AF131
:1072D400010A9AF80020A2F130000A28EED39AF8A5
:1072E40000002E2803D04FF0FF32109229E01AF844
:1072F400010F2A2809D1D9F8000050F8042BC9F845
:10730400000010920AF1010A1BE02D280CBF0AF1BB
:10731400010A002000221092DFF8882B0BE040B90C
:10732400109B934205DA03EB830504EB4504303CE0
:1073340010940AF1010A9AF80040A4F130030A2BD0
:10734400EDD3ADF848100FF660309AF8001002F053
:10735400BFFA08B11AF8010B8DF84A009DF84A00EB
:10736400682805D19AF8000068280CD1622106E04B
:107374006C2804BF9AF800006C2804D171218DF8A0
:107384004A100AF1010A1FA808901AF801BBBBF1C0
:1073940025012DD01C3900F06181091F022940F21A
:1073A4005D810E392AD0491F00F0B384093900F0F9
:1073B4005581891E00F04985491E00F0F584491E57
:1073C400022940F24B81091F00F0EE84491F00F0AE
:1073D400BA80491E00F09D84491E65D0C91E21D083
:1073E400891E00F09684C91E00F0938400F04CBD01
:1073F40025238DF87C30012109912AE06C208DF839
:107404004A00D9F8000050F8042BC9F80000002AFB
:1074140043D11499487800283DD04FF0FF340FF63B
:10742400902012E09DF84A006C28EAD0D9F80000B8
:1074340050F8044BC9F800000794D4B9149948785B
:1074440098B14FF0FF340FF6842002F04DFA201A61
:1074540007D132981FAA04A900F065FD00287FF522
:10746400E1AE4FF0FF3000F05BBD0FF67C200790DB
:10747400EFE7109D002D04D52046FFF771FE04466A
:1074840007E02A46204602F04FFA002814BF041BE6
:107494002C460A94DDE70FF65422329804A900F032
:1074A400C8FD0028D5D5DCE7D9F8001051F8040B45
:1074B400C9F8001020F00004002121F0FF351FABB3
:1074C400CDE904450793DDE9042308993C2413B965
:1074D4000AB9109898B102F00F053035641EEEB267
:1074E4003A2EA8BF2735120942EA03721B090D552B
:1074F40008BF002A03D007980D19A842EBD3081936
:107504000790C4F13C0210980A92824209DABDF84D
:107514004810821A4FF6EF7001400C92ADF84810F3
:1075240097E7002895D59DF8480000F0140010282E
:107534008FD1119B09990C985B1A1B1A9A1A002A6D
:1075440087DD0C9285E71499487820B14FF0FF3419
:107554000FF69C1079E79DF84A00622862D06828EB
:1075640019D06A2840D06C2806D071284DD07428D0
:107574002DD07A281ED064E0D9F8001051F8040BFD
:10758400C9F8001020B94FF0FF340FF67C105CE707
:107594000F9901605DE7D9F8001051F8040BC9F8A0
:1075A400001020B94FF0FF340FF65C104DE70F992F
:1075B40001804EE7D9F8001051F8040BC9F8001007
:1075C4000028E5D14FF0FF340FF63C103DE7D9F821
:1075D400001051F8040BC9F800100028D8D14FF05E
:1075E400FF340FF6241030E7D9F8001051F8040BDB
:1075F400C9F8001020B94FF0FF340FF60C1024E73F
:107604000F9AD317C0E9002323E7D9F8001051F8E3
:10761400040BC9F800100028F2D14FF0FF340FF624
:10762400E80012E7D9F8001051F8040BC9F800106B
:1076340020B94FF0FF340FF6D00006E70F99017020
:1076440007E7D9F8001051F8040BC9F80010002816
:107654009ED14FF0FF340FF6B000F6E6D9F80020C3
:10766400D21D22F00702C9F80020D2E90001083235
:10767400C9F80020CDE90401C80F02D009982D21D2
:107684000AE0BDF84800810702D509982B2103E0E0
:10769400C00705D5099820211FAA1154401C099040
:1076A400DDE9042309991FA8CDE92E2308444BF0F2
:1076B40020016129079015AC0BD01099002902D53F
:1076C4000621109105E001BF4BF02001672901223A
:1076D4001092DDE9042359004915491C10D11A03FD
:1076E4000ED0ABF1610503211A2D0A9102D20FF6D7
:1076F400A43101E00FF6A031032202F041F9A8E61B
:1077040059004915491C0AD11A0308D1ABF1610586
:1077140003211A2D0A9116D30FF68431ECE7DDE923
:107724000401CDE93001DDE9302323F00047B7F54A
:10773400801F22F000060DD20022002F08BF002E69
:10774400029203D116E00FF65431D5E702AA02F0F3
:107754006BF90FE0DFF8EC0ADFF8EC1A00EB1750D6
:107764000290DDE930234FF0FF301940DFF8DC7A76
:1077740010403943CDE904014BF0200061280DD1BC
:10778400079830210170821CBBF1610F07920CBF76
:107794007821582141700998801C0990DDE9040181
:1077A40020F0000231F0004308BF002A02D1002675
:1077B400002571E14BF02008B8F1610F40F0BE8064
:1077C4001098002847BF21210391401C0390039F78
:1077D400DDE92E017F1C00220023DDE9044502F0CF
:1077E4005BF902998DF8542038BF85F00045091FD4
:1077F400002F02910DF155065DDDDFF8541ACDE935
:10780400302140F2FF732E932046294600220023A4
:1078140002F05AF94FD24800400D00F11C0215D075
:10782400002A13DD2E9B9A420ADBDDE9300121F0A8
:10783400004205F000400243DDE93001114611E049
:107844006FF31E5141EA025120460BE024F0000080
:1078540035F0004108BF00280FBF29461C222946E5
:1078640002F04AF904460D4602F0E4F9FF1F002F26
:10787400804609DD02F0FCF902460B462046294603
:1078840002F008FA04460D46F01D0721B8F1000F76
:107894000CDD491E5EBF08F00F0200F8012D4FEA0F
:1078A4002818F3D502E0002200F8012D491EFAD56C
:1078B400C61D002FA8DC0DF15500361A0398864228
:1078C400D8BF304600280DF1550430D4B04206DA52
:1078D4000DF155010A5C082AA8BF0F2100DA002126
:1078E400024615AB134400E0401E13F80159521E22
:1078F4008D42F9D00F2904D10DF155018B5C5B1C2D
:107904008B54002A04D50299091D15AC401C029120
:10791400411E0CD46218ABF13A0613783033DDB251
:107924003A2DA8BFF318491E02F80139F5D510996C
:10793400002940F1AF80421E1092ABE00299DFF8BB
:10794400142947F29750414391FBF2F2DDE92E45A9
:10795400029225F00045D2F1070204DD20462946B3
:1079640000F04CFC0BE052420020DFF8EC1800F071
:1079740045FC02460B462046294602F0FDF9044622
:10798400B8F1660F109806BF029F0A3706273F1802
:10799400142FC8BF142730208DF854000D46002042
:1079A400DFF8B818CDE92E010DF15506002F33DDAF
:1079B4002046294602F004FB01460A4606F1080364
:1079C40004200A26B2FBF6F606EB860EA2EB4E0264
:1079D400303203F8012C0A22B6FBF2F202EB820EDB
:1079E400A6EB4E063036401E03F8026DE9D1083F7F
:1079F400002F03F10806D9DD084602F0F5FA024625
:107A04000B462046294602F045F9DDE92E2302F013
:107A1400F9FA04460D46CBE70DF15500361A0DF17F
:107A2400550404E00298401E761E0290641C2078DF
:107A34003028F7D0B8F1660F02D10299491C04E04E
:107A4400B8F1650F0CBF0121002110980818864277
:107A5400B8BF701E00281DD4B04204DA215C34295A
:107A6400C8BF392100DC30210246631E9D1800E0A6
:107A7400401E15F80169521E8E42F9D0392902D1EF
:107A8400A15C491CA154002A04D50299491C1C4636
:107A9400401C02910646029D01F014FF406A0778DB
:107AA400DDF8408030B2002802DC01260FF2F474C5
:107AB4004BF02000662808BF6D1C16D0672846D1FD
:107AC40028B210F1040F48DB404546DA9DF848001F
:107AD4006D1C010703D430B24045B8BF804628B2BC
:107AE400B8EB000848BF4FF000080FFA85FB079871
:107AF4000A99BBF1000F00F3B2804A1C0A923023AA
:107B04004354B8F1000F03DC9DF84800010704D585
:107B14000A98411C0A9107990F5418EB0B0FB8BF30
:107B2400C8F100052DB268420D90A84432B29045C8
:107B3400B8BF4646079B0A9836B20B963246214692
:107B4400184401F01DFFA8EB06000E90CBE0BBF13A
:107B5400610F17D14FF0700B19E030B2404504DAD1
:107B64009DF848100A0758BF8046B8F1010848BF7D
:107B74004FF00008BBF1670F14BF4FF0450B4FF0F7
:107B8400650B04E0BBF1410F08BF4FF0500B0A989E
:107B9400411C0A91B8F1000F079914F8012B0A54FB
:107BA40003DC9DF8480001071AD50A98411C0A9184
:107BB400B8F1000F07990F5412DD761E30B28045DC
:107BC40007980A9BB8BF464632B22146184401F0D2
:107BD400D7FE0A9936B271180A91A8EB06000D90E7
:107BE40007980A9908442AB2002A80F800B003D4FE
:107BF4002B224270811C04E02D2141701546811C0A
:107C04006D4200202EAA0A2409E02B4693FBF4F5CA
:107C140005EB8506A3EB460302F8013B401C2DB29D
:107C2400002DF2DC012806DC4BF02002652A04BF9B
:107C3400302201F8012B00282EAA08D1302001F8A7
:107C4400010B06E0401E135C303301F8013B0028B1
:107C5400F8DC079A0A981044091A0B9143E0084487
:107C640031B22AB2914219DA32B2214601F088FEC9
:107C74000A9936B27118ABEB0606B8F1000F0A91F7
:107C84000D9603DC9DF84800020704D50798475475
:107C94000B99491C0B91CDF8388024E0214601F062
:107CA4006FFE0A98761B5844B8F1000F0A9003DC63
:107CB4009DF848100A0703D5411C0A9107990F54EF
:107CC40030B2804507980A9BB8BF464632B204EBEF
:107CD4000B01184401F054FE0A9836B230180A9089
:107CE400A8EB06000D909DF8480000F01400102841
:107CF4007FF4AFAB099A0A990D988A180B998218E8
:107D04000E988A18821811988242BFF6A2AB821A82
:107D140017E49DF84A00622808D068280ED06A2823
:107D240014D06C281FD0712810D01CE0D9F8001092
:107D340051F8040BC9F80010C0B21AE0D9F80010C9
:107D440051F8040BC9F8001080B212E0D9F80020F1
:107D5400D21D22F00702C9F80020D2E9000108323E
:107D6400C9F8002006E0D9F8001051F8040BC9F84E
:107D740000100021CDE904019DF8480001075AD5FF
:107D8400DDE90423002B08BF002A54D04BF0200067
:107D9400782850D109981FA930220A54401C431C4A
:107DA400099301F800B046E09DF84A00622808D023
:107DB40068280ED06A2814D06C281FD0712810D0DF
:107DC4001CE0D9F8001051F8040BC9F8001040B2B7
:107DD4001AE0D9F8001051F8040BC9F8001000B2E9
:107DE40012E0D9F80020D21D22F00702C9F80020C1
:107DF400D2E900010832C9F8002006E0D9F80010E1
:107E040051F8040BC9F80010C117CDE90401002989
:107E140002D509982D210AE0BDF84800810702D552
:107E240009982B2103E0C00705D5099820211FAA32
:107E34001154401C09901FA809990144079104A8F2
:107E4400594600F056F9FFF704BB9DF84A006C2828
:107E54000BD001210991D9F8000050F8041BC9F88E
:107E640000008DF87C10FFF7F4BAD9F8000050F840
:107E7400041BC9F8000015914FF0FF321092002145
:107E8400169115AAFFF709BB25210122BBF1000FAA
:107E94008DF87C1009923FF4DCAA8DF87DB00221A4
:107EA400FFF7AABACBCCCC0C686A6C747A4C00008D
:107EB4007072696E74665F733A2062616420256C27
:107EC4007320617267756D656E7400007072696EFF
:107ED40074665F733A20626164202573206172675F
:107EE400756D656E74000000000000000000000065
:107EF4007072696E74665F733A20256E20646973CC
:107F0400616C6C6F776564007072696E74663A2098
:107F140062616420256E20617267756D656E740000
:107F240033B0BDE8F08F2DE9FC410F46064690467C
:107F34007A6B7869396ABC6A121AB869521A796A12
:107F4400121AF869521A121A97F83800141B4107CA
:107F54000FD42020002C8DF800000ADD25460123D3
:107F64006A463946304600F07DF900285DD16D1E21
:107F7400F5D17B6942463946304600F073F9002852
:107F840053D130208DF800003D6A002D09DD012316
:107F94006A463946304600F065F9002845D16D1E21
:107FA400F5D1BB69FA683946304600F05BF9002820
:107FB4003BD130208DF800007D6A002D08DD0123BF
:107FC4006A463946304600F04DF970BB6D1EF6D155
:107FD400F868B969FB6942183946304600F042F93D
:107FE40018BB30208DF80000BD6A002D08DD012388
:107FF4006A463946304600F035F9B0B96D1EF6D1FF
:1080040097F8380041070DD52020002C8DF800008A
:1080140008DD01236A463946304600F023F920B9C9
:10802400641EF6D10020BDE8F6814FF0FF30BDE8B4
:10803400F6812DE9F8470D46A3B02F6B002F824639
:10804400904648BF6FF0004702F0ADF8696B4018E6
:1080540001AA0021C2E90011812828BF4FF0FF3096
:1080640044D289461EE0A74230DB68692018812883
:108074000BD30021696303AA29465046FFF753FF37
:108084005FEA000922D40020686103AB6E692246CE
:108094006946981901F074FCA6196E6158F8040B2E
:1080A400A0B13F1B002F11DDD8F8001001AA6846CB
:1080B40001F006FC0446002C05D4D8F80000002882
:1080C400D1D1641ECFD54FF0FF390EE0B9F1000FC6
:1080D400504604D103AA2946FFF725FF8146B9F18A
:1080E400000F02D1002068616863484624B0BDE8EF
:1080F400F0872DE9FC4307466F293E6908BF082431
:1081040005D041F02000782814BF0A2410243C250F
:10811400D7E90023642918BF69299046994605D1F7
:10812400002B03D5D8F1000869EB4909B9F1000F18
:1081340008BFB8F1000F0CD1386B50B9082C39D1F5
:1081440097F83800010735D530203B2586F83B00E9
:1081540030E08DF80010404649462246E31702F00D
:1081640027F83032D0B26D1E3A28019504DB9DF811
:108174000000A0F151018A18725540464946224632
:10818400E31702F015F880465FEA010908BFB8F169
:10819400000F03D0F86871198842DCD3082C09D188
:1081A40097F83800010705D5705D302802D06D1EA0
:1081B40030207055C5F13C02BA617119F960386B11
:1081C400824208DA821A3A624FF6EF70398F014020
:1081D4003987BDE8F38300280ED597F8380000F0FE
:1081E4001400102808D17B6B7969386A5B1A1B1A52
:1081F4009A1A002AC8BF3A62BDE8F3832DE9D04336
:1082040006460F4614464FF00008DFF8549012E07B
:10821400E00707D542464B463046394601F0F2FEA8
:1082240006460F464046494642464B4601F0EAFEA2
:10823400641080468946002CEAD130463946BDE8B0
:10824400D083000002FCFFFFFFFF0F800000E03F2F
:108254000000F07FA08601000000F03F84D7974122
:1082640000002440F8B505460E4617461C4600207B
:108274005CB117F8011BB068A847B06030B1F06A70
:10828400401CF0620020641EF3D1F2BD4FF0FF30B9
:10829400F2BD00006E616E004E414E00696E6600D4
:1082A400494E460030002E00EFF30980BFF36F8F74
:1082B4001D4B1A6820E9F00F106008B54FF050000C
:1082C40080F31188BFF34F8FBFF36F8FFDF722FB4D
:1082D4004FF0000080F31188BDE808401968086871
:1082E400B0E8F00F80F30988BFF36F8F70470E4B2F
:1082F40019680868B0E8F00F80F30988BFF36F8F3E
:108304004FF0000080F311884EF00D0E70470748BF
:108314000068006880F3088862B661B6BFF34F8FC7
:10832400BFF36F8F00DF00009089002008ED00E0AC
:10833400F8B507000D0001263C00002C0FD1502099
:1083440080F31188BFF34F8FBFF36F8F4FF4977291
:10835400DFF85818DFF8E809FEF71CFAFEE7002CEE
:1083640045D0E06B002842D05FF0FF30E16BB0FBFA
:10837400F1F0216C88423AD3FEF707FB2168E26BE7
:10838400206C424301EB0200A0600020A06320683F
:1083940060602168E26B521E206C424301EB0200D4
:1083A400E0605FF0FF3084F8440084F84500002D5D
:1083B40012D12069002817D014F11000FDF758FBE2
:1083C400002811D05FF08050DFF878190860BFF3FF
:1083D4004F8FBFF36F8F07E014F11000FEF7EEF933
:1083E40014F12400FEF7EAF9FEF7F0FA01E00020A8
:1083F4000600002E0FD1502080F31188BFF34F8F59
:10840400BFF36F8F40F26312DFF8A017DFF8300973
:10841400FEF7C0F9FEE73000F2BD2DE9F843050090
:10842400884691460024002D20D05FF0FF30B0FB39
:10843400F5F040451AD308FB05F010F1540F15D29E
:1084440008FB05F0060016F15400FEF737F80400A7
:10845400002C1DD020005430070000944B46DBB2A2
:108464003A004146280000F016F811E0002C0FD124
:10847400502080F31188BFF34F8FBFF36F8F4FF4F9
:10848400F272DFF82817DFF8B808FEF783F9FEE781
:108494002000BDE8F2832DE9F04105000C00160030
:1084A4001F00DDF81880002C02D1C8F8008001E01C
:1084B400C8F80060C8F83C50C8F840400121404664
:1084C400FFF736FF88F850700020C8F84800BDE870
:1084D400F0812DE9F64782B081460D009A460024CA
:1084E4004E46002E0FD1502080F31188BFF34F8FDA
:1084F400BFF36F8F4FF45372DFF8B016DFF8400804
:10850400FEF748F9FEE7002D02D1306C002801D1B6
:10851400012000E00020C0B200280FD1502080F3D9
:108524001188BFF34F8FBFF36F8F40F24D32DFF8E6
:108534007C16DFF80C08FEF72DF9FEE7BAF1020FFE
:1085440002D1F06B012801D1012000E00020C0B26B
:1085540000280FD1502080F31188BFF34F8FBFF351
:108564006F8F40F24E32DFF84416DFF8D407FEF77F
:1085740011F9FEE7FDF799FC002802D103980028C1
:1085840001D1012000E00020C0B200280FD150200A
:1085940080F31188BFF34F8FBFF36F8F40F25132D6
:1085A400DFF80816DFF89807FEF7F4F8FEE7FEF7A1
:1085B400ECF9B06BF16B884202D3BAF1020F40D1EF
:1085C400B76B52462900300000F0E7FB8046B06CE0
:1085D400002813D0BAF1020F01D1002F2DD13000A1
:1085E40000F025FD002828D05FF08050DFF85417F4
:1085F4000860BFF34F8FBFF36F8F1EE0706A0028CF
:108604000FD016F12400FDF733FA002815D05FF0DF
:108614008050DFF830170860BFF34F8FBFF36F8FC0
:108624000BE0B8F1000F08D05FF08050DFF81417AA
:108634000860BFF34F8FBFF36F8FFEF7C7F90120B8
:1086440053E00398002803D1FEF7C0F900204CE062
:10865400002C04D16846FDF797FA01200400FEF7C8
:10866400B5F9FCF73EFFFEF790F996F9440010F1D6
:10867400010F02D1002086F8440096F9450010F15C
:10868400010F02D1002086F84500FEF79FF903A9E7
:108694006846FDF785FA002821D1300000F038FC47
:1086A400002816D0039916F11000FDF78BF930005D
:1086B40000F0DCFBFCF71BFF00287FF478AF5FF0D1
:1086C4008050DFF880160860BFF34F8FBFF36F8FC1
:1086D4006DE7300000F0CAFBFCF709FF67E73000E4
:1086E40000F0C4FBFCF703FF002004B0BDE8F087F2
:1086F4002DE9FE4F07000D00140098463E00002EA1
:108704000FD1502080F31188BFF34F8FBFF36F8FC9
:108714004FF48462DFF89414DFF82C06FEF73AF87D
:10872400FEE7002D02D1306C002801D1012000E0C9
:108734000020C0B200280FD1502080F31188BFF36D
:108744004F8FBFF36F8F40F22142DFF86014DFF8E0
:10875400F805FEF71FF8FEE7B8F1020F02D1F06B3F
:10876400012801D1012000E00020C0B200280FD16F
:10877400502080F31188BFF34F8FBFF36F8F40F207
:108784002242DFF82814DFF8C005FEF703F8FEE7FD
:10879400FEF74EF9EFF311895FF0500A8AF311885E
:1087A400BFF34F8FBFF36F8FB06BF16B884202D36F
:1087B400B8F1020F51D196F945008DF80000B06B65
:1087C400019042462900300000F0E7FA9DF90000CC
:1087D40010F1010F20D1B06C00280FD0B8F1020FB6
:1087E40002D10198002836D1300000F020FC002886
:1087F40031D0002C2FD0012020602CE0706A00289A
:1088040029D016F12400FDF733F9002823D0002CD9
:1088140021D0012020601EE0FCF712FF83469DF961
:108824000000584517D29DF900007F280ED18AF325
:108834001188BFF34F8FBFF36F8F40F2AB42DFF865
:108844006C13DFF80405FDF7A5FFFEE79DF80000B3
:10885400401C86F84500012000E0002089F31188BF
:10886400BDE8FE8F2DE9F64182B080460E0000245B
:108874004746002F0ED1502080F31188BFF34F8F4D
:10888400BFF36F8F40F26B52C849DFF8B404FDF7B1
:1088940081FFFEE7002E02D1386C002801D10120AF
:1088A40000E00020C0B200280ED1502080F31188CF
:1088B400BFF34F8FBFF36F8F40F26F52BB49DFF8A6
:1088C4008004FDF767FFFEE7FDF7EFFA002802D109
:1088D4000398002801D1012000E00020C0B2002844
:1088E4000ED1502080F31188BFF34F8FBFF36F8FE9
:1088F40040F27452AD49DFF84804FDF74BFFFEE740
:10890400FEF743F8BD6B002D1BD03100380000F09A
:1089140092FA681EB863386900280ED017F1100067
:10892400FDF7A6F8002808D05FF08050DFF8141493
:108934000860BFF34F8FBFF36F8FFEF747F8012036
:1089440057E00398002803D1FEF740F8002050E0D8
:10895400002C04D16846FDF717F901200400FEF746
:1089640035F8FCF7BEFDFEF710F897F9440010F156
:10897400010F02D1002087F8440097F9450010F157
:10898400010F02D1002087F84500FEF71FF803A964
:108994006846FDF705F9002820D1380000F0AAFA4E
:1089A400002815D0039917F12400FDF70BF83800BF
:1089B40000F05CFAFCF79BFD0028A1D15FF0805029
:1089C400DFF880130860BFF34F8FBFF36F8F97E713
:1089D400380000F04BFAFCF78AFD91E7380000F00C
:1089E40045FAFCF784FD380000F084FA002887D0AB
:1089F400002004B0BDE8F0812DE9F34182B0804647
:108A0400002446460027002E0DD1502080F3118803
:108A1400BFF34F8FBFF36F8F40F2FD526349C848D5
:108A2400FDF7B8FEFEE7306C00280DD0502080F32F
:108A34001188BFF34F8FBFF36F8F40F201625B4920
:108A4400BF48FDF7A7FEFEE7FDF72FFA002802D185
:108A54000398002801D1012000E00020C0B20028C2
:108A64000DD1502080F31188BFF34F8FBFF36F8F68
:108A740040F206624D49B248FDF78CFEFEE7FDF771
:108A840084FFB56B002D1CD0681EB06330680028CD
:108A940002D1FDF780FCB060306900280DD016F1DA
:108AA4001000FCF7E5FF002807D05FF08050A549CF
:108AB4000860BFF34F8FBFF36F8FFDF787FF01206F
:108AC40070E00398002803D1FDF780FF002069E0DF
:108AD400002C04D16846FDF757F801200400FDF787
:108AE40075FFFCF7FEFCFDF750FF96F9440010F10A
:108AF400010F02D1002086F8440096F9450010F1D8
:108B0400010F02D1002086F84500FDF75FFF03A99D
:108B14006846FDF745F800282AD1300000F0EAF94C
:108B240000281FD03068002807D1FDF72EFFB06859
:108B3400FDF7D2F90700FDF749FF039916F1240068
:108B4400FCF740FF300000F091F9FCF7D0FC00285E
:108B540095D15FF080507B490860BFF34F8FBFF31E
:108B64006F8F8CE7300000F081F9FCF7C0FC86E7DA
:108B7400300000F07BF9FCF7BAFC300000F0BAF9E1
:108B840000283FF47CAF002F0BD0FDF7FEFE300031
:108B940000F0F8F805002900B068FDF78DFAFDF73C
:108BA40015FF002004B0BDE8F0810000D4DD00080A
:108BB4002DE9F74380460E0000244746002F0ED1CE
:108BC400502080F31188BFF34F8FBFF36F8F40F2B3
:108BD400CD62DFF820155A48FDF7DCFDFEE7002ED4
:108BE40002D1386C002801D1012000E00020C0B27D
:108BF40000280ED1502080F31188BFF34F8FBFF3AC
:108C04006F8F40F2D162DFF8EC144D48FDF7C2FDDE
:108C1400FEE7FDF74AF9002802D10298002801D1A5
:108C2400012000E00020C0B200280ED1502080F3C3
:108C34001188BFF34F8FBFF36F8F40F2D662DFF816
:108C4400B4143F48FDF7A6FDFEE7FDF79EFEBD6B9D
:108C5400002D1CD0D7F80C903100380000F0EBF850
:108C6400C7F80C90786A00280DD017F12400FCF79F
:108C7400FFFE002807D05FF0805032490860BFF340
:108C84004F8FBFF36F8FFDF7A1FE012056E00298CE
:108C9400002803D1FDF79AFE00204FE0002C04D1F8
:108CA4006846FCF771FF01200400FDF78FFEFCF716
:108CB40018FCFDF76AFE97F9440010F1010F02D188
:108CC400002087F8440097F9450010F1010F02D104
:108CD400002087F84500FDF779FE02A96846FCF7F5
:108CE4005FFF00281FD1380000F004F9002814D0D9
:108CF400029917F12400FCF765FE380000F0B6F87D
:108D0400FCF7F5FB0028A0D15FF080500D49086006
:108D1400BFF34F8FBFF36F8F97E7380000F0A6F8CB
:108D2400FCF7E5FB91E7380000F0A0F8FCF7DFFB67
:108D3400380000F0DFF8002887D00020BDE8FE836B
:108D440034DF000804ED00E034DF000838B5050026
:108D54002C00002C0FD1502080F31188BFF34F8FCB
:108D6400BFF36F8F40F61F02DFF88813DFF8880324
:108D7400FDF710FDFEE7200000F00DF92000FDF7DF
:108D840033FC31BD0100486A002804D0086B006838
:108D9400D0F11F0000E0002070472DE9F84F0600D5
:108DA4000F0014005FF00008B56B306C002809D187
:108DB400306800283AD1B068FDF700F980460020F9
:108DC400B06033E0002C14D1D6F84090BA46D6F8FF
:108DD40004B04A465146584600F0D2FD7068316CE2
:108DE400084470607068B16888421FD3306870604E
:108DF4001CE0D6F84090BA46D6F80CB04A46514624
:108E0400584600F0BDFDF068316C49420844F060FA
:108E1400F0683168884204D2B068316C4942084431
:108E2400F060022C02D1002D00D06D1E681CB063CE
:108E34004046BDE8F28F2DE9F04104000D00206C9E
:108E4400002811D0E068216C0844E060E068A16863
:108E5400884201D32068E060266CE768A8463200A7
:108E64003900404600F08CFDBDE8F081F8B50400FF
:108E7400FDF78BFD94F94550280040B2012819DB19
:108E8400A06C002807D0200000F0D1F800280FD0F3
:108E9400FCF7EBFE0CE0606A002808D014F1240013
:108EA400FCF7E6FD002803D0FCF7DFFE00E001E05C
:108EB4006D1EE1E75FF0FF3684F84560FDF786FD3F
:108EC400FDF763FD94F94470380040B201280CDBCF
:108ED4002069002809D014F11000FCF7C9FD00280E
:108EE40001D0FCF7C2FE7F1EEEE784F84460FDF774
:108EF4006DFDF1BD38B50400FDF747FDA06B0028FA
:108F040001D1012500E00025FDF760FD280032BDF8
:108F140038B50400FDF739FDA06BE16B884201D13F
:108F2400012500E00025FDF751FD280032BDF8B50C
:108F340005000E000024002D0DD1502080F311886F
:108F4400BFF34F8FBFF36F8F40F6D82269496A4849
:108F5400FDF720FCFEE7002E18D000200700082FA4
:108F640014D2664901EBC7004068854203D101EB86
:108F7400C70004000AE0002C06D151F8370000288D
:108F840002D101EBC70004007F1CE8E7002C01D0EC
:108F940026606560F1BD10B50400002C0DD1502091
:108FA40080F31188BFF34F8FBFF36F8F40F62432E5
:108FB40050495148FDF7EEFBFEE7002008280FD288
:108FC4004E4901EBC0025268A24207D1002241F887
:108FD4003020002201EBC0014A6001E0401CEDE7B3
:108FE40010BDF8B504000D0016002700FDF7CDFCF8
:108FF40097F9440010F1010F02D1002087F84400D2
:1090040097F9450010F1010F02D1002087F84500BF
:10901400FDF7DCFCB86B002805D13200290017F1FC
:109024002400FCF7F1FC3800FFF720FFF1BDF1B597
:109034000098846C0025002C0DD1502080F31188F9
:10904400BFF34F8FBFF36F8F40F6E33229492A48AD
:10905400FDF7A0FBFEE7A06BE16B88420DD3502027
:1090640080F31188BFF34F8FBFF36F8F40F6E43264
:1090740020492148FDF78EFBFEE7A06BE16B884297
:1090840035D294F94560002269462000FFF785FE39
:10909400050030005FF0FF3140B288420BD1606AB6
:1090A400002824D014F12400FCF7E2FC00281ED090
:1090B400012005001BE0FCF7C3FA0700300040B2B2
:1090C400B84214D2300040B27F280DD1502080F332
:1090D4001188BFF34F8FBFF36F8F40F604420549E9
:1090E4000548FDF757FBFEE7761C84F84560280029
:1090F400F2BD0000D4DD000834DF0008048800203D
:1091040010B50400584884420AD101214FF480402C
:1091140001F09AFA00214FF4804001F095FA36E00C
:10912400524884420AD101215FF4003001F09AFAD6
:1091340000215FF4003001F095FA28E04C488442A5
:109144000AD101215FF4802001F08CFA00215FF440
:10915400802001F087FA1AE0464884420AD10121AE
:109164005FF4002001F07EFA00215FF4002001F09A
:1091740079FA0CE04048844209D101215FF480105F
:1091840001F070FA00215FF4801001F06BFA10BD59
:109194002DE9F84F86B004000D00002600275FF08B
:1091A40000085FF000095FF0000AA8890028A346C0
:1091B400218A4CF6FF700140E88801430091009831
:1091C4002082A1894EF6F3100140AA88288902431F
:1091D40068890243114300910098A081A18A4FF647
:1091E400FF400140A889014300910098A08201A892
:1091F40001F094F91C48834501D1049900E00399D6
:10920400A089000407D5192000FB01F02A68520048
:10921400B0FBF2F206E0192000FB01F02A6892008C
:10922400B0FBF2F26420B2FBF0F6360133001B0906
:10923400642000FB1323A089000408D5D800323031
:109244006427B0FBF7F010F00700064307E01801AD
:1092540032306427B0FBF7F010F00F00064326818C
:1092640007B0BDE8F08F0000003801400044004022
:1092740000480040004C0040005000400A00D2B2B8
:10928400002A04D0828952F40052828104E0838946
:109294004DF6FF721340838170472DE9F04100239E
:1092A400002500275FF0000E0C0040F66A16A4B2F9
:1092B400B44280460C00E4B26409E4B20E00B6B2D3
:1092C40016F01F065FF0010C1CFA06FC012C02D1FB
:1092D40018F10C0806E0022C02D118F1100801E084
:1092E40018F114081300DBB2002B06D0D8F80030B4
:1092F4005CEA0303C8F8003005E0D8F8003033EA2C
:109304000C03C8F80030BDE8F0811300DBB2002B79
:1093140003D0838A0B43838202E0838A8B43838254
:109324007047F0B4040000270020002200260B0040
:1093340040F66A159BB2AB420D00EDB26D09EDB279
:109344000B009BB213F01F035FF0010C1CFA03F334
:10935400012D02D1A089034006E0022D02D1208A0A
:10936400034001E0A08A03400A0092B2120A92B2BA
:109374001CFA02F220880240002B03D0002A01D0FC
:10938400012000E00020C0B2F0BC704770B400229D
:1093940000240B0040F66A159BB2AB420B009BB253
:1093A4001B0A01259D402E00B6B2F643068070BC10
:1093B40070474300F0B50022002300240025002656
:1093C400002791F803C01CF00F0C91F803E05FEA4A
:1093D400CE6E02D58A7852EA0C0C0A7812062AD08C
:1093E4000268160000221400082C23D25FF0010E3C
:1093F4001EFA04F215000A882A401300AB4217D162
:10940400A20015000F22AA401700BE431CFA05F261
:109414001643CA78282A04D11EFA04FEC0F814E0C0
:1094240006E0CA78482A03D11EFA04FEC0F810E008
:10943400641CD9E706600A88B2F5807F2EDB426897
:10944400160000221400082C27D25FF0010E14F13C
:1094540008021EFA02F215000A882A401300AB42E1
:1094640019D1A20015000F22AA401700BE431CFA0E
:1094740005F21643CA78282A04D114F108021EFA08
:1094840002F24261CA78482A05D114F108021EFA90
:1094940002FEC0F810E0641CD5E74660F0BDF0B4ED
:1094A4000022002300250027002802D51D4C246833
:1094B40001E01D4C2468C0F3034586B210F4401C3F
:1094C400BCF5401F07D134F07064174A176837F0B1
:1094D4007067176011E0C20206D50322AA40130088
:1094E4009C4354F0706408E00200520DD2B21201A1
:1094F40016FA02F2944354F070640A00D2B2002ABD
:1095040006D00200520DD2B2120116FA02F214432E
:10951400002802D5034A146001E0034A1460F0BC39
:10952400704700001C000140040001401E49014333
:109534001E4A11607047F0B4002200230F24C17842
:1095440000291FD01949096811F4E061D1F5E061DF
:10955400090AD1F104052B00CC4045789D4086785A
:10956400264035432D012A00114D0678AA550125C0
:10957400067816F01F06B5400E4E07787F1146F8A0
:10958400275009E00121057815F01F05A9400A4D6F
:109594000678761145F82610F0BC7047074A0A4051
:1095A4000243074B1A6070470000FA050CED00E017
:1095B40000E400E000E100E080E100E080FFFF1F44
:1095C40008ED00E0016849084900016000210160DC
:1095D40000214160002181600021C1604A49884224
:1095E40005D14A490A6852F00F020A6061E048490D
:1095F400884205D145490A6852F0F0020A6058E0F1
:109604004449884205D141490A6852F470620A60AB
:109614004FE04149884205D13C490A6852F47042FE
:109624000A6046E03D49884205D138490A6852F447
:1096340070220A603DE03A49884205D133490A68FC
:1096440052F470020A6034E03649884205D12F4949
:109654000A6852F070620A602BE03349884205D1EF
:1096640032490A6852F00F020A6022E03049884207
:1096740005D12E490A6852F0F0020A6019E02D491A
:10968400884205D129490A6852F470620A6010E0E0
:109694002949884205D125490A6852F470420A6072
:1096A40007E02649884204D120490A6852F470220E
:1096B4000A60704730B4002304686FF30E148D6899
:1096C4000A6A15430A6915434A6915438A691543A9
:1096D400CA6915434A6A15438A6A15432C430460D0
:1096E400CA6842600A6882604A68C26030BC7047D7
:1096F4001300DBB2002B03D003680B43036002E0CA
:1097040003688B4303607047080002400400024072
:109714001C00024030000240440002405800024055
:109724006C0002408000024008040240040402402D
:109734001C04024030040240440402405804024025
:1097440010B4002204881D4B98420ED0214A904246
:109754000BD0B0F1804F08D0194A904205D0194A75
:10976400904202D0184A904204D14FF68F721440AE
:109774004A881443154A904207D0154A904204D0AF
:109784004FF6FF421440CA88144304808A888285B5
:109794000A88028598420BD00E4A904208D00E4A9D
:1097A400904205D00D4A904202D00D4A904201D118
:1097B4000A7A02860122828210BC7047002C014082
:1097C4000004004000080040000C0040001000406D
:1097D40000140040003401400040014000440140B6
:1097E400004801400A00D2B2002A04D0028852F094
:1097F4000102028004E003884FF6FE7213400380E6
:1098040070471300DBB2002B03D083890B438381A1
:1098140002E083898B4383817047F0B40200002304
:1098240000260024178A0F4095890D40380080B225
:10983400002805D0280080B2002801D0012000E0D3
:109844000020C0B2F0BC70470A0092B2D243028238
:10985400704700001C48704770B45368D41801E086
:109864005B1C491E042B08DA00291FBF057804F885
:10987400015B10F8016B002EF2D1536070BC70478D
:1098840038B514461D4661B1FFF7E6FF61686A6B9F
:10989400204690476FF00102811A02D0491E01D080
:1098A40001E003E005E00021616032BD6FF00100DA
:1098B40032BD4FF0FF3032BDDA6B1047024BDFE7A9
:1098C400014BF9E7014870475C00002024000020A8
:1098D400C9B202788A421AB11CBF10F8012FF9E705
:1098E40018BF00207047000080B500B906A00549E4
:1098F4000B681BB122220021984701E000F00CFF05
:10990400222002BDE8890020636F6E73747261695E
:109914006E742068616E646C65723A2062616420C2
:109924006D65737361676500C9B2830706D0521E03
:1099340022D310F8013B9942F7D11FE0083A13D320
:1099440002F1040241EA012141EA014150F8043BD9
:10995400121F21BF4B40A3F1013C2CEA030C1CF065
:10996400803FF3D0C9B2001F083210F8013B521EE9
:1099740028BF91EA030FF8D818BF0120401E704792
:1099840062B38B0708D0521E11F8013B00F8013B6B
:1099940000F024808B07F6D1830740F0208000BFBD
:1099A400103A07D330B4B1E83810103AA0E83810B0
:1099B400F9D230BC530724BFB1E80810A0E808105E
:1099C40044BF51F8043B40F8043BD20724BF31F8AC
:1099D400022B20F8022B44BF0B7803707047121F30
:1099E40017D35B0009D151F8043B20F8023B1B0C50
:1099F400121F20F8023BF6D20BE051F8043B00F8AA
:109A0400013B1B0A20F8023B1B0C121F00F8013B10
:109A1400F3D238BF121D521E24BF11F8013B00F8C7
:109A2400013BF8D87047000010B5144600F002F866
:109A3400226010BDC1F30A5343B14A0012F5001F5E
:109A440028D2A3F2FE32A1EB0251704750EA410C36
:109A540020D001F0004C31EA0C01B1FA81F204BFCC
:109A6400B0FA80F3D2180B3AB2F120032CBF00FAFB
:109A740003F1914041EA0C013EBFC2F1200C20FAEF
:109A84000CF319439040524240F2FD33D21A01EBD9
:109A940003517047002270474FF4001C1CEB410F28
:109AA40094BF1CEB430F09E041EA030C50EA4C0C51
:109AB40052EA0C0C03D2994208BF9042704714BF7B
:109AC4008B428242704700004FF4001C1CEB410F94
:109AD40094BF1CEB430F09E041EA030C50EA4C0C21
:109AE40052EA0C0C03D28B4208BF8242704714BF67
:109AF4009942904270470000124254D440F2FF7CD5
:109B04001CEA11530FD0634531D09B1863453CBF09
:109B140001EB0251704701F0004141EA0C51002071
:109B2400AFF30080704750EA410320D001F0004CAD
:109B340091EA0C011CD0B1FA81F30B3B9A420DD986
:109B4400D21A994051EA0C01C3F1200C20FA0CFC02
:109B540061449840531C40F2FF7CD7E7914041EAAE
:109B64000C01C2F1200C20FA0CF319439040704709
:109B7400B0FA80F31533202BE0D3202AEED3203A19
:109B8400203B9A4209D9D21A00FA03F141EA0C01A6
:109B94000020531C40F2FF7CB8E700FA02F141EACE
:109BA4000C0100207047524240F2FF7C1CEA115322
:109BB4000DD06345DBD0B2EB030C3CBFA1EB0251EB
:109BC40070470CF1010221EA035141F4801150EA7B
:109BD400410CCCD001F0004C352A27DC30B481EAAA
:109BE4000C01B2F1200309DAC2F12003044601FAA0
:109BF40003F5D0402843D1409C400CE0C3F120023F
:109C0400450020FA03F418BF44F0010421FA03F0DC
:109C140091400C43002174F1004550F1000051EBD8
:109C24000C01244230BC7FF47BAF704761460020B6
:109C340076E70000C1F30A5340F2FE329B1A14DDAA
:109C4400D3F120034FEAE17208DDC90241EA505121
:109C540041F00040D84080185040704703F2E13092
:109C640010B1D24382F000407047002070470000DA
:109C7400C11768B14840401AB0FA80F29040D21C33
:109C8400C907C2F5846241EA025202EBD0214005C1
:109C94007047000070B44FF0004591EA030F40F1A3
:109CA4003F856B40841A71EB030603D2001BB1415C
:109CB400121973414FF4001C1CEB410F34BF7CEBB1
:109CC400430442E00C0DA4EB1356352E4FDC45EA59
:109CD400C323DB0A45EAC121C912B6F120050DDD13
:109CE40063FA05F6EB4086EA0305124218BF45F015
:109CF4000105C01851F100010CD213E062FA06F517
:109D0400F2405540F3415A40B340F3405A40801862
:109D1400594107D349085FEA30005FEA350528BF97
:109D240045F0010501F58011420875F1004250F13A
:109D3400000041EB04514E0016F5001F70BC38BF03
:109D440070470020090D090570471CEB410F10D224
:109D540052EA43060BD0BCEB410F05D80C0DAB43C4
:109D6400661E342EB6DD02E0AB438018594170BC48
:109D7400704770BC70470000F0B540F2FF7581EA8F
:109D8400030C0CF0004C15EA11541DBF15EA1357CF
:109D9400AC42AF42E5E0BC41C1F31301C3F313038A
:109DA400801A994143F4801304D2641E400049414F
:109DB40080185941C90241EA5051B1FBF3F603FB43
:109DC4001611A2FB0675D7EBC020A94102D2761E5C
:109DD40080185941C90241EA5051B1FBF3FE03FB1B
:109DE4001E11A2FB0E75D7EBC020A94103D2AEF120
:109DF400010E80185941890241EA9051760546EADC
:109E04008E2EB1FBF3F603FB1611A2FB0675D7EBFE
:109E14008020A94102D2761E80185941C90241EA24
:109E240050514EEA060EB1FBF3F603FB1611A2FBEA
:109E34000675D7EBC020A94102D2761E801859417D
:109E4400C90241EA5051B1FBF3F703FB1711A2FB1E
:109E54000735D3EBC020A94167F100070CBF0042CE
:109E640047F0010766F3D5274FEA1E31B80814F509
:109E7400806412DDBD0775F1004250EB0E5051EBCA
:109E8400045111F5801F5CBF41EA0C01F0BD4CF098
:109E94007F6141F0E0410020F0BDBD076D0840EA5C
:109EA4000E5041F48011D4F10104B4F120060ADA11
:109EB400C4F120060200E04001FA06F3E140184331
:109EC400B24015430EE0342C13DCC6F1200445EAFD
:109ED40040056D0820FA06F2154321FA06F0A14068
:109EE4000D43002175F1004250F1000051EB0C01CB
:109EF400F0BD00205FEA0C01F0BDCFB992185B41C0
:109F0400B3FA83F704BFB2FA82F6BF190B3FB7F175
:109F140020062FBF02FA06F3BB40C7F1200622FA3F
:109F240006F638BF3343BA401CB1E419641E33E764
:109F34007F4231F00041B1FA81F404BFB0FA80F6F7
:109F4400A4190B3CB4F120062FBF00FA06F1A1407E
:109F5400C4F1200620FA06F638BF3143A0403C1B6A
:109F64001AE7AC421ABF05EA1357AF4212E050EAAF
:109F740041061CBF52EA4306BFE750EA4107304698
:109F840061461CBF41EA0551F0BD52EA430C08BFCB
:109F9400C143F0BD00204FF4001616EB410F98BFEB
:109FA40016EB430F08BF16EB410F24BFC14305E076
:109FB40016EB430F0CBF61464CEA0551F0BD00009F
:109FC400400D491840EA81200CD2490DA1F5806169
:109FD400491C40F0004005DBD1F11F0154BFC840CB
:109FE400C017704700207047014648B1B0FA80F1AD
:109FF4008840C91CC1F58461090501EBD0214005E5
:10A0040070470000B0B581EA030C0CF0004C40F23C
:10A01400FF7515EA11541DBF15EA1357AC42AF4240
:10A0240039E0E41923EA455343F48013C90241F0AB
:10A03400004141EA505EC7021100A7FB020200285A
:10A044004FF00000EEFB01204FF00001E3FB07217D
:10A0540018BF42F00102401800214941E3FB0E0100
:10A06400A4F580640F0302D252004041494154F1E7
:10A0740001046CDD470872F1004250F1000051EB1D
:10A084000451A1F580115CBF41EA0C01B0BD4CEA5A
:10A0940005510020B0BD05EA1357AC4214BFAF42CE
:10A0A40041E050EA410E1CBF52EA430E02E0614611
:10A0B4000020B0BD24423C441BD15FEA070EF6D019
:10A0C400090302BF01460020AEF1140EB1FA81F774
:10A0D400AEEB070401FA07FE0C37C7F1200100FAC2
:10A0E40007F7C8404EEA000E23EA455343F48013B1
:10A0F400A2E733F00043B3FA83F704BFB2FA82FE57
:10A1040077440B3FE41BB7F1200E2FBF02FA0EF386
:10A11400BB40C7F1200E22FA0EFE38BF43EA0E03FD
:10A12400BA40641C82E750EA410E14BF52EA430E5F
:10A134006FF000014FF4001717EB430F8ABF194665
:10A1440017EB410FB5E74CEA05510020B0BDD4F13F
:10A154000104B4F120070FDAC4F12007520828BF24
:10A1640042F0010210FA07F501FA07F7E1BF2A43AA
:10A17400E0403843E1400FE0352C98DCC7F120047F
:10A1840052EA400220FA07F218BF42F0010231FA03
:10A1940007F0A1400A43002172F1004250F100008F
:10A1A40051EB0C01B0BD80B5FFF754FB006C02BD50
:10A1B400BBBBE1B1B2F5803F80F07E80022A1ED99C
:10A1C4008C46B1FBF2F102FB11C31B0443EA1043BA
:10A1D400B3FBF2FC02FB1C3380B240EA0343B3FB43
:10A1E400F2F002FB103240EA0C4000237047022ACE
:10A1F40005D98446B0FBF2F002FB10C270474AB1A5
:10A2040005D100F0010249085FEA300070470022DE
:10A214000023704700F03ABB0B000200002100202D
:10A224007047904271EB030CF6D3B3F5803F2FD205
:10A23400F0B5B3FA83F7B1FA81F4A7F10F0E3D1B21
:10A244005340CEF1200602FA0EF2F3415340B5F129
:10A254000F0746D80F3C2C444140C4F12006A040CF
:10A26400F1414140B1FBF3F603FB1611A2FB064595
:10A27400001BA94102D2761E8018594180EA0102CE
:10A2840021FA0EF362FA0EF200215A403046F0BD74
:10A2940030B4B1FBF3FC03FB1C11A2FB0C45001B07
:10A2A400A94103D2ACF1010C8018594130BC0246DB
:10A2B4000B46604600217047B2F1807F65D3F0B54C
:10A2C400B2FA82F7B1FA81F4C7F10F063D1B22FA04
:10A2D40006F307F1110EF24120355A40B5F10F078C
:10A2E400B8D94140C4F12006A040F1414140B1FB3E
:10A2F400F3FC03FB1C11A2FB0C45001BA94103D278
:10A30400BCF1010C801859410F2F12D30F3FC90320
:10A3140041EA5041B1FBF3F603FB1611A2FB0645DB
:10A32400D4EBC030A94102D2761E8018594146EAC6
:10A33400CC3C07B34140C7F12006B840F14141404D
:10A34400B1FBF3F603FB1611A2FB0645001BA94162
:10A3540002D2761E8018594180EA010221FA0EF3D6
:10A36400C7F1200462FA0EF20CFA07F05A402CFAF4
:10A3740004F13043F0BD80EA010221FA0EF300211A
:10A3840062FA0EF260465A40F0BD8C46B1FBF2F11F
:10A3940002FB11C31B0243EA1063B3FBF2FC02FB92
:10A3A4001C331B024CEA002043EA1063B3FBF2FCAB
:10A3B40002FB1C331B024CEA002043EA1063B3FB8C
:10A3C400F2FC02FB1C331B024CEA002043EA10633C
:10A3D400B3FBF2FC02FB1C324CEA00200023704762
:10A3E400DFF8E412086850F001000860DFF8DC22AE
:10A3F4001368DFF8DC02034013600B68DFF8D40253
:10A4040003400B60086830F480200860106830F462
:10A41400FE0010605FF41F00DFF8BC120860704794
:10A42400DFF8A4120A6832F480320A600A6832F44F
:10A4340080220A600200B2F5803F03D0B2F5802F7B
:10A4440005D009E00A6852F480320A6004E00A6820
:10A4540052F4A0220A60FFE7704738B5002000904C
:10A4640000240025312000F00BF905000098401C61
:10A47400009000984FF6FF71884203D02800C0B2C4
:10A484000028EFD0312000F0FBF8002801D0012093
:10A4940000E00020C0B232BD30B400238B4D2C68E4
:10A4A40034F47C1451EA000214432C6030BC70472D
:10A4B4000100C9B2894A116070470021834B1A68B0
:10A4C4009208920002431A6070478048006810F0B6
:10A4D4000C00704700217D4B1A6832F0F0020243F1
:10A4E4001A6070470021794B1A6832F4E062024323
:10A4F4001A6070470021754B1A6832F4605252EAB0
:10A50400C0021A60704776490860704700216F4B9B
:10A514001A6832F4404202431A6070472DE9F04F42
:10A5240001000022002500200026684FD7F800C053
:10A534001CF00C0C6346002B04D0042B05D0082B14
:10A5440006D023E0684A0A6022E0684A0A601FE0F5
:10A554003A6812F470123B6813F480331800920CBA
:10A56400921C1500002804D1614A02FB05F20A601E
:10A574000BE03A68920304D55E4A02FB05F20A60D6
:10A5840003E05A4A02FB05F20A6001E0564A0A60F7
:10A594003C6814F0F0042409DFF85C9119F804E035
:10A5A4000A6832FA0EF24A603B6813F4E0631B0A4D
:10A5B40019F803804A6832FA08F28A603A6812F499
:10A5C4006052D20A19F80290D1F804A03AFA09FAB2
:10A5D400C1F80CA03F6817F44047BF0BDFF81CA17B
:10A5E4001AF807A0D1F80CB0BBFBFAFBC1F810B005
:10A5F400BDE8F08F0A00D2B2002A04D0404A1368A2
:10A604000343136003E03E4A1368834313607047B7
:10A614000A00D2B2002A04D03A4A136803431360F2
:10A6240003E0384A13688343136070470A00D2B2C8
:10A63400002A04D0344A13680343136003E0324A07
:10A6440013688343136070470A00D2B2002A04D00F
:10A654002E4A13680343136003E02C4A13688343B0
:10A66400136070470A00D2B2002A04D0284A136843
:10A674000343136003E0264A13688343136070475F
:10A6840030B401000020002300250A00D2B2520990
:10A69400D2B2012A02D10C48046806E0022A02D18F
:10A6A4001048046801E01B4804680B00DBB213F097
:10A6B4001F032000D840C00701D5012000E000207E
:10A6C400C0B230BC704700000010024004100240C9
:10A6D4000000FFF8FFFFF6FE08100240600042424F
:10A6E400D80042422010024000127A00001BB7003A
:10A6F40000093D00808D5B00040000201400002050
:10A7040014100240181002401C1002400C100240A9
:10A714001010024024100240012000F0B9B80000DB
:10A72400841A71EB030604D26E40001BB141121966
:10A7340073414FF4001C1CEB410F34BF7CEB430608
:10A7440083E00C0DA4EB1356362E00F37C80012E0F
:10A7540045EAC32341DC43EA525312BFD2029202B8
:10A764005B08240545EAC12141EA5051D2EBC020DF
:10A77400994125D407D1B0FA80F610FA06F162D0D7
:10A784000020203608E0B1FA81F6B140C6F120027B
:10A7940020FA02F21143B0404FEAF474B4EB465489
:10A7A40034F001064FEA74040AD8D6F50016760D83
:10A7B40004F00044F04061FA06F25040F140484091
:10A7C400C00A40EA415021F0004128BF5FEA500529
:10A7D40050F1000044EBD12135E0DB0A45EAC12108
:10A7E400C90AB6F120050EDD42EA0242120CC5F197
:10A7F400200603FA06F6EB4042EA06056D4298414C
:10A8040061F100010DE062FA06F5F240554063FA89
:10A8140006FC82EA0C02F3405A406D42904161EB1F
:10A82400030111F4801F05D1641E620502D06D007E
:10A834004041494121F48011430875F1004350F12E
:10A84400000041EB045170BC70471CEB410F15D262
:10A8540023F0004352EA43060BD04FEA4C0CBCEB06
:10A86400410F04D80C0D661E342EB7DDEBE7801AB9
:10A87400994150EA410608BF0021E4E708BF1CEBF8
:10A88400430F28BF6FF00001DDE7000070470000B0
:10A8940080B5AFF30080024A11001820ABBEFBE77D
:10A8A4002600020080B501F034F9002800D000BF72
:10A8B40001BDF8B5B0240025DFF8246A37002A006A
:10A8C40021003800F9F732FC012030700520307186
