:020000040800F2
:10000000A0270020CD240008A5220008A722000870
:10001000A9220008AB220008AD2200080000000061
:10002000000000000000000000000000AF220008F7
:10003000B122000800000000B3220008B522000829
:100040002D25000831250008352500083925000830
:100050003D250008412500084525000849250008E0
:100060004D25000851250008552500085925000890
:100070005D25000861250008652500086925000840
:100080006D250008712500087525000879250008F0
:10009000452300087D2500088125000885250008E6
:1000A000892500088D250008912500089525000860
:1000B000992500089D250008A1250008A525000810
:1000C000A9250008AD250008B1250008B5250008C0
:1000D000B9250008F7220008BD250008C125000841
:1000E000C5250008C9250008CD2500084FF460513A
:1000F0004843401C0100481E0029FBD1704710B541
:1001000000F022FB5FF4803000F03EFB00F059FB72
:1001100004002000C0B201282AD1002000F08EFB8C
:10012000002000F09BFB4FF4806000F08FFB00206C
:1001300000F0A0FB002000F09AFB022000F090FCF1
:10014000102000F096FC5FF480115FF4803000F026
:1001500057FB012000F060FB392000F037FC00283D
:10016000FAD0022000F05DFB00F063FB0828FBD111
:1001700010BD10B504002100C9B244F20D0000F01A
:10018000EDFB2100C9B2DFF8680500F0F5FB10BDFA
:1001900080B500215FF0006000F062FD4FF4A060C8
:1001A00000F026FD01BD1CB5042100226C46200094
:1001B00000F07AFD0121DFF83C0500F03AFE102046
:1001C0008DF8030003208DF80200DFF82C058188EC
:1001D000ADF800106946006800F0B6FDDFF81C05B8
:1001E0008188ADF800106946006800F0ADFD13BDD0
:1001F000F8B5FFF784FFFFF7CBFF0120FFF7B9FF4A
:1002000072B6FFF7D0FFDFF8F044A088216848619C
:10021000DFF8E854A888296848610A20FFF766FFDC
:1002200000F04EFE00F060FF45F25556DFF8D07446
:100230003888B0420BD100F0F1F800281CD14AF602
:10024000AA2038800120B8800220788014E0388805
:100250004FF6FF7188420FD14AF6AA20388001205C
:10026000B8800220788000F0D9F8012804D100F08D
:10027000BBF8002800D13E805FF4E13001F00CF8BB
:1002800001F064F80021012001F071F801F0E0F8BC
:10029000A08821680861A888296808613888B04268
:1002A00004D10120DFF85C14086003E04020DFF88F
:1002B0005414086062B6F1BDDFF84804017889077C
:1002C00020D5016831F002010160DFF83C040168CB
:1002D000491C01600078C0070AD5DFF81C0481883A
:1002E00000684161DFF8140481880068416109E019
:1002F000DFF80404818800680161DFF80004818868
:1003000000680161704738B50400002072B62568A6
:10031000DFF8F8132940B1F1005F0DD1DFF8F003E9
:10032000211D09680160DFF8EC130068086020688F
:1003300080F30888086880470120DFF8C813086048
:100340000020DFF8D413086062B631BD80B5DFF855
:10035000B403017849060FD4DFF8BC1309682929D2
:100360000AD3DFF89C13098845F25552914203D114
:10037000016851F0800101600078000608D5DFF8BF
:100380007803818800680161DFF89003FFF7BBFF05
:1003900001BD70B5DFF888430721200001F081F925
:1003A00000280DD00721200001F089F900F06EFF30
:1003B00000F072FF00F0CAFF0021012000F0D7FF1B
:1003C000DFF86043200001F041FA00280BD0002143
:1003D000200000F04FF840F60C15002632002900EE
:1003E000200000F061FC70BD00200021DFF84833E0
:1003F0000022110089B2802908DA110089B253F86D
:10040000211011F1010F01D1521CF2E7110089B244
:10041000802901D101210800C0B27047F8B500243D
:10042000C24E002500270A22C449300001F03AFAE2
:1004300000281CD10A2005002800C0B2322810DA9A
:1004400030780700761C3800C0B2202803DB380063
:10045000C0B2802803DB3800C0B2002801D16D1C77
:10046000EAE72800C0B2322801D1012004002000B0
:10047000C0B2F2BD2DE9F14F84B00C0000208DF820
:1004800008000020ADF80A005FF000095FF0000AE4
:1004900040F60C1B04980090A94F3D005A46009965
:1004A000280001F033FA7888384401797888384494
:1004B00042794FF48070424352FA81F0ADF80A005D
:1004C0007988091F17F1080001F074FA0500B7F8E0
:1004D0000B00ADF80C00787B8DF80800994E0020D9
:1004E0007080DFF81C82BDF80C00B8F80410884258
:1004F00007D0BDF80C004FF6FF71884201D00020F4
:10050000F1E0BDF80A00290089B2884240F0D680A7
:100510009DF8080001287BD0022832D0032800F083
:10052000A980042805D005280AD0F72800F0B98052
:10053000C4E000207849086001F080FB7080BDE0D5
:100540007048007840061BD55FF0000800200021AD
:10055000FF7B724A3B00DBB212EB832991450FD33C
:100560007148016849450BD119F580610160484621
:1005700001F08EFC82465046C0B201F037FC70801C
:100580009CE060480078400641D50021002200230D
:10059000387A00283BD1F87B8DF80000D7F810801E
:1005A000D7F814905D48804531D3614919EB0800B4
:1005B0000A68904202D00868002828D1C1F800805B
:1005C000DFF838A1BAF80400DAF800104861DFF863
:1005D00028B1BBF80400DBF8001048614A4617F167
:1005E0001801404601F05FFC002806D04A4641460B
:1005F0009DF8000001F06CFB7080BAF80400DAF896
:1006000000100861BBF80400DBF80010086155E039
:1006100001F080FA7080708800280ED02000C0B2EF
:10062000012808D02000C0B2002804D17188301DF4
:1006300000F0B5FEFFE700207080324801684908ED
:1006400049000160016851F0400101604AF6AA20AA
:10065000A8F8000000F0CBFD00F0F6FD00F013FA62
:10066000324801F015FC2D482F4908600020304920
:10067000086023E0FFF7D2FE012811D101F094FABF
:1006800070802048016851F08001016045F25550AA
:10069000A8F8000000F0ABFD00F0D6FD00F0FCF97A
:1006A0000CE000200190002000903223214A9DF8A8
:1006B0000810301D01F0CEF97080FFE77088002827
:1006C00011D02000C0B2012808D02000C0B20028FC
:1006D00004D17188301D00F062FEFFE700207080B9
:1006E0000220FFF703FD05B0BDE8F08F0000000019
:1006F00000000202000230001C250008242500082A
:1007000078230020802300208C2300200000FE2F6F
:10071000942300209023002098230020004000080C
:1007200000380140140000208423002000500008FD
:1007300088230020DC23000800420008DC24000895
:10074000200900202C120020DFF8C812086850F0A1
:1007500001000860DFF8C0221368DFF8C002034020
:1007600013600B68DFF8B80203400B60086830F4D0
:1007700080200860106830F4FE0010605FF41F00F5
:10078000DFF8A01208607047DFF888120A6832F4B8
:1007900080320A600A6832F480220A600200B2F5F0
:1007A000803F03D0B2F5802F05D009E00A6852F4EB
:1007B00080320A6004E00A6852F4A0220A60FFE76F
:1007C000704738B50020009000240025312000F04B
:1007D000FDF805000098401C009000984FF6FF714E
:1007E000884203D02800C0B20028EFD0312000F0AA
:1007F000EDF8002801D0012000E00020C0B232BD99
:1008000030B40023844D2C6834F47C1451EA000287
:1008100014432C6030BC70470100C9B2824A116099
:10082000704700217C4B1A689208920002431A60BC
:1008300070477948006810F00C0070470021764B33
:100840001A6832F0F00202431A6070470021724BBE
:100850001A6832F4E06202431A60704700216E4B5E
:100860001A6832F4605252EAC0021A6070476F4947
:10087000086070470021684B1A6832F44042024316
:100880001A6070472DE9F04F01000022002500207A
:100890000026614FD7F800C01CF00C0C6346002BFB
:1008A00004D0042B05D0082B06D023E0614A0A604F
:1008B00022E0614A0A601FE03A6812F470123B6855
:1008C00013F480331800920C921C1500002804D1F8
:1008D0005A4A02FB05F20A600BE03A68920304D51B
:1008E000574A02FB05F20A6003E0534A02FB05F295
:1008F0000A6001E04F4A0A603C6814F0F0042409E1
:10090000DFF8409119F804E00A6832FA0EF24A6002
:100910003B6813F4E0631B0A19F803804A6832FA53
:1009200008F28A603A6812F46052D20A19F802900A
:10093000D1F804A03AFA09FAC1F80CA03F6817F4FC
:100940004047BF0BDFF800A11AF807A0D1F80CB0A0
:10095000BBFBFAFBC1F810B0BDE8F08F0A00D2B2C1
:10096000002A04D0394A13680343136003E0374A6E
:1009700013688343136070470A00D2B2002A04D080
:10098000334A13680343136003E0314A1368834317
:10099000136070470A00D2B2002A04D02D4A1368AF
:1009A0000343136003E02B4A1368834313607047CB
:1009B0000A00D2B2002A04D0274A13680343136006
:1009C00003E0254A136883431360704730B4010085
:1009D0000020002300250A00D2B25209D2B2012A17
:1009E00002D10C48046806E0022A02D110480468CB
:1009F00001E01A4804680B00DBB213F01F0320006B
:100A0000D840C00701D5012000E00020C0B230BCB2
:100A10007047000000100240041002400000FFF880
:100A2000FFFFF6FE0810024060004242D80042423A
:100A30002010024000127A00001BB70000093D00A0
:100A4000808D5B0000000020100000201810024084
:100A50001C1002400C1002401010024024100240F2
:100A60000021DFF840311A6812F0380202431A60A0
:100A70007047DFF830110A6832F010020A600A6825
:100A800002430A607047DFF82001DFF8201101609F
:100A9000DFF81C1101607047DFF81801016851F0A0
:100AA00080010160704770B5040004265FF0FF30DC
:100AB00000F086F805002800C0B204281AD1DFF83B
:100AC000F460306850F002003060DFF8EC00046041
:100AD000306850F0400030605FF0FF3000F070F898
:100AE00005002800C0B2052804D0316841F6FD7029
:100AF000014031602800C0B270BDF8B504000D009F
:100B00000427002000905FF0FF3000F059F8060045
:100B10003000C0B204282DD1DFF89870386850F04A
:100B20000100386025805FF0FF3000F049F80600D2
:100B30003000C0B2042814D1A01C00902800000C82
:100B4000009908805FF0FF3000F03AF806003000AE
:100B5000C0B205280ED0396841F6FE7001403960F8
:100B600008E03000C0B2052804D0396841F6FE70B4
:100B7000014039603000C0B2F2BD04210F48026864
:100B8000D20701D501200AE00268520701D50220F0
:100B900005E00068C00601D5032000E00420C0B2D3
:100BA00070470000002002400420024023016745F6
:100BB000AB89EFCD10200240142002400C200240EF
:100BC00070B504000425FFF7D8FF06003000C0B25E
:100BD000012806D1002C04D0FFF7CFFF0600641EC9
:100BE000F4E7002C01D1052006003000C0B270BD32
:100BF00025490143254A11607047F0B400220023C3
:100C00000F24C17800291FD02049096811F4E06140
:100C1000D1F5E061090AD1F104052B00CC404578FB
:100C20009D408678264035432D012A00184D0678D0
:100C3000AA550125067816F01F06B540154E07780F
:100C40007F1146F8275009E00121057815F01F05AE
:100C5000A940114D0678761145F82610F0BC704772
:100C60000E4A0A4002430E4B1A607047042805D111
:100C70000C490A6852F004020A6004E009490A6853
:100C800032F004020A6070470000FA050CED00E043
:100C900000E400E000E100E080E100E080FFFF1FF1
:100CA00008ED00E010E000E062F30F2262F31F4263
:100CB000401810F0030308D0C91A1FD3DB0748BF40
:100CC00000F8012D28BF20F8022D130030B414467F
:100CD0001546103928BF20E93C00FAD8490728BF3B
:100CE00020E90C0048BF40F8042D890028BF20F8F7
:100CF000022D48BF00F8012D30BC7047C91818BF3D
:100D000000F8012DCB0728BF00F8012D704730B443
:100D1000002513E050F8042BD30744BFA9F10103C9
:100D20009A18091F042942F8045BFAD213468C076B
:100D300044BF15809B1CC90748BF1D7050F8041B99
:100D40000029E7D130BC7047F0B500220023002411
:100D500000250026002791F803C01CF00F0C91F825
:100D600003E05FEACE6E02D58A7852EA0C0C0A786C
:100D700012062AD00268160000221400082C23D282
:100D80005FF0010E1EFA04F215000A882A401300D3
:100D9000AB4217D1A20015000F22AA401700BE4394
:100DA0001CFA05F21643CA78282A04D11EFA04FE5A
:100DB000C0F814E006E0CA78482A03D11EFA04FEFF
:100DC000C0F810E0641CD9E706600A88B2F5807F9D
:100DD0002EDB4268160000221400082C27D25FF098
:100DE000010E14F108021EFA02F215000A882A40C8
:100DF0001300AB4219D1A20015000F22AA40170020
:100E0000BE431CFA05F21643CA78282A04D114F10D
:100E100008021EFA02F24261CA78482A05D114F18A
:100E200008021EFA02FEC0F810E0641CD5E7466016
:100E3000F0BDF0B40022002300250027002802D5D1
:100E40001D4C246801E01D4C2468C0F3034586B2A4
:100E500010F4401CBCF5401F07D134F07064174AF1
:100E6000176837F07067176011E0C20206D50322D9
:100E7000AA4013009C4354F0706408E00200520D35
:100E8000D2B2120116FA02F2944354F070640A00CE
:100E9000D2B2002A06D00200520DD2B2120116FAC6
:100EA00002F21443002802D5034A146001E0034A09
:100EB0001460F0BC704700001C00014004000140B9
:100EC0001CB5042100226C462000FFF7EDFE032034
:100ED0008DF8020014208DF8030081488188ADF858
:100EE000001069460068FFF72FFF7E488188ADF843
:100EF000001069460068FFF727FF13BD002064213A
:100F00000800411E0028FBD1704743F233314843AB
:100F1000401C0100481E0029FBD1704710B5704CE1
:100F2000A088216808616F48818800680161FFF727
:100F3000E5FF20688068002801D1012000E0002042
:100F4000217911F00101084201D0002011E0A088B0
:100F500021684861FFF7D2FF20688068A1880842B5
:100F600001D0002005E0A08821684861FFF7C6FF96
:100F7000012010BD38B55B4CA08821684861FFF79F
:100F8000BDFF574DA88829684861FFF7B7FFA088C3
:100F900021680861FFF7B2FFA88829680861FFF798
:100FA000ADFF31BD10B54F4CA08821684861FFF7F7
:100FB000A5FF4B48818800684161FFF79FFFA0882B
:100FC00021680861FFF79AFFA08821684861FFF750
:100FD00095FF10BD10B5434CA08821684861FFF70C
:100FE0008DFF3F48818800680161FFF787FFA08877
:100FF00021680861FFF782FFA08821684861FFF738
:101000007DFF10BD38B5374CA08821684861FFF7D7
:1010100075FF334DA88829680861FFF76FFFA08826
:1010200021680861FFF76AFF28688068A98808427C
:1010300004D0A08821684861002003E0A0882168CE
:101040004861012032BD70B5040008252800451E06
:10105000C0B2002817D0234EB088316848612006FE
:1010600004D51F4881880068016103E01C4881881D
:1010700000684161FFF742FFB08831680861FFF7FF
:101080003DFF6400E2E7174881880068416170BD58
:10109000F8B508240025124EB08831680861200098
:1010A000441EC0B2002813D06D000E4FB8883968B6
:1010B0004861FFF723FFB88839680861FFF71EFF12
:1010C00030688068B1880842E9D055F00105E6E74C
:1010D00004488188006841612800C0B2F2BD000068
:1010E000F4240008FC2400082DE9FE430025002616
:1010F000082100226C462000FFF7D6FD0027DFF80C
:1011000094412200082147F6F87000F011FF050015
:101110002800C0B2002814D05FF000085FF000097A
:101120000621200000F046FCE18802000B0092B28C
:101130009BB29A4202D00022150001E00122150064
:1011400007E03220FFF7E1FE7F1C3800C0B2032821
:10115000D5DB5FF000086A4608214FF4FC4000F040
:10116000E7FE06003000C0B2002814D000275FF070
:1011700000090621684600F01DFCBDF806100200BB
:101180000B0092B29BB29A4202D00022160001E0FC
:101190000122160008E03220FFF7B7FE18F101081F
:1011A0004046C0B20328D6DB55EA0600C0B200288C
:1011B00007D14AF6AA20208000F019F800F044F880
:1011C00013E03000C0B2002802D100F03DF80CE07E
:1011D0002800C0B2002808D10827E9463A0049464D
:1011E000200000F093FB00F002F8BDE8F78370B533
:1011F00000240025274E0020F0800621300000F05A
:10120000D9FBF0803200082147F6F87000F057FF54
:1012100004002000C0B2002806D0320008214FF49C
:10122000FC4000F04CFF04002000C0B2002808D1B0
:101230003220FFF76AFE6D1C2800C0B20328E1DBF4
:10124000FFE72000C0B270BD70B500240025114E2C
:101250000020F0800621300000F0ACFBF08032006E
:1012600008214FF4FC4000F02AFF04002000C0B227
:10127000002808D13220FFF748FE6D1C2800C0B2BC
:101280000328ECDBFFE72000C0B270BD5FF4E13063
:10129000704700007823002078B585B00400042151
:1012A00000226D462800FFF7FFFC1021002201AD4F
:1012B0002800FFF7F9FC10208DF8030003208DF8BB
:1012C0000200474D280000F0E7F846488188ADF855
:1012D000001003218DF8021018218DF803106946C3
:1012E0000068FFF731FD40488188ADF80010042107
:1012F0008DF8031069460068FFF726FD3B4EB08865
:10130000ADF8000010208DF8030069463068FFF743
:101310001BFDB0883168486101940020ADF80800D9
:101320000020ADF80A000020ADF80C000020ADF858
:1013300010000C20ADF80E0001A9280000F0F4F810
:101340000121280000F066F906B070BD80B52520A7
:101350008DF8000001208DF8010000208DF80200BA
:1013600001208DF803006846FFF747FC01BD70B50A
:1013700004000D001A4E40F22771300000F0DCF935
:101380002200D2B240F22551300000F052F92A007A
:10139000D2B240F22661300000F04BF970BD30B49B
:1013A0000024124A938815682B6100231C000D004D
:1013B000A4B2ADB2AC420AD21C00A4B2045D0C4D82
:1013C0002C80074C24882406FBD55B1CEEE7044CDC
:1013D00024886406FBD594881268546130BC704739
:1013E00000380140042500080C25000814250008D9
:1013F0000438014010B4020052B2002A05D40A0198
:101400001D4B040064B21A5508E00A011B4B04008E
:1014100064B214F00F04234403F8042C10BC70478A
:1014200010B50400601EB0F1807F01D301200EE0F2
:10143000601E134908600F215FF0FF30FFF7DAFFED
:1014400000201049086007200F490860002010BDE7
:1014500080B50420FFF70AFC0C48FFF7E1FF0020ED
:101460000B49086000200B4908600F215FF0FF3036
:10147000FFF7C0FF01BD000000E400E018ED00E050
:1014800014E000E018E000E010E000E0407E05001D
:10149000982300209C23002010B504005848844263
:1014A0000AD101214FF48040FFF774FA00214FF474
:1014B0008040FFF76FFA36E0524884420AD101219A
:1014C0005FF40030FFF774FA00215FF40030FFF79B
:1014D0006FFA28E04C4884420AD101215FF4802051
:1014E000FFF766FA00215FF48020FFF761FA1AE047
:1014F000464884420AD101215FF40020FFF758FAE0
:1015000000215FF40020FFF753FA0CE040488442CA
:1015100009D101215FF48010FFF74AFA00215FF43E
:101520008010FFF745FA10BD2DE9F84F86B0040092
:101530000D00002600275FF000085FF000095FF053
:10154000000AA8890028A346218A4CF6FF700140B2
:10155000E8880143009100982082A1894EF6F3109B
:101560000140AA88288902436889024311430091F7
:101570000098A081A18A4FF6FF400140A88901434D
:1015800000910098A08201A8FFF77CF91C488345D0
:1015900001D1049900E00399A089000407D519201E
:1015A00000FB01F02A685200B0FBF2F206E01920BD
:1015B00000FB01F02A689200B0FBF2F26420B2FB5B
:1015C000F0F6360133001B09642000FB1323A089C9
:1015D000000408D5D80032306427B0FBF7F010F0D3
:1015E0000700064307E0180132306427B0FBF7F02C
:1015F00010F00F000643268107B0BDE8F08F000011
:10160000003801400044004000480040004C0040C9
:10161000005000400A00D2B2002A04D0828952F45D
:101620000052828104E083894DF6FF72134083816A
:1016300070472DE9F0410023002500275FF0000EE0
:101640000C0040F66A16A4B2B44280460C00E4B224
:101650006409E4B20E00B6B216F01F065FF0010C8A
:101660001CFA06FC012C02D118F10C0806E0022C31
:1016700002D118F1100801E018F114081300DBB2D0
:10168000002B06D0D8F800305CEA0303C8F800301D
:1016900005E0D8F8003033EA0C03C8F80030BDE8A4
:1016A000F08102000023080080B2B0F5007F1088AE
:1016B000084201D0012000E00020C0B270470A00BB
:1016C00092B292050A0092B2D24302807047F0B4FF
:1016D000040000270020002200260B0040F66A15B7
:1016E0009BB2AB420D00EDB26D09EDB20B009BB2A7
:1016F00013F01F035FF0010C1CFA03F3012D02D15C
:10170000A089034006E0022D02D1208A034001E0B7
:10171000A08A03400A0092B2120A92B21CFA02F2A4
:1017200020880240002B03D0002A01D0012000E0D5
:101730000020C0B2F0BC704770B4002200240B003F
:1017400040F66A159BB2AB420B009BB21B0A012507
:101750009D402E00B6B2F643068070BC70470A78F2
:10176000002A06D0812A0DD0822A1ED0842A3DD09C
:1017700068E00200D2B27E2A03D181220A707E2262
:101780008A715FE00200D2B2552A04D182220A7027
:101790005522CA7108E00200D2B27E2A02D181220B
:1017A0000A7001E000220A704CE00200D2B2082A5E
:1017B0000DDB0200D2B2F12A09DA84220A7002009B
:1017C000D2B2D21C8A80087203224A800DE0020045
:1017D000D2B2002A07D184220A7014228A800872A9
:1017E00003224A8001E000220A702BE00A7A002AD4
:1017F0001CD14A880E2A04D18A8852FA80F28A8043
:1018000014E04A880F2A06D18A880300DBB21B0243
:101810009A188A800AE04A88102A02D18A888A8027
:1018200004E04A88112A01D18A888A804A88531C98
:101830004B8092B20A4490714A888B889A4201D3B5
:1018400006220A700022C1F8082970470100002012
:101850000A78052A08D14A88092A02DB01221000E9
:1018600007E000220A7004E00A78062A01D101226A
:101870001000C0B2704730B40EE002684368024402
:101880000830DC0744BFA9F10104E31852F8045BF7
:1018900043F8045B091FF9D150F8041B0029ECD16F
:1018A00030BC70470300002013F0030F09D0521E14
:1018B00022BF13F8010B11F801CBB0EB0C00F3D0F1
:1018C000704711F0030F14D1121F22BF53F8040BFD
:1018D00051F804CB6045F7D0121D0AD200BA9CFA29
:1018E0008CFCB0EB0C0038BF6FF0000088BF01200B
:1018F0007047521E22BF13F8010B11F801CBB0EB59
:101900000C00F6D0521C08BF1046704762B38B071C
:1019100008D0521E11F8013B00F8013B00F0248072
:101920008B07F6D1830740F0208000BF103A07D321
:1019300030B4B1E83810103AA0E83810F9D230BC11
:10194000530724BFB1E80810A0E8081044BF51F8BD
:10195000043B40F8043BD20724BF31F8022B20F8A7
:10196000022B44BF0B7803707047121F17D35B0024
:1019700009D151F8043B20F8023B1B0C121F20F840
:10198000023BF6D20BE051F8043B00F8013B1B0A86
:1019900020F8023B1B0C121F00F8013BF3D238BFAA
:1019A000121D521E24BF11F8013B00F8013BF8D86C
:1019B0007047000070B403000022002400264FF698
:1019C000FF7000258D4214D25A5D5040002216004F
:1019D000082E0CD2C20706D580B2020048F2084099
:1019E00090EA520001E080B24008761CF0E76D1CDE
:1019F000E8E780B2C04380B270BC704770B40300A7
:101A00000022002600244FF6FF7000252A000E0059
:101A100092B2B6B2B24218D22A0092B29A5C504048
:101A200000221400220092B2082A0CDAC20706D55E
:101A300080B2020048F2084090EA520001E080B211
:101A40004008641CEEE76D1CE0E780B2C04380B242
:101A500070BC70472DE9F74F82B0070098460E9C86
:101A60000F9D00260020ADF804007E20B855761C9E
:101A70005520B855761C18F10B00B855761C01207E
:101A8000B855761C0020B855761C0020B855761C39
:101A90000020B855761C1F20B855761C9DF80C0008
:101AA000B855761C0020B855761C2000C0B200281E
:101AB0000CD1C1465FFA89F90498009007EB060A39
:101AC0004A4600995046FFF721FF0BE0C1465FFAF6
:101AD00089F95FF0000A07EB060B52464946584663
:101AE000FFF7E2F856FA88F6BC55761CBD55761C11
:101AF000B878411E89B2B81CFFF780FF0100B955C4
:101B0000761C080080B2000AB855761C300005B07B
:101B1000BDE8F08F70B500260024DC4D7E2005EB7B
:101B200006010871761C552005EB06010871761C2C
:101B3000092005EB06010871761C012005EB060162
:101B40000871761C002005EB06010871761C002048
:101B500005EB06010871761C002005EB06010871F3
:101B6000761C1F2005EB06010871761C012005EB91
:101B700006010871761C002005EB06010871761C31
:101B8000A879411E89B2A81DFFF738FF010005EBB7
:101B900006000171761C080080B2000A05EB0602FF
:101BA0001071761C300070BD70B500260024B74D52
:101BB0007E2005EB06010871761C552005EB060119
:101BC0000871761C092005EB06010871761C0120BE
:101BD00005EB06010871761C002005EB0601087173
:101BE000761C002005EB06010871761C002005EB31
:101BF00006010871761C1F2005EB06010871761C92
:101C0000032005EB06010871761C002005EB060198
:101C10000871761CA879411E89B2A81DFFF7EEFE57
:101C2000010005EB06000171761C080080B2000A75
:101C300005EB06021071761C300070BD70B50026F1
:101C40000024924D7E2005EB06010871761C55207C
:101C500005EB06010871761C092005EB06010871E9
:101C6000761C012005EB06010871761C002005EBAF
:101C700006010871761C002005EB06010871761C30
:101C8000002005EB06010871761C1F2005EB0601FC
:101C90000871761C042005EB06010871761C0020F3
:101CA00005EB06010871761CA879411E89B2A81DB2
:101CB000FFF7A4FE010005EB06000171761C080089
:101CC00080B2000A05EB06021071761C300070BD70
:101CD0002DE9F84304000D00160000275FF000080E
:101CE000DFF8A8917E2009EB070108717F1C5520C1
:101CF00009EB070108717F1C002009EB070108713F
:101D00007F1C012009EB070108717F1C002009EBF3
:101D1000070108717F1C002009EB070108717F1C77
:101D2000002009EB070108717F1C1F2009EB070148
:101D300008717F1C022009EB070108717F1C00203D
:101D400009EB070108717F1C09EB070004717F1C78
:101D500009EB070005717F1C2800000A09EB070149
:101D600008717F1C2800000C09EB070108717F1C1B
:101D70002800000E09EB070108717F1C09EB070022
:101D800006717F1C3000000A09EB070108717F1CF7
:101D90003000000C09EB070108717F1C3000000EB9
:101DA00009EB070108717F1C2000C0B2002807D092
:101DB000320009EB0700011D280000F09AF8F7191E
:101DC0003800811E89B219F10600FFF717FE0100E5
:101DD00009EB070001717F1C080080B2000A09EBC3
:101DE000070210717F1C3800BDE8F283F8B50400CB
:101DF00000270025254E7E2006EB070108717F1C79
:101E0000552006EB070108717F1C0A2006EB07012D
:101E100008717F1C012006EB070108717F1C002060
:101E200006EB070108717F1C002006EB0701087113
:101E30007F1C002006EB070108717F1C1F2006EBAA
:101E4000070108717F1C052006EB070108717F1C44
:101E5000002006EB070108717F1C06EB07000471E8
:101E60007F1CB079411E89B2B01DFFF7C7FD01008C
:101E700006EB070001717F1C080080B2000A06EB28
:101E8000070210717F1C3800F2BD00002C120020E8
:101E900010B504002000FEF706FE042801D1012041
:101EA00000E0002010BD2DE9F04704000D001600F1
:101EB0000020002101275FF00108A9465FF0000A19
:101EC000B24512D25046800859F820101AEB04008F
:101ED000FEF713FE07003800C0B2042802D000202D
:101EE000804602E01AF1040AEAE74046C0B2BDE8C3
:101EF000F0872DE9F84F04000D00160000275FF071
:101F000000085FF000095FF0010A0094AB46FEF79D
:101F1000BAFD0021B1EB960F06D2009850F82100CF
:101F20004BF82100491CF5E75046C0B2BDE8F28FDE
:101F30002DE9F04104000D0016005FF001080027B4
:101F4000280080B2002860D0FEF7E8FF002801D109
:101F5000002080464046C0B2002808D0A020FFF7ED
:101F600072F8FFF74FF8002801D100208046404664
:101F7000C0B2002808D0200080B2000AC0B2FFF72B
:101F800062F8FFF73FF880464046C0B2002806D00E
:101F90002000C0B2FFF757F8FFF734F880464046FC
:101FA000C0B2002805D0FEF7B9FF002801D10020FB
:101FB00080464046C0B2002808D0A120FFF743F871
:101FC000FFF720F8002801D1002080466D1E404612
:101FD000C0B2002817D0002007003800290080B2C6
:101FE00089B2884208D2FFF753F8390089B2705499
:101FF000FEF7D8FF7F1CF0E7FFF74AF8390089B2F7
:102000007054FEF7E7FFFEF7B5FF4046C0B2BDE8EB
:10201000F0812DE9F04104000D00160000275FF06B
:102020000108280080B2002842D0FEF777FF002880
:1020300001D1002080464046C0B2002808D0A02030
:10204000FFF701F8FEF7DEFF002801D100208046EF
:102050004046C0B2002808D0200080B2000AC0B2BA
:10206000FEF7F1FFFEF7CEFF80464046C0B20028E3
:1020700006D02000C0B2FEF7E6FFFEF7C3FF8046A1
:10208000002007003800290080B289B288420DD2B2
:102090004046C0B2002807D0380080B2305CFEF75E
:1020A000D2FFFEF7AFFF80467F1CEBE7FEF762FF33
:1020B0000520FEF72AFF4046C0B2BDE8F0812DE9B9
:1020C000F04704000D00160000275FF000085FF0E5
:1020D000000A200010F01F0F1BD014F01F00D0F1D9
:1020E000200007002800390080B289B2884200D25F
:1020F0002F00404680B206EB0002390089B218EB8F
:10210000040080B2FFF785FF8146ED1B17EB08083E
:1021100001E05FF001094846C0B200281FD0280046
:1021200080B200281BD0202007002800390080B290
:1021300089B2884200D22F00404680B206EB0002EE
:10214000390089B218EB040080B2FFF762FF8146C4
:10215000ED1B17EB08084846C0B20028DFD14846FF
:10216000C0B2BDE8F08700000A00D2B2002A02D156
:102170002022C26001E02022026170470200002399
:102180000800C0B2002803D1D06810F0030008E0B6
:102190000800C0B2012803D1106910F0030000E06C
:1021A0000020C0B2704770B504000E00150030006A
:1021B000C0B200012044D0F8B00110F00400287231
:1021C000287A002808D13000C0B200012044D0F89D
:1021D000B001400D286007E03000C0B2000120448B
:1021E000D0F8B001C00868603000C0B200012044DF
:1021F000D0F8B00110F0020068723000C0B20001E7
:102200002044D0F8B40110F00F00A8723000C0B222
:1022100000012044D0F8B401000AE8743000C0B2D4
:1022200000012044D0F8B801E8723000C0B20001CB
:102230002044D0F8B801000A28733000C0B2000171
:102240002044D0F8B801000C68733000C0B200011F
:102250002044D0F8B801000EA8733000C0B20001CD
:102260002044D0F8BC01E8733000C0B20001204423
:10227000D0F8BC01000A28743000C0B2000120442C
:10228000D0F8BC01000C68743000C0B200012044DA
:10229000D0F8BC01000EA8743100C9B22000FFF7CD
:1022A00063FF70BD7047FEE7FEE7FEE7FEE770479D
:1022B000704770472C480168491C016000680B2179
:1022C000B0FBF1F201FB1200002804D1274801689D
:1022D00051F0020101602648017809060AD5D0F8BC
:1022E0000819491DC0F80819D0F80819642901D344
:1022F00005210170704770B51E4C40F2255529002C
:102300002000FFF7E4F900280CD000262900200067
:10231000FFF712FA1848058815492800C0B2FFF7E0
:102320001EFA0AE04FF458712000FFF7D0F9002898
:1023300003D011480088C005C00D208810F47C40EF
:10234000208070BD10B50D4C00212000FFF716FF56
:10235000002807D00A4A00212000FFF724FF0120AF
:102360000849087010BD0000982300208023002039
:10237000140000200038014004380140006400408F
:1023800064230020301B002080B50E49086850F0FF
:10239000010008600C4A13680C48034013600B6886
:1023A0000B4803400B60086830F480200860106818
:1023B00030F4FE0010605FF41F000649086000F072
:1023C0000BF801BD00100240041002400000FFF8AD
:1023D000FFFFF6FE0810024070470000426F6F7466
:1023E0002056332E305F3230303330363031204794
:1023F00044333246317878000000000000000000CD
:1024000000000000000000000000000000000000CC
:1024100010B5074979441831064C7C44163404E061
:102420000A68081D114488470146A142F8D110BD31
:102430000800000028000000D7E8FFFF8C23000000
:1024400014000020000000002FF4FFFF1400000023
:1024500068000000000000200000000000F00DF8FF
:10246000002801D0FFF7D4FFAFF300800020AFF3C6
:10247000008000F004F800F00CF80120704780B5EF
:10248000FDF7B6FEFDF718FFFDF783FFFDF75EFFD2
:10249000F8E700F001B800000746384600F002F8FF
:1024A000FBE7000080B5AFF30080024A110018205E
:1024B000ABBEFBE72600020000000000010203049F
:1024C00001020304060708090204060801488047C0
:1024D0000148004789230008E9240008525033349A
:1024E00032335F4D42200000AFF30080AFF3008035
:1024F000FFF7B4FF000C014080000000000C014019
:1025000040000000000801400002000000080140F7
:10251000000400000008014008000000000C014019
:1025200001000000000C014002000000FFF7FEBFA8
:10253000FFF7FEBFFFF7FEBFFFF7FEBFFFF7FEBFCF
:10254000FFF7FEBFFFF7FEBFFFF7FEBFFFF7FEBFBF
:10255000FFF7FEBFFFF7FEBFFFF7FEBFFFF7FEBFAF
:10256000FFF7FEBFFFF7FEBFFFF7FEBFFFF7FEBF9F
:10257000FFF7FEBFFFF7FEBFFFF7FEBFFFF7FEBF8F
:10258000FFF7FEBFFFF7FEBFFFF7FEBFFFF7FEBF7F
:10259000FFF7FEBFFFF7FEBFFFF7FEBFFFF7FEBF6F
:1025A000FFF7FEBFFFF7FEBFFFF7FEBFFFF7FEBF5F
:1025B000FFF7FEBFFFF7FEBFFFF7FEBFFFF7FEBF4F
:1025C000FFF7FEBFFFF7FEBFFFF7FEBFFFF7FEBF3F
:04000005080024E9E2
:00000001FF
